{
  "_format": "hh-sol-artifact-1",
  "contractName": "BummyCheering",
  "sourceName": "contracts/BummyCheering.sol",
  "abi": [
    {
      "anonymous": false,
      "inputs": [
        {
          "indexed": true,
          "internalType": "address",
          "name": "owner",
          "type": "address"
        },
        {
          "indexed": true,
          "internalType": "address",
          "name": "approved",
          "type": "address"
        },
        {
          "indexed": true,
          "internalType": "uint256",
          "name": "tokenId",
          "type": "uint256"
        }
      ],
      "name": "Approval",
      "type": "event"
    },
    {
      "anonymous": false,
      "inputs": [
        {
          "indexed": true,
          "internalType": "address",
          "name": "owner",
          "type": "address"
        },
        {
          "indexed": true,
          "internalType": "address",
          "name": "operator",
          "type": "address"
        },
        {
          "indexed": false,
          "internalType": "bool",
          "name": "approved",
          "type": "bool"
        }
      ],
      "name": "ApprovalForAll",
      "type": "event"
    },
    {
      "anonymous": false,
      "inputs": [
        {
          "indexed": false,
          "internalType": "address",
          "name": "owner",
          "type": "address"
        },
        {
          "indexed": false,
          "internalType": "uint256",
          "name": "momId",
          "type": "uint256"
        },
        {
          "indexed": false,
          "internalType": "uint256",
          "name": "dadId",
          "type": "uint256"
        }
      ],
      "name": "Cheering",
      "type": "event"
    },
    {
      "anonymous": false,
      "inputs": [
        {
          "indexed": true,
          "internalType": "address",
          "name": "owner",
          "type": "address"
        },
        {
          "indexed": false,
          "internalType": "uint256",
          "name": "bummyId",
          "type": "uint256"
        },
        {
          "indexed": false,
          "internalType": "uint256",
          "name": "momId",
          "type": "uint256"
        },
        {
          "indexed": false,
          "internalType": "uint256",
          "name": "dadId",
          "type": "uint256"
        },
        {
          "indexed": false,
          "internalType": "uint256",
          "name": "genes",
          "type": "uint256"
        }
      ],
      "name": "Invite",
      "type": "event"
    },
    {
      "anonymous": false,
      "inputs": [
        {
          "indexed": false,
          "internalType": "address",
          "name": "account",
          "type": "address"
        }
      ],
      "name": "Paused",
      "type": "event"
    },
    {
      "anonymous": false,
      "inputs": [
        {
          "indexed": true,
          "internalType": "address",
          "name": "from",
          "type": "address"
        },
        {
          "indexed": true,
          "internalType": "address",
          "name": "to",
          "type": "address"
        },
        {
          "indexed": true,
          "internalType": "uint256",
          "name": "tokenId",
          "type": "uint256"
        }
      ],
      "name": "Transfer",
      "type": "event"
    },
    {
      "anonymous": false,
      "inputs": [
        {
          "indexed": false,
          "internalType": "address",
          "name": "account",
          "type": "address"
        }
      ],
      "name": "Unpaused",
      "type": "event"
    },
    {
      "inputs": [
        {
          "internalType": "address",
          "name": "to",
          "type": "address"
        },
        {
          "internalType": "uint256",
          "name": "tokenId",
          "type": "uint256"
        }
      ],
      "name": "approve",
      "outputs": [],
      "stateMutability": "nonpayable",
      "type": "function"
    },
    {
      "inputs": [
        {
          "internalType": "address",
          "name": "_addr",
          "type": "address"
        },
        {
          "internalType": "uint256",
          "name": "_dadId",
          "type": "uint256"
        }
      ],
      "name": "approveCheering",
      "outputs": [],
      "stateMutability": "nonpayable",
      "type": "function"
    },
    {
      "inputs": [
        {
          "internalType": "address",
          "name": "owner",
          "type": "address"
        }
      ],
      "name": "balanceOf",
      "outputs": [
        {
          "internalType": "uint256",
          "name": "",
          "type": "uint256"
        }
      ],
      "stateMutability": "view",
      "type": "function"
    },
    {
      "inputs": [
        {
          "internalType": "uint256",
          "name": "",
          "type": "uint256"
        }
      ],
      "name": "bummies",
      "outputs": [
        {
          "internalType": "uint256",
          "name": "genes",
          "type": "uint256"
        },
        {
          "internalType": "uint64",
          "name": "birthTime",
          "type": "uint64"
        },
        {
          "internalType": "uint64",
          "name": "cooldownEndTime",
          "type": "uint64"
        },
        {
          "internalType": "uint32",
          "name": "MomId",
          "type": "uint32"
        },
        {
          "internalType": "uint32",
          "name": "DadId",
          "type": "uint32"
        },
        {
          "internalType": "uint32",
          "name": "cheeringWithId",
          "type": "uint32"
        },
        {
          "internalType": "uint8",
          "name": "cooldownIndex",
          "type": "uint8"
        },
        {
          "internalType": "uint8",
          "name": "children",
          "type": "uint8"
        },
        {
          "internalType": "uint16",
          "name": "generation",
          "type": "uint16"
        }
      ],
      "stateMutability": "view",
      "type": "function"
    },
    {
      "inputs": [
        {
          "internalType": "uint256",
          "name": "_momId",
          "type": "uint256"
        },
        {
          "internalType": "uint256",
          "name": "_dadId",
          "type": "uint256"
        }
      ],
      "name": "canCheerWith",
      "outputs": [
        {
          "internalType": "bool",
          "name": "",
          "type": "bool"
        }
      ],
      "stateMutability": "view",
      "type": "function"
    },
    {
      "inputs": [],
      "name": "ceoAddress",
      "outputs": [
        {
          "internalType": "address",
          "name": "",
          "type": "address"
        }
      ],
      "stateMutability": "view",
      "type": "function"
    },
    {
      "inputs": [
        {
          "internalType": "uint256",
          "name": "",
          "type": "uint256"
        }
      ],
      "name": "cheerAllowedToAddress",
      "outputs": [
        {
          "internalType": "address",
          "name": "",
          "type": "address"
        }
      ],
      "stateMutability": "view",
      "type": "function"
    },
    {
      "inputs": [
        {
          "internalType": "uint256",
          "name": "_momId",
          "type": "uint256"
        },
        {
          "internalType": "uint256",
          "name": "_dadId",
          "type": "uint256"
        }
      ],
      "name": "cheerWith",
      "outputs": [],
      "stateMutability": "nonpayable",
      "type": "function"
    },
    {
      "inputs": [],
      "name": "cooAddress",
      "outputs": [
        {
          "internalType": "address",
          "name": "",
          "type": "address"
        }
      ],
      "stateMutability": "view",
      "type": "function"
    },
    {
      "inputs": [
        {
          "internalType": "uint256",
          "name": "",
          "type": "uint256"
        }
      ],
      "name": "cooldowns",
      "outputs": [
        {
          "internalType": "uint32",
          "name": "",
          "type": "uint32"
        }
      ],
      "stateMutability": "view",
      "type": "function"
    },
    {
      "inputs": [
        {
          "internalType": "uint256",
          "name": "tokenId",
          "type": "uint256"
        }
      ],
      "name": "getApproved",
      "outputs": [
        {
          "internalType": "address",
          "name": "",
          "type": "address"
        }
      ],
      "stateMutability": "view",
      "type": "function"
    },
    {
      "inputs": [
        {
          "internalType": "uint256",
          "name": "_momId",
          "type": "uint256"
        }
      ],
      "name": "inviteFriend",
      "outputs": [
        {
          "internalType": "uint256",
          "name": "",
          "type": "uint256"
        }
      ],
      "stateMutability": "nonpayable",
      "type": "function"
    },
    {
      "inputs": [
        {
          "internalType": "address",
          "name": "owner",
          "type": "address"
        },
        {
          "internalType": "address",
          "name": "operator",
          "type": "address"
        }
      ],
      "name": "isApprovedForAll",
      "outputs": [
        {
          "internalType": "bool",
          "name": "",
          "type": "bool"
        }
      ],
      "stateMutability": "view",
      "type": "function"
    },
    {
      "inputs": [
        {
          "internalType": "uint256",
          "name": "_bummyId",
          "type": "uint256"
        }
      ],
      "name": "isReadyToCheer",
      "outputs": [
        {
          "internalType": "bool",
          "name": "",
          "type": "bool"
        }
      ],
      "stateMutability": "view",
      "type": "function"
    },
    {
      "inputs": [],
      "name": "name",
      "outputs": [
        {
          "internalType": "string",
          "name": "",
          "type": "string"
        }
      ],
      "stateMutability": "view",
      "type": "function"
    },
    {
      "inputs": [
        {
          "internalType": "uint256",
          "name": "tokenId",
          "type": "uint256"
        }
      ],
      "name": "ownerOf",
      "outputs": [
        {
          "internalType": "address",
          "name": "",
          "type": "address"
        }
      ],
      "stateMutability": "view",
      "type": "function"
    },
    {
      "inputs": [],
      "name": "pause",
      "outputs": [],
      "stateMutability": "nonpayable",
      "type": "function"
    },
    {
      "inputs": [],
      "name": "paused",
      "outputs": [
        {
          "internalType": "bool",
          "name": "",
          "type": "bool"
        }
      ],
      "stateMutability": "view",
      "type": "function"
    },
    {
      "inputs": [
        {
          "internalType": "address",
          "name": "from",
          "type": "address"
        },
        {
          "internalType": "address",
          "name": "to",
          "type": "address"
        },
        {
          "internalType": "uint256",
          "name": "tokenId",
          "type": "uint256"
        }
      ],
      "name": "safeTransferFrom",
      "outputs": [],
      "stateMutability": "nonpayable",
      "type": "function"
    },
    {
      "inputs": [
        {
          "internalType": "address",
          "name": "from",
          "type": "address"
        },
        {
          "internalType": "address",
          "name": "to",
          "type": "address"
        },
        {
          "internalType": "uint256",
          "name": "tokenId",
          "type": "uint256"
        },
        {
          "internalType": "bytes",
          "name": "data",
          "type": "bytes"
        }
      ],
      "name": "safeTransferFrom",
      "outputs": [],
      "stateMutability": "nonpayable",
      "type": "function"
    },
    {
      "inputs": [
        {
          "internalType": "address",
          "name": "operator",
          "type": "address"
        },
        {
          "internalType": "bool",
          "name": "approved",
          "type": "bool"
        }
      ],
      "name": "setApprovalForAll",
      "outputs": [],
      "stateMutability": "nonpayable",
      "type": "function"
    },
    {
      "inputs": [
        {
          "internalType": "address",
          "name": "_newCEO",
          "type": "address"
        }
      ],
      "name": "setCEO",
      "outputs": [],
      "stateMutability": "nonpayable",
      "type": "function"
    },
    {
      "inputs": [
        {
          "internalType": "address",
          "name": "_newCOO",
          "type": "address"
        }
      ],
      "name": "setCOO",
      "outputs": [],
      "stateMutability": "nonpayable",
      "type": "function"
    },
    {
      "inputs": [
        {
          "internalType": "bytes4",
          "name": "interfaceId",
          "type": "bytes4"
        }
      ],
      "name": "supportsInterface",
      "outputs": [
        {
          "internalType": "bool",
          "name": "",
          "type": "bool"
        }
      ],
      "stateMutability": "view",
      "type": "function"
    },
    {
      "inputs": [],
      "name": "symbol",
      "outputs": [
        {
          "internalType": "string",
          "name": "",
          "type": "string"
        }
      ],
      "stateMutability": "view",
      "type": "function"
    },
    {
      "inputs": [
        {
          "internalType": "uint256",
          "name": "index",
          "type": "uint256"
        }
      ],
      "name": "tokenByIndex",
      "outputs": [
        {
          "internalType": "uint256",
          "name": "",
          "type": "uint256"
        }
      ],
      "stateMutability": "view",
      "type": "function"
    },
    {
      "inputs": [
        {
          "internalType": "address",
          "name": "owner",
          "type": "address"
        },
        {
          "internalType": "uint256",
          "name": "index",
          "type": "uint256"
        }
      ],
      "name": "tokenOfOwnerByIndex",
      "outputs": [
        {
          "internalType": "uint256",
          "name": "",
          "type": "uint256"
        }
      ],
      "stateMutability": "view",
      "type": "function"
    },
    {
      "inputs": [
        {
          "internalType": "uint256",
          "name": "tokenId",
          "type": "uint256"
        }
      ],
      "name": "tokenURI",
      "outputs": [
        {
          "internalType": "string",
          "name": "",
          "type": "string"
        }
      ],
      "stateMutability": "view",
      "type": "function"
    },
    {
      "inputs": [],
      "name": "totalSupply",
      "outputs": [
        {
          "internalType": "uint256",
          "name": "",
          "type": "uint256"
        }
      ],
      "stateMutability": "view",
      "type": "function"
    },
    {
      "inputs": [
        {
          "internalType": "address",
          "name": "from",
          "type": "address"
        },
        {
          "internalType": "address",
          "name": "to",
          "type": "address"
        },
        {
          "internalType": "uint256",
          "name": "tokenId",
          "type": "uint256"
        }
      ],
      "name": "transferFrom",
      "outputs": [],
      "stateMutability": "nonpayable",
      "type": "function"
    },
    {
      "inputs": [],
      "name": "unpause",
      "outputs": [],
      "stateMutability": "nonpayable",
      "type": "function"
    }
  ],
  "bytecode": "0x6080604052604051806101000160405280603c63ffffffff1663ffffffff168152602001607863ffffffff1663ffffffff16815260200161012c63ffffffff1663ffffffff16815260200161025863ffffffff1663ffffffff16815260200161070863ffffffff1663ffffffff168152602001610e1063ffffffff1663ffffffff168152602001611c2063ffffffff1663ffffffff16815260200161384063ffffffff1663ffffffff16815250600c906008620000be9291906200017f565b50348015620000cc57600080fd5b506040518060400160405280600881526020017f42756d6d794e46540000000000000000000000000000000000000000000000008152506040518060400160405280600281526020017f425600000000000000000000000000000000000000000000000000000000000081525060008060006101000a81548160ff0219169083151502179055508160029081620001649190620004c2565b508060039081620001769190620004c2565b505050620005a9565b826008600701600890048101928215620002165791602002820160005b83821115620001e257835183826101000a81548163ffffffff021916908363ffffffff16021790555092602001926004016020816003010492830192600103026200019c565b8015620002145782816101000a81549063ffffffff0219169055600401602081600301049283019260010302620001e2565b505b50905062000225919062000229565b5090565b5b80821115620002445760008160009055506001016200022a565b5090565b600081519050919050565b7f4e487b7100000000000000000000000000000000000000000000000000000000600052604160045260246000fd5b7f4e487b7100000000000000000000000000000000000000000000000000000000600052602260045260246000fd5b60006002820490506001821680620002ca57607f821691505b602082108103620002e057620002df62000282565b5b50919050565b60008190508160005260206000209050919050565b60006020601f8301049050919050565b600082821b905092915050565b6000600883026200034a7fffffffffffffffffffffffffffffffffffffffffffffffffffffffffffffffff826200030b565b6200035686836200030b565b95508019841693508086168417925050509392505050565b6000819050919050565b6000819050919050565b6000620003a36200039d62000397846200036e565b62000378565b6200036e565b9050919050565b6000819050919050565b620003bf8362000382565b620003d7620003ce82620003aa565b84845462000318565b825550505050565b600090565b620003ee620003df565b620003fb818484620003b4565b505050565b5b81811015620004235762000417600082620003e4565b60018101905062000401565b5050565b601f82111562000472576200043c81620002e6565b6200044784620002fb565b8101602085101562000457578190505b6200046f6200046685620002fb565b83018262000400565b50505b505050565b600082821c905092915050565b6000620004976000198460080262000477565b1980831691505092915050565b6000620004b2838362000484565b9150826002028217905092915050565b620004cd8262000248565b67ffffffffffffffff811115620004e957620004e862000253565b5b620004f58254620002b1565b6200050282828562000427565b600060209050601f8311600181146200053a576000841562000525578287015190505b620005318582620004a4565b865550620005a1565b601f1984166200054a86620002e6565b60005b8281101562000574578489015182556001820191506020850194506020810190506200054d565b8683101562000594578489015162000590601f89168262000484565b8355505b6001600288020188555050505b505050505050565b614da680620005b96000396000f3fe608060405234801561001057600080fd5b50600436106101e55760003560e01c80635edbf3601161010f5780639d6fac6f116100a2578063c7b6b43611610071578063c7b6b4361461058e578063c87b56dd146105be578063d3965141146105ee578063e985e9c514610626576101e5565b80639d6fac6f14610508578063a22cb46514610538578063b047fb5014610554578063b88d4fde14610572576101e5565b80637814da8e116100de5780637814da8e146104a85780638456cb59146104c4578063851d9a52146104ce57806395d89b41146104ea576101e5565b80635edbf360146103e85780636352211e1461041857806364bee5e51461044857806370a0823114610478576101e5565b806323b872dd116101875780633f4ba83a116101565780633f4ba83a1461037457806342842e0e1461037e5780634f6ccce71461039a5780635c975abb146103ca576101e5565b806323b872dd146102f057806327d7874c1461030c5780632ba73c15146103285780632f745c5914610344576101e5565b8063095ea7b3116101c3578063095ea7b3146102685780630a0f81681461028457806317091d05146102a257806318160ddd146102d2576101e5565b806301ffc9a7146101ea57806306fdde031461021a578063081812fc14610238575b600080fd5b61020460048036038101906101ff91906139d2565b610656565b6040516102119190613a1a565b60405180910390f35b6102226106d0565b60405161022f9190613ac5565b60405180910390f35b610252600480360381019061024d9190613b1d565b610762565b60405161025f9190613b8b565b60405180910390f35b610282600480360381019061027d9190613bd2565b6107a8565b005b61028c6108bf565b6040516102999190613b8b565b60405180910390f35b6102bc60048036038101906102b79190613b1d565b6108e5565b6040516102c99190613a1a565b60405180910390f35b6102da610a70565b6040516102e79190613c21565b60405180910390f35b61030a60048036038101906103059190613c3c565b610a7d565b005b61032660048036038101906103219190613c8f565b610add565b005b610342600480360381019061033d9190613c8f565b610bb4565b005b61035e60048036038101906103599190613bd2565b610c8b565b60405161036b9190613c21565b60405180910390f35b61037c610d30565b005b61039860048036038101906103939190613c3c565b610d94565b005b6103b460048036038101906103af9190613b1d565b610db4565b6040516103c19190613c21565b60405180910390f35b6103d2610e25565b6040516103df9190613a1a565b60405180910390f35b61040260048036038101906103fd9190613b1d565b610e3b565b60405161040f9190613b8b565b60405180910390f35b610432600480360381019061042d9190613b1d565b610e6e565b60405161043f9190613b8b565b60405180910390f35b610462600480360381019061045d9190613cbc565b610ef4565b60405161046f9190613a1a565b60405180910390f35b610492600480360381019061048d9190613c8f565b610f83565b60405161049f9190613c21565b60405180910390f35b6104c260048036038101906104bd9190613bd2565b61103a565b005b6104cc6110ab565b005b6104e860048036038101906104e39190613cbc565b611167565b005b6104f26114b6565b6040516104ff9190613ac5565b60405180910390f35b610522600480360381019061051d9190613b1d565b611548565b60405161052f9190613d1b565b60405180910390f35b610552600480360381019061054d9190613d62565b611578565b005b61055c61158e565b6040516105699190613b8b565b60405180910390f35b61058c60048036038101906105879190613ed7565b6115b4565b005b6105a860048036038101906105a39190613b1d565b611616565b6040516105b59190613c21565b60405180910390f35b6105d860048036038101906105d39190613b1d565b611a3e565b6040516105e59190613ac5565b60405180910390f35b61060860048036038101906106039190613b1d565b611aa6565b60405161061d99989796959493929190613fb6565b60405180910390f35b610640600480360381019061063b9190614043565b611b84565b60405161064d9190613a1a565b60405180910390f35b60007f780e9d63000000000000000000000000000000000000000000000000000000007bffffffffffffffffffffffffffffffffffffffffffffffffffffffff1916827bffffffffffffffffffffffffffffffffffffffffffffffffffffffff191614806106c957506106c882611c18565b5b9050919050565b6060600280546106df906140b2565b80601f016020809104026020016040519081016040528092919081815260200182805461070b906140b2565b80156107585780601f1061072d57610100808354040283529160200191610758565b820191906000526020600020905b81548152906001019060200180831161073b57829003601f168201915b5050505050905090565b600061076d82611cfa565b6006600083815260200190815260200160002060009054906101000a900473ffffffffffffffffffffffffffffffffffffffff169050919050565b60006107b382610e6e565b90508073ffffffffffffffffffffffffffffffffffffffff168373ffffffffffffffffffffffffffffffffffffffff1603610823576040517f08c379a000000000000000000000000000000000000000000000000000000000815260040161081a90614155565b60405180910390fd5b8073ffffffffffffffffffffffffffffffffffffffff16610842611d45565b73ffffffffffffffffffffffffffffffffffffffff16148061087157506108708161086b611d45565b611b84565b5b6108b0576040517f08c379a00000000000000000000000000000000000000000000000000000000081526004016108a7906141e7565b60405180910390fd5b6108ba8383611d4d565b505050565b600060019054906101000a900473ffffffffffffffffffffffffffffffffffffffff1681565b60008082116108f357600080fd5b6000600d838154811061090957610908614207565b5b90600052602060002090600202019050610a688160405180610120016040529081600082015481526020016001820160009054906101000a900467ffffffffffffffff1667ffffffffffffffff1667ffffffffffffffff1681526020016001820160089054906101000a900467ffffffffffffffff1667ffffffffffffffff1667ffffffffffffffff1681526020016001820160109054906101000a900463ffffffff1663ffffffff1663ffffffff1681526020016001820160149054906101000a900463ffffffff1663ffffffff1663ffffffff1681526020016001820160189054906101000a900463ffffffff1663ffffffff1663ffffffff16815260200160018201601c9054906101000a900460ff1660ff1660ff16815260200160018201601d9054906101000a900460ff1660ff1660ff16815260200160018201601e9054906101000a900461ffff1661ffff1661ffff1681525050611e06565b915050919050565b6000600a80549050905090565b610a8e610a88611d45565b82611e36565b610acd576040517f08c379a0000000000000000000000000000000000000000000000000000000008152600401610ac4906142a8565b60405180910390fd5b610ad8838383611ecb565b505050565b600060019054906101000a900473ffffffffffffffffffffffffffffffffffffffff1673ffffffffffffffffffffffffffffffffffffffff163373ffffffffffffffffffffffffffffffffffffffff1614610b3757600080fd5b600073ffffffffffffffffffffffffffffffffffffffff168173ffffffffffffffffffffffffffffffffffffffff1603610b7057600080fd5b80600060016101000a81548173ffffffffffffffffffffffffffffffffffffffff021916908373ffffffffffffffffffffffffffffffffffffffff16021790555050565b600060019054906101000a900473ffffffffffffffffffffffffffffffffffffffff1673ffffffffffffffffffffffffffffffffffffffff163373ffffffffffffffffffffffffffffffffffffffff1614610c0e57600080fd5b600073ffffffffffffffffffffffffffffffffffffffff168173ffffffffffffffffffffffffffffffffffffffff1603610c4757600080fd5b80600160006101000a81548173ffffffffffffffffffffffffffffffffffffffff021916908373ffffffffffffffffffffffffffffffffffffffff16021790555050565b6000610c9683610f83565b8210610cd7576040517f08c379a0000000000000000000000000000000000000000000000000000000008152600401610cce9061433a565b60405180910390fd5b600860008473ffffffffffffffffffffffffffffffffffffffff1673ffffffffffffffffffffffffffffffffffffffff168152602001908152602001600020600083815260200190815260200160002054905092915050565b600060019054906101000a900473ffffffffffffffffffffffffffffffffffffffff1673ffffffffffffffffffffffffffffffffffffffff163373ffffffffffffffffffffffffffffffffffffffff1614610d8a57600080fd5b610d92611f46565b565b610daf838383604051806020016040528060008152506115b4565b505050565b6000610dbe610a70565b8210610dff576040517f08c379a0000000000000000000000000000000000000000000000000000000008152600401610df6906143cc565b60405180910390fd5b600a8281548110610e1357610e12614207565b5b90600052602060002001549050919050565b60008060009054906101000a900460ff16905090565b600e6020528060005260406000206000915054906101000a900473ffffffffffffffffffffffffffffffffffffffff1681565b600080610e7a83611fa8565b9050600073ffffffffffffffffffffffffffffffffffffffff168173ffffffffffffffffffffffffffffffffffffffff1603610eeb576040517f08c379a0000000000000000000000000000000000000000000000000000000008152600401610ee290614438565b60405180910390fd5b80915050919050565b6000808311610f0257600080fd5b60008211610f0f57600080fd5b6000600d8481548110610f2557610f24614207565b5b906000526020600020906002020190506000600d8481548110610f4b57610f4a614207565b5b90600052602060002090600202019050610f6782868387611fe5565b8015610f795750610f7884866121f9565b5b9250505092915050565b60008073ffffffffffffffffffffffffffffffffffffffff168273ffffffffffffffffffffffffffffffffffffffff1603610ff3576040517f08c379a0000000000000000000000000000000000000000000000000000000008152600401610fea906144ca565b60405180910390fd5b600560008373ffffffffffffffffffffffffffffffffffffffff1673ffffffffffffffffffffffffffffffffffffffff168152602001908152602001600020549050919050565b611042612272565b61104c33826122bc565b61105557600080fd5b81600e600083815260200190815260200160002060006101000a81548173ffffffffffffffffffffffffffffffffffffffff021916908373ffffffffffffffffffffffffffffffffffffffff1602179055505050565b600160009054906101000a900473ffffffffffffffffffffffffffffffffffffffff1673ffffffffffffffffffffffffffffffffffffffff163373ffffffffffffffffffffffffffffffffffffffff1614806111545750600060019054906101000a900473ffffffffffffffffffffffffffffffffffffffff1673ffffffffffffffffffffffffffffffffffffffff163373ffffffffffffffffffffffffffffffffffffffff16145b61115d57600080fd5b6111656122fd565b565b61116f612272565b61117933836122bc565b61118257600080fd5b61118c81836121f9565b61119557600080fd5b6000600d83815481106111ab576111aa614207565b5b9060005260206000209060020201905061130a8160405180610120016040529081600082015481526020016001820160009054906101000a900467ffffffffffffffff1667ffffffffffffffff1667ffffffffffffffff1681526020016001820160089054906101000a900467ffffffffffffffff1667ffffffffffffffff1667ffffffffffffffff1681526020016001820160109054906101000a900463ffffffff1663ffffffff1663ffffffff1681526020016001820160149054906101000a900463ffffffff1663ffffffff1663ffffffff1681526020016001820160189054906101000a900463ffffffff1663ffffffff1663ffffffff16815260200160018201601c9054906101000a900460ff1660ff1660ff16815260200160018201601d9054906101000a900460ff1660ff1660ff16815260200160018201601e9054906101000a900461ffff1661ffff1661ffff1681525050611e06565b61131357600080fd5b6000600d838154811061132957611328614207565b5b906000526020600020906002020190506114888160405180610120016040529081600082015481526020016001820160009054906101000a900467ffffffffffffffff1667ffffffffffffffff1667ffffffffffffffff1681526020016001820160089054906101000a900467ffffffffffffffff1667ffffffffffffffff1667ffffffffffffffff1681526020016001820160109054906101000a900463ffffffff1663ffffffff1663ffffffff1681526020016001820160149054906101000a900463ffffffff1663ffffffff1663ffffffff1681526020016001820160189054906101000a900463ffffffff1663ffffffff1663ffffffff16815260200160018201601c9054906101000a900460ff1660ff1660ff16815260200160018201601d9054906101000a900460ff1660ff1660ff16815260200160018201601e9054906101000a900461ffff1661ffff1661ffff1681525050611e06565b61149157600080fd5b61149d82858386611fe5565b6114a657600080fd5b6114b0848461235f565b50505050565b6060600380546114c5906140b2565b80601f01602080910402602001604051908101604052809291908181526020018280546114f1906140b2565b801561153e5780601f106115135761010080835404028352916020019161153e565b820191906000526020600020905b81548152906001019060200180831161152157829003601f168201915b5050505050905090565b600c816008811061155857600080fd5b60089182820401919006600402915054906101000a900463ffffffff1681565b61158a611583611d45565b8383612495565b5050565b600160009054906101000a900473ffffffffffffffffffffffffffffffffffffffff1681565b6115c56115bf611d45565b83611e36565b611604576040517f08c379a00000000000000000000000000000000000000000000000000000000081526004016115fb906142a8565b60405180910390fd5b61161084848484612601565b50505050565b6000611620612272565b6000600d838154811061163657611635614207565b5b906000526020600020906002020160405180610120016040529081600082015481526020016001820160009054906101000a900467ffffffffffffffff1667ffffffffffffffff1667ffffffffffffffff1681526020016001820160089054906101000a900467ffffffffffffffff1667ffffffffffffffff1667ffffffffffffffff1681526020016001820160109054906101000a900463ffffffff1663ffffffff1663ffffffff1681526020016001820160149054906101000a900463ffffffff1663ffffffff1663ffffffff1681526020016001820160189054906101000a900463ffffffff1663ffffffff1663ffffffff16815260200160018201601c9054906101000a900460ff1660ff1660ff16815260200160018201601d9054906101000a900460ff1660ff1660ff16815260200160018201601e9054906101000a900461ffff1661ffff1661ffff168152505090506000816020015167ffffffffffffffff16036117a757600080fd5b6117b08161265d565b6117b957600080fd5b60008160a0015163ffffffff1690506000600d82815481106117de576117dd614207565b5b906000526020600020906002020160405180610120016040529081600082015481526020016001820160009054906101000a900467ffffffffffffffff1667ffffffffffffffff1667ffffffffffffffff1681526020016001820160089054906101000a900467ffffffffffffffff1667ffffffffffffffff1667ffffffffffffffff1681526020016001820160109054906101000a900463ffffffff1663ffffffff1663ffffffff1681526020016001820160149054906101000a900463ffffffff1663ffffffff1663ffffffff1681526020016001820160189054906101000a900463ffffffff1663ffffffff1663ffffffff16815260200160018201601c9054906101000a900460ff1660ff1660ff16815260200160018201601d9054906101000a900460ff1660ff1660ff16815260200160018201601e9054906101000a900461ffff1661ffff1661ffff168152505090506000836101000151905083610100015161ffff1682610100015161ffff1611156119615781610100015190505b600042443387600001514160405160200161198095949392919061458e565b6040516020818303038152906040528051906020012060001c9050600081846000015187600001516119b2919061461c565b6119bc919061461c565b905060006119c989611fa8565b905060006119f48a8960a0015163ffffffff166001886119e99190614650565b61ffff16868661268e565b9050600d8a81548110611a0a57611a09614207565b5b906000526020600020906002020160010160186101000a81549063ffffffff02191690558098505050505050505050919050565b6060611a4982611cfa565b6000611a5361295f565b90506000815111611a735760405180602001604052806000815250611a9e565b80611a7d84612976565b604051602001611a8e9291906146c2565b6040516020818303038152906040525b915050919050565b600d8181548110611ab657600080fd5b90600052602060002090600202016000915090508060000154908060010160009054906101000a900467ffffffffffffffff16908060010160089054906101000a900467ffffffffffffffff16908060010160109054906101000a900463ffffffff16908060010160149054906101000a900463ffffffff16908060010160189054906101000a900463ffffffff169080600101601c9054906101000a900460ff169080600101601d9054906101000a900460ff169080600101601e9054906101000a900461ffff16905089565b6000600760008473ffffffffffffffffffffffffffffffffffffffff1673ffffffffffffffffffffffffffffffffffffffff16815260200190815260200160002060008373ffffffffffffffffffffffffffffffffffffffff1673ffffffffffffffffffffffffffffffffffffffff16815260200190815260200160002060009054906101000a900460ff16905092915050565b60007f80ac58cd000000000000000000000000000000000000000000000000000000007bffffffffffffffffffffffffffffffffffffffffffffffffffffffff1916827bffffffffffffffffffffffffffffffffffffffffffffffffffffffff19161480611ce357507f5b5e139f000000000000000000000000000000000000000000000000000000007bffffffffffffffffffffffffffffffffffffffffffffffffffffffff1916827bffffffffffffffffffffffffffffffffffffffffffffffffffffffff1916145b80611cf35750611cf282612a44565b5b9050919050565b611d0381612aae565b611d42576040517f08c379a0000000000000000000000000000000000000000000000000000000008152600401611d3990614438565b60405180910390fd5b50565b600033905090565b816006600083815260200190815260200160002060006101000a81548173ffffffffffffffffffffffffffffffffffffffff021916908373ffffffffffffffffffffffffffffffffffffffff160217905550808273ffffffffffffffffffffffffffffffffffffffff16611dc083610e6e565b73ffffffffffffffffffffffffffffffffffffffff167f8c5be1e5ebec7d5bd14f71427d1e84f3dd0314c0f7b2291e5b200ac8c7c3b92560405160405180910390a45050565b6000808260a0015163ffffffff16148015611e2f575042826040015167ffffffffffffffff1611155b9050919050565b600080611e4283610e6e565b90508073ffffffffffffffffffffffffffffffffffffffff168473ffffffffffffffffffffffffffffffffffffffff161480611e845750611e838185611b84565b5b80611ec257508373ffffffffffffffffffffffffffffffffffffffff16611eaa84610762565b73ffffffffffffffffffffffffffffffffffffffff16145b91505092915050565b600073ffffffffffffffffffffffffffffffffffffffff168373ffffffffffffffffffffffffffffffffffffffff1614611f3657600e600082815260200190815260200160002060006101000a81549073ffffffffffffffffffffffffffffffffffffffff02191690555b611f41838383612aef565b505050565b611f4e612de8565b60008060006101000a81548160ff0219169083151502179055507f5db9ee0a495bf2e6ff9c91a7834c1ba4fdd244a5e8aa4e537bd38aeae4b073aa611f91611d45565b604051611f9e9190613b8b565b60405180910390a1565b60006004600083815260200190815260200160002060009054906101000a900473ffffffffffffffffffffffffffffffffffffffff169050919050565b6000818403611ff757600090506121f1565b818560010160109054906101000a900463ffffffff1663ffffffff1614806120385750818560010160149054906101000a900463ffffffff1663ffffffff16145b1561204657600090506121f1565b838360010160109054906101000a900463ffffffff1663ffffffff1614806120875750838360010160149054906101000a900463ffffffff1663ffffffff16145b1561209557600090506121f1565b60008360010160109054906101000a900463ffffffff1663ffffffff1614806120d8575060008560010160109054906101000a900463ffffffff1663ffffffff16145b156120e657600190506121f1565b8460010160109054906101000a900463ffffffff1663ffffffff168360010160109054906101000a900463ffffffff1663ffffffff16148061215b57508460010160149054906101000a900463ffffffff1663ffffffff168360010160109054906101000a900463ffffffff1663ffffffff16145b1561216957600090506121f1565b8460010160109054906101000a900463ffffffff1663ffffffff168360010160149054906101000a900463ffffffff1663ffffffff1614806121de57508460010160149054906101000a900463ffffffff1663ffffffff168360010160149054906101000a900463ffffffff1663ffffffff16145b156121ec57600090506121f1565b600190505b949350505050565b60008061220583611fa8565b90508073ffffffffffffffffffffffffffffffffffffffff16600e600086815260200190815260200160002060009054906101000a900473ffffffffffffffffffffffffffffffffffffffff1673ffffffffffffffffffffffffffffffffffffffff161491505092915050565b61227a610e25565b156122ba576040517f08c379a00000000000000000000000000000000000000000000000000000000081526004016122b190614732565b60405180910390fd5b565b60006122c782610e6e565b73ffffffffffffffffffffffffffffffffffffffff168373ffffffffffffffffffffffffffffffffffffffff1614905092915050565b612305612272565b60016000806101000a81548160ff0219169083151502179055507f62e78cea01bee320cd4e420270b5ea74000d11b0c9f74754ebdbfc544b05a258612348611d45565b6040516123559190613b8b565b60405180910390a1565b6000600d828154811061237557612374614207565b5b906000526020600020906002020190506000600d848154811061239b5761239a614207565b5b90600052602060002090600202019050828160010160186101000a81548163ffffffff021916908363ffffffff1602179055506123d782612e31565b6123e081612e31565b600e600085815260200190815260200160002060006101000a81549073ffffffffffffffffffffffffffffffffffffffff0219169055600e600084815260200190815260200160002060006101000a81549073ffffffffffffffffffffffffffffffffffffffff02191690557fb57bb8abbb44a6cff7417131e5eb1d3703a22072a6985e3ff6c653fc91056bb161247685611fa8565b858560405161248793929190614752565b60405180910390a150505050565b8173ffffffffffffffffffffffffffffffffffffffff168373ffffffffffffffffffffffffffffffffffffffff1603612503576040517f08c379a00000000000000000000000000000000000000000000000000000000081526004016124fa906147d5565b60405180910390fd5b80600760008573ffffffffffffffffffffffffffffffffffffffff1673ffffffffffffffffffffffffffffffffffffffff16815260200190815260200160002060008473ffffffffffffffffffffffffffffffffffffffff1673ffffffffffffffffffffffffffffffffffffffff16815260200190815260200160002060006101000a81548160ff0219169083151502179055508173ffffffffffffffffffffffffffffffffffffffff168373ffffffffffffffffffffffffffffffffffffffff167f17307eab39ab6107e8899845ad3d59bd9653f200f220920489ca2b5937696c31836040516125f49190613a1a565b60405180910390a3505050565b61260c848484611ecb565b61261884848484612f63565b612657576040517f08c379a000000000000000000000000000000000000000000000000000000000815260040161264e90614867565b60405180910390fd5b50505050565b6000808260a0015163ffffffff1614158015612687575042826040015167ffffffffffffffff1611155b9050919050565b600063ffffffff80168611156126a357600080fd5b63ffffffff80168511156126b657600080fd5b63ffffffff80168411156126c957600080fd5b60006040518061012001604052808581526020014267ffffffffffffffff168152602001600067ffffffffffffffff1681526020018863ffffffff1681526020018763ffffffff168152602001600063ffffffff168152602001600060ff168152602001600060ff1681526020018661ffff168152509050600d8190806001815401808255809150506001900390600052602060002090600202016000909190919091506000820151816000015560208201518160010160006101000a81548167ffffffffffffffff021916908367ffffffffffffffff16021790555060408201518160010160086101000a81548167ffffffffffffffff021916908367ffffffffffffffff16021790555060608201518160010160106101000a81548163ffffffff021916908363ffffffff16021790555060808201518160010160146101000a81548163ffffffff021916908363ffffffff16021790555060a08201518160010160186101000a81548163ffffffff021916908363ffffffff16021790555060c082015181600101601c6101000a81548160ff021916908360ff16021790555060e082015181600101601d6101000a81548160ff021916908360ff16021790555061010082015181600101601e6101000a81548161ffff021916908361ffff160217905550505060006001600d805490506128c69190614887565b905063ffffffff80168111156128db57600080fd5b8373ffffffffffffffffffffffffffffffffffffffff167f14cb614758d3c982e9d2ae0ad129c2c2bdb4c5ba841155dced7bed1a27834de782846060015163ffffffff16856080015163ffffffff16866000015160405161293f94939291906148bb565b60405180910390a261295184826130ea565b809250505095945050505050565b606060405180602001604052806000815250905090565b60606000600161298584613108565b01905060008167ffffffffffffffff8111156129a4576129a3613dac565b5b6040519080825280601f01601f1916602001820160405280156129d65781602001600182028036833780820191505090505b509050600082602001820190505b600115612a39578080600190039150507f3031323334353637383961626364656600000000000000000000000000000000600a86061a8153600a8581612a2d57612a2c614900565b5b049450600085036129e4575b819350505050919050565b60007f01ffc9a7000000000000000000000000000000000000000000000000000000007bffffffffffffffffffffffffffffffffffffffffffffffffffffffff1916827bffffffffffffffffffffffffffffffffffffffffffffffffffffffff1916149050919050565b60008073ffffffffffffffffffffffffffffffffffffffff16612ad083611fa8565b73ffffffffffffffffffffffffffffffffffffffff1614159050919050565b8273ffffffffffffffffffffffffffffffffffffffff16612b0f82610e6e565b73ffffffffffffffffffffffffffffffffffffffff1614612b65576040517f08c379a0000000000000000000000000000000000000000000000000000000008152600401612b5c906149a1565b60405180910390fd5b600073ffffffffffffffffffffffffffffffffffffffff168273ffffffffffffffffffffffffffffffffffffffff1603612bd4576040517f08c379a0000000000000000000000000000000000000000000000000000000008152600401612bcb90614a33565b60405180910390fd5b612be1838383600161325b565b8273ffffffffffffffffffffffffffffffffffffffff16612c0182610e6e565b73ffffffffffffffffffffffffffffffffffffffff1614612c57576040517f08c379a0000000000000000000000000000000000000000000000000000000008152600401612c4e906149a1565b60405180910390fd5b6006600082815260200190815260200160002060006101000a81549073ffffffffffffffffffffffffffffffffffffffff02191690556001600560008573ffffffffffffffffffffffffffffffffffffffff1673ffffffffffffffffffffffffffffffffffffffff168152602001908152602001600020600082825403925050819055506001600560008473ffffffffffffffffffffffffffffffffffffffff1673ffffffffffffffffffffffffffffffffffffffff16815260200190815260200160002060008282540192505081905550816004600083815260200190815260200160002060006101000a81548173ffffffffffffffffffffffffffffffffffffffff021916908373ffffffffffffffffffffffffffffffffffffffff160217905550808273ffffffffffffffffffffffffffffffffffffffff168473ffffffffffffffffffffffffffffffffffffffff167fddf252ad1be2c89b69c2b068fc378daa952ba7f163c4a11628f55a4df523b3ef60405160405180910390a4612de383838360016133b9565b505050565b612df0610e25565b612e2f576040517f08c379a0000000000000000000000000000000000000000000000000000000008152600401612e2690614a9f565b60405180910390fd5b565b600c81600101601c9054906101000a900460ff1660ff1660088110612e5957612e58614207565b5b600891828204019190066004029054906101000a900463ffffffff1663ffffffff1642612e86919061461c565b8160010160086101000a81548167ffffffffffffffff021916908367ffffffffffffffff160217905550600581600101601c9054906101000a900460ff1660ff16108015612ee85750600381600101601d9054906101000a900460ff1660ff16105b15612f6057600181600101601c8282829054906101000a900460ff16612f0e9190614abf565b92506101000a81548160ff021916908360ff160217905550600181600101601d8282829054906101000a900460ff16612f479190614abf565b92506101000a81548160ff021916908360ff1602179055505b50565b6000612f848473ffffffffffffffffffffffffffffffffffffffff166133bf565b156130dd578373ffffffffffffffffffffffffffffffffffffffff1663150b7a02612fad611d45565b8786866040518563ffffffff1660e01b8152600401612fcf9493929190614b49565b6020604051808303816000875af192505050801561300b57506040513d601f19601f820116820180604052508101906130089190614baa565b60015b61308d573d806000811461303b576040519150601f19603f3d011682016040523d82523d6000602084013e613040565b606091505b506000815103613085576040517f08c379a000000000000000000000000000000000000000000000000000000000815260040161307c90614867565b60405180910390fd5b805181602001fd5b63150b7a0260e01b7bffffffffffffffffffffffffffffffffffffffffffffffffffffffff1916817bffffffffffffffffffffffffffffffffffffffffffffffffffffffff1916149150506130e2565b600190505b949350505050565b6131048282604051806020016040528060008152506133e2565b5050565b600080600090507a184f03e93ff9f4daa797ed6e38ed64bf6a1f0100000000000000008310613166577a184f03e93ff9f4daa797ed6e38ed64bf6a1f010000000000000000838161315c5761315b614900565b5b0492506040810190505b6d04ee2d6d415b85acef810000000083106131a3576d04ee2d6d415b85acef8100000000838161319957613198614900565b5b0492506020810190505b662386f26fc1000083106131d257662386f26fc1000083816131c8576131c7614900565b5b0492506010810190505b6305f5e10083106131fb576305f5e10083816131f1576131f0614900565b5b0492506008810190505b612710831061322057612710838161321657613215614900565b5b0492506004810190505b60648310613243576064838161323957613238614900565b5b0492506002810190505b600a8310613252576001810190505b80915050919050565b6132678484848461343d565b60018111156132ab576040517f08c379a00000000000000000000000000000000000000000000000000000000081526004016132a290614c49565b60405180910390fd5b6000829050600073ffffffffffffffffffffffffffffffffffffffff168573ffffffffffffffffffffffffffffffffffffffff16036132f2576132ed81613443565b613331565b8373ffffffffffffffffffffffffffffffffffffffff168573ffffffffffffffffffffffffffffffffffffffff16146133305761332f858261348c565b5b5b600073ffffffffffffffffffffffffffffffffffffffff168473ffffffffffffffffffffffffffffffffffffffff16036133735761336e816135f9565b6133b2565b8473ffffffffffffffffffffffffffffffffffffffff168473ffffffffffffffffffffffffffffffffffffffff16146133b1576133b084826136ca565b5b5b5050505050565b50505050565b6000808273ffffffffffffffffffffffffffffffffffffffff163b119050919050565b6133ec8383613749565b6133f96000848484612f63565b613438576040517f08c379a000000000000000000000000000000000000000000000000000000000815260040161342f90614867565b60405180910390fd5b505050565b50505050565b600a80549050600b600083815260200190815260200160002081905550600a81908060018154018082558091505060019003906000526020600020016000909190919091505550565b6000600161349984610f83565b6134a39190614887565b9050600060096000848152602001908152602001600020549050818114613588576000600860008673ffffffffffffffffffffffffffffffffffffffff1673ffffffffffffffffffffffffffffffffffffffff168152602001908152602001600020600084815260200190815260200160002054905080600860008773ffffffffffffffffffffffffffffffffffffffff1673ffffffffffffffffffffffffffffffffffffffff168152602001908152602001600020600084815260200190815260200160002081905550816009600083815260200190815260200160002081905550505b6009600084815260200190815260200160002060009055600860008573ffffffffffffffffffffffffffffffffffffffff1673ffffffffffffffffffffffffffffffffffffffff16815260200190815260200160002060008381526020019081526020016000206000905550505050565b60006001600a8054905061360d9190614887565b90506000600b60008481526020019081526020016000205490506000600a838154811061363d5761363c614207565b5b9060005260206000200154905080600a838154811061365f5761365e614207565b5b906000526020600020018190555081600b600083815260200190815260200160002081905550600b600085815260200190815260200160002060009055600a8054806136ae576136ad614c69565b5b6001900381819060005260206000200160009055905550505050565b60006136d583610f83565b905081600860008573ffffffffffffffffffffffffffffffffffffffff1673ffffffffffffffffffffffffffffffffffffffff168152602001908152602001600020600083815260200190815260200160002081905550806009600084815260200190815260200160002081905550505050565b600073ffffffffffffffffffffffffffffffffffffffff168273ffffffffffffffffffffffffffffffffffffffff16036137b8576040517f08c379a00000000000000000000000000000000000000000000000000000000081526004016137af90614ce4565b60405180910390fd5b6137c181612aae565b15613801576040517f08c379a00000000000000000000000000000000000000000000000000000000081526004016137f890614d50565b60405180910390fd5b61380f60008383600161325b565b61381881612aae565b15613858576040517f08c379a000000000000000000000000000000000000000000000000000000000815260040161384f90614d50565b60405180910390fd5b6001600560008473ffffffffffffffffffffffffffffffffffffffff1673ffffffffffffffffffffffffffffffffffffffff16815260200190815260200160002060008282540192505081905550816004600083815260200190815260200160002060006101000a81548173ffffffffffffffffffffffffffffffffffffffff021916908373ffffffffffffffffffffffffffffffffffffffff160217905550808273ffffffffffffffffffffffffffffffffffffffff16600073ffffffffffffffffffffffffffffffffffffffff167fddf252ad1be2c89b69c2b068fc378daa952ba7f163c4a11628f55a4df523b3ef60405160405180910390a46139626000838360016133b9565b5050565b6000604051905090565b600080fd5b600080fd5b60007fffffffff0000000000000000000000000000000000000000000000000000000082169050919050565b6139af8161397a565b81146139ba57600080fd5b50565b6000813590506139cc816139a6565b92915050565b6000602082840312156139e8576139e7613970565b5b60006139f6848285016139bd565b91505092915050565b60008115159050919050565b613a14816139ff565b82525050565b6000602082019050613a2f6000830184613a0b565b92915050565b600081519050919050565b600082825260208201905092915050565b60005b83811015613a6f578082015181840152602081019050613a54565b60008484015250505050565b6000601f19601f8301169050919050565b6000613a9782613a35565b613aa18185613a40565b9350613ab1818560208601613a51565b613aba81613a7b565b840191505092915050565b60006020820190508181036000830152613adf8184613a8c565b905092915050565b6000819050919050565b613afa81613ae7565b8114613b0557600080fd5b50565b600081359050613b1781613af1565b92915050565b600060208284031215613b3357613b32613970565b5b6000613b4184828501613b08565b91505092915050565b600073ffffffffffffffffffffffffffffffffffffffff82169050919050565b6000613b7582613b4a565b9050919050565b613b8581613b6a565b82525050565b6000602082019050613ba06000830184613b7c565b92915050565b613baf81613b6a565b8114613bba57600080fd5b50565b600081359050613bcc81613ba6565b92915050565b60008060408385031215613be957613be8613970565b5b6000613bf785828601613bbd565b9250506020613c0885828601613b08565b9150509250929050565b613c1b81613ae7565b82525050565b6000602082019050613c366000830184613c12565b92915050565b600080600060608486031215613c5557613c54613970565b5b6000613c6386828701613bbd565b9350506020613c7486828701613bbd565b9250506040613c8586828701613b08565b9150509250925092565b600060208284031215613ca557613ca4613970565b5b6000613cb384828501613bbd565b91505092915050565b60008060408385031215613cd357613cd2613970565b5b6000613ce185828601613b08565b9250506020613cf285828601613b08565b9150509250929050565b600063ffffffff82169050919050565b613d1581613cfc565b82525050565b6000602082019050613d306000830184613d0c565b92915050565b613d3f816139ff565b8114613d4a57600080fd5b50565b600081359050613d5c81613d36565b92915050565b60008060408385031215613d7957613d78613970565b5b6000613d8785828601613bbd565b9250506020613d9885828601613d4d565b9150509250929050565b600080fd5b600080fd5b7f4e487b7100000000000000000000000000000000000000000000000000000000600052604160045260246000fd5b613de482613a7b565b810181811067ffffffffffffffff82111715613e0357613e02613dac565b5b80604052505050565b6000613e16613966565b9050613e228282613ddb565b919050565b600067ffffffffffffffff821115613e4257613e41613dac565b5b613e4b82613a7b565b9050602081019050919050565b82818337600083830152505050565b6000613e7a613e7584613e27565b613e0c565b905082815260208101848484011115613e9657613e95613da7565b5b613ea1848285613e58565b509392505050565b600082601f830112613ebe57613ebd613da2565b5b8135613ece848260208601613e67565b91505092915050565b60008060008060808587031215613ef157613ef0613970565b5b6000613eff87828801613bbd565b9450506020613f1087828801613bbd565b9350506040613f2187828801613b08565b925050606085013567ffffffffffffffff811115613f4257613f41613975565b5b613f4e87828801613ea9565b91505092959194509250565b600067ffffffffffffffff82169050919050565b613f7781613f5a565b82525050565b600060ff82169050919050565b613f9381613f7d565b82525050565b600061ffff82169050919050565b613fb081613f99565b82525050565b600061012082019050613fcc600083018c613c12565b613fd9602083018b613f6e565b613fe6604083018a613f6e565b613ff36060830189613d0c565b6140006080830188613d0c565b61400d60a0830187613d0c565b61401a60c0830186613f8a565b61402760e0830185613f8a565b614035610100830184613fa7565b9a9950505050505050505050565b6000806040838503121561405a57614059613970565b5b600061406885828601613bbd565b925050602061407985828601613bbd565b9150509250929050565b7f4e487b7100000000000000000000000000000000000000000000000000000000600052602260045260246000fd5b600060028204905060018216806140ca57607f821691505b6020821081036140dd576140dc614083565b5b50919050565b7f4552433732313a20617070726f76616c20746f2063757272656e74206f776e6560008201527f7200000000000000000000000000000000000000000000000000000000000000602082015250565b600061413f602183613a40565b915061414a826140e3565b604082019050919050565b6000602082019050818103600083015261416e81614132565b9050919050565b7f4552433732313a20617070726f76652063616c6c6572206973206e6f7420746f60008201527f6b656e206f776e6572206f7220617070726f76656420666f7220616c6c000000602082015250565b60006141d1603d83613a40565b91506141dc82614175565b604082019050919050565b60006020820190508181036000830152614200816141c4565b9050919050565b7f4e487b7100000000000000000000000000000000000000000000000000000000600052603260045260246000fd5b7f4552433732313a2063616c6c6572206973206e6f7420746f6b656e206f776e6560008201527f72206f7220617070726f76656400000000000000000000000000000000000000602082015250565b6000614292602d83613a40565b915061429d82614236565b604082019050919050565b600060208201905081810360008301526142c181614285565b9050919050565b7f455243373231456e756d657261626c653a206f776e657220696e646578206f7560008201527f74206f6620626f756e6473000000000000000000000000000000000000000000602082015250565b6000614324602b83613a40565b915061432f826142c8565b604082019050919050565b6000602082019050818103600083015261435381614317565b9050919050565b7f455243373231456e756d657261626c653a20676c6f62616c20696e646578206f60008201527f7574206f6620626f756e64730000000000000000000000000000000000000000602082015250565b60006143b6602c83613a40565b91506143c18261435a565b604082019050919050565b600060208201905081810360008301526143e5816143a9565b9050919050565b7f4552433732313a20696e76616c696420746f6b656e2049440000000000000000600082015250565b6000614422601883613a40565b915061442d826143ec565b602082019050919050565b6000602082019050818103600083015261445181614415565b9050919050565b7f4552433732313a2061646472657373207a65726f206973206e6f74206120766160008201527f6c6964206f776e65720000000000000000000000000000000000000000000000602082015250565b60006144b4602983613a40565b91506144bf82614458565b604082019050919050565b600060208201905081810360008301526144e3816144a7565b9050919050565b6000819050919050565b61450561450082613ae7565b6144ea565b82525050565b60008160601b9050919050565b60006145238261450b565b9050919050565b600061453582614518565b9050919050565b61454d61454882613b6a565b61452a565b82525050565b600061455e82613b4a565b9050919050565b600061457082614518565b9050919050565b61458861458382614553565b614565565b82525050565b600061459a82886144f4565b6020820191506145aa82876144f4565b6020820191506145ba828661453c565b6014820191506145ca82856144f4565b6020820191506145da8284614577565b6014820191508190509695505050505050565b7f4e487b7100000000000000000000000000000000000000000000000000000000600052601160045260246000fd5b600061462782613ae7565b915061463283613ae7565b925082820190508082111561464a576146496145ed565b5b92915050565b600061465b82613f99565b915061466683613f99565b9250828201905061ffff8111156146805761467f6145ed565b5b92915050565b600081905092915050565b600061469c82613a35565b6146a68185614686565b93506146b6818560208601613a51565b80840191505092915050565b60006146ce8285614691565b91506146da8284614691565b91508190509392505050565b7f5061757361626c653a2070617573656400000000000000000000000000000000600082015250565b600061471c601083613a40565b9150614727826146e6565b602082019050919050565b6000602082019050818103600083015261474b8161470f565b9050919050565b60006060820190506147676000830186613b7c565b6147746020830185613c12565b6147816040830184613c12565b949350505050565b7f4552433732313a20617070726f766520746f2063616c6c657200000000000000600082015250565b60006147bf601983613a40565b91506147ca82614789565b602082019050919050565b600060208201905081810360008301526147ee816147b2565b9050919050565b7f4552433732313a207472616e7366657220746f206e6f6e20455243373231526560008201527f63656976657220696d706c656d656e7465720000000000000000000000000000602082015250565b6000614851603283613a40565b915061485c826147f5565b604082019050919050565b6000602082019050818103600083015261488081614844565b9050919050565b600061489282613ae7565b915061489d83613ae7565b92508282039050818111156148b5576148b46145ed565b5b92915050565b60006080820190506148d06000830187613c12565b6148dd6020830186613c12565b6148ea6040830185613c12565b6148f76060830184613c12565b95945050505050565b7f4e487b7100000000000000000000000000000000000000000000000000000000600052601260045260246000fd5b7f4552433732313a207472616e736665722066726f6d20696e636f72726563742060008201527f6f776e6572000000000000000000000000000000000000000000000000000000602082015250565b600061498b602583613a40565b91506149968261492f565b604082019050919050565b600060208201905081810360008301526149ba8161497e565b9050919050565b7f4552433732313a207472616e7366657220746f20746865207a65726f2061646460008201527f7265737300000000000000000000000000000000000000000000000000000000602082015250565b6000614a1d602483613a40565b9150614a28826149c1565b604082019050919050565b60006020820190508181036000830152614a4c81614a10565b9050919050565b7f5061757361626c653a206e6f7420706175736564000000000000000000000000600082015250565b6000614a89601483613a40565b9150614a9482614a53565b602082019050919050565b60006020820190508181036000830152614ab881614a7c565b9050919050565b6000614aca82613f7d565b9150614ad583613f7d565b9250828201905060ff811115614aee57614aed6145ed565b5b92915050565b600081519050919050565b600082825260208201905092915050565b6000614b1b82614af4565b614b258185614aff565b9350614b35818560208601613a51565b614b3e81613a7b565b840191505092915050565b6000608082019050614b5e6000830187613b7c565b614b6b6020830186613b7c565b614b786040830185613c12565b8181036060830152614b8a8184614b10565b905095945050505050565b600081519050614ba4816139a6565b92915050565b600060208284031215614bc057614bbf613970565b5b6000614bce84828501614b95565b91505092915050565b7f455243373231456e756d657261626c653a20636f6e736563757469766520747260008201527f616e7366657273206e6f7420737570706f727465640000000000000000000000602082015250565b6000614c33603583613a40565b9150614c3e82614bd7565b604082019050919050565b60006020820190508181036000830152614c6281614c26565b9050919050565b7f4e487b7100000000000000000000000000000000000000000000000000000000600052603160045260246000fd5b7f4552433732313a206d696e7420746f20746865207a65726f2061646472657373600082015250565b6000614cce602083613a40565b9150614cd982614c98565b602082019050919050565b60006020820190508181036000830152614cfd81614cc1565b9050919050565b7f4552433732313a20746f6b656e20616c7265616479206d696e74656400000000600082015250565b6000614d3a601c83613a40565b9150614d4582614d04565b602082019050919050565b60006020820190508181036000830152614d6981614d2d565b905091905056fea26469706673582212204c2af9f8d67580392162439c04ddc62dc15fa970ba7e2c426bade542fe4fab8f64736f6c63430008110033",
  "linkReferences": {},
  "deployedLinkReferences": {}
}