{
  "_format": "hh-sol-artifact-1",
  "contractName": "BummyCheering",
  "sourceName": "contracts/BummyCheering.sol",
  "abi": [
    {
      "anonymous": false,
      "inputs": [
        {
          "indexed": true,
          "internalType": "address",
          "name": "owner",
          "type": "address"
        },
        {
          "indexed": true,
          "internalType": "address",
          "name": "approved",
          "type": "address"
        },
        {
          "indexed": true,
          "internalType": "uint256",
          "name": "tokenId",
          "type": "uint256"
        }
      ],
      "name": "Approval",
      "type": "event"
    },
    {
      "anonymous": false,
      "inputs": [
        {
          "indexed": true,
          "internalType": "address",
          "name": "owner",
          "type": "address"
        },
        {
          "indexed": true,
          "internalType": "address",
          "name": "operator",
          "type": "address"
        },
        {
          "indexed": false,
          "internalType": "bool",
          "name": "approved",
          "type": "bool"
        }
      ],
      "name": "ApprovalForAll",
      "type": "event"
    },
    {
      "anonymous": false,
      "inputs": [
        {
          "indexed": false,
          "internalType": "address",
          "name": "owner",
          "type": "address"
        },
        {
          "indexed": false,
          "internalType": "uint256",
          "name": "momId",
          "type": "uint256"
        },
        {
          "indexed": false,
          "internalType": "uint256",
          "name": "dadId",
          "type": "uint256"
        }
      ],
      "name": "Cheering",
      "type": "event"
    },
    {
      "anonymous": false,
      "inputs": [
        {
          "indexed": true,
          "internalType": "address",
          "name": "owner",
          "type": "address"
        },
        {
          "indexed": false,
          "internalType": "uint256",
          "name": "BummyId",
          "type": "uint256"
        },
        {
          "indexed": false,
          "internalType": "uint256",
          "name": "momId",
          "type": "uint256"
        },
        {
          "indexed": false,
          "internalType": "uint256",
          "name": "dadId",
          "type": "uint256"
        },
        {
          "indexed": false,
          "internalType": "uint256",
          "name": "genes",
          "type": "uint256"
        }
      ],
      "name": "Invite",
      "type": "event"
    },
    {
      "anonymous": false,
      "inputs": [
        {
          "indexed": false,
          "internalType": "address",
          "name": "account",
          "type": "address"
        }
      ],
      "name": "Paused",
      "type": "event"
    },
    {
      "anonymous": false,
      "inputs": [
        {
          "indexed": true,
          "internalType": "address",
          "name": "from",
          "type": "address"
        },
        {
          "indexed": true,
          "internalType": "address",
          "name": "to",
          "type": "address"
        },
        {
          "indexed": true,
          "internalType": "uint256",
          "name": "tokenId",
          "type": "uint256"
        }
      ],
      "name": "Transfer",
      "type": "event"
    },
    {
      "anonymous": false,
      "inputs": [
        {
          "indexed": false,
          "internalType": "address",
          "name": "account",
          "type": "address"
        }
      ],
      "name": "Unpaused",
      "type": "event"
    },
    {
      "inputs": [
        {
          "internalType": "address",
          "name": "to",
          "type": "address"
        },
        {
          "internalType": "uint256",
          "name": "tokenId",
          "type": "uint256"
        }
      ],
      "name": "approve",
      "outputs": [],
      "stateMutability": "nonpayable",
      "type": "function"
    },
    {
      "inputs": [
        {
          "internalType": "address",
          "name": "_addr",
          "type": "address"
        },
        {
          "internalType": "uint256",
          "name": "_dadId",
          "type": "uint256"
        }
      ],
      "name": "approveCheering",
      "outputs": [],
      "stateMutability": "nonpayable",
      "type": "function"
    },
    {
      "inputs": [
        {
          "internalType": "address",
          "name": "owner",
          "type": "address"
        }
      ],
      "name": "balanceOf",
      "outputs": [
        {
          "internalType": "uint256",
          "name": "",
          "type": "uint256"
        }
      ],
      "stateMutability": "view",
      "type": "function"
    },
    {
      "inputs": [
        {
          "internalType": "uint256",
          "name": "_momId",
          "type": "uint256"
        },
        {
          "internalType": "uint256",
          "name": "_dadId",
          "type": "uint256"
        }
      ],
      "name": "canCheerWith",
      "outputs": [
        {
          "internalType": "bool",
          "name": "",
          "type": "bool"
        }
      ],
      "stateMutability": "view",
      "type": "function"
    },
    {
      "inputs": [],
      "name": "ceoAddress",
      "outputs": [
        {
          "internalType": "address",
          "name": "",
          "type": "address"
        }
      ],
      "stateMutability": "view",
      "type": "function"
    },
    {
      "inputs": [],
      "name": "cfoAddress",
      "outputs": [
        {
          "internalType": "address",
          "name": "",
          "type": "address"
        }
      ],
      "stateMutability": "view",
      "type": "function"
    },
    {
      "inputs": [
        {
          "internalType": "uint256",
          "name": "",
          "type": "uint256"
        }
      ],
      "name": "cheerAllowedToAddress",
      "outputs": [
        {
          "internalType": "address",
          "name": "",
          "type": "address"
        }
      ],
      "stateMutability": "view",
      "type": "function"
    },
    {
      "inputs": [
        {
          "internalType": "uint256",
          "name": "_momId",
          "type": "uint256"
        },
        {
          "internalType": "uint256",
          "name": "_dadId",
          "type": "uint256"
        }
      ],
      "name": "cheerWith",
      "outputs": [],
      "stateMutability": "nonpayable",
      "type": "function"
    },
    {
      "inputs": [],
      "name": "cooAddress",
      "outputs": [
        {
          "internalType": "address",
          "name": "",
          "type": "address"
        }
      ],
      "stateMutability": "view",
      "type": "function"
    },
    {
      "inputs": [
        {
          "internalType": "uint256",
          "name": "",
          "type": "uint256"
        }
      ],
      "name": "cooldowns",
      "outputs": [
        {
          "internalType": "uint32",
          "name": "",
          "type": "uint32"
        }
      ],
      "stateMutability": "view",
      "type": "function"
    },
    {
      "inputs": [
        {
          "internalType": "uint256",
          "name": "tokenId",
          "type": "uint256"
        }
      ],
      "name": "getApproved",
      "outputs": [
        {
          "internalType": "address",
          "name": "",
          "type": "address"
        }
      ],
      "stateMutability": "view",
      "type": "function"
    },
    {
      "inputs": [
        {
          "internalType": "uint256",
          "name": "_momId",
          "type": "uint256"
        }
      ],
      "name": "inviteFriend",
      "outputs": [
        {
          "internalType": "uint256",
          "name": "",
          "type": "uint256"
        }
      ],
      "stateMutability": "nonpayable",
      "type": "function"
    },
    {
      "inputs": [
        {
          "internalType": "address",
          "name": "owner",
          "type": "address"
        },
        {
          "internalType": "address",
          "name": "operator",
          "type": "address"
        }
      ],
      "name": "isApprovedForAll",
      "outputs": [
        {
          "internalType": "bool",
          "name": "",
          "type": "bool"
        }
      ],
      "stateMutability": "view",
      "type": "function"
    },
    {
      "inputs": [
        {
          "internalType": "uint256",
          "name": "_bummyId",
          "type": "uint256"
        }
      ],
      "name": "isReadyToCheer",
      "outputs": [
        {
          "internalType": "bool",
          "name": "",
          "type": "bool"
        }
      ],
      "stateMutability": "view",
      "type": "function"
    },
    {
      "inputs": [],
      "name": "name",
      "outputs": [
        {
          "internalType": "string",
          "name": "",
          "type": "string"
        }
      ],
      "stateMutability": "view",
      "type": "function"
    },
    {
      "inputs": [
        {
          "internalType": "uint256",
          "name": "tokenId",
          "type": "uint256"
        }
      ],
      "name": "ownerOf",
      "outputs": [
        {
          "internalType": "address",
          "name": "",
          "type": "address"
        }
      ],
      "stateMutability": "view",
      "type": "function"
    },
    {
      "inputs": [],
      "name": "pause",
      "outputs": [],
      "stateMutability": "nonpayable",
      "type": "function"
    },
    {
      "inputs": [],
      "name": "paused",
      "outputs": [
        {
          "internalType": "bool",
          "name": "",
          "type": "bool"
        }
      ],
      "stateMutability": "view",
      "type": "function"
    },
    {
      "inputs": [
        {
          "internalType": "uint256",
          "name": "_bummyId",
          "type": "uint256"
        },
        {
          "internalType": "address",
          "name": "_recipient",
          "type": "address"
        }
      ],
      "name": "rescueLostBummy",
      "outputs": [],
      "stateMutability": "nonpayable",
      "type": "function"
    },
    {
      "inputs": [
        {
          "internalType": "address",
          "name": "from",
          "type": "address"
        },
        {
          "internalType": "address",
          "name": "to",
          "type": "address"
        },
        {
          "internalType": "uint256",
          "name": "tokenId",
          "type": "uint256"
        }
      ],
      "name": "safeTransferFrom",
      "outputs": [],
      "stateMutability": "nonpayable",
      "type": "function"
    },
    {
      "inputs": [
        {
          "internalType": "address",
          "name": "from",
          "type": "address"
        },
        {
          "internalType": "address",
          "name": "to",
          "type": "address"
        },
        {
          "internalType": "uint256",
          "name": "tokenId",
          "type": "uint256"
        },
        {
          "internalType": "bytes",
          "name": "data",
          "type": "bytes"
        }
      ],
      "name": "safeTransferFrom",
      "outputs": [],
      "stateMutability": "nonpayable",
      "type": "function"
    },
    {
      "inputs": [
        {
          "internalType": "address",
          "name": "operator",
          "type": "address"
        },
        {
          "internalType": "bool",
          "name": "approved",
          "type": "bool"
        }
      ],
      "name": "setApprovalForAll",
      "outputs": [],
      "stateMutability": "nonpayable",
      "type": "function"
    },
    {
      "inputs": [
        {
          "internalType": "address",
          "name": "_newCEO",
          "type": "address"
        }
      ],
      "name": "setCEO",
      "outputs": [],
      "stateMutability": "nonpayable",
      "type": "function"
    },
    {
      "inputs": [
        {
          "internalType": "address",
          "name": "_newCOO",
          "type": "address"
        }
      ],
      "name": "setCOO",
      "outputs": [],
      "stateMutability": "nonpayable",
      "type": "function"
    },
    {
      "inputs": [
        {
          "internalType": "bytes4",
          "name": "interfaceId",
          "type": "bytes4"
        }
      ],
      "name": "supportsInterface",
      "outputs": [
        {
          "internalType": "bool",
          "name": "",
          "type": "bool"
        }
      ],
      "stateMutability": "view",
      "type": "function"
    },
    {
      "inputs": [],
      "name": "symbol",
      "outputs": [
        {
          "internalType": "string",
          "name": "",
          "type": "string"
        }
      ],
      "stateMutability": "view",
      "type": "function"
    },
    {
      "inputs": [
        {
          "internalType": "uint256",
          "name": "index",
          "type": "uint256"
        }
      ],
      "name": "tokenByIndex",
      "outputs": [
        {
          "internalType": "uint256",
          "name": "",
          "type": "uint256"
        }
      ],
      "stateMutability": "view",
      "type": "function"
    },
    {
      "inputs": [
        {
          "internalType": "address",
          "name": "owner",
          "type": "address"
        },
        {
          "internalType": "uint256",
          "name": "index",
          "type": "uint256"
        }
      ],
      "name": "tokenOfOwnerByIndex",
      "outputs": [
        {
          "internalType": "uint256",
          "name": "",
          "type": "uint256"
        }
      ],
      "stateMutability": "view",
      "type": "function"
    },
    {
      "inputs": [
        {
          "internalType": "uint256",
          "name": "tokenId",
          "type": "uint256"
        }
      ],
      "name": "tokenURI",
      "outputs": [
        {
          "internalType": "string",
          "name": "",
          "type": "string"
        }
      ],
      "stateMutability": "view",
      "type": "function"
    },
    {
      "inputs": [],
      "name": "totalSupply",
      "outputs": [
        {
          "internalType": "uint256",
          "name": "",
          "type": "uint256"
        }
      ],
      "stateMutability": "view",
      "type": "function"
    },
    {
      "inputs": [
        {
          "internalType": "address",
          "name": "from",
          "type": "address"
        },
        {
          "internalType": "address",
          "name": "to",
          "type": "address"
        },
        {
          "internalType": "uint256",
          "name": "tokenId",
          "type": "uint256"
        }
      ],
      "name": "transferFrom",
      "outputs": [],
      "stateMutability": "nonpayable",
      "type": "function"
    },
    {
      "inputs": [],
      "name": "unpause",
      "outputs": [],
      "stateMutability": "nonpayable",
      "type": "function"
    }
  ],
  "bytecode": "0x60806040526040518060400160405280600881526020017f42756d6d794e4654000000000000000000000000000000000000000000000000815250600d90816200004a91906200060a565b506040518060400160405280600281526020017f4256000000000000000000000000000000000000000000000000000000000000815250600e90816200009191906200060a565b50604051806101000160405280603c63ffffffff1663ffffffff168152602001607863ffffffff1663ffffffff16815260200161012c63ffffffff1663ffffffff16815260200161025863ffffffff1663ffffffff16815260200161070863ffffffff1663ffffffff168152602001610e1063ffffffff1663ffffffff168152602001611c2063ffffffff1663ffffffff16815260200161384063ffffffff1663ffffffff16815250600f9060086200014c929190620002c7565b503480156200015a57600080fd5b50600d80546200016a90620003f9565b80601f01602080910402602001604051908101604052809291908181526020018280546200019890620003f9565b8015620001e95780601f10620001bd57610100808354040283529160200191620001e9565b820191906000526020600020905b815481529060010190602001808311620001cb57829003601f168201915b5050505050600e8054620001fd90620003f9565b80601f01602080910402602001604051908101604052809291908181526020018280546200022b90620003f9565b80156200027c5780601f1062000250576101008083540402835291602001916200027c565b820191906000526020600020905b8154815290600101906020018083116200025e57829003601f168201915b505050505060008060006101000a81548160ff0219169083151502179055508160039081620002ac91906200060a565b508060049081620002be91906200060a565b505050620006f1565b8260086007016008900481019282156200035e5791602002820160005b838211156200032a57835183826101000a81548163ffffffff021916908363ffffffff1602179055509260200192600401602081600301049283019260010302620002e4565b80156200035c5782816101000a81549063ffffffff02191690556004016020816003010492830192600103026200032a565b505b5090506200036d919062000371565b5090565b5b808211156200038c57600081600090555060010162000372565b5090565b600081519050919050565b7f4e487b7100000000000000000000000000000000000000000000000000000000600052604160045260246000fd5b7f4e487b7100000000000000000000000000000000000000000000000000000000600052602260045260246000fd5b600060028204905060018216806200041257607f821691505b602082108103620004285762000427620003ca565b5b50919050565b60008190508160005260206000209050919050565b60006020601f8301049050919050565b600082821b905092915050565b600060088302620004927fffffffffffffffffffffffffffffffffffffffffffffffffffffffffffffffff8262000453565b6200049e868362000453565b95508019841693508086168417925050509392505050565b6000819050919050565b6000819050919050565b6000620004eb620004e5620004df84620004b6565b620004c0565b620004b6565b9050919050565b6000819050919050565b6200050783620004ca565b6200051f6200051682620004f2565b84845462000460565b825550505050565b600090565b6200053662000527565b62000543818484620004fc565b505050565b5b818110156200056b576200055f6000826200052c565b60018101905062000549565b5050565b601f821115620005ba5762000584816200042e565b6200058f8462000443565b810160208510156200059f578190505b620005b7620005ae8562000443565b83018262000548565b50505b505050565b600082821c905092915050565b6000620005df60001984600802620005bf565b1980831691505092915050565b6000620005fa8383620005cc565b9150826002028217905092915050565b620006158262000390565b67ffffffffffffffff8111156200063157620006306200039b565b5b6200063d8254620003f9565b6200064a8282856200056f565b600060209050601f8311600181146200068257600084156200066d578287015190505b620006798582620005ec565b865550620006e9565b601f19841662000692866200042e565b60005b82811015620006bc5784890151825560018201915060208501945060208101905062000695565b86831015620006dc5784890151620006d8601f891682620005cc565b8355505b6001600288020188555050505b505050505050565b614c4580620007016000396000f3fe608060405234801561001057600080fd5b50600436106101f05760003560e01c80635edbf3601161010f5780639d586663116100a2578063b88d4fde11610071578063b88d4fde146105b7578063c7b6b436146105d3578063c87b56dd14610603578063e985e9c514610633576101f0565b80639d586663146105315780639d6fac6f1461054d578063a22cb4651461057d578063b047fb5014610599576101f0565b80637814da8e116100de5780637814da8e146104d15780638456cb59146104ed578063851d9a52146104f757806395d89b4114610513576101f0565b80635edbf360146104115780636352211e1461044157806364bee5e51461047157806370a08231146104a1576101f0565b806323b872dd116101875780633f4ba83a116101565780633f4ba83a1461039d57806342842e0e146103a75780634f6ccce7146103c35780635c975abb146103f3576101f0565b806323b872dd1461031957806327d7874c146103355780632ba73c15146103515780632f745c591461036d576101f0565b8063095ea7b3116101c3578063095ea7b3146102915780630a0f8168146102ad57806317091d05146102cb57806318160ddd146102fb576101f0565b806301ffc9a7146101f55780630519ce791461022557806306fdde0314610243578063081812fc14610261575b600080fd5b61020f600480360381019061020a91906138ff565b610663565b60405161021c9190613947565b60405180910390f35b61022d6106dd565b60405161023a91906139a3565b60405180910390f35b61024b610703565b6040516102589190613a4e565b60405180910390f35b61027b60048036038101906102769190613aa6565b610795565b60405161028891906139a3565b60405180910390f35b6102ab60048036038101906102a69190613aff565b6107db565b005b6102b56108f2565b6040516102c291906139a3565b60405180910390f35b6102e560048036038101906102e09190613aa6565b610918565b6040516102f29190613947565b60405180910390f35b610303610aa3565b6040516103109190613b4e565b60405180910390f35b610333600480360381019061032e9190613b69565b610ab0565b005b61034f600480360381019061034a9190613bbc565b610b10565b005b61036b60048036038101906103669190613bbc565b610be7565b005b61038760048036038101906103829190613aff565b610cbe565b6040516103949190613b4e565b60405180910390f35b6103a5610d63565b005b6103c160048036038101906103bc9190613b69565b610dc7565b005b6103dd60048036038101906103d89190613aa6565b610de7565b6040516103ea9190613b4e565b60405180910390f35b6103fb610e58565b6040516104089190613947565b60405180910390f35b61042b60048036038101906104269190613aa6565b610e6e565b60405161043891906139a3565b60405180910390f35b61045b60048036038101906104569190613aa6565b610ea1565b60405161046891906139a3565b60405180910390f35b61048b60048036038101906104869190613be9565b610f27565b6040516104989190613947565b60405180910390f35b6104bb60048036038101906104b69190613bbc565b610fb6565b6040516104c89190613b4e565b60405180910390f35b6104eb60048036038101906104e69190613aff565b61106d565b005b6104f56110de565b005b610511600480360381019061050c9190613be9565b6111f2565b005b61051b611541565b6040516105289190613a4e565b60405180910390f35b61054b60048036038101906105469190613c29565b6115d3565b005b61056760048036038101906105629190613aa6565b611657565b6040516105749190613c88565b60405180910390f35b61059760048036038101906105929190613ccf565b611687565b005b6105a161169d565b6040516105ae91906139a3565b60405180910390f35b6105d160048036038101906105cc9190613e44565b6116c3565b005b6105ed60048036038101906105e89190613aa6565b611725565b6040516105fa9190613b4e565b60405180910390f35b61061d60048036038101906106189190613aa6565b611a4e565b60405161062a9190613a4e565b60405180910390f35b61064d60048036038101906106489190613ec7565b611ab6565b60405161065a9190613947565b60405180910390f35b60007f780e9d63000000000000000000000000000000000000000000000000000000007bffffffffffffffffffffffffffffffffffffffffffffffffffffffff1916827bffffffffffffffffffffffffffffffffffffffffffffffffffffffff191614806106d657506106d582611b4a565b5b9050919050565b600160009054906101000a900473ffffffffffffffffffffffffffffffffffffffff1681565b60606003805461071290613f36565b80601f016020809104026020016040519081016040528092919081815260200182805461073e90613f36565b801561078b5780601f106107605761010080835404028352916020019161078b565b820191906000526020600020905b81548152906001019060200180831161076e57829003601f168201915b5050505050905090565b60006107a082611c2c565b6007600083815260200190815260200160002060009054906101000a900473ffffffffffffffffffffffffffffffffffffffff169050919050565b60006107e682610ea1565b90508073ffffffffffffffffffffffffffffffffffffffff168373ffffffffffffffffffffffffffffffffffffffff1603610856576040517f08c379a000000000000000000000000000000000000000000000000000000000815260040161084d90613fd9565b60405180910390fd5b8073ffffffffffffffffffffffffffffffffffffffff16610875611c77565b73ffffffffffffffffffffffffffffffffffffffff1614806108a457506108a38161089e611c77565b611ab6565b5b6108e3576040517f08c379a00000000000000000000000000000000000000000000000000000000081526004016108da9061406b565b60405180910390fd5b6108ed8383611c7f565b505050565b600060019054906101000a900473ffffffffffffffffffffffffffffffffffffffff1681565b600080821161092657600080fd5b60006010838154811061093c5761093b61408b565b5b90600052602060002090600202019050610a9b8160405180610120016040529081600082015481526020016001820160009054906101000a900467ffffffffffffffff1667ffffffffffffffff1667ffffffffffffffff1681526020016001820160089054906101000a900467ffffffffffffffff1667ffffffffffffffff1667ffffffffffffffff1681526020016001820160109054906101000a900463ffffffff1663ffffffff1663ffffffff1681526020016001820160149054906101000a900463ffffffff1663ffffffff1663ffffffff1681526020016001820160189054906101000a900463ffffffff1663ffffffff1663ffffffff16815260200160018201601c9054906101000a900460ff1660ff1660ff16815260200160018201601d9054906101000a900460ff1660ff1660ff16815260200160018201601e9054906101000a900461ffff1661ffff1661ffff1681525050611d38565b915050919050565b6000600b80549050905090565b610ac1610abb611c77565b82611d68565b610b00576040517f08c379a0000000000000000000000000000000000000000000000000000000008152600401610af79061412c565b60405180910390fd5b610b0b838383611dfd565b505050565b600060019054906101000a900473ffffffffffffffffffffffffffffffffffffffff1673ffffffffffffffffffffffffffffffffffffffff163373ffffffffffffffffffffffffffffffffffffffff1614610b6a57600080fd5b600073ffffffffffffffffffffffffffffffffffffffff168173ffffffffffffffffffffffffffffffffffffffff1603610ba357600080fd5b80600060016101000a81548173ffffffffffffffffffffffffffffffffffffffff021916908373ffffffffffffffffffffffffffffffffffffffff16021790555050565b600060019054906101000a900473ffffffffffffffffffffffffffffffffffffffff1673ffffffffffffffffffffffffffffffffffffffff163373ffffffffffffffffffffffffffffffffffffffff1614610c4157600080fd5b600073ffffffffffffffffffffffffffffffffffffffff168173ffffffffffffffffffffffffffffffffffffffff1603610c7a57600080fd5b80600260006101000a81548173ffffffffffffffffffffffffffffffffffffffff021916908373ffffffffffffffffffffffffffffffffffffffff16021790555050565b6000610cc983610fb6565b8210610d0a576040517f08c379a0000000000000000000000000000000000000000000000000000000008152600401610d01906141be565b60405180910390fd5b600960008473ffffffffffffffffffffffffffffffffffffffff1673ffffffffffffffffffffffffffffffffffffffff168152602001908152602001600020600083815260200190815260200160002054905092915050565b600060019054906101000a900473ffffffffffffffffffffffffffffffffffffffff1673ffffffffffffffffffffffffffffffffffffffff163373ffffffffffffffffffffffffffffffffffffffff1614610dbd57600080fd5b610dc5611e78565b565b610de2838383604051806020016040528060008152506116c3565b505050565b6000610df1610aa3565b8210610e32576040517f08c379a0000000000000000000000000000000000000000000000000000000008152600401610e2990614250565b60405180910390fd5b600b8281548110610e4657610e4561408b565b5b90600052602060002001549050919050565b60008060009054906101000a900460ff16905090565b60116020528060005260406000206000915054906101000a900473ffffffffffffffffffffffffffffffffffffffff1681565b600080610ead83611eda565b9050600073ffffffffffffffffffffffffffffffffffffffff168173ffffffffffffffffffffffffffffffffffffffff1603610f1e576040517f08c379a0000000000000000000000000000000000000000000000000000000008152600401610f15906142bc565b60405180910390fd5b80915050919050565b6000808311610f3557600080fd5b60008211610f4257600080fd5b600060108481548110610f5857610f5761408b565b5b90600052602060002090600202019050600060108481548110610f7e57610f7d61408b565b5b90600052602060002090600202019050610f9a82868387611f17565b8015610fac5750610fab848661212b565b5b9250505092915050565b60008073ffffffffffffffffffffffffffffffffffffffff168273ffffffffffffffffffffffffffffffffffffffff1603611026576040517f08c379a000000000000000000000000000000000000000000000000000000000815260040161101d9061434e565b60405180910390fd5b600660008373ffffffffffffffffffffffffffffffffffffffff1673ffffffffffffffffffffffffffffffffffffffff168152602001908152602001600020549050919050565b6110756121a4565b61107f33826121ee565b61108857600080fd5b816011600083815260200190815260200160002060006101000a81548173ffffffffffffffffffffffffffffffffffffffff021916908373ffffffffffffffffffffffffffffffffffffffff1602179055505050565b600260009054906101000a900473ffffffffffffffffffffffffffffffffffffffff1673ffffffffffffffffffffffffffffffffffffffff163373ffffffffffffffffffffffffffffffffffffffff1614806111875750600060019054906101000a900473ffffffffffffffffffffffffffffffffffffffff1673ffffffffffffffffffffffffffffffffffffffff163373ffffffffffffffffffffffffffffffffffffffff16145b806111df5750600160009054906101000a900473ffffffffffffffffffffffffffffffffffffffff1673ffffffffffffffffffffffffffffffffffffffff163373ffffffffffffffffffffffffffffffffffffffff16145b6111e857600080fd5b6111f0612234565b565b6111fa6121a4565b61120433836121ee565b61120d57600080fd5b611217818361212b565b61122057600080fd5b6000601083815481106112365761123561408b565b5b906000526020600020906002020190506113958160405180610120016040529081600082015481526020016001820160009054906101000a900467ffffffffffffffff1667ffffffffffffffff1667ffffffffffffffff1681526020016001820160089054906101000a900467ffffffffffffffff1667ffffffffffffffff1667ffffffffffffffff1681526020016001820160109054906101000a900463ffffffff1663ffffffff1663ffffffff1681526020016001820160149054906101000a900463ffffffff1663ffffffff1663ffffffff1681526020016001820160189054906101000a900463ffffffff1663ffffffff1663ffffffff16815260200160018201601c9054906101000a900460ff1660ff1660ff16815260200160018201601d9054906101000a900460ff1660ff1660ff16815260200160018201601e9054906101000a900461ffff1661ffff1661ffff1681525050611d38565b61139e57600080fd5b6000601083815481106113b4576113b361408b565b5b906000526020600020906002020190506115138160405180610120016040529081600082015481526020016001820160009054906101000a900467ffffffffffffffff1667ffffffffffffffff1667ffffffffffffffff1681526020016001820160089054906101000a900467ffffffffffffffff1667ffffffffffffffff1667ffffffffffffffff1681526020016001820160109054906101000a900463ffffffff1663ffffffff1663ffffffff1681526020016001820160149054906101000a900463ffffffff1663ffffffff1663ffffffff1681526020016001820160189054906101000a900463ffffffff1663ffffffff1663ffffffff16815260200160018201601c9054906101000a900460ff1660ff1660ff16815260200160018201601d9054906101000a900460ff1660ff1660ff16815260200160018201601e9054906101000a900461ffff1661ffff1661ffff1681525050611d38565b61151c57600080fd5b61152882858386611f17565b61153157600080fd5b61153b8484612296565b50505050565b60606004805461155090613f36565b80601f016020809104026020016040519081016040528092919081815260200182805461157c90613f36565b80156115c95780601f1061159e576101008083540402835291602001916115c9565b820191906000526020600020905b8154815290600101906020018083116115ac57829003601f168201915b5050505050905090565b600260009054906101000a900473ffffffffffffffffffffffffffffffffffffffff1673ffffffffffffffffffffffffffffffffffffffff163373ffffffffffffffffffffffffffffffffffffffff161461162d57600080fd5b6116356121a4565b61163f30836121ee565b61164857600080fd5b611653308284611dfd565b5050565b600f816008811061166757600080fd5b60089182820401919006600402915054906101000a900463ffffffff1681565b611699611692611c77565b83836123cc565b5050565b600260009054906101000a900473ffffffffffffffffffffffffffffffffffffffff1681565b6116d46116ce611c77565b83611d68565b611713576040517f08c379a000000000000000000000000000000000000000000000000000000000815260040161170a9061412c565b60405180910390fd5b61171f84848484612538565b50505050565b600061172f6121a4565b6000601083815481106117455761174461408b565b5b9060005260206000209060020201905060008160010160009054906101000a900467ffffffffffffffff1667ffffffffffffffff160361178457600080fd5b6118d38160405180610120016040529081600082015481526020016001820160009054906101000a900467ffffffffffffffff1667ffffffffffffffff1667ffffffffffffffff1681526020016001820160089054906101000a900467ffffffffffffffff1667ffffffffffffffff1667ffffffffffffffff1681526020016001820160109054906101000a900463ffffffff1663ffffffff1663ffffffff1681526020016001820160149054906101000a900463ffffffff1663ffffffff1663ffffffff1681526020016001820160189054906101000a900463ffffffff1663ffffffff1663ffffffff16815260200160018201601c9054906101000a900460ff1660ff1660ff16815260200160018201601d9054906101000a900460ff1660ff1660ff16815260200160018201601e9054906101000a900461ffff1661ffff1661ffff1681525050612594565b6118dc57600080fd5b60008160010160189054906101000a900463ffffffff1663ffffffff1690506000601082815481106119115761191061408b565b5b90600052602060002090600202019050600083600101601e9054906101000a900461ffff16905083600101601e9054906101000a900461ffff1661ffff1682600101601e9054906101000a900461ffff1661ffff1611156119825781600101601e9054906101000a900461ffff1690505b60004244338760000154416040516020016119a1959493929190614412565b6040516020818303038152906040528051906020012060001c9050600081846000015487600001546119d391906144a0565b6119dd91906144a0565b905060006119ea89611eda565b90506000611a258a8960010160189054906101000a900463ffffffff1663ffffffff16600188611a1a91906144e2565b61ffff1686866125c5565b90508760010160186101000a81549063ffffffff02191690558098505050505050505050919050565b6060611a5982611c2c565b6000611a6361288c565b90506000815111611a835760405180602001604052806000815250611aae565b80611a8d846128a3565b604051602001611a9e929190614554565b6040516020818303038152906040525b915050919050565b6000600860008473ffffffffffffffffffffffffffffffffffffffff1673ffffffffffffffffffffffffffffffffffffffff16815260200190815260200160002060008373ffffffffffffffffffffffffffffffffffffffff1673ffffffffffffffffffffffffffffffffffffffff16815260200190815260200160002060009054906101000a900460ff16905092915050565b60007f80ac58cd000000000000000000000000000000000000000000000000000000007bffffffffffffffffffffffffffffffffffffffffffffffffffffffff1916827bffffffffffffffffffffffffffffffffffffffffffffffffffffffff19161480611c1557507f5b5e139f000000000000000000000000000000000000000000000000000000007bffffffffffffffffffffffffffffffffffffffffffffffffffffffff1916827bffffffffffffffffffffffffffffffffffffffffffffffffffffffff1916145b80611c255750611c2482612971565b5b9050919050565b611c35816129db565b611c74576040517f08c379a0000000000000000000000000000000000000000000000000000000008152600401611c6b906142bc565b60405180910390fd5b50565b600033905090565b816007600083815260200190815260200160002060006101000a81548173ffffffffffffffffffffffffffffffffffffffff021916908373ffffffffffffffffffffffffffffffffffffffff160217905550808273ffffffffffffffffffffffffffffffffffffffff16611cf283610ea1565b73ffffffffffffffffffffffffffffffffffffffff167f8c5be1e5ebec7d5bd14f71427d1e84f3dd0314c0f7b2291e5b200ac8c7c3b92560405160405180910390a45050565b6000808260a0015163ffffffff16148015611d61575042826040015167ffffffffffffffff1611155b9050919050565b600080611d7483610ea1565b90508073ffffffffffffffffffffffffffffffffffffffff168473ffffffffffffffffffffffffffffffffffffffff161480611db65750611db58185611ab6565b5b80611df457508373ffffffffffffffffffffffffffffffffffffffff16611ddc84610795565b73ffffffffffffffffffffffffffffffffffffffff16145b91505092915050565b600073ffffffffffffffffffffffffffffffffffffffff168373ffffffffffffffffffffffffffffffffffffffff1614611e68576011600082815260200190815260200160002060006101000a81549073ffffffffffffffffffffffffffffffffffffffff02191690555b611e73838383612a1c565b505050565b611e80612d15565b60008060006101000a81548160ff0219169083151502179055507f5db9ee0a495bf2e6ff9c91a7834c1ba4fdd244a5e8aa4e537bd38aeae4b073aa611ec3611c77565b604051611ed091906139a3565b60405180910390a1565b60006005600083815260200190815260200160002060009054906101000a900473ffffffffffffffffffffffffffffffffffffffff169050919050565b6000818403611f295760009050612123565b818560010160109054906101000a900463ffffffff1663ffffffff161480611f6a5750818560010160149054906101000a900463ffffffff1663ffffffff16145b15611f785760009050612123565b838360010160109054906101000a900463ffffffff1663ffffffff161480611fb95750838360010160149054906101000a900463ffffffff1663ffffffff16145b15611fc75760009050612123565b60008360010160109054906101000a900463ffffffff1663ffffffff16148061200a575060008560010160109054906101000a900463ffffffff1663ffffffff16145b156120185760019050612123565b8460010160109054906101000a900463ffffffff1663ffffffff168360010160109054906101000a900463ffffffff1663ffffffff16148061208d57508460010160149054906101000a900463ffffffff1663ffffffff168360010160109054906101000a900463ffffffff1663ffffffff16145b1561209b5760009050612123565b8460010160109054906101000a900463ffffffff1663ffffffff168360010160149054906101000a900463ffffffff1663ffffffff16148061211057508460010160149054906101000a900463ffffffff1663ffffffff168360010160149054906101000a900463ffffffff1663ffffffff16145b1561211e5760009050612123565b600190505b949350505050565b60008061213783611eda565b90508073ffffffffffffffffffffffffffffffffffffffff166011600086815260200190815260200160002060009054906101000a900473ffffffffffffffffffffffffffffffffffffffff1673ffffffffffffffffffffffffffffffffffffffff161491505092915050565b6121ac610e58565b156121ec576040517f08c379a00000000000000000000000000000000000000000000000000000000081526004016121e3906145c4565b60405180910390fd5b565b6000806121fa83610ea1565b90508073ffffffffffffffffffffffffffffffffffffffff168473ffffffffffffffffffffffffffffffffffffffff161491505092915050565b61223c6121a4565b60016000806101000a81548160ff0219169083151502179055507f62e78cea01bee320cd4e420270b5ea74000d11b0c9f74754ebdbfc544b05a25861227f611c77565b60405161228c91906139a3565b60405180910390a1565b6000601082815481106122ac576122ab61408b565b5b906000526020600020906002020190506000601084815481106122d2576122d161408b565b5b90600052602060002090600202019050828160010160186101000a81548163ffffffff021916908363ffffffff16021790555061230e82612d5e565b61231781612d5e565b6011600085815260200190815260200160002060006101000a81549073ffffffffffffffffffffffffffffffffffffffff02191690556011600084815260200190815260200160002060006101000a81549073ffffffffffffffffffffffffffffffffffffffff02191690557fb57bb8abbb44a6cff7417131e5eb1d3703a22072a6985e3ff6c653fc91056bb16123ad85611eda565b85856040516123be939291906145e4565b60405180910390a150505050565b8173ffffffffffffffffffffffffffffffffffffffff168373ffffffffffffffffffffffffffffffffffffffff160361243a576040517f08c379a000000000000000000000000000000000000000000000000000000000815260040161243190614667565b60405180910390fd5b80600860008573ffffffffffffffffffffffffffffffffffffffff1673ffffffffffffffffffffffffffffffffffffffff16815260200190815260200160002060008473ffffffffffffffffffffffffffffffffffffffff1673ffffffffffffffffffffffffffffffffffffffff16815260200190815260200160002060006101000a81548160ff0219169083151502179055508173ffffffffffffffffffffffffffffffffffffffff168373ffffffffffffffffffffffffffffffffffffffff167f17307eab39ab6107e8899845ad3d59bd9653f200f220920489ca2b5937696c318360405161252b9190613947565b60405180910390a3505050565b612543848484611dfd565b61254f84848484612e90565b61258e576040517f08c379a0000000000000000000000000000000000000000000000000000000008152600401612585906146f9565b60405180910390fd5b50505050565b6000808260a0015163ffffffff16141580156125be575042826040015167ffffffffffffffff1611155b9050919050565b600063ffffffff8611156125d857600080fd5b63ffffffff8511156125e957600080fd5b61ffff8411156125f857600080fd5b60006040518061012001604052808581526020014267ffffffffffffffff168152602001600067ffffffffffffffff1681526020018863ffffffff1681526020018763ffffffff168152602001600063ffffffff168152602001600060ff168152602001600060ff1681526020018661ffff16815250905060108190806001815401808255809150506001900390600052602060002090600202016000909190919091506000820151816000015560208201518160010160006101000a81548167ffffffffffffffff021916908367ffffffffffffffff16021790555060408201518160010160086101000a81548167ffffffffffffffff021916908367ffffffffffffffff16021790555060608201518160010160106101000a81548163ffffffff021916908363ffffffff16021790555060808201518160010160146101000a81548163ffffffff021916908363ffffffff16021790555060a08201518160010160186101000a81548163ffffffff021916908363ffffffff16021790555060c082015181600101601c6101000a81548160ff021916908360ff16021790555060e082015181600101601d6101000a81548160ff021916908360ff16021790555061010082015181600101601e6101000a81548161ffff021916908361ffff1602179055505050600060016010805490506127f59190614719565b905063ffffffff81111561280857600080fd5b8373ffffffffffffffffffffffffffffffffffffffff167f14cb614758d3c982e9d2ae0ad129c2c2bdb4c5ba841155dced7bed1a27834de782846060015163ffffffff16856080015163ffffffff16866000015160405161286c949392919061474d565b60405180910390a261287e8482613017565b809250505095945050505050565b606060405180602001604052806000815250905090565b6060600060016128b284613035565b01905060008167ffffffffffffffff8111156128d1576128d0613d19565b5b6040519080825280601f01601f1916602001820160405280156129035781602001600182028036833780820191505090505b509050600082602001820190505b600115612966578080600190039150507f3031323334353637383961626364656600000000000000000000000000000000600a86061a8153600a858161295a57612959614792565b5b04945060008503612911575b819350505050919050565b60007f01ffc9a7000000000000000000000000000000000000000000000000000000007bffffffffffffffffffffffffffffffffffffffffffffffffffffffff1916827bffffffffffffffffffffffffffffffffffffffffffffffffffffffff1916149050919050565b60008073ffffffffffffffffffffffffffffffffffffffff166129fd83611eda565b73ffffffffffffffffffffffffffffffffffffffff1614159050919050565b8273ffffffffffffffffffffffffffffffffffffffff16612a3c82610ea1565b73ffffffffffffffffffffffffffffffffffffffff1614612a92576040517f08c379a0000000000000000000000000000000000000000000000000000000008152600401612a8990614833565b60405180910390fd5b600073ffffffffffffffffffffffffffffffffffffffff168273ffffffffffffffffffffffffffffffffffffffff1603612b01576040517f08c379a0000000000000000000000000000000000000000000000000000000008152600401612af8906148c5565b60405180910390fd5b612b0e8383836001613188565b8273ffffffffffffffffffffffffffffffffffffffff16612b2e82610ea1565b73ffffffffffffffffffffffffffffffffffffffff1614612b84576040517f08c379a0000000000000000000000000000000000000000000000000000000008152600401612b7b90614833565b60405180910390fd5b6007600082815260200190815260200160002060006101000a81549073ffffffffffffffffffffffffffffffffffffffff02191690556001600660008573ffffffffffffffffffffffffffffffffffffffff1673ffffffffffffffffffffffffffffffffffffffff168152602001908152602001600020600082825403925050819055506001600660008473ffffffffffffffffffffffffffffffffffffffff1673ffffffffffffffffffffffffffffffffffffffff16815260200190815260200160002060008282540192505081905550816005600083815260200190815260200160002060006101000a81548173ffffffffffffffffffffffffffffffffffffffff021916908373ffffffffffffffffffffffffffffffffffffffff160217905550808273ffffffffffffffffffffffffffffffffffffffff168473ffffffffffffffffffffffffffffffffffffffff167fddf252ad1be2c89b69c2b068fc378daa952ba7f163c4a11628f55a4df523b3ef60405160405180910390a4612d1083838360016132e6565b505050565b612d1d610e58565b612d5c576040517f08c379a0000000000000000000000000000000000000000000000000000000008152600401612d5390614931565b60405180910390fd5b565b600f81600101601c9054906101000a900460ff1660ff1660088110612d8657612d8561408b565b5b600891828204019190066004029054906101000a900463ffffffff1663ffffffff1642612db391906144a0565b8160010160086101000a81548167ffffffffffffffff021916908367ffffffffffffffff160217905550600581600101601c9054906101000a900460ff1660ff16108015612e155750600381600101601d9054906101000a900460ff1660ff16105b15612e8d57600181600101601c8282829054906101000a900460ff16612e3b919061495e565b92506101000a81548160ff021916908360ff160217905550600181600101601d8282829054906101000a900460ff16612e74919061495e565b92506101000a81548160ff021916908360ff1602179055505b50565b6000612eb18473ffffffffffffffffffffffffffffffffffffffff166132ec565b1561300a578373ffffffffffffffffffffffffffffffffffffffff1663150b7a02612eda611c77565b8786866040518563ffffffff1660e01b8152600401612efc94939291906149e8565b6020604051808303816000875af1925050508015612f3857506040513d601f19601f82011682018060405250810190612f359190614a49565b60015b612fba573d8060008114612f68576040519150601f19603f3d011682016040523d82523d6000602084013e612f6d565b606091505b506000815103612fb2576040517f08c379a0000000000000000000000000000000000000000000000000000000008152600401612fa9906146f9565b60405180910390fd5b805181602001fd5b63150b7a0260e01b7bffffffffffffffffffffffffffffffffffffffffffffffffffffffff1916817bffffffffffffffffffffffffffffffffffffffffffffffffffffffff19161491505061300f565b600190505b949350505050565b61303182826040518060200160405280600081525061330f565b5050565b600080600090507a184f03e93ff9f4daa797ed6e38ed64bf6a1f0100000000000000008310613093577a184f03e93ff9f4daa797ed6e38ed64bf6a1f010000000000000000838161308957613088614792565b5b0492506040810190505b6d04ee2d6d415b85acef810000000083106130d0576d04ee2d6d415b85acef810000000083816130c6576130c5614792565b5b0492506020810190505b662386f26fc1000083106130ff57662386f26fc1000083816130f5576130f4614792565b5b0492506010810190505b6305f5e1008310613128576305f5e100838161311e5761311d614792565b5b0492506008810190505b612710831061314d57612710838161314357613142614792565b5b0492506004810190505b60648310613170576064838161316657613165614792565b5b0492506002810190505b600a831061317f576001810190505b80915050919050565b6131948484848461336a565b60018111156131d8576040517f08c379a00000000000000000000000000000000000000000000000000000000081526004016131cf90614ae8565b60405180910390fd5b6000829050600073ffffffffffffffffffffffffffffffffffffffff168573ffffffffffffffffffffffffffffffffffffffff160361321f5761321a81613370565b61325e565b8373ffffffffffffffffffffffffffffffffffffffff168573ffffffffffffffffffffffffffffffffffffffff161461325d5761325c85826133b9565b5b5b600073ffffffffffffffffffffffffffffffffffffffff168473ffffffffffffffffffffffffffffffffffffffff16036132a05761329b81613526565b6132df565b8473ffffffffffffffffffffffffffffffffffffffff168473ffffffffffffffffffffffffffffffffffffffff16146132de576132dd84826135f7565b5b5b5050505050565b50505050565b6000808273ffffffffffffffffffffffffffffffffffffffff163b119050919050565b6133198383613676565b6133266000848484612e90565b613365576040517f08c379a000000000000000000000000000000000000000000000000000000000815260040161335c906146f9565b60405180910390fd5b505050565b50505050565b600b80549050600c600083815260200190815260200160002081905550600b81908060018154018082558091505060019003906000526020600020016000909190919091505550565b600060016133c684610fb6565b6133d09190614719565b90506000600a60008481526020019081526020016000205490508181146134b5576000600960008673ffffffffffffffffffffffffffffffffffffffff1673ffffffffffffffffffffffffffffffffffffffff168152602001908152602001600020600084815260200190815260200160002054905080600960008773ffffffffffffffffffffffffffffffffffffffff1673ffffffffffffffffffffffffffffffffffffffff16815260200190815260200160002060008481526020019081526020016000208190555081600a600083815260200190815260200160002081905550505b600a600084815260200190815260200160002060009055600960008573ffffffffffffffffffffffffffffffffffffffff1673ffffffffffffffffffffffffffffffffffffffff16815260200190815260200160002060008381526020019081526020016000206000905550505050565b60006001600b8054905061353a9190614719565b90506000600c60008481526020019081526020016000205490506000600b838154811061356a5761356961408b565b5b9060005260206000200154905080600b838154811061358c5761358b61408b565b5b906000526020600020018190555081600c600083815260200190815260200160002081905550600c600085815260200190815260200160002060009055600b8054806135db576135da614b08565b5b6001900381819060005260206000200160009055905550505050565b600061360283610fb6565b905081600960008573ffffffffffffffffffffffffffffffffffffffff1673ffffffffffffffffffffffffffffffffffffffff16815260200190815260200160002060008381526020019081526020016000208190555080600a600084815260200190815260200160002081905550505050565b600073ffffffffffffffffffffffffffffffffffffffff168273ffffffffffffffffffffffffffffffffffffffff16036136e5576040517f08c379a00000000000000000000000000000000000000000000000000000000081526004016136dc90614b83565b60405180910390fd5b6136ee816129db565b1561372e576040517f08c379a000000000000000000000000000000000000000000000000000000000815260040161372590614bef565b60405180910390fd5b61373c600083836001613188565b613745816129db565b15613785576040517f08c379a000000000000000000000000000000000000000000000000000000000815260040161377c90614bef565b60405180910390fd5b6001600660008473ffffffffffffffffffffffffffffffffffffffff1673ffffffffffffffffffffffffffffffffffffffff16815260200190815260200160002060008282540192505081905550816005600083815260200190815260200160002060006101000a81548173ffffffffffffffffffffffffffffffffffffffff021916908373ffffffffffffffffffffffffffffffffffffffff160217905550808273ffffffffffffffffffffffffffffffffffffffff16600073ffffffffffffffffffffffffffffffffffffffff167fddf252ad1be2c89b69c2b068fc378daa952ba7f163c4a11628f55a4df523b3ef60405160405180910390a461388f6000838360016132e6565b5050565b6000604051905090565b600080fd5b600080fd5b60007fffffffff0000000000000000000000000000000000000000000000000000000082169050919050565b6138dc816138a7565b81146138e757600080fd5b50565b6000813590506138f9816138d3565b92915050565b6000602082840312156139155761391461389d565b5b6000613923848285016138ea565b91505092915050565b60008115159050919050565b6139418161392c565b82525050565b600060208201905061395c6000830184613938565b92915050565b600073ffffffffffffffffffffffffffffffffffffffff82169050919050565b600061398d82613962565b9050919050565b61399d81613982565b82525050565b60006020820190506139b86000830184613994565b92915050565b600081519050919050565b600082825260208201905092915050565b60005b838110156139f85780820151818401526020810190506139dd565b60008484015250505050565b6000601f19601f8301169050919050565b6000613a20826139be565b613a2a81856139c9565b9350613a3a8185602086016139da565b613a4381613a04565b840191505092915050565b60006020820190508181036000830152613a688184613a15565b905092915050565b6000819050919050565b613a8381613a70565b8114613a8e57600080fd5b50565b600081359050613aa081613a7a565b92915050565b600060208284031215613abc57613abb61389d565b5b6000613aca84828501613a91565b91505092915050565b613adc81613982565b8114613ae757600080fd5b50565b600081359050613af981613ad3565b92915050565b60008060408385031215613b1657613b1561389d565b5b6000613b2485828601613aea565b9250506020613b3585828601613a91565b9150509250929050565b613b4881613a70565b82525050565b6000602082019050613b636000830184613b3f565b92915050565b600080600060608486031215613b8257613b8161389d565b5b6000613b9086828701613aea565b9350506020613ba186828701613aea565b9250506040613bb286828701613a91565b9150509250925092565b600060208284031215613bd257613bd161389d565b5b6000613be084828501613aea565b91505092915050565b60008060408385031215613c0057613bff61389d565b5b6000613c0e85828601613a91565b9250506020613c1f85828601613a91565b9150509250929050565b60008060408385031215613c4057613c3f61389d565b5b6000613c4e85828601613a91565b9250506020613c5f85828601613aea565b9150509250929050565b600063ffffffff82169050919050565b613c8281613c69565b82525050565b6000602082019050613c9d6000830184613c79565b92915050565b613cac8161392c565b8114613cb757600080fd5b50565b600081359050613cc981613ca3565b92915050565b60008060408385031215613ce657613ce561389d565b5b6000613cf485828601613aea565b9250506020613d0585828601613cba565b9150509250929050565b600080fd5b600080fd5b7f4e487b7100000000000000000000000000000000000000000000000000000000600052604160045260246000fd5b613d5182613a04565b810181811067ffffffffffffffff82111715613d7057613d6f613d19565b5b80604052505050565b6000613d83613893565b9050613d8f8282613d48565b919050565b600067ffffffffffffffff821115613daf57613dae613d19565b5b613db882613a04565b9050602081019050919050565b82818337600083830152505050565b6000613de7613de284613d94565b613d79565b905082815260208101848484011115613e0357613e02613d14565b5b613e0e848285613dc5565b509392505050565b600082601f830112613e2b57613e2a613d0f565b5b8135613e3b848260208601613dd4565b91505092915050565b60008060008060808587031215613e5e57613e5d61389d565b5b6000613e6c87828801613aea565b9450506020613e7d87828801613aea565b9350506040613e8e87828801613a91565b925050606085013567ffffffffffffffff811115613eaf57613eae6138a2565b5b613ebb87828801613e16565b91505092959194509250565b60008060408385031215613ede57613edd61389d565b5b6000613eec85828601613aea565b9250506020613efd85828601613aea565b9150509250929050565b7f4e487b7100000000000000000000000000000000000000000000000000000000600052602260045260246000fd5b60006002820490506001821680613f4e57607f821691505b602082108103613f6157613f60613f07565b5b50919050565b7f4552433732313a20617070726f76616c20746f2063757272656e74206f776e6560008201527f7200000000000000000000000000000000000000000000000000000000000000602082015250565b6000613fc36021836139c9565b9150613fce82613f67565b604082019050919050565b60006020820190508181036000830152613ff281613fb6565b9050919050565b7f4552433732313a20617070726f76652063616c6c6572206973206e6f7420746f60008201527f6b656e206f776e6572206f7220617070726f76656420666f7220616c6c000000602082015250565b6000614055603d836139c9565b915061406082613ff9565b604082019050919050565b6000602082019050818103600083015261408481614048565b9050919050565b7f4e487b7100000000000000000000000000000000000000000000000000000000600052603260045260246000fd5b7f4552433732313a2063616c6c6572206973206e6f7420746f6b656e206f776e6560008201527f72206f7220617070726f76656400000000000000000000000000000000000000602082015250565b6000614116602d836139c9565b9150614121826140ba565b604082019050919050565b6000602082019050818103600083015261414581614109565b9050919050565b7f455243373231456e756d657261626c653a206f776e657220696e646578206f7560008201527f74206f6620626f756e6473000000000000000000000000000000000000000000602082015250565b60006141a8602b836139c9565b91506141b38261414c565b604082019050919050565b600060208201905081810360008301526141d78161419b565b9050919050565b7f455243373231456e756d657261626c653a20676c6f62616c20696e646578206f60008201527f7574206f6620626f756e64730000000000000000000000000000000000000000602082015250565b600061423a602c836139c9565b9150614245826141de565b604082019050919050565b600060208201905081810360008301526142698161422d565b9050919050565b7f4552433732313a20696e76616c696420746f6b656e2049440000000000000000600082015250565b60006142a66018836139c9565b91506142b182614270565b602082019050919050565b600060208201905081810360008301526142d581614299565b9050919050565b7f4552433732313a2061646472657373207a65726f206973206e6f74206120766160008201527f6c6964206f776e65720000000000000000000000000000000000000000000000602082015250565b60006143386029836139c9565b9150614343826142dc565b604082019050919050565b600060208201905081810360008301526143678161432b565b9050919050565b6000819050919050565b61438961438482613a70565b61436e565b82525050565b60008160601b9050919050565b60006143a78261438f565b9050919050565b60006143b98261439c565b9050919050565b6143d16143cc82613982565b6143ae565b82525050565b60006143e282613962565b9050919050565b60006143f48261439c565b9050919050565b61440c614407826143d7565b6143e9565b82525050565b600061441e8288614378565b60208201915061442e8287614378565b60208201915061443e82866143c0565b60148201915061444e8285614378565b60208201915061445e82846143fb565b6014820191508190509695505050505050565b7f4e487b7100000000000000000000000000000000000000000000000000000000600052601160045260246000fd5b60006144ab82613a70565b91506144b683613a70565b92508282019050808211156144ce576144cd614471565b5b92915050565b600061ffff82169050919050565b60006144ed826144d4565b91506144f8836144d4565b9250828201905061ffff81111561451257614511614471565b5b92915050565b600081905092915050565b600061452e826139be565b6145388185614518565b93506145488185602086016139da565b80840191505092915050565b60006145608285614523565b915061456c8284614523565b91508190509392505050565b7f5061757361626c653a2070617573656400000000000000000000000000000000600082015250565b60006145ae6010836139c9565b91506145b982614578565b602082019050919050565b600060208201905081810360008301526145dd816145a1565b9050919050565b60006060820190506145f96000830186613994565b6146066020830185613b3f565b6146136040830184613b3f565b949350505050565b7f4552433732313a20617070726f766520746f2063616c6c657200000000000000600082015250565b60006146516019836139c9565b915061465c8261461b565b602082019050919050565b6000602082019050818103600083015261468081614644565b9050919050565b7f4552433732313a207472616e7366657220746f206e6f6e20455243373231526560008201527f63656976657220696d706c656d656e7465720000000000000000000000000000602082015250565b60006146e36032836139c9565b91506146ee82614687565b604082019050919050565b60006020820190508181036000830152614712816146d6565b9050919050565b600061472482613a70565b915061472f83613a70565b925082820390508181111561474757614746614471565b5b92915050565b60006080820190506147626000830187613b3f565b61476f6020830186613b3f565b61477c6040830185613b3f565b6147896060830184613b3f565b95945050505050565b7f4e487b7100000000000000000000000000000000000000000000000000000000600052601260045260246000fd5b7f4552433732313a207472616e736665722066726f6d20696e636f72726563742060008201527f6f776e6572000000000000000000000000000000000000000000000000000000602082015250565b600061481d6025836139c9565b9150614828826147c1565b604082019050919050565b6000602082019050818103600083015261484c81614810565b9050919050565b7f4552433732313a207472616e7366657220746f20746865207a65726f2061646460008201527f7265737300000000000000000000000000000000000000000000000000000000602082015250565b60006148af6024836139c9565b91506148ba82614853565b604082019050919050565b600060208201905081810360008301526148de816148a2565b9050919050565b7f5061757361626c653a206e6f7420706175736564000000000000000000000000600082015250565b600061491b6014836139c9565b9150614926826148e5565b602082019050919050565b6000602082019050818103600083015261494a8161490e565b9050919050565b600060ff82169050919050565b600061496982614951565b915061497483614951565b9250828201905060ff81111561498d5761498c614471565b5b92915050565b600081519050919050565b600082825260208201905092915050565b60006149ba82614993565b6149c4818561499e565b93506149d48185602086016139da565b6149dd81613a04565b840191505092915050565b60006080820190506149fd6000830187613994565b614a0a6020830186613994565b614a176040830185613b3f565b8181036060830152614a2981846149af565b905095945050505050565b600081519050614a43816138d3565b92915050565b600060208284031215614a5f57614a5e61389d565b5b6000614a6d84828501614a34565b91505092915050565b7f455243373231456e756d657261626c653a20636f6e736563757469766520747260008201527f616e7366657273206e6f7420737570706f727465640000000000000000000000602082015250565b6000614ad26035836139c9565b9150614add82614a76565b604082019050919050565b60006020820190508181036000830152614b0181614ac5565b9050919050565b7f4e487b7100000000000000000000000000000000000000000000000000000000600052603160045260246000fd5b7f4552433732313a206d696e7420746f20746865207a65726f2061646472657373600082015250565b6000614b6d6020836139c9565b9150614b7882614b37565b602082019050919050565b60006020820190508181036000830152614b9c81614b60565b9050919050565b7f4552433732313a20746f6b656e20616c7265616479206d696e74656400000000600082015250565b6000614bd9601c836139c9565b9150614be482614ba3565b602082019050919050565b60006020820190508181036000830152614c0881614bcc565b905091905056fea264697066735822122085ec1c1ec1718b6614a5bc59fea2fb57af47978fb13f62665481d225e3c8c7e264736f6c63430008110033",
  "linkReferences": {},
  "deployedLinkReferences": {}
}