{
  "_format": "hh-sol-artifact-1",
  "contractName": "BummyCheering",
  "sourceName": "contracts/BummyCheering.sol",
  "abi": [
    {
      "anonymous": false,
      "inputs": [
        {
          "indexed": true,
          "internalType": "address",
          "name": "owner",
          "type": "address"
        },
        {
          "indexed": true,
          "internalType": "address",
          "name": "approved",
          "type": "address"
        },
        {
          "indexed": true,
          "internalType": "uint256",
          "name": "tokenId",
          "type": "uint256"
        }
      ],
      "name": "Approval",
      "type": "event"
    },
    {
      "anonymous": false,
      "inputs": [
        {
          "indexed": true,
          "internalType": "address",
          "name": "owner",
          "type": "address"
        },
        {
          "indexed": true,
          "internalType": "address",
          "name": "operator",
          "type": "address"
        },
        {
          "indexed": false,
          "internalType": "bool",
          "name": "approved",
          "type": "bool"
        }
      ],
      "name": "ApprovalForAll",
      "type": "event"
    },
    {
      "anonymous": false,
      "inputs": [
        {
          "indexed": false,
          "internalType": "address",
          "name": "owner",
          "type": "address"
        },
        {
          "indexed": false,
          "internalType": "uint256",
          "name": "momId",
          "type": "uint256"
        },
        {
          "indexed": false,
          "internalType": "uint256",
          "name": "dadId",
          "type": "uint256"
        }
      ],
      "name": "Cheering",
      "type": "event"
    },
    {
      "anonymous": false,
      "inputs": [
        {
          "indexed": true,
          "internalType": "address",
          "name": "owner",
          "type": "address"
        },
        {
          "indexed": false,
          "internalType": "uint256",
          "name": "BummyId",
          "type": "uint256"
        },
        {
          "indexed": false,
          "internalType": "uint256",
          "name": "momId",
          "type": "uint256"
        },
        {
          "indexed": false,
          "internalType": "uint256",
          "name": "dadId",
          "type": "uint256"
        },
        {
          "indexed": false,
          "internalType": "uint256",
          "name": "genes",
          "type": "uint256"
        }
      ],
      "name": "Invite",
      "type": "event"
    },
    {
      "anonymous": false,
      "inputs": [
        {
          "indexed": false,
          "internalType": "address",
          "name": "account",
          "type": "address"
        }
      ],
      "name": "Paused",
      "type": "event"
    },
    {
      "anonymous": false,
      "inputs": [
        {
          "indexed": true,
          "internalType": "address",
          "name": "from",
          "type": "address"
        },
        {
          "indexed": true,
          "internalType": "address",
          "name": "to",
          "type": "address"
        },
        {
          "indexed": true,
          "internalType": "uint256",
          "name": "tokenId",
          "type": "uint256"
        }
      ],
      "name": "Transfer",
      "type": "event"
    },
    {
      "anonymous": false,
      "inputs": [
        {
          "indexed": false,
          "internalType": "address",
          "name": "account",
          "type": "address"
        }
      ],
      "name": "Unpaused",
      "type": "event"
    },
    {
      "inputs": [
        {
          "internalType": "address",
          "name": "to",
          "type": "address"
        },
        {
          "internalType": "uint256",
          "name": "tokenId",
          "type": "uint256"
        }
      ],
      "name": "approve",
      "outputs": [],
      "stateMutability": "nonpayable",
      "type": "function"
    },
    {
      "inputs": [
        {
          "internalType": "address",
          "name": "_addr",
          "type": "address"
        },
        {
          "internalType": "uint256",
          "name": "_dadId",
          "type": "uint256"
        }
      ],
      "name": "approveCheering",
      "outputs": [],
      "stateMutability": "nonpayable",
      "type": "function"
    },
    {
      "inputs": [
        {
          "internalType": "address",
          "name": "owner",
          "type": "address"
        }
      ],
      "name": "balanceOf",
      "outputs": [
        {
          "internalType": "uint256",
          "name": "",
          "type": "uint256"
        }
      ],
      "stateMutability": "view",
      "type": "function"
    },
    {
      "inputs": [],
      "name": "bummyGene",
      "outputs": [
        {
          "internalType": "contract BummyInfoInterface",
          "name": "",
          "type": "address"
        }
      ],
      "stateMutability": "view",
      "type": "function"
    },
    {
      "inputs": [
        {
          "internalType": "uint256",
          "name": "_momId",
          "type": "uint256"
        },
        {
          "internalType": "uint256",
          "name": "_dadId",
          "type": "uint256"
        }
      ],
      "name": "canCheerWith",
      "outputs": [
        {
          "internalType": "bool",
          "name": "",
          "type": "bool"
        }
      ],
      "stateMutability": "view",
      "type": "function"
    },
    {
      "inputs": [],
      "name": "ceoAddress",
      "outputs": [
        {
          "internalType": "address",
          "name": "",
          "type": "address"
        }
      ],
      "stateMutability": "view",
      "type": "function"
    },
    {
      "inputs": [],
      "name": "cfoAddress",
      "outputs": [
        {
          "internalType": "address",
          "name": "",
          "type": "address"
        }
      ],
      "stateMutability": "view",
      "type": "function"
    },
    {
      "inputs": [
        {
          "internalType": "uint256",
          "name": "",
          "type": "uint256"
        }
      ],
      "name": "cheerAllowedToAddress",
      "outputs": [
        {
          "internalType": "address",
          "name": "",
          "type": "address"
        }
      ],
      "stateMutability": "view",
      "type": "function"
    },
    {
      "inputs": [
        {
          "internalType": "uint256",
          "name": "_momId",
          "type": "uint256"
        },
        {
          "internalType": "uint256",
          "name": "_dadId",
          "type": "uint256"
        }
      ],
      "name": "cheerWith",
      "outputs": [],
      "stateMutability": "nonpayable",
      "type": "function"
    },
    {
      "inputs": [],
      "name": "cooAddress",
      "outputs": [
        {
          "internalType": "address",
          "name": "",
          "type": "address"
        }
      ],
      "stateMutability": "view",
      "type": "function"
    },
    {
      "inputs": [
        {
          "internalType": "uint256",
          "name": "",
          "type": "uint256"
        }
      ],
      "name": "cooldowns",
      "outputs": [
        {
          "internalType": "uint32",
          "name": "",
          "type": "uint32"
        }
      ],
      "stateMutability": "view",
      "type": "function"
    },
    {
      "inputs": [
        {
          "internalType": "uint256",
          "name": "tokenId",
          "type": "uint256"
        }
      ],
      "name": "getApproved",
      "outputs": [
        {
          "internalType": "address",
          "name": "",
          "type": "address"
        }
      ],
      "stateMutability": "view",
      "type": "function"
    },
    {
      "inputs": [
        {
          "internalType": "uint256",
          "name": "_momId",
          "type": "uint256"
        }
      ],
      "name": "inviteFriend",
      "outputs": [
        {
          "internalType": "uint256",
          "name": "",
          "type": "uint256"
        }
      ],
      "stateMutability": "nonpayable",
      "type": "function"
    },
    {
      "inputs": [
        {
          "internalType": "address",
          "name": "owner",
          "type": "address"
        },
        {
          "internalType": "address",
          "name": "operator",
          "type": "address"
        }
      ],
      "name": "isApprovedForAll",
      "outputs": [
        {
          "internalType": "bool",
          "name": "",
          "type": "bool"
        }
      ],
      "stateMutability": "view",
      "type": "function"
    },
    {
      "inputs": [
        {
          "internalType": "uint256",
          "name": "_bummyId",
          "type": "uint256"
        }
      ],
      "name": "isReadyToCheer",
      "outputs": [
        {
          "internalType": "bool",
          "name": "",
          "type": "bool"
        }
      ],
      "stateMutability": "view",
      "type": "function"
    },
    {
      "inputs": [],
      "name": "name",
      "outputs": [
        {
          "internalType": "string",
          "name": "",
          "type": "string"
        }
      ],
      "stateMutability": "view",
      "type": "function"
    },
    {
      "inputs": [
        {
          "internalType": "uint256",
          "name": "tokenId",
          "type": "uint256"
        }
      ],
      "name": "ownerOf",
      "outputs": [
        {
          "internalType": "address",
          "name": "",
          "type": "address"
        }
      ],
      "stateMutability": "view",
      "type": "function"
    },
    {
      "inputs": [],
      "name": "pause",
      "outputs": [],
      "stateMutability": "nonpayable",
      "type": "function"
    },
    {
      "inputs": [],
      "name": "paused",
      "outputs": [
        {
          "internalType": "bool",
          "name": "",
          "type": "bool"
        }
      ],
      "stateMutability": "view",
      "type": "function"
    },
    {
      "inputs": [
        {
          "internalType": "uint256",
          "name": "_bummyId",
          "type": "uint256"
        },
        {
          "internalType": "address",
          "name": "_recipient",
          "type": "address"
        }
      ],
      "name": "rescueLostBummy",
      "outputs": [],
      "stateMutability": "nonpayable",
      "type": "function"
    },
    {
      "inputs": [
        {
          "internalType": "address",
          "name": "from",
          "type": "address"
        },
        {
          "internalType": "address",
          "name": "to",
          "type": "address"
        },
        {
          "internalType": "uint256",
          "name": "tokenId",
          "type": "uint256"
        }
      ],
      "name": "safeTransferFrom",
      "outputs": [],
      "stateMutability": "nonpayable",
      "type": "function"
    },
    {
      "inputs": [
        {
          "internalType": "address",
          "name": "from",
          "type": "address"
        },
        {
          "internalType": "address",
          "name": "to",
          "type": "address"
        },
        {
          "internalType": "uint256",
          "name": "tokenId",
          "type": "uint256"
        },
        {
          "internalType": "bytes",
          "name": "data",
          "type": "bytes"
        }
      ],
      "name": "safeTransferFrom",
      "outputs": [],
      "stateMutability": "nonpayable",
      "type": "function"
    },
    {
      "inputs": [
        {
          "internalType": "address",
          "name": "operator",
          "type": "address"
        },
        {
          "internalType": "bool",
          "name": "approved",
          "type": "bool"
        }
      ],
      "name": "setApprovalForAll",
      "outputs": [],
      "stateMutability": "nonpayable",
      "type": "function"
    },
    {
      "inputs": [
        {
          "internalType": "address",
          "name": "_address",
          "type": "address"
        }
      ],
      "name": "setBummyInfoAddress",
      "outputs": [],
      "stateMutability": "nonpayable",
      "type": "function"
    },
    {
      "inputs": [
        {
          "internalType": "address",
          "name": "_newCEO",
          "type": "address"
        }
      ],
      "name": "setCEO",
      "outputs": [],
      "stateMutability": "nonpayable",
      "type": "function"
    },
    {
      "inputs": [
        {
          "internalType": "address",
          "name": "_newCOO",
          "type": "address"
        }
      ],
      "name": "setCOO",
      "outputs": [],
      "stateMutability": "nonpayable",
      "type": "function"
    },
    {
      "inputs": [
        {
          "internalType": "bytes4",
          "name": "interfaceId",
          "type": "bytes4"
        }
      ],
      "name": "supportsInterface",
      "outputs": [
        {
          "internalType": "bool",
          "name": "",
          "type": "bool"
        }
      ],
      "stateMutability": "view",
      "type": "function"
    },
    {
      "inputs": [],
      "name": "symbol",
      "outputs": [
        {
          "internalType": "string",
          "name": "",
          "type": "string"
        }
      ],
      "stateMutability": "view",
      "type": "function"
    },
    {
      "inputs": [
        {
          "internalType": "uint256",
          "name": "index",
          "type": "uint256"
        }
      ],
      "name": "tokenByIndex",
      "outputs": [
        {
          "internalType": "uint256",
          "name": "",
          "type": "uint256"
        }
      ],
      "stateMutability": "view",
      "type": "function"
    },
    {
      "inputs": [
        {
          "internalType": "address",
          "name": "owner",
          "type": "address"
        },
        {
          "internalType": "uint256",
          "name": "index",
          "type": "uint256"
        }
      ],
      "name": "tokenOfOwnerByIndex",
      "outputs": [
        {
          "internalType": "uint256",
          "name": "",
          "type": "uint256"
        }
      ],
      "stateMutability": "view",
      "type": "function"
    },
    {
      "inputs": [
        {
          "internalType": "uint256",
          "name": "tokenId",
          "type": "uint256"
        }
      ],
      "name": "tokenURI",
      "outputs": [
        {
          "internalType": "string",
          "name": "",
          "type": "string"
        }
      ],
      "stateMutability": "view",
      "type": "function"
    },
    {
      "inputs": [],
      "name": "totalSupply",
      "outputs": [
        {
          "internalType": "uint256",
          "name": "",
          "type": "uint256"
        }
      ],
      "stateMutability": "view",
      "type": "function"
    },
    {
      "inputs": [
        {
          "internalType": "address",
          "name": "from",
          "type": "address"
        },
        {
          "internalType": "address",
          "name": "to",
          "type": "address"
        },
        {
          "internalType": "uint256",
          "name": "tokenId",
          "type": "uint256"
        }
      ],
      "name": "transferFrom",
      "outputs": [],
      "stateMutability": "nonpayable",
      "type": "function"
    },
    {
      "inputs": [],
      "name": "unpause",
      "outputs": [],
      "stateMutability": "nonpayable",
      "type": "function"
    }
  ],
  "bytecode": "0x60806040526040518060400160405280600881526020017f42756d6d794e4654000000000000000000000000000000000000000000000000815250600d90816200004a91906200060a565b506040518060400160405280600281526020017f4256000000000000000000000000000000000000000000000000000000000000815250600e90816200009191906200060a565b50604051806101000160405280603c63ffffffff1663ffffffff168152602001607863ffffffff1663ffffffff16815260200161012c63ffffffff1663ffffffff16815260200161025863ffffffff1663ffffffff16815260200161070863ffffffff1663ffffffff168152602001610e1063ffffffff1663ffffffff168152602001611c2063ffffffff1663ffffffff16815260200161384063ffffffff1663ffffffff16815250600f9060086200014c929190620002c7565b503480156200015a57600080fd5b50600d80546200016a90620003f9565b80601f01602080910402602001604051908101604052809291908181526020018280546200019890620003f9565b8015620001e95780601f10620001bd57610100808354040283529160200191620001e9565b820191906000526020600020905b815481529060010190602001808311620001cb57829003601f168201915b5050505050600e8054620001fd90620003f9565b80601f01602080910402602001604051908101604052809291908181526020018280546200022b90620003f9565b80156200027c5780601f1062000250576101008083540402835291602001916200027c565b820191906000526020600020905b8154815290600101906020018083116200025e57829003601f168201915b505050505060008060006101000a81548160ff0219169083151502179055508160039081620002ac91906200060a565b508060049081620002be91906200060a565b505050620006f1565b8260086007016008900481019282156200035e5791602002820160005b838211156200032a57835183826101000a81548163ffffffff021916908363ffffffff1602179055509260200192600401602081600301049283019260010302620002e4565b80156200035c5782816101000a81549063ffffffff02191690556004016020816003010492830192600103026200032a565b505b5090506200036d919062000371565b5090565b5b808211156200038c57600081600090555060010162000372565b5090565b600081519050919050565b7f4e487b7100000000000000000000000000000000000000000000000000000000600052604160045260246000fd5b7f4e487b7100000000000000000000000000000000000000000000000000000000600052602260045260246000fd5b600060028204905060018216806200041257607f821691505b602082108103620004285762000427620003ca565b5b50919050565b60008190508160005260206000209050919050565b60006020601f8301049050919050565b600082821b905092915050565b600060088302620004927fffffffffffffffffffffffffffffffffffffffffffffffffffffffffffffffff8262000453565b6200049e868362000453565b95508019841693508086168417925050509392505050565b6000819050919050565b6000819050919050565b6000620004eb620004e5620004df84620004b6565b620004c0565b620004b6565b9050919050565b6000819050919050565b6200050783620004ca565b6200051f6200051682620004f2565b84845462000460565b825550505050565b600090565b6200053662000527565b62000543818484620004fc565b505050565b5b818110156200056b576200055f6000826200052c565b60018101905062000549565b5050565b601f821115620005ba5762000584816200042e565b6200058f8462000443565b810160208510156200059f578190505b620005b7620005ae8562000443565b83018262000548565b50505b505050565b600082821c905092915050565b6000620005df60001984600802620005bf565b1980831691505092915050565b6000620005fa8383620005cc565b9150826002028217905092915050565b620006158262000390565b67ffffffffffffffff8111156200063157620006306200039b565b5b6200063d8254620003f9565b6200064a8282856200056f565b600060209050601f8311600181146200068257600084156200066d578287015190505b620006798582620005ec565b865550620006e9565b601f19841662000692866200042e565b60005b82811015620006bc5784890151825560018201915060208501945060208101905062000695565b86831015620006dc5784890151620006d8601f891682620005cc565b8355505b6001600288020188555050505b505050505050565b614fbb80620007016000396000f3fe608060405234801561001057600080fd5b50600436106102065760003560e01c80635c975abb1161011a57806395d89b41116100ad578063b047fb501161007c578063b047fb50146105e9578063b88d4fde14610607578063c7b6b43614610623578063c87b56dd14610653578063e985e9c51461068357610206565b806395d89b41146105635780639d586663146105815780639d6fac6f1461059d578063a22cb465146105cd57610206565b806370a08231116100e957806370a08231146104f15780637814da8e146105215780638456cb591461053d578063851d9a521461054757610206565b80635c975abb146104435780635edbf360146104615780636352211e1461049157806364bee5e5146104c157610206565b806323b872dd1161019d5780633b4675df1161016c5780633b4675df146103b35780633f4ba83a146103cf57806342842e0e146103d9578063492e4943146103f55780634f6ccce71461041357610206565b806323b872dd1461032f57806327d7874c1461034b5780632ba73c15146103675780632f745c591461038357610206565b8063095ea7b3116101d9578063095ea7b3146102a75780630a0f8168146102c357806317091d05146102e157806318160ddd1461031157610206565b806301ffc9a71461020b5780630519ce791461023b57806306fdde0314610259578063081812fc14610277575b600080fd5b61022560048036038101906102209190613c05565b6106b3565b6040516102329190613c4d565b60405180910390f35b61024361072d565b6040516102509190613ca9565b60405180910390f35b610261610753565b60405161026e9190613d54565b60405180910390f35b610291600480360381019061028c9190613dac565b6107e5565b60405161029e9190613ca9565b60405180910390f35b6102c160048036038101906102bc9190613e05565b61082b565b005b6102cb610942565b6040516102d89190613ca9565b60405180910390f35b6102fb60048036038101906102f69190613dac565b610968565b6040516103089190613c4d565b60405180910390f35b610319610af3565b6040516103269190613e54565b60405180910390f35b61034960048036038101906103449190613e6f565b610b00565b005b61036560048036038101906103609190613ec2565b610b60565b005b610381600480360381019061037c9190613ec2565b610c37565b005b61039d60048036038101906103989190613e05565b610d0e565b6040516103aa9190613e54565b60405180910390f35b6103cd60048036038101906103c89190613ec2565b610db3565b005b6103d7610ecf565b005b6103f360048036038101906103ee9190613e6f565b610f33565b005b6103fd610f53565b60405161040a9190613f4e565b60405180910390f35b61042d60048036038101906104289190613dac565b610f79565b60405161043a9190613e54565b60405180910390f35b61044b610fea565b6040516104589190613c4d565b60405180910390f35b61047b60048036038101906104769190613dac565b611000565b6040516104889190613ca9565b60405180910390f35b6104ab60048036038101906104a69190613dac565b611033565b6040516104b89190613ca9565b60405180910390f35b6104db60048036038101906104d69190613f69565b6110b9565b6040516104e89190613c4d565b60405180910390f35b61050b60048036038101906105069190613ec2565b611148565b6040516105189190613e54565b60405180910390f35b61053b60048036038101906105369190613e05565b6111ff565b005b610545611270565b005b610561600480360381019061055c9190613f69565b611384565b005b61056b6116d3565b6040516105789190613d54565b60405180910390f35b61059b60048036038101906105969190613fa9565b611765565b005b6105b760048036038101906105b29190613dac565b6117e9565b6040516105c49190614008565b60405180910390f35b6105e760048036038101906105e2919061404f565b611819565b005b6105f161182f565b6040516105fe9190613ca9565b60405180910390f35b610621600480360381019061061c91906141c4565b611855565b005b61063d60048036038101906106389190613dac565b6118b7565b60405161064a9190613e54565b60405180910390f35b61066d60048036038101906106689190613dac565b611bf9565b60405161067a9190613d54565b60405180910390f35b61069d60048036038101906106989190614247565b611c61565b6040516106aa9190613c4d565b60405180910390f35b60007f780e9d63000000000000000000000000000000000000000000000000000000007bffffffffffffffffffffffffffffffffffffffffffffffffffffffff1916827bffffffffffffffffffffffffffffffffffffffffffffffffffffffff19161480610726575061072582611cf5565b5b9050919050565b600160009054906101000a900473ffffffffffffffffffffffffffffffffffffffff1681565b606060038054610762906142b6565b80601f016020809104026020016040519081016040528092919081815260200182805461078e906142b6565b80156107db5780601f106107b0576101008083540402835291602001916107db565b820191906000526020600020905b8154815290600101906020018083116107be57829003601f168201915b5050505050905090565b60006107f082611dd7565b6007600083815260200190815260200160002060009054906101000a900473ffffffffffffffffffffffffffffffffffffffff169050919050565b600061083682611033565b90508073ffffffffffffffffffffffffffffffffffffffff168373ffffffffffffffffffffffffffffffffffffffff16036108a6576040517f08c379a000000000000000000000000000000000000000000000000000000000815260040161089d90614359565b60405180910390fd5b8073ffffffffffffffffffffffffffffffffffffffff166108c5611e22565b73ffffffffffffffffffffffffffffffffffffffff1614806108f457506108f3816108ee611e22565b611c61565b5b610933576040517f08c379a000000000000000000000000000000000000000000000000000000000815260040161092a906143eb565b60405180910390fd5b61093d8383611e2a565b505050565b600060019054906101000a900473ffffffffffffffffffffffffffffffffffffffff1681565b600080821161097657600080fd5b60006010838154811061098c5761098b61440b565b5b90600052602060002090600202019050610aeb8160405180610120016040529081600082015481526020016001820160009054906101000a900467ffffffffffffffff1667ffffffffffffffff1667ffffffffffffffff1681526020016001820160089054906101000a900467ffffffffffffffff1667ffffffffffffffff1667ffffffffffffffff1681526020016001820160109054906101000a900463ffffffff1663ffffffff1663ffffffff1681526020016001820160149054906101000a900463ffffffff1663ffffffff1663ffffffff1681526020016001820160189054906101000a900463ffffffff1663ffffffff1663ffffffff16815260200160018201601c9054906101000a900460ff1660ff1660ff16815260200160018201601d9054906101000a900460ff1660ff1660ff16815260200160018201601e9054906101000a900461ffff1661ffff1661ffff1681525050611ee3565b915050919050565b6000600b80549050905090565b610b11610b0b611e22565b82611f13565b610b50576040517f08c379a0000000000000000000000000000000000000000000000000000000008152600401610b47906144ac565b60405180910390fd5b610b5b838383611fa8565b505050565b600060019054906101000a900473ffffffffffffffffffffffffffffffffffffffff1673ffffffffffffffffffffffffffffffffffffffff163373ffffffffffffffffffffffffffffffffffffffff1614610bba57600080fd5b600073ffffffffffffffffffffffffffffffffffffffff168173ffffffffffffffffffffffffffffffffffffffff1603610bf357600080fd5b80600060016101000a81548173ffffffffffffffffffffffffffffffffffffffff021916908373ffffffffffffffffffffffffffffffffffffffff16021790555050565b600060019054906101000a900473ffffffffffffffffffffffffffffffffffffffff1673ffffffffffffffffffffffffffffffffffffffff163373ffffffffffffffffffffffffffffffffffffffff1614610c9157600080fd5b600073ffffffffffffffffffffffffffffffffffffffff168173ffffffffffffffffffffffffffffffffffffffff1603610cca57600080fd5b80600260006101000a81548173ffffffffffffffffffffffffffffffffffffffff021916908373ffffffffffffffffffffffffffffffffffffffff16021790555050565b6000610d1983611148565b8210610d5a576040517f08c379a0000000000000000000000000000000000000000000000000000000008152600401610d519061453e565b60405180910390fd5b600960008473ffffffffffffffffffffffffffffffffffffffff1673ffffffffffffffffffffffffffffffffffffffff168152602001908152602001600020600083815260200190815260200160002054905092915050565b600060019054906101000a900473ffffffffffffffffffffffffffffffffffffffff1673ffffffffffffffffffffffffffffffffffffffff163373ffffffffffffffffffffffffffffffffffffffff1614610e0d57600080fd5b60008190508073ffffffffffffffffffffffffffffffffffffffff1663c4264ef66040518163ffffffff1660e01b8152600401602060405180830381865afa158015610e5d573d6000803e3d6000fd5b505050506040513d601f19601f82011682018060405250810190610e819190614573565b610e8a57600080fd5b80601260006101000a81548173ffffffffffffffffffffffffffffffffffffffff021916908373ffffffffffffffffffffffffffffffffffffffff1602179055505050565b600060019054906101000a900473ffffffffffffffffffffffffffffffffffffffff1673ffffffffffffffffffffffffffffffffffffffff163373ffffffffffffffffffffffffffffffffffffffff1614610f2957600080fd5b610f31612023565b565b610f4e83838360405180602001604052806000815250611855565b505050565b601260009054906101000a900473ffffffffffffffffffffffffffffffffffffffff1681565b6000610f83610af3565b8210610fc4576040517f08c379a0000000000000000000000000000000000000000000000000000000008152600401610fbb90614612565b60405180910390fd5b600b8281548110610fd857610fd761440b565b5b90600052602060002001549050919050565b60008060009054906101000a900460ff16905090565b60116020528060005260406000206000915054906101000a900473ffffffffffffffffffffffffffffffffffffffff1681565b60008061103f83612085565b9050600073ffffffffffffffffffffffffffffffffffffffff168173ffffffffffffffffffffffffffffffffffffffff16036110b0576040517f08c379a00000000000000000000000000000000000000000000000000000000081526004016110a79061467e565b60405180910390fd5b80915050919050565b60008083116110c757600080fd5b600082116110d457600080fd5b6000601084815481106110ea576110e961440b565b5b906000526020600020906002020190506000601084815481106111105761110f61440b565b5b9060005260206000209060020201905061112c828683876120c2565b801561113e575061113d84866122d6565b5b9250505092915050565b60008073ffffffffffffffffffffffffffffffffffffffff168273ffffffffffffffffffffffffffffffffffffffff16036111b8576040517f08c379a00000000000000000000000000000000000000000000000000000000081526004016111af90614710565b60405180910390fd5b600660008373ffffffffffffffffffffffffffffffffffffffff1673ffffffffffffffffffffffffffffffffffffffff168152602001908152602001600020549050919050565b61120761234f565b6112113382612399565b61121a57600080fd5b816011600083815260200190815260200160002060006101000a81548173ffffffffffffffffffffffffffffffffffffffff021916908373ffffffffffffffffffffffffffffffffffffffff1602179055505050565b600260009054906101000a900473ffffffffffffffffffffffffffffffffffffffff1673ffffffffffffffffffffffffffffffffffffffff163373ffffffffffffffffffffffffffffffffffffffff1614806113195750600060019054906101000a900473ffffffffffffffffffffffffffffffffffffffff1673ffffffffffffffffffffffffffffffffffffffff163373ffffffffffffffffffffffffffffffffffffffff16145b806113715750600160009054906101000a900473ffffffffffffffffffffffffffffffffffffffff1673ffffffffffffffffffffffffffffffffffffffff163373ffffffffffffffffffffffffffffffffffffffff16145b61137a57600080fd5b6113826123df565b565b61138c61234f565b6113963383612399565b61139f57600080fd5b6113a981836122d6565b6113b257600080fd5b6000601083815481106113c8576113c761440b565b5b906000526020600020906002020190506115278160405180610120016040529081600082015481526020016001820160009054906101000a900467ffffffffffffffff1667ffffffffffffffff1667ffffffffffffffff1681526020016001820160089054906101000a900467ffffffffffffffff1667ffffffffffffffff1667ffffffffffffffff1681526020016001820160109054906101000a900463ffffffff1663ffffffff1663ffffffff1681526020016001820160149054906101000a900463ffffffff1663ffffffff1663ffffffff1681526020016001820160189054906101000a900463ffffffff1663ffffffff1663ffffffff16815260200160018201601c9054906101000a900460ff1660ff1660ff16815260200160018201601d9054906101000a900460ff1660ff1660ff16815260200160018201601e9054906101000a900461ffff1661ffff1661ffff1681525050611ee3565b61153057600080fd5b6000601083815481106115465761154561440b565b5b906000526020600020906002020190506116a58160405180610120016040529081600082015481526020016001820160009054906101000a900467ffffffffffffffff1667ffffffffffffffff1667ffffffffffffffff1681526020016001820160089054906101000a900467ffffffffffffffff1667ffffffffffffffff1667ffffffffffffffff1681526020016001820160109054906101000a900463ffffffff1663ffffffff1663ffffffff1681526020016001820160149054906101000a900463ffffffff1663ffffffff1663ffffffff1681526020016001820160189054906101000a900463ffffffff1663ffffffff1663ffffffff16815260200160018201601c9054906101000a900460ff1660ff1660ff16815260200160018201601d9054906101000a900460ff1660ff1660ff16815260200160018201601e9054906101000a900461ffff1661ffff1661ffff1681525050611ee3565b6116ae57600080fd5b6116ba828583866120c2565b6116c357600080fd5b6116cd8484612441565b50505050565b6060600480546116e2906142b6565b80601f016020809104026020016040519081016040528092919081815260200182805461170e906142b6565b801561175b5780601f106117305761010080835404028352916020019161175b565b820191906000526020600020905b81548152906001019060200180831161173e57829003601f168201915b5050505050905090565b600260009054906101000a900473ffffffffffffffffffffffffffffffffffffffff1673ffffffffffffffffffffffffffffffffffffffff163373ffffffffffffffffffffffffffffffffffffffff16146117bf57600080fd5b6117c761234f565b6117d13083612399565b6117da57600080fd5b6117e5308284611fa8565b5050565b600f81600881106117f957600080fd5b60089182820401919006600402915054906101000a900463ffffffff1681565b61182b611824611e22565b8383612577565b5050565b600260009054906101000a900473ffffffffffffffffffffffffffffffffffffffff1681565b611866611860611e22565b83611f13565b6118a5576040517f08c379a000000000000000000000000000000000000000000000000000000000815260040161189c906144ac565b60405180910390fd5b6118b1848484846126e3565b50505050565b60006118c161234f565b6000601083815481106118d7576118d661440b565b5b9060005260206000209060020201905060008160010160009054906101000a900467ffffffffffffffff1667ffffffffffffffff160361191657600080fd5b611a658160405180610120016040529081600082015481526020016001820160009054906101000a900467ffffffffffffffff1667ffffffffffffffff1667ffffffffffffffff1681526020016001820160089054906101000a900467ffffffffffffffff1667ffffffffffffffff1667ffffffffffffffff1681526020016001820160109054906101000a900463ffffffff1663ffffffff1663ffffffff1681526020016001820160149054906101000a900463ffffffff1663ffffffff1663ffffffff1681526020016001820160189054906101000a900463ffffffff1663ffffffff1663ffffffff16815260200160018201601c9054906101000a900460ff1660ff1660ff16815260200160018201601d9054906101000a900460ff1660ff1660ff16815260200160018201601e9054906101000a900461ffff1661ffff1661ffff168152505061273f565b611a6e57600080fd5b60008160010160189054906101000a900463ffffffff1663ffffffff169050600060108281548110611aa357611aa261440b565b5b90600052602060002090600202019050600083600101601e9054906101000a900461ffff16905083600101601e9054906101000a900461ffff1661ffff1682600101601e9054906101000a900461ffff1661ffff161115611b145781600101601e9054906101000a900461ffff1690505b60004244338760000154604051602001611b319493929190614799565b6040516020818303038152906040528051906020012060001c905060008184600001548760000154611b639190614816565b611b6d9190614816565b9050611b7881612770565b6000611b8389612085565b9050611b8e81612809565b6000611bc78a8960010160189054906101000a900463ffffffff1663ffffffff16600188611bbc9190614858565b61ffff1686866128a2565b9050611bd281612770565b8760010160186101000a81549063ffffffff02191690558098505050505050505050919050565b6060611c0482611dd7565b6000611c0e612b69565b90506000815111611c2e5760405180602001604052806000815250611c59565b80611c3884612b80565b604051602001611c499291906148ca565b6040516020818303038152906040525b915050919050565b6000600860008473ffffffffffffffffffffffffffffffffffffffff1673ffffffffffffffffffffffffffffffffffffffff16815260200190815260200160002060008373ffffffffffffffffffffffffffffffffffffffff1673ffffffffffffffffffffffffffffffffffffffff16815260200190815260200160002060009054906101000a900460ff16905092915050565b60007f80ac58cd000000000000000000000000000000000000000000000000000000007bffffffffffffffffffffffffffffffffffffffffffffffffffffffff1916827bffffffffffffffffffffffffffffffffffffffffffffffffffffffff19161480611dc057507f5b5e139f000000000000000000000000000000000000000000000000000000007bffffffffffffffffffffffffffffffffffffffffffffffffffffffff1916827bffffffffffffffffffffffffffffffffffffffffffffffffffffffff1916145b80611dd05750611dcf82612c4e565b5b9050919050565b611de081612cb8565b611e1f576040517f08c379a0000000000000000000000000000000000000000000000000000000008152600401611e169061467e565b60405180910390fd5b50565b600033905090565b816007600083815260200190815260200160002060006101000a81548173ffffffffffffffffffffffffffffffffffffffff021916908373ffffffffffffffffffffffffffffffffffffffff160217905550808273ffffffffffffffffffffffffffffffffffffffff16611e9d83611033565b73ffffffffffffffffffffffffffffffffffffffff167f8c5be1e5ebec7d5bd14f71427d1e84f3dd0314c0f7b2291e5b200ac8c7c3b92560405160405180910390a45050565b6000808260a0015163ffffffff16148015611f0c575042826040015167ffffffffffffffff1611155b9050919050565b600080611f1f83611033565b90508073ffffffffffffffffffffffffffffffffffffffff168473ffffffffffffffffffffffffffffffffffffffff161480611f615750611f608185611c61565b5b80611f9f57508373ffffffffffffffffffffffffffffffffffffffff16611f87846107e5565b73ffffffffffffffffffffffffffffffffffffffff16145b91505092915050565b600073ffffffffffffffffffffffffffffffffffffffff168373ffffffffffffffffffffffffffffffffffffffff1614612013576011600082815260200190815260200160002060006101000a81549073ffffffffffffffffffffffffffffffffffffffff02191690555b61201e838383612cf9565b505050565b61202b612ff2565b60008060006101000a81548160ff0219169083151502179055507f5db9ee0a495bf2e6ff9c91a7834c1ba4fdd244a5e8aa4e537bd38aeae4b073aa61206e611e22565b60405161207b9190613ca9565b60405180910390a1565b60006005600083815260200190815260200160002060009054906101000a900473ffffffffffffffffffffffffffffffffffffffff169050919050565b60008184036120d457600090506122ce565b818560010160109054906101000a900463ffffffff1663ffffffff1614806121155750818560010160149054906101000a900463ffffffff1663ffffffff16145b1561212357600090506122ce565b838360010160109054906101000a900463ffffffff1663ffffffff1614806121645750838360010160149054906101000a900463ffffffff1663ffffffff16145b1561217257600090506122ce565b60008360010160109054906101000a900463ffffffff1663ffffffff1614806121b5575060008560010160109054906101000a900463ffffffff1663ffffffff16145b156121c357600190506122ce565b8460010160109054906101000a900463ffffffff1663ffffffff168360010160109054906101000a900463ffffffff1663ffffffff16148061223857508460010160149054906101000a900463ffffffff1663ffffffff168360010160109054906101000a900463ffffffff1663ffffffff16145b1561224657600090506122ce565b8460010160109054906101000a900463ffffffff1663ffffffff168360010160149054906101000a900463ffffffff1663ffffffff1614806122bb57508460010160149054906101000a900463ffffffff1663ffffffff168360010160149054906101000a900463ffffffff1663ffffffff16145b156122c957600090506122ce565b600190505b949350505050565b6000806122e283612085565b90508073ffffffffffffffffffffffffffffffffffffffff166011600086815260200190815260200160002060009054906101000a900473ffffffffffffffffffffffffffffffffffffffff1673ffffffffffffffffffffffffffffffffffffffff161491505092915050565b612357610fea565b15612397576040517f08c379a000000000000000000000000000000000000000000000000000000000815260040161238e9061493a565b60405180910390fd5b565b6000806123a583611033565b90508073ffffffffffffffffffffffffffffffffffffffff168473ffffffffffffffffffffffffffffffffffffffff161491505092915050565b6123e761234f565b60016000806101000a81548160ff0219169083151502179055507f62e78cea01bee320cd4e420270b5ea74000d11b0c9f74754ebdbfc544b05a25861242a611e22565b6040516124379190613ca9565b60405180910390a1565b6000601082815481106124575761245661440b565b5b9060005260206000209060020201905060006010848154811061247d5761247c61440b565b5b90600052602060002090600202019050828160010160186101000a81548163ffffffff021916908363ffffffff1602179055506124b98261303b565b6124c28161303b565b6011600085815260200190815260200160002060006101000a81549073ffffffffffffffffffffffffffffffffffffffff02191690556011600084815260200190815260200160002060006101000a81549073ffffffffffffffffffffffffffffffffffffffff02191690557fb57bb8abbb44a6cff7417131e5eb1d3703a22072a6985e3ff6c653fc91056bb161255885612085565b85856040516125699392919061495a565b60405180910390a150505050565b8173ffffffffffffffffffffffffffffffffffffffff168373ffffffffffffffffffffffffffffffffffffffff16036125e5576040517f08c379a00000000000000000000000000000000000000000000000000000000081526004016125dc906149dd565b60405180910390fd5b80600860008573ffffffffffffffffffffffffffffffffffffffff1673ffffffffffffffffffffffffffffffffffffffff16815260200190815260200160002060008473ffffffffffffffffffffffffffffffffffffffff1673ffffffffffffffffffffffffffffffffffffffff16815260200190815260200160002060006101000a81548160ff0219169083151502179055508173ffffffffffffffffffffffffffffffffffffffff168373ffffffffffffffffffffffffffffffffffffffff167f17307eab39ab6107e8899845ad3d59bd9653f200f220920489ca2b5937696c31836040516126d69190613c4d565b60405180910390a3505050565b6126ee848484611fa8565b6126fa8484848461316d565b612739576040517f08c379a000000000000000000000000000000000000000000000000000000000815260040161273090614a6f565b60405180910390fd5b50505050565b6000808260a0015163ffffffff1614158015612769575042826040015167ffffffffffffffff1611155b9050919050565b612806816040516024016127849190613e54565b6040516020818303038152906040527ff82c50f1000000000000000000000000000000000000000000000000000000007bffffffffffffffffffffffffffffffffffffffffffffffffffffffff19166020820180517bffffffffffffffffffffffffffffffffffffffffffffffffffffffff83818316178352505050506132f4565b50565b61289f8160405160240161281d9190613ca9565b6040516020818303038152906040527f2c2ecbc2000000000000000000000000000000000000000000000000000000007bffffffffffffffffffffffffffffffffffffffffffffffffffffffff19166020820180517bffffffffffffffffffffffffffffffffffffffffffffffffffffffff83818316178352505050506132f4565b50565b600063ffffffff8611156128b557600080fd5b63ffffffff8511156128c657600080fd5b61ffff8411156128d557600080fd5b60006040518061012001604052808581526020014267ffffffffffffffff168152602001600067ffffffffffffffff1681526020018863ffffffff1681526020018763ffffffff168152602001600063ffffffff168152602001600060ff168152602001600060ff1681526020018661ffff16815250905060108190806001815401808255809150506001900390600052602060002090600202016000909190919091506000820151816000015560208201518160010160006101000a81548167ffffffffffffffff021916908367ffffffffffffffff16021790555060408201518160010160086101000a81548167ffffffffffffffff021916908367ffffffffffffffff16021790555060608201518160010160106101000a81548163ffffffff021916908363ffffffff16021790555060808201518160010160146101000a81548163ffffffff021916908363ffffffff16021790555060a08201518160010160186101000a81548163ffffffff021916908363ffffffff16021790555060c082015181600101601c6101000a81548160ff021916908360ff16021790555060e082015181600101601d6101000a81548160ff021916908360ff16021790555061010082015181600101601e6101000a81548161ffff021916908361ffff160217905550505060006001601080549050612ad29190614a8f565b905063ffffffff811115612ae557600080fd5b8373ffffffffffffffffffffffffffffffffffffffff167f14cb614758d3c982e9d2ae0ad129c2c2bdb4c5ba841155dced7bed1a27834de782846060015163ffffffff16856080015163ffffffff168660000151604051612b499493929190614ac3565b60405180910390a2612b5b848261331d565b809250505095945050505050565b606060405180602001604052806000815250905090565b606060006001612b8f8461333b565b01905060008167ffffffffffffffff811115612bae57612bad614099565b5b6040519080825280601f01601f191660200182016040528015612be05781602001600182028036833780820191505090505b509050600082602001820190505b600115612c43578080600190039150507f3031323334353637383961626364656600000000000000000000000000000000600a86061a8153600a8581612c3757612c36614b08565b5b04945060008503612bee575b819350505050919050565b60007f01ffc9a7000000000000000000000000000000000000000000000000000000007bffffffffffffffffffffffffffffffffffffffffffffffffffffffff1916827bffffffffffffffffffffffffffffffffffffffffffffffffffffffff1916149050919050565b60008073ffffffffffffffffffffffffffffffffffffffff16612cda83612085565b73ffffffffffffffffffffffffffffffffffffffff1614159050919050565b8273ffffffffffffffffffffffffffffffffffffffff16612d1982611033565b73ffffffffffffffffffffffffffffffffffffffff1614612d6f576040517f08c379a0000000000000000000000000000000000000000000000000000000008152600401612d6690614ba9565b60405180910390fd5b600073ffffffffffffffffffffffffffffffffffffffff168273ffffffffffffffffffffffffffffffffffffffff1603612dde576040517f08c379a0000000000000000000000000000000000000000000000000000000008152600401612dd590614c3b565b60405180910390fd5b612deb838383600161348e565b8273ffffffffffffffffffffffffffffffffffffffff16612e0b82611033565b73ffffffffffffffffffffffffffffffffffffffff1614612e61576040517f08c379a0000000000000000000000000000000000000000000000000000000008152600401612e5890614ba9565b60405180910390fd5b6007600082815260200190815260200160002060006101000a81549073ffffffffffffffffffffffffffffffffffffffff02191690556001600660008573ffffffffffffffffffffffffffffffffffffffff1673ffffffffffffffffffffffffffffffffffffffff168152602001908152602001600020600082825403925050819055506001600660008473ffffffffffffffffffffffffffffffffffffffff1673ffffffffffffffffffffffffffffffffffffffff16815260200190815260200160002060008282540192505081905550816005600083815260200190815260200160002060006101000a81548173ffffffffffffffffffffffffffffffffffffffff021916908373ffffffffffffffffffffffffffffffffffffffff160217905550808273ffffffffffffffffffffffffffffffffffffffff168473ffffffffffffffffffffffffffffffffffffffff167fddf252ad1be2c89b69c2b068fc378daa952ba7f163c4a11628f55a4df523b3ef60405160405180910390a4612fed83838360016135ec565b505050565b612ffa610fea565b613039576040517f08c379a000000000000000000000000000000000000000000000000000000000815260040161303090614ca7565b60405180910390fd5b565b600f81600101601c9054906101000a900460ff1660ff16600881106130635761306261440b565b5b600891828204019190066004029054906101000a900463ffffffff1663ffffffff16426130909190614816565b8160010160086101000a81548167ffffffffffffffff021916908367ffffffffffffffff160217905550600581600101601c9054906101000a900460ff1660ff161080156130f25750600381600101601d9054906101000a900460ff1660ff16105b1561316a57600181600101601c8282829054906101000a900460ff166131189190614cd4565b92506101000a81548160ff021916908360ff160217905550600181600101601d8282829054906101000a900460ff166131519190614cd4565b92506101000a81548160ff021916908360ff1602179055505b50565b600061318e8473ffffffffffffffffffffffffffffffffffffffff166135f2565b156132e7578373ffffffffffffffffffffffffffffffffffffffff1663150b7a026131b7611e22565b8786866040518563ffffffff1660e01b81526004016131d99493929190614d5e565b6020604051808303816000875af192505050801561321557506040513d601f19601f820116820180604052508101906132129190614dbf565b60015b613297573d8060008114613245576040519150601f19603f3d011682016040523d82523d6000602084013e61324a565b606091505b50600081510361328f576040517f08c379a000000000000000000000000000000000000000000000000000000000815260040161328690614a6f565b60405180910390fd5b805181602001fd5b63150b7a0260e01b7bffffffffffffffffffffffffffffffffffffffffffffffffffffffff1916817bffffffffffffffffffffffffffffffffffffffffffffffffffffffff1916149150506132ec565b600190505b949350505050565b60008151905060006a636f6e736f6c652e6c6f679050602083016000808483855afa5050505050565b613337828260405180602001604052806000815250613615565b5050565b600080600090507a184f03e93ff9f4daa797ed6e38ed64bf6a1f0100000000000000008310613399577a184f03e93ff9f4daa797ed6e38ed64bf6a1f010000000000000000838161338f5761338e614b08565b5b0492506040810190505b6d04ee2d6d415b85acef810000000083106133d6576d04ee2d6d415b85acef810000000083816133cc576133cb614b08565b5b0492506020810190505b662386f26fc10000831061340557662386f26fc1000083816133fb576133fa614b08565b5b0492506010810190505b6305f5e100831061342e576305f5e100838161342457613423614b08565b5b0492506008810190505b612710831061345357612710838161344957613448614b08565b5b0492506004810190505b60648310613476576064838161346c5761346b614b08565b5b0492506002810190505b600a8310613485576001810190505b80915050919050565b61349a84848484613670565b60018111156134de576040517f08c379a00000000000000000000000000000000000000000000000000000000081526004016134d590614e5e565b60405180910390fd5b6000829050600073ffffffffffffffffffffffffffffffffffffffff168573ffffffffffffffffffffffffffffffffffffffff16036135255761352081613676565b613564565b8373ffffffffffffffffffffffffffffffffffffffff168573ffffffffffffffffffffffffffffffffffffffff16146135635761356285826136bf565b5b5b600073ffffffffffffffffffffffffffffffffffffffff168473ffffffffffffffffffffffffffffffffffffffff16036135a6576135a18161382c565b6135e5565b8473ffffffffffffffffffffffffffffffffffffffff168473ffffffffffffffffffffffffffffffffffffffff16146135e4576135e384826138fd565b5b5b5050505050565b50505050565b6000808273ffffffffffffffffffffffffffffffffffffffff163b119050919050565b61361f838361397c565b61362c600084848461316d565b61366b576040517f08c379a000000000000000000000000000000000000000000000000000000000815260040161366290614a6f565b60405180910390fd5b505050565b50505050565b600b80549050600c600083815260200190815260200160002081905550600b81908060018154018082558091505060019003906000526020600020016000909190919091505550565b600060016136cc84611148565b6136d69190614a8f565b90506000600a60008481526020019081526020016000205490508181146137bb576000600960008673ffffffffffffffffffffffffffffffffffffffff1673ffffffffffffffffffffffffffffffffffffffff168152602001908152602001600020600084815260200190815260200160002054905080600960008773ffffffffffffffffffffffffffffffffffffffff1673ffffffffffffffffffffffffffffffffffffffff16815260200190815260200160002060008481526020019081526020016000208190555081600a600083815260200190815260200160002081905550505b600a600084815260200190815260200160002060009055600960008573ffffffffffffffffffffffffffffffffffffffff1673ffffffffffffffffffffffffffffffffffffffff16815260200190815260200160002060008381526020019081526020016000206000905550505050565b60006001600b805490506138409190614a8f565b90506000600c60008481526020019081526020016000205490506000600b83815481106138705761386f61440b565b5b9060005260206000200154905080600b83815481106138925761389161440b565b5b906000526020600020018190555081600c600083815260200190815260200160002081905550600c600085815260200190815260200160002060009055600b8054806138e1576138e0614e7e565b5b6001900381819060005260206000200160009055905550505050565b600061390883611148565b905081600960008573ffffffffffffffffffffffffffffffffffffffff1673ffffffffffffffffffffffffffffffffffffffff16815260200190815260200160002060008381526020019081526020016000208190555080600a600084815260200190815260200160002081905550505050565b600073ffffffffffffffffffffffffffffffffffffffff168273ffffffffffffffffffffffffffffffffffffffff16036139eb576040517f08c379a00000000000000000000000000000000000000000000000000000000081526004016139e290614ef9565b60405180910390fd5b6139f481612cb8565b15613a34576040517f08c379a0000000000000000000000000000000000000000000000000000000008152600401613a2b90614f65565b60405180910390fd5b613a4260008383600161348e565b613a4b81612cb8565b15613a8b576040517f08c379a0000000000000000000000000000000000000000000000000000000008152600401613a8290614f65565b60405180910390fd5b6001600660008473ffffffffffffffffffffffffffffffffffffffff1673ffffffffffffffffffffffffffffffffffffffff16815260200190815260200160002060008282540192505081905550816005600083815260200190815260200160002060006101000a81548173ffffffffffffffffffffffffffffffffffffffff021916908373ffffffffffffffffffffffffffffffffffffffff160217905550808273ffffffffffffffffffffffffffffffffffffffff16600073ffffffffffffffffffffffffffffffffffffffff167fddf252ad1be2c89b69c2b068fc378daa952ba7f163c4a11628f55a4df523b3ef60405160405180910390a4613b956000838360016135ec565b5050565b6000604051905090565b600080fd5b600080fd5b60007fffffffff0000000000000000000000000000000000000000000000000000000082169050919050565b613be281613bad565b8114613bed57600080fd5b50565b600081359050613bff81613bd9565b92915050565b600060208284031215613c1b57613c1a613ba3565b5b6000613c2984828501613bf0565b91505092915050565b60008115159050919050565b613c4781613c32565b82525050565b6000602082019050613c626000830184613c3e565b92915050565b600073ffffffffffffffffffffffffffffffffffffffff82169050919050565b6000613c9382613c68565b9050919050565b613ca381613c88565b82525050565b6000602082019050613cbe6000830184613c9a565b92915050565b600081519050919050565b600082825260208201905092915050565b60005b83811015613cfe578082015181840152602081019050613ce3565b60008484015250505050565b6000601f19601f8301169050919050565b6000613d2682613cc4565b613d308185613ccf565b9350613d40818560208601613ce0565b613d4981613d0a565b840191505092915050565b60006020820190508181036000830152613d6e8184613d1b565b905092915050565b6000819050919050565b613d8981613d76565b8114613d9457600080fd5b50565b600081359050613da681613d80565b92915050565b600060208284031215613dc257613dc1613ba3565b5b6000613dd084828501613d97565b91505092915050565b613de281613c88565b8114613ded57600080fd5b50565b600081359050613dff81613dd9565b92915050565b60008060408385031215613e1c57613e1b613ba3565b5b6000613e2a85828601613df0565b9250506020613e3b85828601613d97565b9150509250929050565b613e4e81613d76565b82525050565b6000602082019050613e696000830184613e45565b92915050565b600080600060608486031215613e8857613e87613ba3565b5b6000613e9686828701613df0565b9350506020613ea786828701613df0565b9250506040613eb886828701613d97565b9150509250925092565b600060208284031215613ed857613ed7613ba3565b5b6000613ee684828501613df0565b91505092915050565b6000819050919050565b6000613f14613f0f613f0a84613c68565b613eef565b613c68565b9050919050565b6000613f2682613ef9565b9050919050565b6000613f3882613f1b565b9050919050565b613f4881613f2d565b82525050565b6000602082019050613f636000830184613f3f565b92915050565b60008060408385031215613f8057613f7f613ba3565b5b6000613f8e85828601613d97565b9250506020613f9f85828601613d97565b9150509250929050565b60008060408385031215613fc057613fbf613ba3565b5b6000613fce85828601613d97565b9250506020613fdf85828601613df0565b9150509250929050565b600063ffffffff82169050919050565b61400281613fe9565b82525050565b600060208201905061401d6000830184613ff9565b92915050565b61402c81613c32565b811461403757600080fd5b50565b60008135905061404981614023565b92915050565b6000806040838503121561406657614065613ba3565b5b600061407485828601613df0565b92505060206140858582860161403a565b9150509250929050565b600080fd5b600080fd5b7f4e487b7100000000000000000000000000000000000000000000000000000000600052604160045260246000fd5b6140d182613d0a565b810181811067ffffffffffffffff821117156140f0576140ef614099565b5b80604052505050565b6000614103613b99565b905061410f82826140c8565b919050565b600067ffffffffffffffff82111561412f5761412e614099565b5b61413882613d0a565b9050602081019050919050565b82818337600083830152505050565b600061416761416284614114565b6140f9565b90508281526020810184848401111561418357614182614094565b5b61418e848285614145565b509392505050565b600082601f8301126141ab576141aa61408f565b5b81356141bb848260208601614154565b91505092915050565b600080600080608085870312156141de576141dd613ba3565b5b60006141ec87828801613df0565b94505060206141fd87828801613df0565b935050604061420e87828801613d97565b925050606085013567ffffffffffffffff81111561422f5761422e613ba8565b5b61423b87828801614196565b91505092959194509250565b6000806040838503121561425e5761425d613ba3565b5b600061426c85828601613df0565b925050602061427d85828601613df0565b9150509250929050565b7f4e487b7100000000000000000000000000000000000000000000000000000000600052602260045260246000fd5b600060028204905060018216806142ce57607f821691505b6020821081036142e1576142e0614287565b5b50919050565b7f4552433732313a20617070726f76616c20746f2063757272656e74206f776e6560008201527f7200000000000000000000000000000000000000000000000000000000000000602082015250565b6000614343602183613ccf565b915061434e826142e7565b604082019050919050565b6000602082019050818103600083015261437281614336565b9050919050565b7f4552433732313a20617070726f76652063616c6c6572206973206e6f7420746f60008201527f6b656e206f776e6572206f7220617070726f76656420666f7220616c6c000000602082015250565b60006143d5603d83613ccf565b91506143e082614379565b604082019050919050565b60006020820190508181036000830152614404816143c8565b9050919050565b7f4e487b7100000000000000000000000000000000000000000000000000000000600052603260045260246000fd5b7f4552433732313a2063616c6c6572206973206e6f7420746f6b656e206f776e6560008201527f72206f7220617070726f76656400000000000000000000000000000000000000602082015250565b6000614496602d83613ccf565b91506144a18261443a565b604082019050919050565b600060208201905081810360008301526144c581614489565b9050919050565b7f455243373231456e756d657261626c653a206f776e657220696e646578206f7560008201527f74206f6620626f756e6473000000000000000000000000000000000000000000602082015250565b6000614528602b83613ccf565b9150614533826144cc565b604082019050919050565b600060208201905081810360008301526145578161451b565b9050919050565b60008151905061456d81614023565b92915050565b60006020828403121561458957614588613ba3565b5b60006145978482850161455e565b91505092915050565b7f455243373231456e756d657261626c653a20676c6f62616c20696e646578206f60008201527f7574206f6620626f756e64730000000000000000000000000000000000000000602082015250565b60006145fc602c83613ccf565b9150614607826145a0565b604082019050919050565b6000602082019050818103600083015261462b816145ef565b9050919050565b7f4552433732313a20696e76616c696420746f6b656e2049440000000000000000600082015250565b6000614668601883613ccf565b915061467382614632565b602082019050919050565b600060208201905081810360008301526146978161465b565b9050919050565b7f4552433732313a2061646472657373207a65726f206973206e6f74206120766160008201527f6c6964206f776e65720000000000000000000000000000000000000000000000602082015250565b60006146fa602983613ccf565b91506147058261469e565b604082019050919050565b60006020820190508181036000830152614729816146ed565b9050919050565b6000819050919050565b61474b61474682613d76565b614730565b82525050565b60008160601b9050919050565b600061476982614751565b9050919050565b600061477b8261475e565b9050919050565b61479361478e82613c88565b614770565b82525050565b60006147a5828761473a565b6020820191506147b5828661473a565b6020820191506147c58285614782565b6014820191506147d5828461473a565b60208201915081905095945050505050565b7f4e487b7100000000000000000000000000000000000000000000000000000000600052601160045260246000fd5b600061482182613d76565b915061482c83613d76565b9250828201905080821115614844576148436147e7565b5b92915050565b600061ffff82169050919050565b60006148638261484a565b915061486e8361484a565b9250828201905061ffff811115614888576148876147e7565b5b92915050565b600081905092915050565b60006148a482613cc4565b6148ae818561488e565b93506148be818560208601613ce0565b80840191505092915050565b60006148d68285614899565b91506148e28284614899565b91508190509392505050565b7f5061757361626c653a2070617573656400000000000000000000000000000000600082015250565b6000614924601083613ccf565b915061492f826148ee565b602082019050919050565b6000602082019050818103600083015261495381614917565b9050919050565b600060608201905061496f6000830186613c9a565b61497c6020830185613e45565b6149896040830184613e45565b949350505050565b7f4552433732313a20617070726f766520746f2063616c6c657200000000000000600082015250565b60006149c7601983613ccf565b91506149d282614991565b602082019050919050565b600060208201905081810360008301526149f6816149ba565b9050919050565b7f4552433732313a207472616e7366657220746f206e6f6e20455243373231526560008201527f63656976657220696d706c656d656e7465720000000000000000000000000000602082015250565b6000614a59603283613ccf565b9150614a64826149fd565b604082019050919050565b60006020820190508181036000830152614a8881614a4c565b9050919050565b6000614a9a82613d76565b9150614aa583613d76565b9250828203905081811115614abd57614abc6147e7565b5b92915050565b6000608082019050614ad86000830187613e45565b614ae56020830186613e45565b614af26040830185613e45565b614aff6060830184613e45565b95945050505050565b7f4e487b7100000000000000000000000000000000000000000000000000000000600052601260045260246000fd5b7f4552433732313a207472616e736665722066726f6d20696e636f72726563742060008201527f6f776e6572000000000000000000000000000000000000000000000000000000602082015250565b6000614b93602583613ccf565b9150614b9e82614b37565b604082019050919050565b60006020820190508181036000830152614bc281614b86565b9050919050565b7f4552433732313a207472616e7366657220746f20746865207a65726f2061646460008201527f7265737300000000000000000000000000000000000000000000000000000000602082015250565b6000614c25602483613ccf565b9150614c3082614bc9565b604082019050919050565b60006020820190508181036000830152614c5481614c18565b9050919050565b7f5061757361626c653a206e6f7420706175736564000000000000000000000000600082015250565b6000614c91601483613ccf565b9150614c9c82614c5b565b602082019050919050565b60006020820190508181036000830152614cc081614c84565b9050919050565b600060ff82169050919050565b6000614cdf82614cc7565b9150614cea83614cc7565b9250828201905060ff811115614d0357614d026147e7565b5b92915050565b600081519050919050565b600082825260208201905092915050565b6000614d3082614d09565b614d3a8185614d14565b9350614d4a818560208601613ce0565b614d5381613d0a565b840191505092915050565b6000608082019050614d736000830187613c9a565b614d806020830186613c9a565b614d8d6040830185613e45565b8181036060830152614d9f8184614d25565b905095945050505050565b600081519050614db981613bd9565b92915050565b600060208284031215614dd557614dd4613ba3565b5b6000614de384828501614daa565b91505092915050565b7f455243373231456e756d657261626c653a20636f6e736563757469766520747260008201527f616e7366657273206e6f7420737570706f727465640000000000000000000000602082015250565b6000614e48603583613ccf565b9150614e5382614dec565b604082019050919050565b60006020820190508181036000830152614e7781614e3b565b9050919050565b7f4e487b7100000000000000000000000000000000000000000000000000000000600052603160045260246000fd5b7f4552433732313a206d696e7420746f20746865207a65726f2061646472657373600082015250565b6000614ee3602083613ccf565b9150614eee82614ead565b602082019050919050565b60006020820190508181036000830152614f1281614ed6565b9050919050565b7f4552433732313a20746f6b656e20616c7265616479206d696e74656400000000600082015250565b6000614f4f601c83613ccf565b9150614f5a82614f19565b602082019050919050565b60006020820190508181036000830152614f7e81614f42565b905091905056fea2646970667358221220b9d801ff8bdc4b76bde9737d8de6455829b19cade3ade7b3ad95198b626a00bd64736f6c63430008110033",
  "linkReferences": {},
  "deployedLinkReferences": {}
}