{
  "_format": "hh-sol-artifact-1",
  "contractName": "BummyInfo",
  "sourceName": "contracts/Info/BummyInfo.sol",
  "abi": [
    {
      "inputs": [
        {
          "internalType": "address",
          "name": "_bummyCoreAddress",
          "type": "address"
        }
      ],
      "stateMutability": "nonpayable",
      "type": "constructor"
    },
    {
      "inputs": [],
      "name": "isBummyInfo",
      "outputs": [
        {
          "internalType": "bool",
          "name": "",
          "type": "bool"
        }
      ],
      "stateMutability": "view",
      "type": "function"
    },
    {
      "inputs": [
        {
          "internalType": "uint256",
          "name": "_genes1",
          "type": "uint256"
        },
        {
          "internalType": "uint256",
          "name": "_genes2",
          "type": "uint256"
        }
      ],
      "name": "mixGenes",
      "outputs": [
        {
          "internalType": "uint256",
          "name": "",
          "type": "uint256"
        }
      ],
      "stateMutability": "nonpayable",
      "type": "function"
    }
  ],
  "bytecode": "0x608060405260016000806101000a81548160ff021916908315150217905550600060015534801561002f57600080fd5b5060405161053838038061053883398181016040528101906100519190610134565b600073ffffffffffffffffffffffffffffffffffffffff168173ffffffffffffffffffffffffffffffffffffffff160361008a57600080fd5b80600260006101000a81548173ffffffffffffffffffffffffffffffffffffffff021916908373ffffffffffffffffffffffffffffffffffffffff16021790555050610161565b600080fd5b600073ffffffffffffffffffffffffffffffffffffffff82169050919050565b6000610101826100d6565b9050919050565b610111816100f6565b811461011c57600080fd5b50565b60008151905061012e81610108565b92915050565b60006020828403121561014a576101496100d1565b5b60006101588482850161011f565b91505092915050565b6103c8806101706000396000f3fe608060405234801561001057600080fd5b50600436106100365760003560e01c80638d8b1b881461003b578063c4264ef61461006b575b600080fd5b6100556004803603810190610050919061015e565b610089565b60405161006291906101ad565b60405180910390f35b61007361009d565b60405161008091906101e3565b60405180910390f35b600061009583836100ae565b905092915050565b60008054906101000a900460ff1681565b6000804244336001546040516020016100ca9493929190610299565b6040516020818303038152906040528051906020012060001c9050600160008154809291906100f890610316565b9190505550600081848661010c919061035e565b610116919061035e565b9050809250505092915050565b600080fd5b6000819050919050565b61013b81610128565b811461014657600080fd5b50565b60008135905061015881610132565b92915050565b6000806040838503121561017557610174610123565b5b600061018385828601610149565b925050602061019485828601610149565b9150509250929050565b6101a781610128565b82525050565b60006020820190506101c2600083018461019e565b92915050565b60008115159050919050565b6101dd816101c8565b82525050565b60006020820190506101f860008301846101d4565b92915050565b6000819050919050565b61021961021482610128565b6101fe565b82525050565b600073ffffffffffffffffffffffffffffffffffffffff82169050919050565b600061024a8261021f565b9050919050565b60008160601b9050919050565b600061026982610251565b9050919050565b600061027b8261025e565b9050919050565b61029361028e8261023f565b610270565b82525050565b60006102a58287610208565b6020820191506102b58286610208565b6020820191506102c58285610282565b6014820191506102d58284610208565b60208201915081905095945050505050565b7f4e487b7100000000000000000000000000000000000000000000000000000000600052601160045260246000fd5b600061032182610128565b91507fffffffffffffffffffffffffffffffffffffffffffffffffffffffffffffffff8203610353576103526102e7565b5b600182019050919050565b600061036982610128565b915061037483610128565b925082820190508082111561038c5761038b6102e7565b5b9291505056fea2646970667358221220139a47f3f83fddf4d16a22a630048269bf8b1cceb25440f3a95f1301b169200564736f6c63430008110033",
  "linkReferences": {},
  "deployedLinkReferences": {}
}