{
  "_format": "hh-sol-artifact-1",
  "contractName": "BummyAccessControl",
  "sourceName": "contracts/BummyAccessControl.sol",
  "abi": [
    {
      "anonymous": false,
      "inputs": [
        {
          "indexed": false,
          "internalType": "address",
          "name": "account",
          "type": "address"
        }
      ],
      "name": "Paused",
      "type": "event"
    },
    {
      "anonymous": false,
      "inputs": [
        {
          "indexed": false,
          "internalType": "address",
          "name": "account",
          "type": "address"
        }
      ],
      "name": "Unpaused",
      "type": "event"
    },
    {
      "inputs": [],
      "name": "ceoAddress",
      "outputs": [
        {
          "internalType": "address",
          "name": "",
          "type": "address"
        }
      ],
      "stateMutability": "view",
      "type": "function"
    },
    {
      "inputs": [],
      "name": "cfoAddress",
      "outputs": [
        {
          "internalType": "address",
          "name": "",
          "type": "address"
        }
      ],
      "stateMutability": "view",
      "type": "function"
    },
    {
      "inputs": [],
      "name": "cooAddress",
      "outputs": [
        {
          "internalType": "address",
          "name": "",
          "type": "address"
        }
      ],
      "stateMutability": "view",
      "type": "function"
    },
    {
      "inputs": [],
      "name": "pause",
      "outputs": [],
      "stateMutability": "nonpayable",
      "type": "function"
    },
    {
      "inputs": [],
      "name": "paused",
      "outputs": [
        {
          "internalType": "bool",
          "name": "",
          "type": "bool"
        }
      ],
      "stateMutability": "view",
      "type": "function"
    },
    {
      "inputs": [
        {
          "internalType": "address",
          "name": "_newCEO",
          "type": "address"
        }
      ],
      "name": "setCEO",
      "outputs": [],
      "stateMutability": "nonpayable",
      "type": "function"
    },
    {
      "inputs": [
        {
          "internalType": "address",
          "name": "_newCOO",
          "type": "address"
        }
      ],
      "name": "setCOO",
      "outputs": [],
      "stateMutability": "nonpayable",
      "type": "function"
    },
    {
      "inputs": [],
      "name": "unpause",
      "outputs": [],
      "stateMutability": "nonpayable",
      "type": "function"
    }
  ],
  "bytecode": "0x608060405234801561001057600080fd5b5060008060006101000a81548160ff02191690831515021790555061086d8061003a6000396000f3fe608060405234801561001057600080fd5b50600436106100885760003560e01c80633f4ba83a1161005b5780633f4ba83a146101015780635c975abb1461010b5780638456cb5914610129578063b047fb501461013357610088565b80630519ce791461008d5780630a0f8168146100ab57806327d7874c146100c95780632ba73c15146100e5575b600080fd5b610095610151565b6040516100a2919061069f565b60405180910390f35b6100b3610177565b6040516100c0919061069f565b60405180910390f35b6100e360048036038101906100de91906106eb565b61019d565b005b6100ff60048036038101906100fa91906106eb565b610274565b005b61010961034b565b005b6101136103af565b6040516101209190610733565b60405180910390f35b6101316103c5565b005b61013b6104d9565b604051610148919061069f565b60405180910390f35b600160009054906101000a900473ffffffffffffffffffffffffffffffffffffffff1681565b600060019054906101000a900473ffffffffffffffffffffffffffffffffffffffff1681565b600060019054906101000a900473ffffffffffffffffffffffffffffffffffffffff1673ffffffffffffffffffffffffffffffffffffffff163373ffffffffffffffffffffffffffffffffffffffff16146101f757600080fd5b600073ffffffffffffffffffffffffffffffffffffffff168173ffffffffffffffffffffffffffffffffffffffff160361023057600080fd5b80600060016101000a81548173ffffffffffffffffffffffffffffffffffffffff021916908373ffffffffffffffffffffffffffffffffffffffff16021790555050565b600060019054906101000a900473ffffffffffffffffffffffffffffffffffffffff1673ffffffffffffffffffffffffffffffffffffffff163373ffffffffffffffffffffffffffffffffffffffff16146102ce57600080fd5b600073ffffffffffffffffffffffffffffffffffffffff168173ffffffffffffffffffffffffffffffffffffffff160361030757600080fd5b80600260006101000a81548173ffffffffffffffffffffffffffffffffffffffff021916908373ffffffffffffffffffffffffffffffffffffffff16021790555050565b600060019054906101000a900473ffffffffffffffffffffffffffffffffffffffff1673ffffffffffffffffffffffffffffffffffffffff163373ffffffffffffffffffffffffffffffffffffffff16146103a557600080fd5b6103ad6104ff565b565b60008060009054906101000a900460ff16905090565b600260009054906101000a900473ffffffffffffffffffffffffffffffffffffffff1673ffffffffffffffffffffffffffffffffffffffff163373ffffffffffffffffffffffffffffffffffffffff16148061046e5750600060019054906101000a900473ffffffffffffffffffffffffffffffffffffffff1673ffffffffffffffffffffffffffffffffffffffff163373ffffffffffffffffffffffffffffffffffffffff16145b806104c65750600160009054906101000a900473ffffffffffffffffffffffffffffffffffffffff1673ffffffffffffffffffffffffffffffffffffffff163373ffffffffffffffffffffffffffffffffffffffff16145b6104cf57600080fd5b6104d7610561565b565b600260009054906101000a900473ffffffffffffffffffffffffffffffffffffffff1681565b6105076105c3565b60008060006101000a81548160ff0219169083151502179055507f5db9ee0a495bf2e6ff9c91a7834c1ba4fdd244a5e8aa4e537bd38aeae4b073aa61054a61060c565b604051610557919061069f565b60405180910390a1565b610569610614565b60016000806101000a81548160ff0219169083151502179055507f62e78cea01bee320cd4e420270b5ea74000d11b0c9f74754ebdbfc544b05a2586105ac61060c565b6040516105b9919061069f565b60405180910390a1565b6105cb6103af565b61060a576040517f08c379a0000000000000000000000000000000000000000000000000000000008152600401610601906107ab565b60405180910390fd5b565b600033905090565b61061c6103af565b1561065c576040517f08c379a000000000000000000000000000000000000000000000000000000000815260040161065390610817565b60405180910390fd5b565b600073ffffffffffffffffffffffffffffffffffffffff82169050919050565b60006106898261065e565b9050919050565b6106998161067e565b82525050565b60006020820190506106b46000830184610690565b92915050565b600080fd5b6106c88161067e565b81146106d357600080fd5b50565b6000813590506106e5816106bf565b92915050565b600060208284031215610701576107006106ba565b5b600061070f848285016106d6565b91505092915050565b60008115159050919050565b61072d81610718565b82525050565b60006020820190506107486000830184610724565b92915050565b600082825260208201905092915050565b7f5061757361626c653a206e6f7420706175736564000000000000000000000000600082015250565b600061079560148361074e565b91506107a08261075f565b602082019050919050565b600060208201905081810360008301526107c481610788565b9050919050565b7f5061757361626c653a2070617573656400000000000000000000000000000000600082015250565b600061080160108361074e565b915061080c826107cb565b602082019050919050565b60006020820190508181036000830152610830816107f4565b905091905056fea2646970667358221220b936f36488d8034d7a538302c5ce77c4ca8e739c7ae1ab1bfa0432b60dadb01764736f6c63430008110033",
  "linkReferences": {},
  "deployedLinkReferences": {}
}