{
  "_format": "hh-sol-artifact-1",
  "contractName": "BummyAccessControl",
  "sourceName": "contracts/BummyAccessControl.sol",
  "abi": [
    {
      "anonymous": false,
      "inputs": [
        {
          "indexed": false,
          "internalType": "address",
          "name": "account",
          "type": "address"
        }
      ],
      "name": "Paused",
      "type": "event"
    },
    {
      "anonymous": false,
      "inputs": [
        {
          "indexed": false,
          "internalType": "address",
          "name": "account",
          "type": "address"
        }
      ],
      "name": "Unpaused",
      "type": "event"
    },
    {
      "inputs": [],
      "name": "ceoAddress",
      "outputs": [
        {
          "internalType": "address",
          "name": "",
          "type": "address"
        }
      ],
      "stateMutability": "view",
      "type": "function"
    },
    {
      "inputs": [],
      "name": "cooAddress",
      "outputs": [
        {
          "internalType": "address",
          "name": "",
          "type": "address"
        }
      ],
      "stateMutability": "view",
      "type": "function"
    },
    {
      "inputs": [],
      "name": "pause",
      "outputs": [],
      "stateMutability": "nonpayable",
      "type": "function"
    },
    {
      "inputs": [],
      "name": "paused",
      "outputs": [
        {
          "internalType": "bool",
          "name": "",
          "type": "bool"
        }
      ],
      "stateMutability": "view",
      "type": "function"
    },
    {
      "inputs": [
        {
          "internalType": "address",
          "name": "_newCEO",
          "type": "address"
        }
      ],
      "name": "setCEO",
      "outputs": [],
      "stateMutability": "nonpayable",
      "type": "function"
    },
    {
      "inputs": [
        {
          "internalType": "address",
          "name": "_newCOO",
          "type": "address"
        }
      ],
      "name": "setCOO",
      "outputs": [],
      "stateMutability": "nonpayable",
      "type": "function"
    },
    {
      "inputs": [],
      "name": "unpause",
      "outputs": [],
      "stateMutability": "nonpayable",
      "type": "function"
    }
  ],
  "bytecode": "0x608060405234801561001057600080fd5b5060008060006101000a81548160ff0219169083151502179055506107c68061003a6000396000f3fe608060405234801561001057600080fd5b506004361061007d5760003560e01c80633f4ba83a1161005b5780633f4ba83a146100d85780635c975abb146100e25780638456cb5914610100578063b047fb501461010a5761007d565b80630a0f81681461008257806327d7874c146100a05780632ba73c15146100bc575b600080fd5b61008a610128565b60405161009791906105f8565b60405180910390f35b6100ba60048036038101906100b59190610644565b61014e565b005b6100d660048036038101906100d19190610644565b610225565b005b6100e06102fc565b005b6100ea610360565b6040516100f7919061068c565b60405180910390f35b610108610376565b005b610112610432565b60405161011f91906105f8565b60405180910390f35b600060019054906101000a900473ffffffffffffffffffffffffffffffffffffffff1681565b600060019054906101000a900473ffffffffffffffffffffffffffffffffffffffff1673ffffffffffffffffffffffffffffffffffffffff163373ffffffffffffffffffffffffffffffffffffffff16146101a857600080fd5b600073ffffffffffffffffffffffffffffffffffffffff168173ffffffffffffffffffffffffffffffffffffffff16036101e157600080fd5b80600060016101000a81548173ffffffffffffffffffffffffffffffffffffffff021916908373ffffffffffffffffffffffffffffffffffffffff16021790555050565b600060019054906101000a900473ffffffffffffffffffffffffffffffffffffffff1673ffffffffffffffffffffffffffffffffffffffff163373ffffffffffffffffffffffffffffffffffffffff161461027f57600080fd5b600073ffffffffffffffffffffffffffffffffffffffff168173ffffffffffffffffffffffffffffffffffffffff16036102b857600080fd5b80600160006101000a81548173ffffffffffffffffffffffffffffffffffffffff021916908373ffffffffffffffffffffffffffffffffffffffff16021790555050565b600060019054906101000a900473ffffffffffffffffffffffffffffffffffffffff1673ffffffffffffffffffffffffffffffffffffffff163373ffffffffffffffffffffffffffffffffffffffff161461035657600080fd5b61035e610458565b565b60008060009054906101000a900460ff16905090565b600160009054906101000a900473ffffffffffffffffffffffffffffffffffffffff1673ffffffffffffffffffffffffffffffffffffffff163373ffffffffffffffffffffffffffffffffffffffff16148061041f5750600060019054906101000a900473ffffffffffffffffffffffffffffffffffffffff1673ffffffffffffffffffffffffffffffffffffffff163373ffffffffffffffffffffffffffffffffffffffff16145b61042857600080fd5b6104306104ba565b565b600160009054906101000a900473ffffffffffffffffffffffffffffffffffffffff1681565b61046061051c565b60008060006101000a81548160ff0219169083151502179055507f5db9ee0a495bf2e6ff9c91a7834c1ba4fdd244a5e8aa4e537bd38aeae4b073aa6104a3610565565b6040516104b091906105f8565b60405180910390a1565b6104c261056d565b60016000806101000a81548160ff0219169083151502179055507f62e78cea01bee320cd4e420270b5ea74000d11b0c9f74754ebdbfc544b05a258610505610565565b60405161051291906105f8565b60405180910390a1565b610524610360565b610563576040517f08c379a000000000000000000000000000000000000000000000000000000000815260040161055a90610704565b60405180910390fd5b565b600033905090565b610575610360565b156105b5576040517f08c379a00000000000000000000000000000000000000000000000000000000081526004016105ac90610770565b60405180910390fd5b565b600073ffffffffffffffffffffffffffffffffffffffff82169050919050565b60006105e2826105b7565b9050919050565b6105f2816105d7565b82525050565b600060208201905061060d60008301846105e9565b92915050565b600080fd5b610621816105d7565b811461062c57600080fd5b50565b60008135905061063e81610618565b92915050565b60006020828403121561065a57610659610613565b5b60006106688482850161062f565b91505092915050565b60008115159050919050565b61068681610671565b82525050565b60006020820190506106a1600083018461067d565b92915050565b600082825260208201905092915050565b7f5061757361626c653a206e6f7420706175736564000000000000000000000000600082015250565b60006106ee6014836106a7565b91506106f9826106b8565b602082019050919050565b6000602082019050818103600083015261071d816106e1565b9050919050565b7f5061757361626c653a2070617573656400000000000000000000000000000000600082015250565b600061075a6010836106a7565b915061076582610724565b602082019050919050565b600060208201905081810360008301526107898161074d565b905091905056fea2646970667358221220697dd5dd51b04f521be5670960c1424dece78d7bc478f53f325c777029be0bd264736f6c63430008110033",
  "linkReferences": {},
  "deployedLinkReferences": {}
}