{
  "_format": "hh-sol-artifact-1",
  "contractName": "BummyOwnership",
  "sourceName": "contracts/BummyOwnership.sol",
  "abi": [
    {
      "anonymous": false,
      "inputs": [
        {
          "indexed": true,
          "internalType": "address",
          "name": "owner",
          "type": "address"
        },
        {
          "indexed": true,
          "internalType": "address",
          "name": "approved",
          "type": "address"
        },
        {
          "indexed": true,
          "internalType": "uint256",
          "name": "tokenId",
          "type": "uint256"
        }
      ],
      "name": "Approval",
      "type": "event"
    },
    {
      "anonymous": false,
      "inputs": [
        {
          "indexed": true,
          "internalType": "address",
          "name": "owner",
          "type": "address"
        },
        {
          "indexed": true,
          "internalType": "address",
          "name": "operator",
          "type": "address"
        },
        {
          "indexed": false,
          "internalType": "bool",
          "name": "approved",
          "type": "bool"
        }
      ],
      "name": "ApprovalForAll",
      "type": "event"
    },
    {
      "anonymous": false,
      "inputs": [
        {
          "indexed": true,
          "internalType": "address",
          "name": "owner",
          "type": "address"
        },
        {
          "indexed": false,
          "internalType": "uint256",
          "name": "bummyId",
          "type": "uint256"
        },
        {
          "indexed": false,
          "internalType": "uint256",
          "name": "momId",
          "type": "uint256"
        },
        {
          "indexed": false,
          "internalType": "uint256",
          "name": "dadId",
          "type": "uint256"
        },
        {
          "indexed": false,
          "internalType": "uint256",
          "name": "genes",
          "type": "uint256"
        }
      ],
      "name": "Invite",
      "type": "event"
    },
    {
      "anonymous": false,
      "inputs": [
        {
          "indexed": false,
          "internalType": "address",
          "name": "account",
          "type": "address"
        }
      ],
      "name": "Paused",
      "type": "event"
    },
    {
      "anonymous": false,
      "inputs": [
        {
          "indexed": true,
          "internalType": "address",
          "name": "from",
          "type": "address"
        },
        {
          "indexed": true,
          "internalType": "address",
          "name": "to",
          "type": "address"
        },
        {
          "indexed": true,
          "internalType": "uint256",
          "name": "tokenId",
          "type": "uint256"
        }
      ],
      "name": "Transfer",
      "type": "event"
    },
    {
      "anonymous": false,
      "inputs": [
        {
          "indexed": false,
          "internalType": "address",
          "name": "account",
          "type": "address"
        }
      ],
      "name": "Unpaused",
      "type": "event"
    },
    {
      "inputs": [
        {
          "internalType": "address",
          "name": "to",
          "type": "address"
        },
        {
          "internalType": "uint256",
          "name": "tokenId",
          "type": "uint256"
        }
      ],
      "name": "approve",
      "outputs": [],
      "stateMutability": "nonpayable",
      "type": "function"
    },
    {
      "inputs": [
        {
          "internalType": "address",
          "name": "owner",
          "type": "address"
        }
      ],
      "name": "balanceOf",
      "outputs": [
        {
          "internalType": "uint256",
          "name": "",
          "type": "uint256"
        }
      ],
      "stateMutability": "view",
      "type": "function"
    },
    {
      "inputs": [
        {
          "internalType": "uint256",
          "name": "",
          "type": "uint256"
        }
      ],
      "name": "bummies",
      "outputs": [
        {
          "internalType": "uint256",
          "name": "genes",
          "type": "uint256"
        },
        {
          "internalType": "uint64",
          "name": "birthTime",
          "type": "uint64"
        },
        {
          "internalType": "uint64",
          "name": "cooldownEndTime",
          "type": "uint64"
        },
        {
          "internalType": "uint32",
          "name": "MomId",
          "type": "uint32"
        },
        {
          "internalType": "uint32",
          "name": "DadId",
          "type": "uint32"
        },
        {
          "internalType": "uint32",
          "name": "cheeringWithId",
          "type": "uint32"
        },
        {
          "internalType": "uint8",
          "name": "cooldownIndex",
          "type": "uint8"
        },
        {
          "internalType": "uint8",
          "name": "children",
          "type": "uint8"
        },
        {
          "internalType": "uint16",
          "name": "generation",
          "type": "uint16"
        }
      ],
      "stateMutability": "view",
      "type": "function"
    },
    {
      "inputs": [],
      "name": "ceoAddress",
      "outputs": [
        {
          "internalType": "address",
          "name": "",
          "type": "address"
        }
      ],
      "stateMutability": "view",
      "type": "function"
    },
    {
      "inputs": [
        {
          "internalType": "uint256",
          "name": "",
          "type": "uint256"
        }
      ],
      "name": "cheerAllowedToAddress",
      "outputs": [
        {
          "internalType": "address",
          "name": "",
          "type": "address"
        }
      ],
      "stateMutability": "view",
      "type": "function"
    },
    {
      "inputs": [],
      "name": "cooAddress",
      "outputs": [
        {
          "internalType": "address",
          "name": "",
          "type": "address"
        }
      ],
      "stateMutability": "view",
      "type": "function"
    },
    {
      "inputs": [
        {
          "internalType": "uint256",
          "name": "",
          "type": "uint256"
        }
      ],
      "name": "cooldowns",
      "outputs": [
        {
          "internalType": "uint32",
          "name": "",
          "type": "uint32"
        }
      ],
      "stateMutability": "view",
      "type": "function"
    },
    {
      "inputs": [
        {
          "internalType": "uint256",
          "name": "tokenId",
          "type": "uint256"
        }
      ],
      "name": "getApproved",
      "outputs": [
        {
          "internalType": "address",
          "name": "",
          "type": "address"
        }
      ],
      "stateMutability": "view",
      "type": "function"
    },
    {
      "inputs": [
        {
          "internalType": "address",
          "name": "owner",
          "type": "address"
        },
        {
          "internalType": "address",
          "name": "operator",
          "type": "address"
        }
      ],
      "name": "isApprovedForAll",
      "outputs": [
        {
          "internalType": "bool",
          "name": "",
          "type": "bool"
        }
      ],
      "stateMutability": "view",
      "type": "function"
    },
    {
      "inputs": [],
      "name": "name",
      "outputs": [
        {
          "internalType": "string",
          "name": "",
          "type": "string"
        }
      ],
      "stateMutability": "view",
      "type": "function"
    },
    {
      "inputs": [
        {
          "internalType": "uint256",
          "name": "tokenId",
          "type": "uint256"
        }
      ],
      "name": "ownerOf",
      "outputs": [
        {
          "internalType": "address",
          "name": "",
          "type": "address"
        }
      ],
      "stateMutability": "view",
      "type": "function"
    },
    {
      "inputs": [],
      "name": "pause",
      "outputs": [],
      "stateMutability": "nonpayable",
      "type": "function"
    },
    {
      "inputs": [],
      "name": "paused",
      "outputs": [
        {
          "internalType": "bool",
          "name": "",
          "type": "bool"
        }
      ],
      "stateMutability": "view",
      "type": "function"
    },
    {
      "inputs": [
        {
          "internalType": "address",
          "name": "from",
          "type": "address"
        },
        {
          "internalType": "address",
          "name": "to",
          "type": "address"
        },
        {
          "internalType": "uint256",
          "name": "tokenId",
          "type": "uint256"
        }
      ],
      "name": "safeTransferFrom",
      "outputs": [],
      "stateMutability": "nonpayable",
      "type": "function"
    },
    {
      "inputs": [
        {
          "internalType": "address",
          "name": "from",
          "type": "address"
        },
        {
          "internalType": "address",
          "name": "to",
          "type": "address"
        },
        {
          "internalType": "uint256",
          "name": "tokenId",
          "type": "uint256"
        },
        {
          "internalType": "bytes",
          "name": "data",
          "type": "bytes"
        }
      ],
      "name": "safeTransferFrom",
      "outputs": [],
      "stateMutability": "nonpayable",
      "type": "function"
    },
    {
      "inputs": [
        {
          "internalType": "address",
          "name": "operator",
          "type": "address"
        },
        {
          "internalType": "bool",
          "name": "approved",
          "type": "bool"
        }
      ],
      "name": "setApprovalForAll",
      "outputs": [],
      "stateMutability": "nonpayable",
      "type": "function"
    },
    {
      "inputs": [
        {
          "internalType": "address",
          "name": "_newCEO",
          "type": "address"
        }
      ],
      "name": "setCEO",
      "outputs": [],
      "stateMutability": "nonpayable",
      "type": "function"
    },
    {
      "inputs": [
        {
          "internalType": "address",
          "name": "_newCOO",
          "type": "address"
        }
      ],
      "name": "setCOO",
      "outputs": [],
      "stateMutability": "nonpayable",
      "type": "function"
    },
    {
      "inputs": [
        {
          "internalType": "bytes4",
          "name": "interfaceId",
          "type": "bytes4"
        }
      ],
      "name": "supportsInterface",
      "outputs": [
        {
          "internalType": "bool",
          "name": "",
          "type": "bool"
        }
      ],
      "stateMutability": "view",
      "type": "function"
    },
    {
      "inputs": [],
      "name": "symbol",
      "outputs": [
        {
          "internalType": "string",
          "name": "",
          "type": "string"
        }
      ],
      "stateMutability": "view",
      "type": "function"
    },
    {
      "inputs": [
        {
          "internalType": "uint256",
          "name": "index",
          "type": "uint256"
        }
      ],
      "name": "tokenByIndex",
      "outputs": [
        {
          "internalType": "uint256",
          "name": "",
          "type": "uint256"
        }
      ],
      "stateMutability": "view",
      "type": "function"
    },
    {
      "inputs": [
        {
          "internalType": "address",
          "name": "owner",
          "type": "address"
        },
        {
          "internalType": "uint256",
          "name": "index",
          "type": "uint256"
        }
      ],
      "name": "tokenOfOwnerByIndex",
      "outputs": [
        {
          "internalType": "uint256",
          "name": "",
          "type": "uint256"
        }
      ],
      "stateMutability": "view",
      "type": "function"
    },
    {
      "inputs": [
        {
          "internalType": "uint256",
          "name": "tokenId",
          "type": "uint256"
        }
      ],
      "name": "tokenURI",
      "outputs": [
        {
          "internalType": "string",
          "name": "",
          "type": "string"
        }
      ],
      "stateMutability": "view",
      "type": "function"
    },
    {
      "inputs": [],
      "name": "totalSupply",
      "outputs": [
        {
          "internalType": "uint256",
          "name": "",
          "type": "uint256"
        }
      ],
      "stateMutability": "view",
      "type": "function"
    },
    {
      "inputs": [
        {
          "internalType": "address",
          "name": "from",
          "type": "address"
        },
        {
          "internalType": "address",
          "name": "to",
          "type": "address"
        },
        {
          "internalType": "uint256",
          "name": "tokenId",
          "type": "uint256"
        }
      ],
      "name": "transferFrom",
      "outputs": [],
      "stateMutability": "nonpayable",
      "type": "function"
    },
    {
      "inputs": [],
      "name": "unpause",
      "outputs": [],
      "stateMutability": "nonpayable",
      "type": "function"
    }
  ],
  "bytecode": "0x6080604052604051806101000160405280603c63ffffffff1663ffffffff168152602001607863ffffffff1663ffffffff16815260200161012c63ffffffff1663ffffffff16815260200161025863ffffffff1663ffffffff16815260200161070863ffffffff1663ffffffff168152602001610e1063ffffffff1663ffffffff168152602001611c2063ffffffff1663ffffffff16815260200161384063ffffffff1663ffffffff16815250600c906008620000be9291906200017f565b50348015620000cc57600080fd5b506040518060400160405280600881526020017f42756d6d794e46540000000000000000000000000000000000000000000000008152506040518060400160405280600281526020017f425600000000000000000000000000000000000000000000000000000000000081525060008060006101000a81548160ff0219169083151502179055508160029081620001649190620004c2565b508060039081620001769190620004c2565b505050620005a9565b826008600701600890048101928215620002165791602002820160005b83821115620001e257835183826101000a81548163ffffffff021916908363ffffffff16021790555092602001926004016020816003010492830192600103026200019c565b8015620002145782816101000a81549063ffffffff0219169055600401602081600301049283019260010302620001e2565b505b50905062000225919062000229565b5090565b5b80821115620002445760008160009055506001016200022a565b5090565b600081519050919050565b7f4e487b7100000000000000000000000000000000000000000000000000000000600052604160045260246000fd5b7f4e487b7100000000000000000000000000000000000000000000000000000000600052602260045260246000fd5b60006002820490506001821680620002ca57607f821691505b602082108103620002e057620002df62000282565b5b50919050565b60008190508160005260206000209050919050565b60006020601f8301049050919050565b600082821b905092915050565b6000600883026200034a7fffffffffffffffffffffffffffffffffffffffffffffffffffffffffffffffff826200030b565b6200035686836200030b565b95508019841693508086168417925050509392505050565b6000819050919050565b6000819050919050565b6000620003a36200039d62000397846200036e565b62000378565b6200036e565b9050919050565b6000819050919050565b620003bf8362000382565b620003d7620003ce82620003aa565b84845462000318565b825550505050565b600090565b620003ee620003df565b620003fb818484620003b4565b505050565b5b81811015620004235762000417600082620003e4565b60018101905062000401565b5050565b601f82111562000472576200043c81620002e6565b6200044784620002fb565b8101602085101562000457578190505b6200046f6200046685620002fb565b83018262000400565b50505b505050565b600082821c905092915050565b6000620004976000198460080262000477565b1980831691505092915050565b6000620004b2838362000484565b9150826002028217905092915050565b620004cd8262000248565b67ffffffffffffffff811115620004e957620004e862000253565b5b620004f58254620002b1565b6200050282828562000427565b600060209050601f8311600181146200053a576000841562000525578287015190505b620005318582620004a4565b865550620005a1565b601f1984166200054a86620002e6565b60005b8281101562000574578489015182556001820191506020850194506020810190506200054d565b8683101562000594578489015162000590601f89168262000484565b8355505b6001600288020188555050505b505050505050565b61345180620005b96000396000f3fe608060405234801561001057600080fd5b506004361061018e5760003560e01c80635c975abb116100de5780639d6fac6f11610097578063b88d4fde11610071578063b88d4fde14610483578063c87b56dd1461049f578063d3965141146104cf578063e985e9c5146105075761018e565b80639d6fac6f14610419578063a22cb46514610449578063b047fb50146104655761018e565b80635c975abb146103435780635edbf360146103615780636352211e1461039157806370a08231146103c15780638456cb59146103f157806395d89b41146103fb5761018e565b806323b872dd1161014b5780632f745c59116101255780632f745c59146102bd5780633f4ba83a146102ed57806342842e0e146102f75780634f6ccce7146103135761018e565b806323b872dd1461026957806327d7874c146102855780632ba73c15146102a15761018e565b806301ffc9a71461019357806306fdde03146101c3578063081812fc146101e1578063095ea7b3146102115780630a0f81681461022d57806318160ddd1461024b575b600080fd5b6101ad60048036038101906101a891906123b3565b610537565b6040516101ba91906123fb565b60405180910390f35b6101cb6105b1565b6040516101d891906124a6565b60405180910390f35b6101fb60048036038101906101f691906124fe565b610643565b604051610208919061256c565b60405180910390f35b61022b600480360381019061022691906125b3565b610689565b005b6102356107a0565b604051610242919061256c565b60405180910390f35b6102536107c6565b6040516102609190612602565b60405180910390f35b610283600480360381019061027e919061261d565b6107d3565b005b61029f600480360381019061029a9190612670565b610833565b005b6102bb60048036038101906102b69190612670565b61090a565b005b6102d760048036038101906102d291906125b3565b6109e1565b6040516102e49190612602565b60405180910390f35b6102f5610a86565b005b610311600480360381019061030c919061261d565b610aea565b005b61032d600480360381019061032891906124fe565b610b0a565b60405161033a9190612602565b60405180910390f35b61034b610b7b565b60405161035891906123fb565b60405180910390f35b61037b600480360381019061037691906124fe565b610b91565b604051610388919061256c565b60405180910390f35b6103ab60048036038101906103a691906124fe565b610bc4565b6040516103b8919061256c565b60405180910390f35b6103db60048036038101906103d69190612670565b610c4a565b6040516103e89190612602565b60405180910390f35b6103f9610d01565b005b610403610dbd565b60405161041091906124a6565b60405180910390f35b610433600480360381019061042e91906124fe565b610e4f565b60405161044091906126bc565b60405180910390f35b610463600480360381019061045e9190612703565b610e7f565b005b61046d610e95565b60405161047a919061256c565b60405180910390f35b61049d60048036038101906104989190612878565b610ebb565b005b6104b960048036038101906104b491906124fe565b610f1d565b6040516104c691906124a6565b60405180910390f35b6104e960048036038101906104e491906124fe565b610f85565b6040516104fe99989796959493929190612957565b60405180910390f35b610521600480360381019061051c91906129e4565b611063565b60405161052e91906123fb565b60405180910390f35b60007f780e9d63000000000000000000000000000000000000000000000000000000007bffffffffffffffffffffffffffffffffffffffffffffffffffffffff1916827bffffffffffffffffffffffffffffffffffffffffffffffffffffffff191614806105aa57506105a9826110f7565b5b9050919050565b6060600280546105c090612a53565b80601f01602080910402602001604051908101604052809291908181526020018280546105ec90612a53565b80156106395780601f1061060e57610100808354040283529160200191610639565b820191906000526020600020905b81548152906001019060200180831161061c57829003601f168201915b5050505050905090565b600061064e826111d9565b6006600083815260200190815260200160002060009054906101000a900473ffffffffffffffffffffffffffffffffffffffff169050919050565b600061069482610bc4565b90508073ffffffffffffffffffffffffffffffffffffffff168373ffffffffffffffffffffffffffffffffffffffff1603610704576040517f08c379a00000000000000000000000000000000000000000000000000000000081526004016106fb90612af6565b60405180910390fd5b8073ffffffffffffffffffffffffffffffffffffffff16610723611224565b73ffffffffffffffffffffffffffffffffffffffff16148061075257506107518161074c611224565b611063565b5b610791576040517f08c379a000000000000000000000000000000000000000000000000000000000815260040161078890612b88565b60405180910390fd5b61079b838361122c565b505050565b600060019054906101000a900473ffffffffffffffffffffffffffffffffffffffff1681565b6000600a80549050905090565b6107e46107de611224565b826112e5565b610823576040517f08c379a000000000000000000000000000000000000000000000000000000000815260040161081a90612c1a565b60405180910390fd5b61082e83838361137a565b505050565b600060019054906101000a900473ffffffffffffffffffffffffffffffffffffffff1673ffffffffffffffffffffffffffffffffffffffff163373ffffffffffffffffffffffffffffffffffffffff161461088d57600080fd5b600073ffffffffffffffffffffffffffffffffffffffff168173ffffffffffffffffffffffffffffffffffffffff16036108c657600080fd5b80600060016101000a81548173ffffffffffffffffffffffffffffffffffffffff021916908373ffffffffffffffffffffffffffffffffffffffff16021790555050565b600060019054906101000a900473ffffffffffffffffffffffffffffffffffffffff1673ffffffffffffffffffffffffffffffffffffffff163373ffffffffffffffffffffffffffffffffffffffff161461096457600080fd5b600073ffffffffffffffffffffffffffffffffffffffff168173ffffffffffffffffffffffffffffffffffffffff160361099d57600080fd5b80600160006101000a81548173ffffffffffffffffffffffffffffffffffffffff021916908373ffffffffffffffffffffffffffffffffffffffff16021790555050565b60006109ec83610c4a565b8210610a2d576040517f08c379a0000000000000000000000000000000000000000000000000000000008152600401610a2490612cac565b60405180910390fd5b600860008473ffffffffffffffffffffffffffffffffffffffff1673ffffffffffffffffffffffffffffffffffffffff168152602001908152602001600020600083815260200190815260200160002054905092915050565b600060019054906101000a900473ffffffffffffffffffffffffffffffffffffffff1673ffffffffffffffffffffffffffffffffffffffff163373ffffffffffffffffffffffffffffffffffffffff1614610ae057600080fd5b610ae86113f5565b565b610b0583838360405180602001604052806000815250610ebb565b505050565b6000610b146107c6565b8210610b55576040517f08c379a0000000000000000000000000000000000000000000000000000000008152600401610b4c90612d3e565b60405180910390fd5b600a8281548110610b6957610b68612d5e565b5b90600052602060002001549050919050565b60008060009054906101000a900460ff16905090565b600e6020528060005260406000206000915054906101000a900473ffffffffffffffffffffffffffffffffffffffff1681565b600080610bd083611457565b9050600073ffffffffffffffffffffffffffffffffffffffff168173ffffffffffffffffffffffffffffffffffffffff1603610c41576040517f08c379a0000000000000000000000000000000000000000000000000000000008152600401610c3890612dd9565b60405180910390fd5b80915050919050565b60008073ffffffffffffffffffffffffffffffffffffffff168273ffffffffffffffffffffffffffffffffffffffff1603610cba576040517f08c379a0000000000000000000000000000000000000000000000000000000008152600401610cb190612e6b565b60405180910390fd5b600560008373ffffffffffffffffffffffffffffffffffffffff1673ffffffffffffffffffffffffffffffffffffffff168152602001908152602001600020549050919050565b600160009054906101000a900473ffffffffffffffffffffffffffffffffffffffff1673ffffffffffffffffffffffffffffffffffffffff163373ffffffffffffffffffffffffffffffffffffffff161480610daa5750600060019054906101000a900473ffffffffffffffffffffffffffffffffffffffff1673ffffffffffffffffffffffffffffffffffffffff163373ffffffffffffffffffffffffffffffffffffffff16145b610db357600080fd5b610dbb611494565b565b606060038054610dcc90612a53565b80601f0160208091040260200160405190810160405280929190818152602001828054610df890612a53565b8015610e455780601f10610e1a57610100808354040283529160200191610e45565b820191906000526020600020905b815481529060010190602001808311610e2857829003601f168201915b5050505050905090565b600c8160088110610e5f57600080fd5b60089182820401919006600402915054906101000a900463ffffffff1681565b610e91610e8a611224565b83836114f6565b5050565b600160009054906101000a900473ffffffffffffffffffffffffffffffffffffffff1681565b610ecc610ec6611224565b836112e5565b610f0b576040517f08c379a0000000000000000000000000000000000000000000000000000000008152600401610f0290612c1a565b60405180910390fd5b610f1784848484611662565b50505050565b6060610f28826111d9565b6000610f326116be565b90506000815111610f525760405180602001604052806000815250610f7d565b80610f5c846116d5565b604051602001610f6d929190612ec7565b6040516020818303038152906040525b915050919050565b600d8181548110610f9557600080fd5b90600052602060002090600202016000915090508060000154908060010160009054906101000a900467ffffffffffffffff16908060010160089054906101000a900467ffffffffffffffff16908060010160109054906101000a900463ffffffff16908060010160149054906101000a900463ffffffff16908060010160189054906101000a900463ffffffff169080600101601c9054906101000a900460ff169080600101601d9054906101000a900460ff169080600101601e9054906101000a900461ffff16905089565b6000600760008473ffffffffffffffffffffffffffffffffffffffff1673ffffffffffffffffffffffffffffffffffffffff16815260200190815260200160002060008373ffffffffffffffffffffffffffffffffffffffff1673ffffffffffffffffffffffffffffffffffffffff16815260200190815260200160002060009054906101000a900460ff16905092915050565b60007f80ac58cd000000000000000000000000000000000000000000000000000000007bffffffffffffffffffffffffffffffffffffffffffffffffffffffff1916827bffffffffffffffffffffffffffffffffffffffffffffffffffffffff191614806111c257507f5b5e139f000000000000000000000000000000000000000000000000000000007bffffffffffffffffffffffffffffffffffffffffffffffffffffffff1916827bffffffffffffffffffffffffffffffffffffffffffffffffffffffff1916145b806111d257506111d1826117a3565b5b9050919050565b6111e28161180d565b611221576040517f08c379a000000000000000000000000000000000000000000000000000000000815260040161121890612dd9565b60405180910390fd5b50565b600033905090565b816006600083815260200190815260200160002060006101000a81548173ffffffffffffffffffffffffffffffffffffffff021916908373ffffffffffffffffffffffffffffffffffffffff160217905550808273ffffffffffffffffffffffffffffffffffffffff1661129f83610bc4565b73ffffffffffffffffffffffffffffffffffffffff167f8c5be1e5ebec7d5bd14f71427d1e84f3dd0314c0f7b2291e5b200ac8c7c3b92560405160405180910390a45050565b6000806112f183610bc4565b90508073ffffffffffffffffffffffffffffffffffffffff168473ffffffffffffffffffffffffffffffffffffffff16148061133357506113328185611063565b5b8061137157508373ffffffffffffffffffffffffffffffffffffffff1661135984610643565b73ffffffffffffffffffffffffffffffffffffffff16145b91505092915050565b600073ffffffffffffffffffffffffffffffffffffffff168373ffffffffffffffffffffffffffffffffffffffff16146113e557600e600082815260200190815260200160002060006101000a81549073ffffffffffffffffffffffffffffffffffffffff02191690555b6113f083838361184e565b505050565b6113fd611b47565b60008060006101000a81548160ff0219169083151502179055507f5db9ee0a495bf2e6ff9c91a7834c1ba4fdd244a5e8aa4e537bd38aeae4b073aa611440611224565b60405161144d919061256c565b60405180910390a1565b60006004600083815260200190815260200160002060009054906101000a900473ffffffffffffffffffffffffffffffffffffffff169050919050565b61149c611b90565b60016000806101000a81548160ff0219169083151502179055507f62e78cea01bee320cd4e420270b5ea74000d11b0c9f74754ebdbfc544b05a2586114df611224565b6040516114ec919061256c565b60405180910390a1565b8173ffffffffffffffffffffffffffffffffffffffff168373ffffffffffffffffffffffffffffffffffffffff1603611564576040517f08c379a000000000000000000000000000000000000000000000000000000000815260040161155b90612f37565b60405180910390fd5b80600760008573ffffffffffffffffffffffffffffffffffffffff1673ffffffffffffffffffffffffffffffffffffffff16815260200190815260200160002060008473ffffffffffffffffffffffffffffffffffffffff1673ffffffffffffffffffffffffffffffffffffffff16815260200190815260200160002060006101000a81548160ff0219169083151502179055508173ffffffffffffffffffffffffffffffffffffffff168373ffffffffffffffffffffffffffffffffffffffff167f17307eab39ab6107e8899845ad3d59bd9653f200f220920489ca2b5937696c318360405161165591906123fb565b60405180910390a3505050565b61166d84848461137a565b61167984848484611bda565b6116b8576040517f08c379a00000000000000000000000000000000000000000000000000000000081526004016116af90612fc9565b60405180910390fd5b50505050565b606060405180602001604052806000815250905090565b6060600060016116e484611d61565b01905060008167ffffffffffffffff8111156117035761170261274d565b5b6040519080825280601f01601f1916602001820160405280156117355781602001600182028036833780820191505090505b509050600082602001820190505b600115611798578080600190039150507f3031323334353637383961626364656600000000000000000000000000000000600a86061a8153600a858161178c5761178b612fe9565b5b04945060008503611743575b819350505050919050565b60007f01ffc9a7000000000000000000000000000000000000000000000000000000007bffffffffffffffffffffffffffffffffffffffffffffffffffffffff1916827bffffffffffffffffffffffffffffffffffffffffffffffffffffffff1916149050919050565b60008073ffffffffffffffffffffffffffffffffffffffff1661182f83611457565b73ffffffffffffffffffffffffffffffffffffffff1614159050919050565b8273ffffffffffffffffffffffffffffffffffffffff1661186e82610bc4565b73ffffffffffffffffffffffffffffffffffffffff16146118c4576040517f08c379a00000000000000000000000000000000000000000000000000000000081526004016118bb9061308a565b60405180910390fd5b600073ffffffffffffffffffffffffffffffffffffffff168273ffffffffffffffffffffffffffffffffffffffff1603611933576040517f08c379a000000000000000000000000000000000000000000000000000000000815260040161192a9061311c565b60405180910390fd5b6119408383836001611eb4565b8273ffffffffffffffffffffffffffffffffffffffff1661196082610bc4565b73ffffffffffffffffffffffffffffffffffffffff16146119b6576040517f08c379a00000000000000000000000000000000000000000000000000000000081526004016119ad9061308a565b60405180910390fd5b6006600082815260200190815260200160002060006101000a81549073ffffffffffffffffffffffffffffffffffffffff02191690556001600560008573ffffffffffffffffffffffffffffffffffffffff1673ffffffffffffffffffffffffffffffffffffffff168152602001908152602001600020600082825403925050819055506001600560008473ffffffffffffffffffffffffffffffffffffffff1673ffffffffffffffffffffffffffffffffffffffff16815260200190815260200160002060008282540192505081905550816004600083815260200190815260200160002060006101000a81548173ffffffffffffffffffffffffffffffffffffffff021916908373ffffffffffffffffffffffffffffffffffffffff160217905550808273ffffffffffffffffffffffffffffffffffffffff168473ffffffffffffffffffffffffffffffffffffffff167fddf252ad1be2c89b69c2b068fc378daa952ba7f163c4a11628f55a4df523b3ef60405160405180910390a4611b428383836001612012565b505050565b611b4f610b7b565b611b8e576040517f08c379a0000000000000000000000000000000000000000000000000000000008152600401611b8590613188565b60405180910390fd5b565b611b98610b7b565b15611bd8576040517f08c379a0000000000000000000000000000000000000000000000000000000008152600401611bcf906131f4565b60405180910390fd5b565b6000611bfb8473ffffffffffffffffffffffffffffffffffffffff16612018565b15611d54578373ffffffffffffffffffffffffffffffffffffffff1663150b7a02611c24611224565b8786866040518563ffffffff1660e01b8152600401611c469493929190613269565b6020604051808303816000875af1925050508015611c8257506040513d601f19601f82011682018060405250810190611c7f91906132ca565b60015b611d04573d8060008114611cb2576040519150601f19603f3d011682016040523d82523d6000602084013e611cb7565b606091505b506000815103611cfc576040517f08c379a0000000000000000000000000000000000000000000000000000000008152600401611cf390612fc9565b60405180910390fd5b805181602001fd5b63150b7a0260e01b7bffffffffffffffffffffffffffffffffffffffffffffffffffffffff1916817bffffffffffffffffffffffffffffffffffffffffffffffffffffffff191614915050611d59565b600190505b949350505050565b600080600090507a184f03e93ff9f4daa797ed6e38ed64bf6a1f0100000000000000008310611dbf577a184f03e93ff9f4daa797ed6e38ed64bf6a1f0100000000000000008381611db557611db4612fe9565b5b0492506040810190505b6d04ee2d6d415b85acef81000000008310611dfc576d04ee2d6d415b85acef81000000008381611df257611df1612fe9565b5b0492506020810190505b662386f26fc100008310611e2b57662386f26fc100008381611e2157611e20612fe9565b5b0492506010810190505b6305f5e1008310611e54576305f5e1008381611e4a57611e49612fe9565b5b0492506008810190505b6127108310611e79576127108381611e6f57611e6e612fe9565b5b0492506004810190505b60648310611e9c5760648381611e9257611e91612fe9565b5b0492506002810190505b600a8310611eab576001810190505b80915050919050565b611ec08484848461203b565b6001811115611f04576040517f08c379a0000000000000000000000000000000000000000000000000000000008152600401611efb90613369565b60405180910390fd5b6000829050600073ffffffffffffffffffffffffffffffffffffffff168573ffffffffffffffffffffffffffffffffffffffff1603611f4b57611f4681612041565b611f8a565b8373ffffffffffffffffffffffffffffffffffffffff168573ffffffffffffffffffffffffffffffffffffffff1614611f8957611f88858261208a565b5b5b600073ffffffffffffffffffffffffffffffffffffffff168473ffffffffffffffffffffffffffffffffffffffff1603611fcc57611fc7816121f7565b61200b565b8473ffffffffffffffffffffffffffffffffffffffff168473ffffffffffffffffffffffffffffffffffffffff161461200a5761200984826122c8565b5b5b5050505050565b50505050565b6000808273ffffffffffffffffffffffffffffffffffffffff163b119050919050565b50505050565b600a80549050600b600083815260200190815260200160002081905550600a81908060018154018082558091505060019003906000526020600020016000909190919091505550565b6000600161209784610c4a565b6120a191906133b8565b9050600060096000848152602001908152602001600020549050818114612186576000600860008673ffffffffffffffffffffffffffffffffffffffff1673ffffffffffffffffffffffffffffffffffffffff168152602001908152602001600020600084815260200190815260200160002054905080600860008773ffffffffffffffffffffffffffffffffffffffff1673ffffffffffffffffffffffffffffffffffffffff168152602001908152602001600020600084815260200190815260200160002081905550816009600083815260200190815260200160002081905550505b6009600084815260200190815260200160002060009055600860008573ffffffffffffffffffffffffffffffffffffffff1673ffffffffffffffffffffffffffffffffffffffff16815260200190815260200160002060008381526020019081526020016000206000905550505050565b60006001600a8054905061220b91906133b8565b90506000600b60008481526020019081526020016000205490506000600a838154811061223b5761223a612d5e565b5b9060005260206000200154905080600a838154811061225d5761225c612d5e565b5b906000526020600020018190555081600b600083815260200190815260200160002081905550600b600085815260200190815260200160002060009055600a8054806122ac576122ab6133ec565b5b6001900381819060005260206000200160009055905550505050565b60006122d383610c4a565b905081600860008573ffffffffffffffffffffffffffffffffffffffff1673ffffffffffffffffffffffffffffffffffffffff168152602001908152602001600020600083815260200190815260200160002081905550806009600084815260200190815260200160002081905550505050565b6000604051905090565b600080fd5b600080fd5b60007fffffffff0000000000000000000000000000000000000000000000000000000082169050919050565b6123908161235b565b811461239b57600080fd5b50565b6000813590506123ad81612387565b92915050565b6000602082840312156123c9576123c8612351565b5b60006123d78482850161239e565b91505092915050565b60008115159050919050565b6123f5816123e0565b82525050565b600060208201905061241060008301846123ec565b92915050565b600081519050919050565b600082825260208201905092915050565b60005b83811015612450578082015181840152602081019050612435565b60008484015250505050565b6000601f19601f8301169050919050565b600061247882612416565b6124828185612421565b9350612492818560208601612432565b61249b8161245c565b840191505092915050565b600060208201905081810360008301526124c0818461246d565b905092915050565b6000819050919050565b6124db816124c8565b81146124e657600080fd5b50565b6000813590506124f8816124d2565b92915050565b60006020828403121561251457612513612351565b5b6000612522848285016124e9565b91505092915050565b600073ffffffffffffffffffffffffffffffffffffffff82169050919050565b60006125568261252b565b9050919050565b6125668161254b565b82525050565b6000602082019050612581600083018461255d565b92915050565b6125908161254b565b811461259b57600080fd5b50565b6000813590506125ad81612587565b92915050565b600080604083850312156125ca576125c9612351565b5b60006125d88582860161259e565b92505060206125e9858286016124e9565b9150509250929050565b6125fc816124c8565b82525050565b600060208201905061261760008301846125f3565b92915050565b60008060006060848603121561263657612635612351565b5b60006126448682870161259e565b93505060206126558682870161259e565b9250506040612666868287016124e9565b9150509250925092565b60006020828403121561268657612685612351565b5b60006126948482850161259e565b91505092915050565b600063ffffffff82169050919050565b6126b68161269d565b82525050565b60006020820190506126d160008301846126ad565b92915050565b6126e0816123e0565b81146126eb57600080fd5b50565b6000813590506126fd816126d7565b92915050565b6000806040838503121561271a57612719612351565b5b60006127288582860161259e565b9250506020612739858286016126ee565b9150509250929050565b600080fd5b600080fd5b7f4e487b7100000000000000000000000000000000000000000000000000000000600052604160045260246000fd5b6127858261245c565b810181811067ffffffffffffffff821117156127a4576127a361274d565b5b80604052505050565b60006127b7612347565b90506127c3828261277c565b919050565b600067ffffffffffffffff8211156127e3576127e261274d565b5b6127ec8261245c565b9050602081019050919050565b82818337600083830152505050565b600061281b612816846127c8565b6127ad565b90508281526020810184848401111561283757612836612748565b5b6128428482856127f9565b509392505050565b600082601f83011261285f5761285e612743565b5b813561286f848260208601612808565b91505092915050565b6000806000806080858703121561289257612891612351565b5b60006128a08782880161259e565b94505060206128b18782880161259e565b93505060406128c2878288016124e9565b925050606085013567ffffffffffffffff8111156128e3576128e2612356565b5b6128ef8782880161284a565b91505092959194509250565b600067ffffffffffffffff82169050919050565b612918816128fb565b82525050565b600060ff82169050919050565b6129348161291e565b82525050565b600061ffff82169050919050565b6129518161293a565b82525050565b60006101208201905061296d600083018c6125f3565b61297a602083018b61290f565b612987604083018a61290f565b61299460608301896126ad565b6129a160808301886126ad565b6129ae60a08301876126ad565b6129bb60c083018661292b565b6129c860e083018561292b565b6129d6610100830184612948565b9a9950505050505050505050565b600080604083850312156129fb576129fa612351565b5b6000612a098582860161259e565b9250506020612a1a8582860161259e565b9150509250929050565b7f4e487b7100000000000000000000000000000000000000000000000000000000600052602260045260246000fd5b60006002820490506001821680612a6b57607f821691505b602082108103612a7e57612a7d612a24565b5b50919050565b7f4552433732313a20617070726f76616c20746f2063757272656e74206f776e6560008201527f7200000000000000000000000000000000000000000000000000000000000000602082015250565b6000612ae0602183612421565b9150612aeb82612a84565b604082019050919050565b60006020820190508181036000830152612b0f81612ad3565b9050919050565b7f4552433732313a20617070726f76652063616c6c6572206973206e6f7420746f60008201527f6b656e206f776e6572206f7220617070726f76656420666f7220616c6c000000602082015250565b6000612b72603d83612421565b9150612b7d82612b16565b604082019050919050565b60006020820190508181036000830152612ba181612b65565b9050919050565b7f4552433732313a2063616c6c6572206973206e6f7420746f6b656e206f776e6560008201527f72206f7220617070726f76656400000000000000000000000000000000000000602082015250565b6000612c04602d83612421565b9150612c0f82612ba8565b604082019050919050565b60006020820190508181036000830152612c3381612bf7565b9050919050565b7f455243373231456e756d657261626c653a206f776e657220696e646578206f7560008201527f74206f6620626f756e6473000000000000000000000000000000000000000000602082015250565b6000612c96602b83612421565b9150612ca182612c3a565b604082019050919050565b60006020820190508181036000830152612cc581612c89565b9050919050565b7f455243373231456e756d657261626c653a20676c6f62616c20696e646578206f60008201527f7574206f6620626f756e64730000000000000000000000000000000000000000602082015250565b6000612d28602c83612421565b9150612d3382612ccc565b604082019050919050565b60006020820190508181036000830152612d5781612d1b565b9050919050565b7f4e487b7100000000000000000000000000000000000000000000000000000000600052603260045260246000fd5b7f4552433732313a20696e76616c696420746f6b656e2049440000000000000000600082015250565b6000612dc3601883612421565b9150612dce82612d8d565b602082019050919050565b60006020820190508181036000830152612df281612db6565b9050919050565b7f4552433732313a2061646472657373207a65726f206973206e6f74206120766160008201527f6c6964206f776e65720000000000000000000000000000000000000000000000602082015250565b6000612e55602983612421565b9150612e6082612df9565b604082019050919050565b60006020820190508181036000830152612e8481612e48565b9050919050565b600081905092915050565b6000612ea182612416565b612eab8185612e8b565b9350612ebb818560208601612432565b80840191505092915050565b6000612ed38285612e96565b9150612edf8284612e96565b91508190509392505050565b7f4552433732313a20617070726f766520746f2063616c6c657200000000000000600082015250565b6000612f21601983612421565b9150612f2c82612eeb565b602082019050919050565b60006020820190508181036000830152612f5081612f14565b9050919050565b7f4552433732313a207472616e7366657220746f206e6f6e20455243373231526560008201527f63656976657220696d706c656d656e7465720000000000000000000000000000602082015250565b6000612fb3603283612421565b9150612fbe82612f57565b604082019050919050565b60006020820190508181036000830152612fe281612fa6565b9050919050565b7f4e487b7100000000000000000000000000000000000000000000000000000000600052601260045260246000fd5b7f4552433732313a207472616e736665722066726f6d20696e636f72726563742060008201527f6f776e6572000000000000000000000000000000000000000000000000000000602082015250565b6000613074602583612421565b915061307f82613018565b604082019050919050565b600060208201905081810360008301526130a381613067565b9050919050565b7f4552433732313a207472616e7366657220746f20746865207a65726f2061646460008201527f7265737300000000000000000000000000000000000000000000000000000000602082015250565b6000613106602483612421565b9150613111826130aa565b604082019050919050565b60006020820190508181036000830152613135816130f9565b9050919050565b7f5061757361626c653a206e6f7420706175736564000000000000000000000000600082015250565b6000613172601483612421565b915061317d8261313c565b602082019050919050565b600060208201905081810360008301526131a181613165565b9050919050565b7f5061757361626c653a2070617573656400000000000000000000000000000000600082015250565b60006131de601083612421565b91506131e9826131a8565b602082019050919050565b6000602082019050818103600083015261320d816131d1565b9050919050565b600081519050919050565b600082825260208201905092915050565b600061323b82613214565b613245818561321f565b9350613255818560208601612432565b61325e8161245c565b840191505092915050565b600060808201905061327e600083018761255d565b61328b602083018661255d565b61329860408301856125f3565b81810360608301526132aa8184613230565b905095945050505050565b6000815190506132c481612387565b92915050565b6000602082840312156132e0576132df612351565b5b60006132ee848285016132b5565b91505092915050565b7f455243373231456e756d657261626c653a20636f6e736563757469766520747260008201527f616e7366657273206e6f7420737570706f727465640000000000000000000000602082015250565b6000613353603583612421565b915061335e826132f7565b604082019050919050565b6000602082019050818103600083015261338281613346565b9050919050565b7f4e487b7100000000000000000000000000000000000000000000000000000000600052601160045260246000fd5b60006133c3826124c8565b91506133ce836124c8565b92508282039050818111156133e6576133e5613389565b5b92915050565b7f4e487b7100000000000000000000000000000000000000000000000000000000600052603160045260246000fdfea2646970667358221220c2668706fdf37bf393c412916e3b35fcd73a854895e53332e6e484e11568e65464736f6c63430008110033",
  "linkReferences": {},
  "deployedLinkReferences": {}
}