{
  "_format": "hh-sol-artifact-1",
  "contractName": "BummyOwnership",
  "sourceName": "contracts/BummyOwnership.sol",
  "abi": [
    {
      "anonymous": false,
      "inputs": [
        {
          "indexed": true,
          "internalType": "address",
          "name": "owner",
          "type": "address"
        },
        {
          "indexed": true,
          "internalType": "address",
          "name": "approved",
          "type": "address"
        },
        {
          "indexed": true,
          "internalType": "uint256",
          "name": "tokenId",
          "type": "uint256"
        }
      ],
      "name": "Approval",
      "type": "event"
    },
    {
      "anonymous": false,
      "inputs": [
        {
          "indexed": true,
          "internalType": "address",
          "name": "owner",
          "type": "address"
        },
        {
          "indexed": true,
          "internalType": "address",
          "name": "operator",
          "type": "address"
        },
        {
          "indexed": false,
          "internalType": "bool",
          "name": "approved",
          "type": "bool"
        }
      ],
      "name": "ApprovalForAll",
      "type": "event"
    },
    {
      "anonymous": false,
      "inputs": [
        {
          "indexed": true,
          "internalType": "address",
          "name": "owner",
          "type": "address"
        },
        {
          "indexed": false,
          "internalType": "uint256",
          "name": "BummyId",
          "type": "uint256"
        },
        {
          "indexed": false,
          "internalType": "uint256",
          "name": "momId",
          "type": "uint256"
        },
        {
          "indexed": false,
          "internalType": "uint256",
          "name": "dadId",
          "type": "uint256"
        },
        {
          "indexed": false,
          "internalType": "uint256",
          "name": "genes",
          "type": "uint256"
        }
      ],
      "name": "Invite",
      "type": "event"
    },
    {
      "anonymous": false,
      "inputs": [
        {
          "indexed": false,
          "internalType": "address",
          "name": "account",
          "type": "address"
        }
      ],
      "name": "Paused",
      "type": "event"
    },
    {
      "anonymous": false,
      "inputs": [
        {
          "indexed": true,
          "internalType": "address",
          "name": "from",
          "type": "address"
        },
        {
          "indexed": true,
          "internalType": "address",
          "name": "to",
          "type": "address"
        },
        {
          "indexed": true,
          "internalType": "uint256",
          "name": "tokenId",
          "type": "uint256"
        }
      ],
      "name": "Transfer",
      "type": "event"
    },
    {
      "anonymous": false,
      "inputs": [
        {
          "indexed": false,
          "internalType": "address",
          "name": "account",
          "type": "address"
        }
      ],
      "name": "Unpaused",
      "type": "event"
    },
    {
      "inputs": [
        {
          "internalType": "address",
          "name": "to",
          "type": "address"
        },
        {
          "internalType": "uint256",
          "name": "tokenId",
          "type": "uint256"
        }
      ],
      "name": "approve",
      "outputs": [],
      "stateMutability": "nonpayable",
      "type": "function"
    },
    {
      "inputs": [
        {
          "internalType": "address",
          "name": "owner",
          "type": "address"
        }
      ],
      "name": "balanceOf",
      "outputs": [
        {
          "internalType": "uint256",
          "name": "",
          "type": "uint256"
        }
      ],
      "stateMutability": "view",
      "type": "function"
    },
    {
      "inputs": [],
      "name": "ceoAddress",
      "outputs": [
        {
          "internalType": "address",
          "name": "",
          "type": "address"
        }
      ],
      "stateMutability": "view",
      "type": "function"
    },
    {
      "inputs": [],
      "name": "cfoAddress",
      "outputs": [
        {
          "internalType": "address",
          "name": "",
          "type": "address"
        }
      ],
      "stateMutability": "view",
      "type": "function"
    },
    {
      "inputs": [
        {
          "internalType": "uint256",
          "name": "",
          "type": "uint256"
        }
      ],
      "name": "cheerAllowedToAddress",
      "outputs": [
        {
          "internalType": "address",
          "name": "",
          "type": "address"
        }
      ],
      "stateMutability": "view",
      "type": "function"
    },
    {
      "inputs": [],
      "name": "cooAddress",
      "outputs": [
        {
          "internalType": "address",
          "name": "",
          "type": "address"
        }
      ],
      "stateMutability": "view",
      "type": "function"
    },
    {
      "inputs": [
        {
          "internalType": "uint256",
          "name": "",
          "type": "uint256"
        }
      ],
      "name": "cooldowns",
      "outputs": [
        {
          "internalType": "uint32",
          "name": "",
          "type": "uint32"
        }
      ],
      "stateMutability": "view",
      "type": "function"
    },
    {
      "inputs": [
        {
          "internalType": "uint256",
          "name": "tokenId",
          "type": "uint256"
        }
      ],
      "name": "getApproved",
      "outputs": [
        {
          "internalType": "address",
          "name": "",
          "type": "address"
        }
      ],
      "stateMutability": "view",
      "type": "function"
    },
    {
      "inputs": [
        {
          "internalType": "address",
          "name": "owner",
          "type": "address"
        },
        {
          "internalType": "address",
          "name": "operator",
          "type": "address"
        }
      ],
      "name": "isApprovedForAll",
      "outputs": [
        {
          "internalType": "bool",
          "name": "",
          "type": "bool"
        }
      ],
      "stateMutability": "view",
      "type": "function"
    },
    {
      "inputs": [],
      "name": "name",
      "outputs": [
        {
          "internalType": "string",
          "name": "",
          "type": "string"
        }
      ],
      "stateMutability": "view",
      "type": "function"
    },
    {
      "inputs": [
        {
          "internalType": "uint256",
          "name": "tokenId",
          "type": "uint256"
        }
      ],
      "name": "ownerOf",
      "outputs": [
        {
          "internalType": "address",
          "name": "",
          "type": "address"
        }
      ],
      "stateMutability": "view",
      "type": "function"
    },
    {
      "inputs": [],
      "name": "pause",
      "outputs": [],
      "stateMutability": "nonpayable",
      "type": "function"
    },
    {
      "inputs": [],
      "name": "paused",
      "outputs": [
        {
          "internalType": "bool",
          "name": "",
          "type": "bool"
        }
      ],
      "stateMutability": "view",
      "type": "function"
    },
    {
      "inputs": [
        {
          "internalType": "uint256",
          "name": "_bummyId",
          "type": "uint256"
        },
        {
          "internalType": "address",
          "name": "_recipient",
          "type": "address"
        }
      ],
      "name": "rescueLostBummy",
      "outputs": [],
      "stateMutability": "nonpayable",
      "type": "function"
    },
    {
      "inputs": [
        {
          "internalType": "address",
          "name": "from",
          "type": "address"
        },
        {
          "internalType": "address",
          "name": "to",
          "type": "address"
        },
        {
          "internalType": "uint256",
          "name": "tokenId",
          "type": "uint256"
        }
      ],
      "name": "safeTransferFrom",
      "outputs": [],
      "stateMutability": "nonpayable",
      "type": "function"
    },
    {
      "inputs": [
        {
          "internalType": "address",
          "name": "from",
          "type": "address"
        },
        {
          "internalType": "address",
          "name": "to",
          "type": "address"
        },
        {
          "internalType": "uint256",
          "name": "tokenId",
          "type": "uint256"
        },
        {
          "internalType": "bytes",
          "name": "data",
          "type": "bytes"
        }
      ],
      "name": "safeTransferFrom",
      "outputs": [],
      "stateMutability": "nonpayable",
      "type": "function"
    },
    {
      "inputs": [
        {
          "internalType": "address",
          "name": "operator",
          "type": "address"
        },
        {
          "internalType": "bool",
          "name": "approved",
          "type": "bool"
        }
      ],
      "name": "setApprovalForAll",
      "outputs": [],
      "stateMutability": "nonpayable",
      "type": "function"
    },
    {
      "inputs": [
        {
          "internalType": "address",
          "name": "_newCEO",
          "type": "address"
        }
      ],
      "name": "setCEO",
      "outputs": [],
      "stateMutability": "nonpayable",
      "type": "function"
    },
    {
      "inputs": [
        {
          "internalType": "address",
          "name": "_newCOO",
          "type": "address"
        }
      ],
      "name": "setCOO",
      "outputs": [],
      "stateMutability": "nonpayable",
      "type": "function"
    },
    {
      "inputs": [
        {
          "internalType": "bytes4",
          "name": "interfaceId",
          "type": "bytes4"
        }
      ],
      "name": "supportsInterface",
      "outputs": [
        {
          "internalType": "bool",
          "name": "",
          "type": "bool"
        }
      ],
      "stateMutability": "view",
      "type": "function"
    },
    {
      "inputs": [],
      "name": "symbol",
      "outputs": [
        {
          "internalType": "string",
          "name": "",
          "type": "string"
        }
      ],
      "stateMutability": "view",
      "type": "function"
    },
    {
      "inputs": [
        {
          "internalType": "uint256",
          "name": "index",
          "type": "uint256"
        }
      ],
      "name": "tokenByIndex",
      "outputs": [
        {
          "internalType": "uint256",
          "name": "",
          "type": "uint256"
        }
      ],
      "stateMutability": "view",
      "type": "function"
    },
    {
      "inputs": [
        {
          "internalType": "address",
          "name": "owner",
          "type": "address"
        },
        {
          "internalType": "uint256",
          "name": "index",
          "type": "uint256"
        }
      ],
      "name": "tokenOfOwnerByIndex",
      "outputs": [
        {
          "internalType": "uint256",
          "name": "",
          "type": "uint256"
        }
      ],
      "stateMutability": "view",
      "type": "function"
    },
    {
      "inputs": [
        {
          "internalType": "uint256",
          "name": "tokenId",
          "type": "uint256"
        }
      ],
      "name": "tokenURI",
      "outputs": [
        {
          "internalType": "string",
          "name": "",
          "type": "string"
        }
      ],
      "stateMutability": "view",
      "type": "function"
    },
    {
      "inputs": [],
      "name": "totalSupply",
      "outputs": [
        {
          "internalType": "uint256",
          "name": "",
          "type": "uint256"
        }
      ],
      "stateMutability": "view",
      "type": "function"
    },
    {
      "inputs": [
        {
          "internalType": "address",
          "name": "from",
          "type": "address"
        },
        {
          "internalType": "address",
          "name": "to",
          "type": "address"
        },
        {
          "internalType": "uint256",
          "name": "tokenId",
          "type": "uint256"
        }
      ],
      "name": "transferFrom",
      "outputs": [],
      "stateMutability": "nonpayable",
      "type": "function"
    },
    {
      "inputs": [],
      "name": "unpause",
      "outputs": [],
      "stateMutability": "nonpayable",
      "type": "function"
    }
  ],
  "bytecode": "0x60806040526040518060400160405280600881526020017f42756d6d794e4654000000000000000000000000000000000000000000000000815250600d90816200004a91906200060a565b506040518060400160405280600281526020017f4256000000000000000000000000000000000000000000000000000000000000815250600e90816200009191906200060a565b50604051806101000160405280603c63ffffffff1663ffffffff168152602001607863ffffffff1663ffffffff16815260200161012c63ffffffff1663ffffffff16815260200161025863ffffffff1663ffffffff16815260200161070863ffffffff1663ffffffff168152602001610e1063ffffffff1663ffffffff168152602001611c2063ffffffff1663ffffffff16815260200161384063ffffffff1663ffffffff16815250600f9060086200014c929190620002c7565b503480156200015a57600080fd5b50600d80546200016a90620003f9565b80601f01602080910402602001604051908101604052809291908181526020018280546200019890620003f9565b8015620001e95780601f10620001bd57610100808354040283529160200191620001e9565b820191906000526020600020905b815481529060010190602001808311620001cb57829003601f168201915b5050505050600e8054620001fd90620003f9565b80601f01602080910402602001604051908101604052809291908181526020018280546200022b90620003f9565b80156200027c5780601f1062000250576101008083540402835291602001916200027c565b820191906000526020600020905b8154815290600101906020018083116200025e57829003601f168201915b505050505060008060006101000a81548160ff0219169083151502179055508160039081620002ac91906200060a565b508060049081620002be91906200060a565b505050620006f1565b8260086007016008900481019282156200035e5791602002820160005b838211156200032a57835183826101000a81548163ffffffff021916908363ffffffff1602179055509260200192600401602081600301049283019260010302620002e4565b80156200035c5782816101000a81549063ffffffff02191690556004016020816003010492830192600103026200032a565b505b5090506200036d919062000371565b5090565b5b808211156200038c57600081600090555060010162000372565b5090565b600081519050919050565b7f4e487b7100000000000000000000000000000000000000000000000000000000600052604160045260246000fd5b7f4e487b7100000000000000000000000000000000000000000000000000000000600052602260045260246000fd5b600060028204905060018216806200041257607f821691505b602082108103620004285762000427620003ca565b5b50919050565b60008190508160005260206000209050919050565b60006020601f8301049050919050565b600082821b905092915050565b600060088302620004927fffffffffffffffffffffffffffffffffffffffffffffffffffffffffffffffff8262000453565b6200049e868362000453565b95508019841693508086168417925050509392505050565b6000819050919050565b6000819050919050565b6000620004eb620004e5620004df84620004b6565b620004c0565b620004b6565b9050919050565b6000819050919050565b6200050783620004ca565b6200051f6200051682620004f2565b84845462000460565b825550505050565b600090565b6200053662000527565b62000543818484620004fc565b505050565b5b818110156200056b576200055f6000826200052c565b60018101905062000549565b5050565b601f821115620005ba5762000584816200042e565b6200058f8462000443565b810160208510156200059f578190505b620005b7620005ae8562000443565b83018262000548565b50505b505050565b600082821c905092915050565b6000620005df60001984600802620005bf565b1980831691505092915050565b6000620005fa8383620005cc565b9150826002028217905092915050565b620006158262000390565b67ffffffffffffffff8111156200063157620006306200039b565b5b6200063d8254620003f9565b6200064a8282856200056f565b600060209050601f8311600181146200068257600084156200066d578287015190505b620006798582620005ec565b865550620006e9565b601f19841662000692866200042e565b60005b82811015620006bc5784890151825560018201915060208501945060208101905062000695565b86831015620006dc5784890151620006d8601f891682620005cc565b8355505b6001600288020188555050505b505050505050565b61342f80620007016000396000f3fe608060405234801561001057600080fd5b50600436106101a95760003560e01c80634f6ccce7116100f95780639d58666311610097578063b047fb5011610071578063b047fb50146104ba578063b88d4fde146104d8578063c87b56dd146104f4578063e985e9c514610524576101a9565b80639d586663146104525780639d6fac6f1461046e578063a22cb4651461049e576101a9565b80636352211e116100d35780636352211e146103ca57806370a08231146103fa5780638456cb591461042a57806395d89b4114610434576101a9565b80634f6ccce71461034c5780635c975abb1461037c5780635edbf3601461039a576101a9565b806318160ddd116101665780632ba73c15116101405780632ba73c15146102da5780632f745c59146102f65780633f4ba83a1461032657806342842e0e14610330576101a9565b806318160ddd1461028457806323b872dd146102a257806327d7874c146102be576101a9565b806301ffc9a7146101ae5780630519ce79146101de57806306fdde03146101fc578063081812fc1461021a578063095ea7b31461024a5780630a0f816814610266575b600080fd5b6101c860048036038101906101c3919061243a565b610554565b6040516101d59190612482565b60405180910390f35b6101e66105ce565b6040516101f391906124de565b60405180910390f35b6102046105f4565b6040516102119190612589565b60405180910390f35b610234600480360381019061022f91906125e1565b610686565b60405161024191906124de565b60405180910390f35b610264600480360381019061025f919061263a565b6106cc565b005b61026e6107e3565b60405161027b91906124de565b60405180910390f35b61028c610809565b6040516102999190612689565b60405180910390f35b6102bc60048036038101906102b791906126a4565b610816565b005b6102d860048036038101906102d391906126f7565b610876565b005b6102f460048036038101906102ef91906126f7565b61094d565b005b610310600480360381019061030b919061263a565b610a24565b60405161031d9190612689565b60405180910390f35b61032e610ac9565b005b61034a600480360381019061034591906126a4565b610b2d565b005b610366600480360381019061036191906125e1565b610b4d565b6040516103739190612689565b60405180910390f35b610384610bbe565b6040516103919190612482565b60405180910390f35b6103b460048036038101906103af91906125e1565b610bd4565b6040516103c191906124de565b60405180910390f35b6103e460048036038101906103df91906125e1565b610c07565b6040516103f191906124de565b60405180910390f35b610414600480360381019061040f91906126f7565b610c8d565b6040516104219190612689565b60405180910390f35b610432610d44565b005b61043c610e58565b6040516104499190612589565b60405180910390f35b61046c60048036038101906104679190612724565b610eea565b005b610488600480360381019061048391906125e1565b610f6e565b6040516104959190612783565b60405180910390f35b6104b860048036038101906104b391906127ca565b610f9e565b005b6104c2610fb4565b6040516104cf91906124de565b60405180910390f35b6104f260048036038101906104ed919061293f565b610fda565b005b61050e600480360381019061050991906125e1565b61103c565b60405161051b9190612589565b60405180910390f35b61053e600480360381019061053991906129c2565b6110a4565b60405161054b9190612482565b60405180910390f35b60007f780e9d63000000000000000000000000000000000000000000000000000000007bffffffffffffffffffffffffffffffffffffffffffffffffffffffff1916827bffffffffffffffffffffffffffffffffffffffffffffffffffffffff191614806105c757506105c682611138565b5b9050919050565b600160009054906101000a900473ffffffffffffffffffffffffffffffffffffffff1681565b60606003805461060390612a31565b80601f016020809104026020016040519081016040528092919081815260200182805461062f90612a31565b801561067c5780601f106106515761010080835404028352916020019161067c565b820191906000526020600020905b81548152906001019060200180831161065f57829003601f168201915b5050505050905090565b60006106918261121a565b6007600083815260200190815260200160002060009054906101000a900473ffffffffffffffffffffffffffffffffffffffff169050919050565b60006106d782610c07565b90508073ffffffffffffffffffffffffffffffffffffffff168373ffffffffffffffffffffffffffffffffffffffff1603610747576040517f08c379a000000000000000000000000000000000000000000000000000000000815260040161073e90612ad4565b60405180910390fd5b8073ffffffffffffffffffffffffffffffffffffffff16610766611265565b73ffffffffffffffffffffffffffffffffffffffff16148061079557506107948161078f611265565b6110a4565b5b6107d4576040517f08c379a00000000000000000000000000000000000000000000000000000000081526004016107cb90612b66565b60405180910390fd5b6107de838361126d565b505050565b600060019054906101000a900473ffffffffffffffffffffffffffffffffffffffff1681565b6000600b80549050905090565b610827610821611265565b82611326565b610866576040517f08c379a000000000000000000000000000000000000000000000000000000000815260040161085d90612bf8565b60405180910390fd5b6108718383836113bb565b505050565b600060019054906101000a900473ffffffffffffffffffffffffffffffffffffffff1673ffffffffffffffffffffffffffffffffffffffff163373ffffffffffffffffffffffffffffffffffffffff16146108d057600080fd5b600073ffffffffffffffffffffffffffffffffffffffff168173ffffffffffffffffffffffffffffffffffffffff160361090957600080fd5b80600060016101000a81548173ffffffffffffffffffffffffffffffffffffffff021916908373ffffffffffffffffffffffffffffffffffffffff16021790555050565b600060019054906101000a900473ffffffffffffffffffffffffffffffffffffffff1673ffffffffffffffffffffffffffffffffffffffff163373ffffffffffffffffffffffffffffffffffffffff16146109a757600080fd5b600073ffffffffffffffffffffffffffffffffffffffff168173ffffffffffffffffffffffffffffffffffffffff16036109e057600080fd5b80600260006101000a81548173ffffffffffffffffffffffffffffffffffffffff021916908373ffffffffffffffffffffffffffffffffffffffff16021790555050565b6000610a2f83610c8d565b8210610a70576040517f08c379a0000000000000000000000000000000000000000000000000000000008152600401610a6790612c8a565b60405180910390fd5b600960008473ffffffffffffffffffffffffffffffffffffffff1673ffffffffffffffffffffffffffffffffffffffff168152602001908152602001600020600083815260200190815260200160002054905092915050565b600060019054906101000a900473ffffffffffffffffffffffffffffffffffffffff1673ffffffffffffffffffffffffffffffffffffffff163373ffffffffffffffffffffffffffffffffffffffff1614610b2357600080fd5b610b2b611436565b565b610b4883838360405180602001604052806000815250610fda565b505050565b6000610b57610809565b8210610b98576040517f08c379a0000000000000000000000000000000000000000000000000000000008152600401610b8f90612d1c565b60405180910390fd5b600b8281548110610bac57610bab612d3c565b5b90600052602060002001549050919050565b60008060009054906101000a900460ff16905090565b60116020528060005260406000206000915054906101000a900473ffffffffffffffffffffffffffffffffffffffff1681565b600080610c1383611498565b9050600073ffffffffffffffffffffffffffffffffffffffff168173ffffffffffffffffffffffffffffffffffffffff1603610c84576040517f08c379a0000000000000000000000000000000000000000000000000000000008152600401610c7b90612db7565b60405180910390fd5b80915050919050565b60008073ffffffffffffffffffffffffffffffffffffffff168273ffffffffffffffffffffffffffffffffffffffff1603610cfd576040517f08c379a0000000000000000000000000000000000000000000000000000000008152600401610cf490612e49565b60405180910390fd5b600660008373ffffffffffffffffffffffffffffffffffffffff1673ffffffffffffffffffffffffffffffffffffffff168152602001908152602001600020549050919050565b600260009054906101000a900473ffffffffffffffffffffffffffffffffffffffff1673ffffffffffffffffffffffffffffffffffffffff163373ffffffffffffffffffffffffffffffffffffffff161480610ded5750600060019054906101000a900473ffffffffffffffffffffffffffffffffffffffff1673ffffffffffffffffffffffffffffffffffffffff163373ffffffffffffffffffffffffffffffffffffffff16145b80610e455750600160009054906101000a900473ffffffffffffffffffffffffffffffffffffffff1673ffffffffffffffffffffffffffffffffffffffff163373ffffffffffffffffffffffffffffffffffffffff16145b610e4e57600080fd5b610e566114d5565b565b606060048054610e6790612a31565b80601f0160208091040260200160405190810160405280929190818152602001828054610e9390612a31565b8015610ee05780601f10610eb557610100808354040283529160200191610ee0565b820191906000526020600020905b815481529060010190602001808311610ec357829003601f168201915b5050505050905090565b600260009054906101000a900473ffffffffffffffffffffffffffffffffffffffff1673ffffffffffffffffffffffffffffffffffffffff163373ffffffffffffffffffffffffffffffffffffffff1614610f4457600080fd5b610f4c611537565b610f563083611581565b610f5f57600080fd5b610f6a3082846113bb565b5050565b600f8160088110610f7e57600080fd5b60089182820401919006600402915054906101000a900463ffffffff1681565b610fb0610fa9611265565b83836115c7565b5050565b600260009054906101000a900473ffffffffffffffffffffffffffffffffffffffff1681565b610feb610fe5611265565b83611326565b61102a576040517f08c379a000000000000000000000000000000000000000000000000000000000815260040161102190612bf8565b60405180910390fd5b61103684848484611733565b50505050565b60606110478261121a565b600061105161178f565b90506000815111611071576040518060200160405280600081525061109c565b8061107b846117a6565b60405160200161108c929190612ea5565b6040516020818303038152906040525b915050919050565b6000600860008473ffffffffffffffffffffffffffffffffffffffff1673ffffffffffffffffffffffffffffffffffffffff16815260200190815260200160002060008373ffffffffffffffffffffffffffffffffffffffff1673ffffffffffffffffffffffffffffffffffffffff16815260200190815260200160002060009054906101000a900460ff16905092915050565b60007f80ac58cd000000000000000000000000000000000000000000000000000000007bffffffffffffffffffffffffffffffffffffffffffffffffffffffff1916827bffffffffffffffffffffffffffffffffffffffffffffffffffffffff1916148061120357507f5b5e139f000000000000000000000000000000000000000000000000000000007bffffffffffffffffffffffffffffffffffffffffffffffffffffffff1916827bffffffffffffffffffffffffffffffffffffffffffffffffffffffff1916145b80611213575061121282611874565b5b9050919050565b611223816118de565b611262576040517f08c379a000000000000000000000000000000000000000000000000000000000815260040161125990612db7565b60405180910390fd5b50565b600033905090565b816007600083815260200190815260200160002060006101000a81548173ffffffffffffffffffffffffffffffffffffffff021916908373ffffffffffffffffffffffffffffffffffffffff160217905550808273ffffffffffffffffffffffffffffffffffffffff166112e083610c07565b73ffffffffffffffffffffffffffffffffffffffff167f8c5be1e5ebec7d5bd14f71427d1e84f3dd0314c0f7b2291e5b200ac8c7c3b92560405160405180910390a45050565b60008061133283610c07565b90508073ffffffffffffffffffffffffffffffffffffffff168473ffffffffffffffffffffffffffffffffffffffff161480611374575061137381856110a4565b5b806113b257508373ffffffffffffffffffffffffffffffffffffffff1661139a84610686565b73ffffffffffffffffffffffffffffffffffffffff16145b91505092915050565b600073ffffffffffffffffffffffffffffffffffffffff168373ffffffffffffffffffffffffffffffffffffffff1614611426576011600082815260200190815260200160002060006101000a81549073ffffffffffffffffffffffffffffffffffffffff02191690555b61143183838361191f565b505050565b61143e611c18565b60008060006101000a81548160ff0219169083151502179055507f5db9ee0a495bf2e6ff9c91a7834c1ba4fdd244a5e8aa4e537bd38aeae4b073aa611481611265565b60405161148e91906124de565b60405180910390a1565b60006005600083815260200190815260200160002060009054906101000a900473ffffffffffffffffffffffffffffffffffffffff169050919050565b6114dd611537565b60016000806101000a81548160ff0219169083151502179055507f62e78cea01bee320cd4e420270b5ea74000d11b0c9f74754ebdbfc544b05a258611520611265565b60405161152d91906124de565b60405180910390a1565b61153f610bbe565b1561157f576040517f08c379a000000000000000000000000000000000000000000000000000000000815260040161157690612f15565b60405180910390fd5b565b60008061158d83610c07565b90508073ffffffffffffffffffffffffffffffffffffffff168473ffffffffffffffffffffffffffffffffffffffff161491505092915050565b8173ffffffffffffffffffffffffffffffffffffffff168373ffffffffffffffffffffffffffffffffffffffff1603611635576040517f08c379a000000000000000000000000000000000000000000000000000000000815260040161162c90612f81565b60405180910390fd5b80600860008573ffffffffffffffffffffffffffffffffffffffff1673ffffffffffffffffffffffffffffffffffffffff16815260200190815260200160002060008473ffffffffffffffffffffffffffffffffffffffff1673ffffffffffffffffffffffffffffffffffffffff16815260200190815260200160002060006101000a81548160ff0219169083151502179055508173ffffffffffffffffffffffffffffffffffffffff168373ffffffffffffffffffffffffffffffffffffffff167f17307eab39ab6107e8899845ad3d59bd9653f200f220920489ca2b5937696c31836040516117269190612482565b60405180910390a3505050565b61173e8484846113bb565b61174a84848484611c61565b611789576040517f08c379a000000000000000000000000000000000000000000000000000000000815260040161178090613013565b60405180910390fd5b50505050565b606060405180602001604052806000815250905090565b6060600060016117b584611de8565b01905060008167ffffffffffffffff8111156117d4576117d3612814565b5b6040519080825280601f01601f1916602001820160405280156118065781602001600182028036833780820191505090505b509050600082602001820190505b600115611869578080600190039150507f3031323334353637383961626364656600000000000000000000000000000000600a86061a8153600a858161185d5761185c613033565b5b04945060008503611814575b819350505050919050565b60007f01ffc9a7000000000000000000000000000000000000000000000000000000007bffffffffffffffffffffffffffffffffffffffffffffffffffffffff1916827bffffffffffffffffffffffffffffffffffffffffffffffffffffffff1916149050919050565b60008073ffffffffffffffffffffffffffffffffffffffff1661190083611498565b73ffffffffffffffffffffffffffffffffffffffff1614159050919050565b8273ffffffffffffffffffffffffffffffffffffffff1661193f82610c07565b73ffffffffffffffffffffffffffffffffffffffff1614611995576040517f08c379a000000000000000000000000000000000000000000000000000000000815260040161198c906130d4565b60405180910390fd5b600073ffffffffffffffffffffffffffffffffffffffff168273ffffffffffffffffffffffffffffffffffffffff1603611a04576040517f08c379a00000000000000000000000000000000000000000000000000000000081526004016119fb90613166565b60405180910390fd5b611a118383836001611f3b565b8273ffffffffffffffffffffffffffffffffffffffff16611a3182610c07565b73ffffffffffffffffffffffffffffffffffffffff1614611a87576040517f08c379a0000000000000000000000000000000000000000000000000000000008152600401611a7e906130d4565b60405180910390fd5b6007600082815260200190815260200160002060006101000a81549073ffffffffffffffffffffffffffffffffffffffff02191690556001600660008573ffffffffffffffffffffffffffffffffffffffff1673ffffffffffffffffffffffffffffffffffffffff168152602001908152602001600020600082825403925050819055506001600660008473ffffffffffffffffffffffffffffffffffffffff1673ffffffffffffffffffffffffffffffffffffffff16815260200190815260200160002060008282540192505081905550816005600083815260200190815260200160002060006101000a81548173ffffffffffffffffffffffffffffffffffffffff021916908373ffffffffffffffffffffffffffffffffffffffff160217905550808273ffffffffffffffffffffffffffffffffffffffff168473ffffffffffffffffffffffffffffffffffffffff167fddf252ad1be2c89b69c2b068fc378daa952ba7f163c4a11628f55a4df523b3ef60405160405180910390a4611c138383836001612099565b505050565b611c20610bbe565b611c5f576040517f08c379a0000000000000000000000000000000000000000000000000000000008152600401611c56906131d2565b60405180910390fd5b565b6000611c828473ffffffffffffffffffffffffffffffffffffffff1661209f565b15611ddb578373ffffffffffffffffffffffffffffffffffffffff1663150b7a02611cab611265565b8786866040518563ffffffff1660e01b8152600401611ccd9493929190613247565b6020604051808303816000875af1925050508015611d0957506040513d601f19601f82011682018060405250810190611d0691906132a8565b60015b611d8b573d8060008114611d39576040519150601f19603f3d011682016040523d82523d6000602084013e611d3e565b606091505b506000815103611d83576040517f08c379a0000000000000000000000000000000000000000000000000000000008152600401611d7a90613013565b60405180910390fd5b805181602001fd5b63150b7a0260e01b7bffffffffffffffffffffffffffffffffffffffffffffffffffffffff1916817bffffffffffffffffffffffffffffffffffffffffffffffffffffffff191614915050611de0565b600190505b949350505050565b600080600090507a184f03e93ff9f4daa797ed6e38ed64bf6a1f0100000000000000008310611e46577a184f03e93ff9f4daa797ed6e38ed64bf6a1f0100000000000000008381611e3c57611e3b613033565b5b0492506040810190505b6d04ee2d6d415b85acef81000000008310611e83576d04ee2d6d415b85acef81000000008381611e7957611e78613033565b5b0492506020810190505b662386f26fc100008310611eb257662386f26fc100008381611ea857611ea7613033565b5b0492506010810190505b6305f5e1008310611edb576305f5e1008381611ed157611ed0613033565b5b0492506008810190505b6127108310611f00576127108381611ef657611ef5613033565b5b0492506004810190505b60648310611f235760648381611f1957611f18613033565b5b0492506002810190505b600a8310611f32576001810190505b80915050919050565b611f47848484846120c2565b6001811115611f8b576040517f08c379a0000000000000000000000000000000000000000000000000000000008152600401611f8290613347565b60405180910390fd5b6000829050600073ffffffffffffffffffffffffffffffffffffffff168573ffffffffffffffffffffffffffffffffffffffff1603611fd257611fcd816120c8565b612011565b8373ffffffffffffffffffffffffffffffffffffffff168573ffffffffffffffffffffffffffffffffffffffff16146120105761200f8582612111565b5b5b600073ffffffffffffffffffffffffffffffffffffffff168473ffffffffffffffffffffffffffffffffffffffff16036120535761204e8161227e565b612092565b8473ffffffffffffffffffffffffffffffffffffffff168473ffffffffffffffffffffffffffffffffffffffff161461209157612090848261234f565b5b5b5050505050565b50505050565b6000808273ffffffffffffffffffffffffffffffffffffffff163b119050919050565b50505050565b600b80549050600c600083815260200190815260200160002081905550600b81908060018154018082558091505060019003906000526020600020016000909190919091505550565b6000600161211e84610c8d565b6121289190613396565b90506000600a600084815260200190815260200160002054905081811461220d576000600960008673ffffffffffffffffffffffffffffffffffffffff1673ffffffffffffffffffffffffffffffffffffffff168152602001908152602001600020600084815260200190815260200160002054905080600960008773ffffffffffffffffffffffffffffffffffffffff1673ffffffffffffffffffffffffffffffffffffffff16815260200190815260200160002060008481526020019081526020016000208190555081600a600083815260200190815260200160002081905550505b600a600084815260200190815260200160002060009055600960008573ffffffffffffffffffffffffffffffffffffffff1673ffffffffffffffffffffffffffffffffffffffff16815260200190815260200160002060008381526020019081526020016000206000905550505050565b60006001600b805490506122929190613396565b90506000600c60008481526020019081526020016000205490506000600b83815481106122c2576122c1612d3c565b5b9060005260206000200154905080600b83815481106122e4576122e3612d3c565b5b906000526020600020018190555081600c600083815260200190815260200160002081905550600c600085815260200190815260200160002060009055600b805480612333576123326133ca565b5b6001900381819060005260206000200160009055905550505050565b600061235a83610c8d565b905081600960008573ffffffffffffffffffffffffffffffffffffffff1673ffffffffffffffffffffffffffffffffffffffff16815260200190815260200160002060008381526020019081526020016000208190555080600a600084815260200190815260200160002081905550505050565b6000604051905090565b600080fd5b600080fd5b60007fffffffff0000000000000000000000000000000000000000000000000000000082169050919050565b612417816123e2565b811461242257600080fd5b50565b6000813590506124348161240e565b92915050565b6000602082840312156124505761244f6123d8565b5b600061245e84828501612425565b91505092915050565b60008115159050919050565b61247c81612467565b82525050565b60006020820190506124976000830184612473565b92915050565b600073ffffffffffffffffffffffffffffffffffffffff82169050919050565b60006124c88261249d565b9050919050565b6124d8816124bd565b82525050565b60006020820190506124f360008301846124cf565b92915050565b600081519050919050565b600082825260208201905092915050565b60005b83811015612533578082015181840152602081019050612518565b60008484015250505050565b6000601f19601f8301169050919050565b600061255b826124f9565b6125658185612504565b9350612575818560208601612515565b61257e8161253f565b840191505092915050565b600060208201905081810360008301526125a38184612550565b905092915050565b6000819050919050565b6125be816125ab565b81146125c957600080fd5b50565b6000813590506125db816125b5565b92915050565b6000602082840312156125f7576125f66123d8565b5b6000612605848285016125cc565b91505092915050565b612617816124bd565b811461262257600080fd5b50565b6000813590506126348161260e565b92915050565b60008060408385031215612651576126506123d8565b5b600061265f85828601612625565b9250506020612670858286016125cc565b9150509250929050565b612683816125ab565b82525050565b600060208201905061269e600083018461267a565b92915050565b6000806000606084860312156126bd576126bc6123d8565b5b60006126cb86828701612625565b93505060206126dc86828701612625565b92505060406126ed868287016125cc565b9150509250925092565b60006020828403121561270d5761270c6123d8565b5b600061271b84828501612625565b91505092915050565b6000806040838503121561273b5761273a6123d8565b5b6000612749858286016125cc565b925050602061275a85828601612625565b9150509250929050565b600063ffffffff82169050919050565b61277d81612764565b82525050565b60006020820190506127986000830184612774565b92915050565b6127a781612467565b81146127b257600080fd5b50565b6000813590506127c48161279e565b92915050565b600080604083850312156127e1576127e06123d8565b5b60006127ef85828601612625565b9250506020612800858286016127b5565b9150509250929050565b600080fd5b600080fd5b7f4e487b7100000000000000000000000000000000000000000000000000000000600052604160045260246000fd5b61284c8261253f565b810181811067ffffffffffffffff8211171561286b5761286a612814565b5b80604052505050565b600061287e6123ce565b905061288a8282612843565b919050565b600067ffffffffffffffff8211156128aa576128a9612814565b5b6128b38261253f565b9050602081019050919050565b82818337600083830152505050565b60006128e26128dd8461288f565b612874565b9050828152602081018484840111156128fe576128fd61280f565b5b6129098482856128c0565b509392505050565b600082601f8301126129265761292561280a565b5b81356129368482602086016128cf565b91505092915050565b60008060008060808587031215612959576129586123d8565b5b600061296787828801612625565b945050602061297887828801612625565b9350506040612989878288016125cc565b925050606085013567ffffffffffffffff8111156129aa576129a96123dd565b5b6129b687828801612911565b91505092959194509250565b600080604083850312156129d9576129d86123d8565b5b60006129e785828601612625565b92505060206129f885828601612625565b9150509250929050565b7f4e487b7100000000000000000000000000000000000000000000000000000000600052602260045260246000fd5b60006002820490506001821680612a4957607f821691505b602082108103612a5c57612a5b612a02565b5b50919050565b7f4552433732313a20617070726f76616c20746f2063757272656e74206f776e6560008201527f7200000000000000000000000000000000000000000000000000000000000000602082015250565b6000612abe602183612504565b9150612ac982612a62565b604082019050919050565b60006020820190508181036000830152612aed81612ab1565b9050919050565b7f4552433732313a20617070726f76652063616c6c6572206973206e6f7420746f60008201527f6b656e206f776e6572206f7220617070726f76656420666f7220616c6c000000602082015250565b6000612b50603d83612504565b9150612b5b82612af4565b604082019050919050565b60006020820190508181036000830152612b7f81612b43565b9050919050565b7f4552433732313a2063616c6c6572206973206e6f7420746f6b656e206f776e6560008201527f72206f7220617070726f76656400000000000000000000000000000000000000602082015250565b6000612be2602d83612504565b9150612bed82612b86565b604082019050919050565b60006020820190508181036000830152612c1181612bd5565b9050919050565b7f455243373231456e756d657261626c653a206f776e657220696e646578206f7560008201527f74206f6620626f756e6473000000000000000000000000000000000000000000602082015250565b6000612c74602b83612504565b9150612c7f82612c18565b604082019050919050565b60006020820190508181036000830152612ca381612c67565b9050919050565b7f455243373231456e756d657261626c653a20676c6f62616c20696e646578206f60008201527f7574206f6620626f756e64730000000000000000000000000000000000000000602082015250565b6000612d06602c83612504565b9150612d1182612caa565b604082019050919050565b60006020820190508181036000830152612d3581612cf9565b9050919050565b7f4e487b7100000000000000000000000000000000000000000000000000000000600052603260045260246000fd5b7f4552433732313a20696e76616c696420746f6b656e2049440000000000000000600082015250565b6000612da1601883612504565b9150612dac82612d6b565b602082019050919050565b60006020820190508181036000830152612dd081612d94565b9050919050565b7f4552433732313a2061646472657373207a65726f206973206e6f74206120766160008201527f6c6964206f776e65720000000000000000000000000000000000000000000000602082015250565b6000612e33602983612504565b9150612e3e82612dd7565b604082019050919050565b60006020820190508181036000830152612e6281612e26565b9050919050565b600081905092915050565b6000612e7f826124f9565b612e898185612e69565b9350612e99818560208601612515565b80840191505092915050565b6000612eb18285612e74565b9150612ebd8284612e74565b91508190509392505050565b7f5061757361626c653a2070617573656400000000000000000000000000000000600082015250565b6000612eff601083612504565b9150612f0a82612ec9565b602082019050919050565b60006020820190508181036000830152612f2e81612ef2565b9050919050565b7f4552433732313a20617070726f766520746f2063616c6c657200000000000000600082015250565b6000612f6b601983612504565b9150612f7682612f35565b602082019050919050565b60006020820190508181036000830152612f9a81612f5e565b9050919050565b7f4552433732313a207472616e7366657220746f206e6f6e20455243373231526560008201527f63656976657220696d706c656d656e7465720000000000000000000000000000602082015250565b6000612ffd603283612504565b915061300882612fa1565b604082019050919050565b6000602082019050818103600083015261302c81612ff0565b9050919050565b7f4e487b7100000000000000000000000000000000000000000000000000000000600052601260045260246000fd5b7f4552433732313a207472616e736665722066726f6d20696e636f72726563742060008201527f6f776e6572000000000000000000000000000000000000000000000000000000602082015250565b60006130be602583612504565b91506130c982613062565b604082019050919050565b600060208201905081810360008301526130ed816130b1565b9050919050565b7f4552433732313a207472616e7366657220746f20746865207a65726f2061646460008201527f7265737300000000000000000000000000000000000000000000000000000000602082015250565b6000613150602483612504565b915061315b826130f4565b604082019050919050565b6000602082019050818103600083015261317f81613143565b9050919050565b7f5061757361626c653a206e6f7420706175736564000000000000000000000000600082015250565b60006131bc601483612504565b91506131c782613186565b602082019050919050565b600060208201905081810360008301526131eb816131af565b9050919050565b600081519050919050565b600082825260208201905092915050565b6000613219826131f2565b61322381856131fd565b9350613233818560208601612515565b61323c8161253f565b840191505092915050565b600060808201905061325c60008301876124cf565b61326960208301866124cf565b613276604083018561267a565b8181036060830152613288818461320e565b905095945050505050565b6000815190506132a28161240e565b92915050565b6000602082840312156132be576132bd6123d8565b5b60006132cc84828501613293565b91505092915050565b7f455243373231456e756d657261626c653a20636f6e736563757469766520747260008201527f616e7366657273206e6f7420737570706f727465640000000000000000000000602082015250565b6000613331603583612504565b915061333c826132d5565b604082019050919050565b6000602082019050818103600083015261336081613324565b9050919050565b7f4e487b7100000000000000000000000000000000000000000000000000000000600052601160045260246000fd5b60006133a1826125ab565b91506133ac836125ab565b92508282039050818111156133c4576133c3613367565b5b92915050565b7f4e487b7100000000000000000000000000000000000000000000000000000000600052603160045260246000fdfea26469706673582212206da31338cfcef71837cd2f68233c5f7afdbf71bd4bb42a59c8b95967b3b516c164736f6c63430008110033",
  "linkReferences": {},
  "deployedLinkReferences": {}
}