{
  "_format": "hh-sol-artifact-1",
  "contractName": "BummyMinting",
  "sourceName": "contracts/BummyMinting.sol",
  "abi": [
    {
      "anonymous": false,
      "inputs": [
        {
          "indexed": true,
          "internalType": "address",
          "name": "owner",
          "type": "address"
        },
        {
          "indexed": true,
          "internalType": "address",
          "name": "approved",
          "type": "address"
        },
        {
          "indexed": true,
          "internalType": "uint256",
          "name": "tokenId",
          "type": "uint256"
        }
      ],
      "name": "Approval",
      "type": "event"
    },
    {
      "anonymous": false,
      "inputs": [
        {
          "indexed": true,
          "internalType": "address",
          "name": "owner",
          "type": "address"
        },
        {
          "indexed": true,
          "internalType": "address",
          "name": "operator",
          "type": "address"
        },
        {
          "indexed": false,
          "internalType": "bool",
          "name": "approved",
          "type": "bool"
        }
      ],
      "name": "ApprovalForAll",
      "type": "event"
    },
    {
      "anonymous": false,
      "inputs": [
        {
          "indexed": false,
          "internalType": "address",
          "name": "owner",
          "type": "address"
        },
        {
          "indexed": false,
          "internalType": "uint256",
          "name": "momId",
          "type": "uint256"
        },
        {
          "indexed": false,
          "internalType": "uint256",
          "name": "dadId",
          "type": "uint256"
        }
      ],
      "name": "Cheering",
      "type": "event"
    },
    {
      "anonymous": false,
      "inputs": [
        {
          "indexed": true,
          "internalType": "address",
          "name": "owner",
          "type": "address"
        },
        {
          "indexed": false,
          "internalType": "uint256",
          "name": "bummyId",
          "type": "uint256"
        },
        {
          "indexed": false,
          "internalType": "uint256",
          "name": "momId",
          "type": "uint256"
        },
        {
          "indexed": false,
          "internalType": "uint256",
          "name": "dadId",
          "type": "uint256"
        },
        {
          "indexed": false,
          "internalType": "uint256",
          "name": "genes",
          "type": "uint256"
        }
      ],
      "name": "Invite",
      "type": "event"
    },
    {
      "anonymous": false,
      "inputs": [
        {
          "indexed": false,
          "internalType": "address",
          "name": "account",
          "type": "address"
        }
      ],
      "name": "Paused",
      "type": "event"
    },
    {
      "anonymous": false,
      "inputs": [
        {
          "indexed": true,
          "internalType": "address",
          "name": "from",
          "type": "address"
        },
        {
          "indexed": true,
          "internalType": "address",
          "name": "to",
          "type": "address"
        },
        {
          "indexed": true,
          "internalType": "uint256",
          "name": "tokenId",
          "type": "uint256"
        }
      ],
      "name": "Transfer",
      "type": "event"
    },
    {
      "anonymous": false,
      "inputs": [
        {
          "indexed": false,
          "internalType": "address",
          "name": "account",
          "type": "address"
        }
      ],
      "name": "Unpaused",
      "type": "event"
    },
    {
      "inputs": [
        {
          "internalType": "address",
          "name": "to",
          "type": "address"
        },
        {
          "internalType": "uint256",
          "name": "tokenId",
          "type": "uint256"
        }
      ],
      "name": "approve",
      "outputs": [],
      "stateMutability": "nonpayable",
      "type": "function"
    },
    {
      "inputs": [
        {
          "internalType": "address",
          "name": "_addr",
          "type": "address"
        },
        {
          "internalType": "uint256",
          "name": "_dadId",
          "type": "uint256"
        }
      ],
      "name": "approveCheering",
      "outputs": [],
      "stateMutability": "nonpayable",
      "type": "function"
    },
    {
      "inputs": [
        {
          "internalType": "address",
          "name": "owner",
          "type": "address"
        }
      ],
      "name": "balanceOf",
      "outputs": [
        {
          "internalType": "uint256",
          "name": "",
          "type": "uint256"
        }
      ],
      "stateMutability": "view",
      "type": "function"
    },
    {
      "inputs": [
        {
          "internalType": "uint256",
          "name": "",
          "type": "uint256"
        }
      ],
      "name": "bummies",
      "outputs": [
        {
          "internalType": "uint256",
          "name": "genes",
          "type": "uint256"
        },
        {
          "internalType": "uint64",
          "name": "birthTime",
          "type": "uint64"
        },
        {
          "internalType": "uint64",
          "name": "cooldownEndTime",
          "type": "uint64"
        },
        {
          "internalType": "uint32",
          "name": "MomId",
          "type": "uint32"
        },
        {
          "internalType": "uint32",
          "name": "DadId",
          "type": "uint32"
        },
        {
          "internalType": "uint32",
          "name": "cheeringWithId",
          "type": "uint32"
        },
        {
          "internalType": "uint8",
          "name": "cooldownIndex",
          "type": "uint8"
        },
        {
          "internalType": "uint8",
          "name": "children",
          "type": "uint8"
        },
        {
          "internalType": "uint16",
          "name": "generation",
          "type": "uint16"
        }
      ],
      "stateMutability": "view",
      "type": "function"
    },
    {
      "inputs": [
        {
          "internalType": "uint256",
          "name": "_momId",
          "type": "uint256"
        },
        {
          "internalType": "uint256",
          "name": "_dadId",
          "type": "uint256"
        }
      ],
      "name": "canCheerWith",
      "outputs": [
        {
          "internalType": "bool",
          "name": "",
          "type": "bool"
        }
      ],
      "stateMutability": "view",
      "type": "function"
    },
    {
      "inputs": [],
      "name": "ceoAddress",
      "outputs": [
        {
          "internalType": "address",
          "name": "",
          "type": "address"
        }
      ],
      "stateMutability": "view",
      "type": "function"
    },
    {
      "inputs": [
        {
          "internalType": "uint256",
          "name": "",
          "type": "uint256"
        }
      ],
      "name": "cheerAllowedToAddress",
      "outputs": [
        {
          "internalType": "address",
          "name": "",
          "type": "address"
        }
      ],
      "stateMutability": "view",
      "type": "function"
    },
    {
      "inputs": [
        {
          "internalType": "uint256",
          "name": "_momId",
          "type": "uint256"
        },
        {
          "internalType": "uint256",
          "name": "_dadId",
          "type": "uint256"
        }
      ],
      "name": "cheerWith",
      "outputs": [],
      "stateMutability": "nonpayable",
      "type": "function"
    },
    {
      "inputs": [],
      "name": "cooAddress",
      "outputs": [
        {
          "internalType": "address",
          "name": "",
          "type": "address"
        }
      ],
      "stateMutability": "view",
      "type": "function"
    },
    {
      "inputs": [
        {
          "internalType": "uint256",
          "name": "",
          "type": "uint256"
        }
      ],
      "name": "cooldowns",
      "outputs": [
        {
          "internalType": "uint32",
          "name": "",
          "type": "uint32"
        }
      ],
      "stateMutability": "view",
      "type": "function"
    },
    {
      "inputs": [],
      "name": "createFirstGen0Bummy",
      "outputs": [],
      "stateMutability": "nonpayable",
      "type": "function"
    },
    {
      "inputs": [
        {
          "internalType": "uint256",
          "name": "_genes",
          "type": "uint256"
        },
        {
          "internalType": "address",
          "name": "_owner",
          "type": "address"
        }
      ],
      "name": "createPromoBummy",
      "outputs": [],
      "stateMutability": "nonpayable",
      "type": "function"
    },
    {
      "inputs": [
        {
          "internalType": "uint256",
          "name": "_genes",
          "type": "uint256"
        },
        {
          "internalType": "address",
          "name": "_owner",
          "type": "address"
        },
        {
          "internalType": "uint256",
          "name": "number",
          "type": "uint256"
        }
      ],
      "name": "createPromoMultipleBummy",
      "outputs": [],
      "stateMutability": "nonpayable",
      "type": "function"
    },
    {
      "inputs": [],
      "name": "gen0CreatedCount",
      "outputs": [
        {
          "internalType": "uint256",
          "name": "",
          "type": "uint256"
        }
      ],
      "stateMutability": "view",
      "type": "function"
    },
    {
      "inputs": [],
      "name": "gen0CreationLimit",
      "outputs": [
        {
          "internalType": "uint256",
          "name": "",
          "type": "uint256"
        }
      ],
      "stateMutability": "view",
      "type": "function"
    },
    {
      "inputs": [
        {
          "internalType": "uint256",
          "name": "tokenId",
          "type": "uint256"
        }
      ],
      "name": "getApproved",
      "outputs": [
        {
          "internalType": "address",
          "name": "",
          "type": "address"
        }
      ],
      "stateMutability": "view",
      "type": "function"
    },
    {
      "inputs": [
        {
          "internalType": "uint256",
          "name": "_momId",
          "type": "uint256"
        }
      ],
      "name": "inviteFriend",
      "outputs": [
        {
          "internalType": "uint256",
          "name": "",
          "type": "uint256"
        }
      ],
      "stateMutability": "nonpayable",
      "type": "function"
    },
    {
      "inputs": [
        {
          "internalType": "address",
          "name": "owner",
          "type": "address"
        },
        {
          "internalType": "address",
          "name": "operator",
          "type": "address"
        }
      ],
      "name": "isApprovedForAll",
      "outputs": [
        {
          "internalType": "bool",
          "name": "",
          "type": "bool"
        }
      ],
      "stateMutability": "view",
      "type": "function"
    },
    {
      "inputs": [
        {
          "internalType": "uint256",
          "name": "_bummyId",
          "type": "uint256"
        }
      ],
      "name": "isReadyToCheer",
      "outputs": [
        {
          "internalType": "bool",
          "name": "",
          "type": "bool"
        }
      ],
      "stateMutability": "view",
      "type": "function"
    },
    {
      "inputs": [],
      "name": "name",
      "outputs": [
        {
          "internalType": "string",
          "name": "",
          "type": "string"
        }
      ],
      "stateMutability": "view",
      "type": "function"
    },
    {
      "inputs": [
        {
          "internalType": "uint256",
          "name": "tokenId",
          "type": "uint256"
        }
      ],
      "name": "ownerOf",
      "outputs": [
        {
          "internalType": "address",
          "name": "",
          "type": "address"
        }
      ],
      "stateMutability": "view",
      "type": "function"
    },
    {
      "inputs": [],
      "name": "pause",
      "outputs": [],
      "stateMutability": "nonpayable",
      "type": "function"
    },
    {
      "inputs": [],
      "name": "paused",
      "outputs": [
        {
          "internalType": "bool",
          "name": "",
          "type": "bool"
        }
      ],
      "stateMutability": "view",
      "type": "function"
    },
    {
      "inputs": [],
      "name": "promoCreatedCount",
      "outputs": [
        {
          "internalType": "uint256",
          "name": "",
          "type": "uint256"
        }
      ],
      "stateMutability": "view",
      "type": "function"
    },
    {
      "inputs": [],
      "name": "promoCreationLimit",
      "outputs": [
        {
          "internalType": "uint256",
          "name": "",
          "type": "uint256"
        }
      ],
      "stateMutability": "view",
      "type": "function"
    },
    {
      "inputs": [
        {
          "internalType": "address",
          "name": "from",
          "type": "address"
        },
        {
          "internalType": "address",
          "name": "to",
          "type": "address"
        },
        {
          "internalType": "uint256",
          "name": "tokenId",
          "type": "uint256"
        }
      ],
      "name": "safeTransferFrom",
      "outputs": [],
      "stateMutability": "nonpayable",
      "type": "function"
    },
    {
      "inputs": [
        {
          "internalType": "address",
          "name": "from",
          "type": "address"
        },
        {
          "internalType": "address",
          "name": "to",
          "type": "address"
        },
        {
          "internalType": "uint256",
          "name": "tokenId",
          "type": "uint256"
        },
        {
          "internalType": "bytes",
          "name": "data",
          "type": "bytes"
        }
      ],
      "name": "safeTransferFrom",
      "outputs": [],
      "stateMutability": "nonpayable",
      "type": "function"
    },
    {
      "inputs": [
        {
          "internalType": "address",
          "name": "operator",
          "type": "address"
        },
        {
          "internalType": "bool",
          "name": "approved",
          "type": "bool"
        }
      ],
      "name": "setApprovalForAll",
      "outputs": [],
      "stateMutability": "nonpayable",
      "type": "function"
    },
    {
      "inputs": [
        {
          "internalType": "address",
          "name": "_newCEO",
          "type": "address"
        }
      ],
      "name": "setCEO",
      "outputs": [],
      "stateMutability": "nonpayable",
      "type": "function"
    },
    {
      "inputs": [
        {
          "internalType": "address",
          "name": "_newCOO",
          "type": "address"
        }
      ],
      "name": "setCOO",
      "outputs": [],
      "stateMutability": "nonpayable",
      "type": "function"
    },
    {
      "inputs": [
        {
          "internalType": "bytes4",
          "name": "interfaceId",
          "type": "bytes4"
        }
      ],
      "name": "supportsInterface",
      "outputs": [
        {
          "internalType": "bool",
          "name": "",
          "type": "bool"
        }
      ],
      "stateMutability": "view",
      "type": "function"
    },
    {
      "inputs": [],
      "name": "symbol",
      "outputs": [
        {
          "internalType": "string",
          "name": "",
          "type": "string"
        }
      ],
      "stateMutability": "view",
      "type": "function"
    },
    {
      "inputs": [
        {
          "internalType": "uint256",
          "name": "index",
          "type": "uint256"
        }
      ],
      "name": "tokenByIndex",
      "outputs": [
        {
          "internalType": "uint256",
          "name": "",
          "type": "uint256"
        }
      ],
      "stateMutability": "view",
      "type": "function"
    },
    {
      "inputs": [
        {
          "internalType": "address",
          "name": "owner",
          "type": "address"
        },
        {
          "internalType": "uint256",
          "name": "index",
          "type": "uint256"
        }
      ],
      "name": "tokenOfOwnerByIndex",
      "outputs": [
        {
          "internalType": "uint256",
          "name": "",
          "type": "uint256"
        }
      ],
      "stateMutability": "view",
      "type": "function"
    },
    {
      "inputs": [
        {
          "internalType": "uint256",
          "name": "tokenId",
          "type": "uint256"
        }
      ],
      "name": "tokenURI",
      "outputs": [
        {
          "internalType": "string",
          "name": "",
          "type": "string"
        }
      ],
      "stateMutability": "view",
      "type": "function"
    },
    {
      "inputs": [],
      "name": "totalSupply",
      "outputs": [
        {
          "internalType": "uint256",
          "name": "",
          "type": "uint256"
        }
      ],
      "stateMutability": "view",
      "type": "function"
    },
    {
      "inputs": [
        {
          "internalType": "address",
          "name": "from",
          "type": "address"
        },
        {
          "internalType": "address",
          "name": "to",
          "type": "address"
        },
        {
          "internalType": "uint256",
          "name": "tokenId",
          "type": "uint256"
        }
      ],
      "name": "transferFrom",
      "outputs": [],
      "stateMutability": "nonpayable",
      "type": "function"
    },
    {
      "inputs": [],
      "name": "unpause",
      "outputs": [],
      "stateMutability": "nonpayable",
      "type": "function"
    }
  ],
  "bytecode": "0x60c0604052604051806101000160405280603c63ffffffff1663ffffffff168152602001607863ffffffff1663ffffffff16815260200161012c63ffffffff1663ffffffff16815260200161025863ffffffff1663ffffffff16815260200161070863ffffffff1663ffffffff168152602001610e1063ffffffff1663ffffffff168152602001611c2063ffffffff1663ffffffff16815260200161384063ffffffff1663ffffffff16815250600c906008620000be92919062000190565b5060646080908152506101f460a090815250348015620000dd57600080fd5b506040518060400160405280600881526020017f42756d6d794e46540000000000000000000000000000000000000000000000008152506040518060400160405280600281526020017f425600000000000000000000000000000000000000000000000000000000000081525060008060006101000a81548160ff0219169083151502179055508160029081620001759190620004d3565b508060039081620001879190620004d3565b505050620005ba565b826008600701600890048101928215620002275791602002820160005b83821115620001f357835183826101000a81548163ffffffff021916908363ffffffff1602179055509260200192600401602081600301049283019260010302620001ad565b8015620002255782816101000a81549063ffffffff0219169055600401602081600301049283019260010302620001f3565b505b5090506200023691906200023a565b5090565b5b80821115620002555760008160009055506001016200023b565b5090565b600081519050919050565b7f4e487b7100000000000000000000000000000000000000000000000000000000600052604160045260246000fd5b7f4e487b7100000000000000000000000000000000000000000000000000000000600052602260045260246000fd5b60006002820490506001821680620002db57607f821691505b602082108103620002f157620002f062000293565b5b50919050565b60008190508160005260206000209050919050565b60006020601f8301049050919050565b600082821b905092915050565b6000600883026200035b7fffffffffffffffffffffffffffffffffffffffffffffffffffffffffffffffff826200031c565b6200036786836200031c565b95508019841693508086168417925050509392505050565b6000819050919050565b6000819050919050565b6000620003b4620003ae620003a8846200037f565b62000389565b6200037f565b9050919050565b6000819050919050565b620003d08362000393565b620003e8620003df82620003bb565b84845462000329565b825550505050565b600090565b620003ff620003f0565b6200040c818484620003c5565b505050565b5b81811015620004345762000428600082620003f5565b60018101905062000412565b5050565b601f82111562000483576200044d81620002f7565b62000458846200030c565b8101602085101562000468578190505b6200048062000477856200030c565b83018262000411565b50505b505050565b600082821c905092915050565b6000620004a86000198460080262000488565b1980831691505092915050565b6000620004c3838362000495565b9150826002028217905092915050565b620004de8262000259565b67ffffffffffffffff811115620004fa57620004f962000264565b5b620005068254620002c2565b6200051382828562000438565b600060209050601f8311600181146200054b576000841562000536578287015190505b620005428582620004b5565b865550620005b2565b601f1984166200055b86620002f7565b60005b8281101562000585578489015182556001820191506020850194506020810190506200055e565b86831015620005a55784890151620005a1601f89168262000495565b8355505b6001600288020188555050505b505050505050565b60805160a051615440620005fc60003960008181610ea30152818161117e0152611a3f01526000818161115001528181611a110152611adf01526154406000f3fe608060405234801561001057600080fd5b50600436106102325760003560e01c806364bee5e511610130578063a22cb465116100b8578063c7b6b4361161007c578063c7b6b43614610677578063c87b56dd146106a7578063d3965141146106d7578063e985e9c51461070f578063f1ca94101461073f57610232565b8063a22cb465146105e7578063b047fb5014610603578063b23f2b4914610621578063b53193351461063d578063b88d4fde1461065b57610232565b80638456cb59116100ff5780638456cb5914610569578063851d9a521461057357806395d89b411461058f57806397ae4898146105ad5780639d6fac6f146105b757610232565b806364bee5e5146104d1578063684aa7ae1461050157806370a082311461051d5780637814da8e1461054d57610232565b806327d7874c116101be57806342842e0e1161018257806342842e0e146104075780634f6ccce7146104235780635c975abb146104535780635edbf360146104715780636352211e146104a157610232565b806327d7874c146103775780632ba73c15146103935780632f745c59146103af5780633f4ba83a146103df578063404d0e3e146103e957610232565b8063095ea7b311610205578063095ea7b3146102d35780630a0f8168146102ef57806317091d051461030d57806318160ddd1461033d57806323b872dd1461035b57610232565b806301ffc9a71461023757806305e455461461026757806306fdde0314610285578063081812fc146102a3575b600080fd5b610251600480360381019061024c9190613f25565b61075d565b60405161025e9190613f6d565b60405180910390f35b61026f6107d7565b60405161027c9190613fa1565b60405180910390f35b61028d6107dd565b60405161029a919061404c565b60405180910390f35b6102bd60048036038101906102b8919061409a565b61086f565b6040516102ca9190614108565b60405180910390f35b6102ed60048036038101906102e8919061414f565b6108b5565b005b6102f76109cc565b6040516103049190614108565b60405180910390f35b6103276004803603810190610322919061409a565b6109f2565b6040516103349190613f6d565b60405180910390f35b610345610b7d565b6040516103529190613fa1565b60405180910390f35b6103756004803603810190610370919061418f565b610b8a565b005b610391600480360381019061038c91906141e2565b610bea565b005b6103ad60048036038101906103a891906141e2565b610cc1565b005b6103c960048036038101906103c4919061414f565b610d98565b6040516103d69190613fa1565b60405180910390f35b6103e7610e3d565b005b6103f1610ea1565b6040516103fe9190613fa1565b60405180910390f35b610421600480360381019061041c919061418f565b610ec5565b005b61043d6004803603810190610438919061409a565b610ee5565b60405161044a9190613fa1565b60405180910390f35b61045b610f56565b6040516104689190613f6d565b60405180910390f35b61048b6004803603810190610486919061409a565b610f6c565b6040516104989190614108565b60405180910390f35b6104bb60048036038101906104b6919061409a565b610f9f565b6040516104c89190614108565b60405180910390f35b6104eb60048036038101906104e6919061420f565b611025565b6040516104f89190613f6d565b60405180910390f35b61051b6004803603810190610516919061424f565b6110b4565b005b610537600480360381019061053291906141e2565b6111ee565b6040516105449190613fa1565b60405180910390f35b6105676004803603810190610562919061414f565b6112a5565b005b610571611316565b005b61058d6004803603810190610588919061420f565b6113d2565b005b610597611721565b6040516105a4919061404c565b60405180910390f35b6105b56117b3565b005b6105d160048036038101906105cc919061409a565b611909565b6040516105de91906142ae565b60405180910390f35b61060160048036038101906105fc91906142f5565b611939565b005b61060b61194f565b6040516106189190614108565b60405180910390f35b61063b60048036038101906106369190614335565b611975565b005b610645611add565b6040516106529190613fa1565b60405180910390f35b610675600480360381019061067091906144bd565b611b01565b005b610691600480360381019061068c919061409a565b611b63565b60405161069e9190613fa1565b60405180910390f35b6106c160048036038101906106bc919061409a565b611f8b565b6040516106ce919061404c565b60405180910390f35b6106f160048036038101906106ec919061409a565b611ff3565b6040516107069998979695949392919061459c565b60405180910390f35b61072960048036038101906107249190614629565b6120d1565b6040516107369190613f6d565b60405180910390f35b610747612165565b6040516107549190613fa1565b60405180910390f35b60007f780e9d63000000000000000000000000000000000000000000000000000000007bffffffffffffffffffffffffffffffffffffffffffffffffffffffff1916827bffffffffffffffffffffffffffffffffffffffffffffffffffffffff191614806107d057506107cf8261216b565b5b9050919050565b60105481565b6060600280546107ec90614698565b80601f016020809104026020016040519081016040528092919081815260200182805461081890614698565b80156108655780601f1061083a57610100808354040283529160200191610865565b820191906000526020600020905b81548152906001019060200180831161084857829003601f168201915b5050505050905090565b600061087a8261224d565b6006600083815260200190815260200160002060009054906101000a900473ffffffffffffffffffffffffffffffffffffffff169050919050565b60006108c082610f9f565b90508073ffffffffffffffffffffffffffffffffffffffff168373ffffffffffffffffffffffffffffffffffffffff1603610930576040517f08c379a00000000000000000000000000000000000000000000000000000000081526004016109279061473b565b60405180910390fd5b8073ffffffffffffffffffffffffffffffffffffffff1661094f612298565b73ffffffffffffffffffffffffffffffffffffffff16148061097e575061097d81610978612298565b6120d1565b5b6109bd576040517f08c379a00000000000000000000000000000000000000000000000000000000081526004016109b4906147cd565b60405180910390fd5b6109c783836122a0565b505050565b600060019054906101000a900473ffffffffffffffffffffffffffffffffffffffff1681565b6000808211610a0057600080fd5b6000600d8381548110610a1657610a156147ed565b5b90600052602060002090600202019050610b758160405180610120016040529081600082015481526020016001820160009054906101000a900467ffffffffffffffff1667ffffffffffffffff1667ffffffffffffffff1681526020016001820160089054906101000a900467ffffffffffffffff1667ffffffffffffffff1667ffffffffffffffff1681526020016001820160109054906101000a900463ffffffff1663ffffffff1663ffffffff1681526020016001820160149054906101000a900463ffffffff1663ffffffff1663ffffffff1681526020016001820160189054906101000a900463ffffffff1663ffffffff1663ffffffff16815260200160018201601c9054906101000a900460ff1660ff1660ff16815260200160018201601d9054906101000a900460ff1660ff1660ff16815260200160018201601e9054906101000a900461ffff1661ffff1661ffff1681525050612359565b915050919050565b6000600a80549050905090565b610b9b610b95612298565b82612389565b610bda576040517f08c379a0000000000000000000000000000000000000000000000000000000008152600401610bd19061488e565b60405180910390fd5b610be583838361241e565b505050565b600060019054906101000a900473ffffffffffffffffffffffffffffffffffffffff1673ffffffffffffffffffffffffffffffffffffffff163373ffffffffffffffffffffffffffffffffffffffff1614610c4457600080fd5b600073ffffffffffffffffffffffffffffffffffffffff168173ffffffffffffffffffffffffffffffffffffffff1603610c7d57600080fd5b80600060016101000a81548173ffffffffffffffffffffffffffffffffffffffff021916908373ffffffffffffffffffffffffffffffffffffffff16021790555050565b600060019054906101000a900473ffffffffffffffffffffffffffffffffffffffff1673ffffffffffffffffffffffffffffffffffffffff163373ffffffffffffffffffffffffffffffffffffffff1614610d1b57600080fd5b600073ffffffffffffffffffffffffffffffffffffffff168173ffffffffffffffffffffffffffffffffffffffff1603610d5457600080fd5b80600160006101000a81548173ffffffffffffffffffffffffffffffffffffffff021916908373ffffffffffffffffffffffffffffffffffffffff16021790555050565b6000610da3836111ee565b8210610de4576040517f08c379a0000000000000000000000000000000000000000000000000000000008152600401610ddb90614920565b60405180910390fd5b600860008473ffffffffffffffffffffffffffffffffffffffff1673ffffffffffffffffffffffffffffffffffffffff168152602001908152602001600020600083815260200190815260200160002054905092915050565b600060019054906101000a900473ffffffffffffffffffffffffffffffffffffffff1673ffffffffffffffffffffffffffffffffffffffff163373ffffffffffffffffffffffffffffffffffffffff1614610e9757600080fd5b610e9f612499565b565b7f000000000000000000000000000000000000000000000000000000000000000081565b610ee083838360405180602001604052806000815250611b01565b505050565b6000610eef610b7d565b8210610f30576040517f08c379a0000000000000000000000000000000000000000000000000000000008152600401610f27906149b2565b60405180910390fd5b600a8281548110610f4457610f436147ed565b5b90600052602060002001549050919050565b60008060009054906101000a900460ff16905090565b600e6020528060005260406000206000915054906101000a900473ffffffffffffffffffffffffffffffffffffffff1681565b600080610fab836124fb565b9050600073ffffffffffffffffffffffffffffffffffffffff168173ffffffffffffffffffffffffffffffffffffffff160361101c576040517f08c379a000000000000000000000000000000000000000000000000000000000815260040161101390614a1e565b60405180910390fd5b80915050919050565b600080831161103357600080fd5b6000821161104057600080fd5b6000600d8481548110611056576110556147ed565b5b906000526020600020906002020190506000600d848154811061107c5761107b6147ed565b5b9060005260206000209060020201905061109882868387612538565b80156110aa57506110a9848661274c565b5b9250505092915050565b600160009054906101000a900473ffffffffffffffffffffffffffffffffffffffff1673ffffffffffffffffffffffffffffffffffffffff163373ffffffffffffffffffffffffffffffffffffffff161461110e57600080fd5b6111166127c5565b600073ffffffffffffffffffffffffffffffffffffffff168173ffffffffffffffffffffffffffffffffffffffff160361114e573390505b7f00000000000000000000000000000000000000000000000000000000000000006010541061117c57600080fd5b7f0000000000000000000000000000000000000000000000000000000000000000601154106111aa57600080fd5b601060008154809291906111bd90614a6d565b9190505550601160008154809291906111d590614a6d565b91905055506111e96000806000858561280f565b505050565b60008073ffffffffffffffffffffffffffffffffffffffff168273ffffffffffffffffffffffffffffffffffffffff160361125e576040517f08c379a000000000000000000000000000000000000000000000000000000000815260040161125590614b27565b60405180910390fd5b600560008373ffffffffffffffffffffffffffffffffffffffff1673ffffffffffffffffffffffffffffffffffffffff168152602001908152602001600020549050919050565b6112ad6127c5565b6112b73382612ae0565b6112c057600080fd5b81600e600083815260200190815260200160002060006101000a81548173ffffffffffffffffffffffffffffffffffffffff021916908373ffffffffffffffffffffffffffffffffffffffff1602179055505050565b600160009054906101000a900473ffffffffffffffffffffffffffffffffffffffff1673ffffffffffffffffffffffffffffffffffffffff163373ffffffffffffffffffffffffffffffffffffffff1614806113bf5750600060019054906101000a900473ffffffffffffffffffffffffffffffffffffffff1673ffffffffffffffffffffffffffffffffffffffff163373ffffffffffffffffffffffffffffffffffffffff16145b6113c857600080fd5b6113d0612b21565b565b6113da6127c5565b6113e43383612ae0565b6113ed57600080fd5b6113f7818361274c565b61140057600080fd5b6000600d8381548110611416576114156147ed565b5b906000526020600020906002020190506115758160405180610120016040529081600082015481526020016001820160009054906101000a900467ffffffffffffffff1667ffffffffffffffff1667ffffffffffffffff1681526020016001820160089054906101000a900467ffffffffffffffff1667ffffffffffffffff1667ffffffffffffffff1681526020016001820160109054906101000a900463ffffffff1663ffffffff1663ffffffff1681526020016001820160149054906101000a900463ffffffff1663ffffffff1663ffffffff1681526020016001820160189054906101000a900463ffffffff1663ffffffff1663ffffffff16815260200160018201601c9054906101000a900460ff1660ff1660ff16815260200160018201601d9054906101000a900460ff1660ff1660ff16815260200160018201601e9054906101000a900461ffff1661ffff1661ffff1681525050612359565b61157e57600080fd5b6000600d8381548110611594576115936147ed565b5b906000526020600020906002020190506116f38160405180610120016040529081600082015481526020016001820160009054906101000a900467ffffffffffffffff1667ffffffffffffffff1667ffffffffffffffff1681526020016001820160089054906101000a900467ffffffffffffffff1667ffffffffffffffff1667ffffffffffffffff1681526020016001820160109054906101000a900463ffffffff1663ffffffff1663ffffffff1681526020016001820160149054906101000a900463ffffffff1663ffffffff1663ffffffff1681526020016001820160189054906101000a900463ffffffff1663ffffffff1663ffffffff16815260200160018201601c9054906101000a900460ff1660ff1660ff16815260200160018201601d9054906101000a900460ff1660ff1660ff16815260200160018201601e9054906101000a900461ffff1661ffff1661ffff1681525050612359565b6116fc57600080fd5b61170882858386612538565b61171157600080fd5b61171b8484612b83565b50505050565b60606003805461173090614698565b80601f016020809104026020016040519081016040528092919081815260200182805461175c90614698565b80156117a95780601f1061177e576101008083540402835291602001916117a9565b820191906000526020600020905b81548152906001019060200180831161178c57829003601f168201915b5050505050905090565b6117bb6127c5565b60001515600f60003373ffffffffffffffffffffffffffffffffffffffff1673ffffffffffffffffffffffffffffffffffffffff16815260200190815260200160002060009054906101000a900460ff1615151461184e576040517f08c379a000000000000000000000000000000000000000000000000000000000815260040161184590614b93565b60405180910390fd5b60004244336011544160405160200161186b959493929190614c57565b6040516020818303038152906040528051906020012060001c90506011600081548092919061189990614a6d565b91905055506001600f60003373ffffffffffffffffffffffffffffffffffffffff1673ffffffffffffffffffffffffffffffffffffffff16815260200190815260200160002060006101000a81548160ff0219169083151502179055506119056000806000843361280f565b5050565b600c816008811061191957600080fd5b60089182820401919006600402915054906101000a900463ffffffff1681565b61194b611944612298565b8383612cb9565b5050565b600160009054906101000a900473ffffffffffffffffffffffffffffffffffffffff1681565b600160009054906101000a900473ffffffffffffffffffffffffffffffffffffffff1673ffffffffffffffffffffffffffffffffffffffff163373ffffffffffffffffffffffffffffffffffffffff16146119cf57600080fd5b6119d76127c5565b600073ffffffffffffffffffffffffffffffffffffffff168273ffffffffffffffffffffffffffffffffffffffff1603611a0f573391505b7f000000000000000000000000000000000000000000000000000000000000000060105410611a3d57600080fd5b7f000000000000000000000000000000000000000000000000000000000000000060115410611a6b57600080fd5b60005b81811015611ad75760106000815480929190611a8990614a6d565b919050555060116000815480929190611aa190614a6d565b91905055508380611ab190614a6d565b945050611ac36000806000878761280f565b508080611acf90614a6d565b915050611a6e565b50505050565b7f000000000000000000000000000000000000000000000000000000000000000081565b611b12611b0c612298565b83612389565b611b51576040517f08c379a0000000000000000000000000000000000000000000000000000000008152600401611b489061488e565b60405180910390fd5b611b5d84848484612e25565b50505050565b6000611b6d6127c5565b6000600d8381548110611b8357611b826147ed565b5b906000526020600020906002020160405180610120016040529081600082015481526020016001820160009054906101000a900467ffffffffffffffff1667ffffffffffffffff1667ffffffffffffffff1681526020016001820160089054906101000a900467ffffffffffffffff1667ffffffffffffffff1667ffffffffffffffff1681526020016001820160109054906101000a900463ffffffff1663ffffffff1663ffffffff1681526020016001820160149054906101000a900463ffffffff1663ffffffff1663ffffffff1681526020016001820160189054906101000a900463ffffffff1663ffffffff1663ffffffff16815260200160018201601c9054906101000a900460ff1660ff1660ff16815260200160018201601d9054906101000a900460ff1660ff1660ff16815260200160018201601e9054906101000a900461ffff1661ffff1661ffff168152505090506000816020015167ffffffffffffffff1603611cf457600080fd5b611cfd81612e81565b611d0657600080fd5b60008160a0015163ffffffff1690506000600d8281548110611d2b57611d2a6147ed565b5b906000526020600020906002020160405180610120016040529081600082015481526020016001820160009054906101000a900467ffffffffffffffff1667ffffffffffffffff1667ffffffffffffffff1681526020016001820160089054906101000a900467ffffffffffffffff1667ffffffffffffffff1667ffffffffffffffff1681526020016001820160109054906101000a900463ffffffff1663ffffffff1663ffffffff1681526020016001820160149054906101000a900463ffffffff1663ffffffff1663ffffffff1681526020016001820160189054906101000a900463ffffffff1663ffffffff1663ffffffff16815260200160018201601c9054906101000a900460ff1660ff1660ff16815260200160018201601d9054906101000a900460ff1660ff1660ff16815260200160018201601e9054906101000a900461ffff1661ffff1661ffff168152505090506000836101000151905083610100015161ffff1682610100015161ffff161115611eae5781610100015190505b6000424433876000015141604051602001611ecd959493929190614c57565b6040516020818303038152906040528051906020012060001c905060008184600001518760000151611eff9190614cb6565b611f099190614cb6565b90506000611f16896124fb565b90506000611f418a8960a0015163ffffffff16600188611f369190614cea565b61ffff16868661280f565b9050600d8a81548110611f5757611f566147ed565b5b906000526020600020906002020160010160186101000a81549063ffffffff02191690558098505050505050505050919050565b6060611f968261224d565b6000611fa0612eb2565b90506000815111611fc05760405180602001604052806000815250611feb565b80611fca84612ec9565b604051602001611fdb929190614d5c565b6040516020818303038152906040525b915050919050565b600d818154811061200357600080fd5b90600052602060002090600202016000915090508060000154908060010160009054906101000a900467ffffffffffffffff16908060010160089054906101000a900467ffffffffffffffff16908060010160109054906101000a900463ffffffff16908060010160149054906101000a900463ffffffff16908060010160189054906101000a900463ffffffff169080600101601c9054906101000a900460ff169080600101601d9054906101000a900460ff169080600101601e9054906101000a900461ffff16905089565b6000600760008473ffffffffffffffffffffffffffffffffffffffff1673ffffffffffffffffffffffffffffffffffffffff16815260200190815260200160002060008373ffffffffffffffffffffffffffffffffffffffff1673ffffffffffffffffffffffffffffffffffffffff16815260200190815260200160002060009054906101000a900460ff16905092915050565b60115481565b60007f80ac58cd000000000000000000000000000000000000000000000000000000007bffffffffffffffffffffffffffffffffffffffffffffffffffffffff1916827bffffffffffffffffffffffffffffffffffffffffffffffffffffffff1916148061223657507f5b5e139f000000000000000000000000000000000000000000000000000000007bffffffffffffffffffffffffffffffffffffffffffffffffffffffff1916827bffffffffffffffffffffffffffffffffffffffffffffffffffffffff1916145b80612246575061224582612f97565b5b9050919050565b61225681613001565b612295576040517f08c379a000000000000000000000000000000000000000000000000000000000815260040161228c90614a1e565b60405180910390fd5b50565b600033905090565b816006600083815260200190815260200160002060006101000a81548173ffffffffffffffffffffffffffffffffffffffff021916908373ffffffffffffffffffffffffffffffffffffffff160217905550808273ffffffffffffffffffffffffffffffffffffffff1661231383610f9f565b73ffffffffffffffffffffffffffffffffffffffff167f8c5be1e5ebec7d5bd14f71427d1e84f3dd0314c0f7b2291e5b200ac8c7c3b92560405160405180910390a45050565b6000808260a0015163ffffffff16148015612382575042826040015167ffffffffffffffff1611155b9050919050565b60008061239583610f9f565b90508073ffffffffffffffffffffffffffffffffffffffff168473ffffffffffffffffffffffffffffffffffffffff1614806123d757506123d681856120d1565b5b8061241557508373ffffffffffffffffffffffffffffffffffffffff166123fd8461086f565b73ffffffffffffffffffffffffffffffffffffffff16145b91505092915050565b600073ffffffffffffffffffffffffffffffffffffffff168373ffffffffffffffffffffffffffffffffffffffff161461248957600e600082815260200190815260200160002060006101000a81549073ffffffffffffffffffffffffffffffffffffffff02191690555b612494838383613042565b505050565b6124a161333b565b60008060006101000a81548160ff0219169083151502179055507f5db9ee0a495bf2e6ff9c91a7834c1ba4fdd244a5e8aa4e537bd38aeae4b073aa6124e4612298565b6040516124f19190614108565b60405180910390a1565b60006004600083815260200190815260200160002060009054906101000a900473ffffffffffffffffffffffffffffffffffffffff169050919050565b600081840361254a5760009050612744565b818560010160109054906101000a900463ffffffff1663ffffffff16148061258b5750818560010160149054906101000a900463ffffffff1663ffffffff16145b156125995760009050612744565b838360010160109054906101000a900463ffffffff1663ffffffff1614806125da5750838360010160149054906101000a900463ffffffff1663ffffffff16145b156125e85760009050612744565b60008360010160109054906101000a900463ffffffff1663ffffffff16148061262b575060008560010160109054906101000a900463ffffffff1663ffffffff16145b156126395760019050612744565b8460010160109054906101000a900463ffffffff1663ffffffff168360010160109054906101000a900463ffffffff1663ffffffff1614806126ae57508460010160149054906101000a900463ffffffff1663ffffffff168360010160109054906101000a900463ffffffff1663ffffffff16145b156126bc5760009050612744565b8460010160109054906101000a900463ffffffff1663ffffffff168360010160149054906101000a900463ffffffff1663ffffffff16148061273157508460010160149054906101000a900463ffffffff1663ffffffff168360010160149054906101000a900463ffffffff1663ffffffff16145b1561273f5760009050612744565b600190505b949350505050565b600080612758836124fb565b90508073ffffffffffffffffffffffffffffffffffffffff16600e600086815260200190815260200160002060009054906101000a900473ffffffffffffffffffffffffffffffffffffffff1673ffffffffffffffffffffffffffffffffffffffff161491505092915050565b6127cd610f56565b1561280d576040517f08c379a000000000000000000000000000000000000000000000000000000000815260040161280490614dcc565b60405180910390fd5b565b600063ffffffff801686111561282457600080fd5b63ffffffff801685111561283757600080fd5b63ffffffff801684111561284a57600080fd5b60006040518061012001604052808581526020014267ffffffffffffffff168152602001600067ffffffffffffffff1681526020018863ffffffff1681526020018763ffffffff168152602001600063ffffffff168152602001600060ff168152602001600060ff1681526020018661ffff168152509050600d8190806001815401808255809150506001900390600052602060002090600202016000909190919091506000820151816000015560208201518160010160006101000a81548167ffffffffffffffff021916908367ffffffffffffffff16021790555060408201518160010160086101000a81548167ffffffffffffffff021916908367ffffffffffffffff16021790555060608201518160010160106101000a81548163ffffffff021916908363ffffffff16021790555060808201518160010160146101000a81548163ffffffff021916908363ffffffff16021790555060a08201518160010160186101000a81548163ffffffff021916908363ffffffff16021790555060c082015181600101601c6101000a81548160ff021916908360ff16021790555060e082015181600101601d6101000a81548160ff021916908360ff16021790555061010082015181600101601e6101000a81548161ffff021916908361ffff160217905550505060006001600d80549050612a479190614dec565b905063ffffffff8016811115612a5c57600080fd5b8373ffffffffffffffffffffffffffffffffffffffff167f14cb614758d3c982e9d2ae0ad129c2c2bdb4c5ba841155dced7bed1a27834de782846060015163ffffffff16856080015163ffffffff168660000151604051612ac09493929190614e20565b60405180910390a2612ad28482613384565b809250505095945050505050565b6000612aeb82610f9f565b73ffffffffffffffffffffffffffffffffffffffff168373ffffffffffffffffffffffffffffffffffffffff1614905092915050565b612b296127c5565b60016000806101000a81548160ff0219169083151502179055507f62e78cea01bee320cd4e420270b5ea74000d11b0c9f74754ebdbfc544b05a258612b6c612298565b604051612b799190614108565b60405180910390a1565b6000600d8281548110612b9957612b986147ed565b5b906000526020600020906002020190506000600d8481548110612bbf57612bbe6147ed565b5b90600052602060002090600202019050828160010160186101000a81548163ffffffff021916908363ffffffff160217905550612bfb826133a2565b612c04816133a2565b600e600085815260200190815260200160002060006101000a81549073ffffffffffffffffffffffffffffffffffffffff0219169055600e600084815260200190815260200160002060006101000a81549073ffffffffffffffffffffffffffffffffffffffff02191690557fb57bb8abbb44a6cff7417131e5eb1d3703a22072a6985e3ff6c653fc91056bb1612c9a856124fb565b8585604051612cab93929190614e65565b60405180910390a150505050565b8173ffffffffffffffffffffffffffffffffffffffff168373ffffffffffffffffffffffffffffffffffffffff1603612d27576040517f08c379a0000000000000000000000000000000000000000000000000000000008152600401612d1e90614ee8565b60405180910390fd5b80600760008573ffffffffffffffffffffffffffffffffffffffff1673ffffffffffffffffffffffffffffffffffffffff16815260200190815260200160002060008473ffffffffffffffffffffffffffffffffffffffff1673ffffffffffffffffffffffffffffffffffffffff16815260200190815260200160002060006101000a81548160ff0219169083151502179055508173ffffffffffffffffffffffffffffffffffffffff168373ffffffffffffffffffffffffffffffffffffffff167f17307eab39ab6107e8899845ad3d59bd9653f200f220920489ca2b5937696c3183604051612e189190613f6d565b60405180910390a3505050565b612e3084848461241e565b612e3c848484846134d4565b612e7b576040517f08c379a0000000000000000000000000000000000000000000000000000000008152600401612e7290614f7a565b60405180910390fd5b50505050565b6000808260a0015163ffffffff1614158015612eab575042826040015167ffffffffffffffff1611155b9050919050565b606060405180602001604052806000815250905090565b606060006001612ed88461365b565b01905060008167ffffffffffffffff811115612ef757612ef6614392565b5b6040519080825280601f01601f191660200182016040528015612f295781602001600182028036833780820191505090505b509050600082602001820190505b600115612f8c578080600190039150507f3031323334353637383961626364656600000000000000000000000000000000600a86061a8153600a8581612f8057612f7f614f9a565b5b04945060008503612f37575b819350505050919050565b60007f01ffc9a7000000000000000000000000000000000000000000000000000000007bffffffffffffffffffffffffffffffffffffffffffffffffffffffff1916827bffffffffffffffffffffffffffffffffffffffffffffffffffffffff1916149050919050565b60008073ffffffffffffffffffffffffffffffffffffffff16613023836124fb565b73ffffffffffffffffffffffffffffffffffffffff1614159050919050565b8273ffffffffffffffffffffffffffffffffffffffff1661306282610f9f565b73ffffffffffffffffffffffffffffffffffffffff16146130b8576040517f08c379a00000000000000000000000000000000000000000000000000000000081526004016130af9061503b565b60405180910390fd5b600073ffffffffffffffffffffffffffffffffffffffff168273ffffffffffffffffffffffffffffffffffffffff1603613127576040517f08c379a000000000000000000000000000000000000000000000000000000000815260040161311e906150cd565b60405180910390fd5b61313483838360016137ae565b8273ffffffffffffffffffffffffffffffffffffffff1661315482610f9f565b73ffffffffffffffffffffffffffffffffffffffff16146131aa576040517f08c379a00000000000000000000000000000000000000000000000000000000081526004016131a19061503b565b60405180910390fd5b6006600082815260200190815260200160002060006101000a81549073ffffffffffffffffffffffffffffffffffffffff02191690556001600560008573ffffffffffffffffffffffffffffffffffffffff1673ffffffffffffffffffffffffffffffffffffffff168152602001908152602001600020600082825403925050819055506001600560008473ffffffffffffffffffffffffffffffffffffffff1673ffffffffffffffffffffffffffffffffffffffff16815260200190815260200160002060008282540192505081905550816004600083815260200190815260200160002060006101000a81548173ffffffffffffffffffffffffffffffffffffffff021916908373ffffffffffffffffffffffffffffffffffffffff160217905550808273ffffffffffffffffffffffffffffffffffffffff168473ffffffffffffffffffffffffffffffffffffffff167fddf252ad1be2c89b69c2b068fc378daa952ba7f163c4a11628f55a4df523b3ef60405160405180910390a4613336838383600161390c565b505050565b613343610f56565b613382576040517f08c379a000000000000000000000000000000000000000000000000000000000815260040161337990615139565b60405180910390fd5b565b61339e828260405180602001604052806000815250613912565b5050565b600c81600101601c9054906101000a900460ff1660ff16600881106133ca576133c96147ed565b5b600891828204019190066004029054906101000a900463ffffffff1663ffffffff16426133f79190614cb6565b8160010160086101000a81548167ffffffffffffffff021916908367ffffffffffffffff160217905550600581600101601c9054906101000a900460ff1660ff161080156134595750600381600101601d9054906101000a900460ff1660ff16105b156134d157600181600101601c8282829054906101000a900460ff1661347f9190615159565b92506101000a81548160ff021916908360ff160217905550600181600101601d8282829054906101000a900460ff166134b89190615159565b92506101000a81548160ff021916908360ff1602179055505b50565b60006134f58473ffffffffffffffffffffffffffffffffffffffff1661396d565b1561364e578373ffffffffffffffffffffffffffffffffffffffff1663150b7a0261351e612298565b8786866040518563ffffffff1660e01b815260040161354094939291906151e3565b6020604051808303816000875af192505050801561357c57506040513d601f19601f820116820180604052508101906135799190615244565b60015b6135fe573d80600081146135ac576040519150601f19603f3d011682016040523d82523d6000602084013e6135b1565b606091505b5060008151036135f6576040517f08c379a00000000000000000000000000000000000000000000000000000000081526004016135ed90614f7a565b60405180910390fd5b805181602001fd5b63150b7a0260e01b7bffffffffffffffffffffffffffffffffffffffffffffffffffffffff1916817bffffffffffffffffffffffffffffffffffffffffffffffffffffffff191614915050613653565b600190505b949350505050565b600080600090507a184f03e93ff9f4daa797ed6e38ed64bf6a1f01000000000000000083106136b9577a184f03e93ff9f4daa797ed6e38ed64bf6a1f01000000000000000083816136af576136ae614f9a565b5b0492506040810190505b6d04ee2d6d415b85acef810000000083106136f6576d04ee2d6d415b85acef810000000083816136ec576136eb614f9a565b5b0492506020810190505b662386f26fc10000831061372557662386f26fc10000838161371b5761371a614f9a565b5b0492506010810190505b6305f5e100831061374e576305f5e100838161374457613743614f9a565b5b0492506008810190505b612710831061377357612710838161376957613768614f9a565b5b0492506004810190505b60648310613796576064838161378c5761378b614f9a565b5b0492506002810190505b600a83106137a5576001810190505b80915050919050565b6137ba84848484613990565b60018111156137fe576040517f08c379a00000000000000000000000000000000000000000000000000000000081526004016137f5906152e3565b60405180910390fd5b6000829050600073ffffffffffffffffffffffffffffffffffffffff168573ffffffffffffffffffffffffffffffffffffffff16036138455761384081613996565b613884565b8373ffffffffffffffffffffffffffffffffffffffff168573ffffffffffffffffffffffffffffffffffffffff16146138835761388285826139df565b5b5b600073ffffffffffffffffffffffffffffffffffffffff168473ffffffffffffffffffffffffffffffffffffffff16036138c6576138c181613b4c565b613905565b8473ffffffffffffffffffffffffffffffffffffffff168473ffffffffffffffffffffffffffffffffffffffff1614613904576139038482613c1d565b5b5b5050505050565b50505050565b61391c8383613c9c565b61392960008484846134d4565b613968576040517f08c379a000000000000000000000000000000000000000000000000000000000815260040161395f90614f7a565b60405180910390fd5b505050565b6000808273ffffffffffffffffffffffffffffffffffffffff163b119050919050565b50505050565b600a80549050600b600083815260200190815260200160002081905550600a81908060018154018082558091505060019003906000526020600020016000909190919091505550565b600060016139ec846111ee565b6139f69190614dec565b9050600060096000848152602001908152602001600020549050818114613adb576000600860008673ffffffffffffffffffffffffffffffffffffffff1673ffffffffffffffffffffffffffffffffffffffff168152602001908152602001600020600084815260200190815260200160002054905080600860008773ffffffffffffffffffffffffffffffffffffffff1673ffffffffffffffffffffffffffffffffffffffff168152602001908152602001600020600084815260200190815260200160002081905550816009600083815260200190815260200160002081905550505b6009600084815260200190815260200160002060009055600860008573ffffffffffffffffffffffffffffffffffffffff1673ffffffffffffffffffffffffffffffffffffffff16815260200190815260200160002060008381526020019081526020016000206000905550505050565b60006001600a80549050613b609190614dec565b90506000600b60008481526020019081526020016000205490506000600a8381548110613b9057613b8f6147ed565b5b9060005260206000200154905080600a8381548110613bb257613bb16147ed565b5b906000526020600020018190555081600b600083815260200190815260200160002081905550600b600085815260200190815260200160002060009055600a805480613c0157613c00615303565b5b6001900381819060005260206000200160009055905550505050565b6000613c28836111ee565b905081600860008573ffffffffffffffffffffffffffffffffffffffff1673ffffffffffffffffffffffffffffffffffffffff168152602001908152602001600020600083815260200190815260200160002081905550806009600084815260200190815260200160002081905550505050565b600073ffffffffffffffffffffffffffffffffffffffff168273ffffffffffffffffffffffffffffffffffffffff1603613d0b576040517f08c379a0000000000000000000000000000000000000000000000000000000008152600401613d029061537e565b60405180910390fd5b613d1481613001565b15613d54576040517f08c379a0000000000000000000000000000000000000000000000000000000008152600401613d4b906153ea565b60405180910390fd5b613d626000838360016137ae565b613d6b81613001565b15613dab576040517f08c379a0000000000000000000000000000000000000000000000000000000008152600401613da2906153ea565b60405180910390fd5b6001600560008473ffffffffffffffffffffffffffffffffffffffff1673ffffffffffffffffffffffffffffffffffffffff16815260200190815260200160002060008282540192505081905550816004600083815260200190815260200160002060006101000a81548173ffffffffffffffffffffffffffffffffffffffff021916908373ffffffffffffffffffffffffffffffffffffffff160217905550808273ffffffffffffffffffffffffffffffffffffffff16600073ffffffffffffffffffffffffffffffffffffffff167fddf252ad1be2c89b69c2b068fc378daa952ba7f163c4a11628f55a4df523b3ef60405160405180910390a4613eb560008383600161390c565b5050565b6000604051905090565b600080fd5b600080fd5b60007fffffffff0000000000000000000000000000000000000000000000000000000082169050919050565b613f0281613ecd565b8114613f0d57600080fd5b50565b600081359050613f1f81613ef9565b92915050565b600060208284031215613f3b57613f3a613ec3565b5b6000613f4984828501613f10565b91505092915050565b60008115159050919050565b613f6781613f52565b82525050565b6000602082019050613f826000830184613f5e565b92915050565b6000819050919050565b613f9b81613f88565b82525050565b6000602082019050613fb66000830184613f92565b92915050565b600081519050919050565b600082825260208201905092915050565b60005b83811015613ff6578082015181840152602081019050613fdb565b60008484015250505050565b6000601f19601f8301169050919050565b600061401e82613fbc565b6140288185613fc7565b9350614038818560208601613fd8565b61404181614002565b840191505092915050565b600060208201905081810360008301526140668184614013565b905092915050565b61407781613f88565b811461408257600080fd5b50565b6000813590506140948161406e565b92915050565b6000602082840312156140b0576140af613ec3565b5b60006140be84828501614085565b91505092915050565b600073ffffffffffffffffffffffffffffffffffffffff82169050919050565b60006140f2826140c7565b9050919050565b614102816140e7565b82525050565b600060208201905061411d60008301846140f9565b92915050565b61412c816140e7565b811461413757600080fd5b50565b60008135905061414981614123565b92915050565b6000806040838503121561416657614165613ec3565b5b60006141748582860161413a565b925050602061418585828601614085565b9150509250929050565b6000806000606084860312156141a8576141a7613ec3565b5b60006141b68682870161413a565b93505060206141c78682870161413a565b92505060406141d886828701614085565b9150509250925092565b6000602082840312156141f8576141f7613ec3565b5b60006142068482850161413a565b91505092915050565b6000806040838503121561422657614225613ec3565b5b600061423485828601614085565b925050602061424585828601614085565b9150509250929050565b6000806040838503121561426657614265613ec3565b5b600061427485828601614085565b92505060206142858582860161413a565b9150509250929050565b600063ffffffff82169050919050565b6142a88161428f565b82525050565b60006020820190506142c3600083018461429f565b92915050565b6142d281613f52565b81146142dd57600080fd5b50565b6000813590506142ef816142c9565b92915050565b6000806040838503121561430c5761430b613ec3565b5b600061431a8582860161413a565b925050602061432b858286016142e0565b9150509250929050565b60008060006060848603121561434e5761434d613ec3565b5b600061435c86828701614085565b935050602061436d8682870161413a565b925050604061437e86828701614085565b9150509250925092565b600080fd5b600080fd5b7f4e487b7100000000000000000000000000000000000000000000000000000000600052604160045260246000fd5b6143ca82614002565b810181811067ffffffffffffffff821117156143e9576143e8614392565b5b80604052505050565b60006143fc613eb9565b905061440882826143c1565b919050565b600067ffffffffffffffff82111561442857614427614392565b5b61443182614002565b9050602081019050919050565b82818337600083830152505050565b600061446061445b8461440d565b6143f2565b90508281526020810184848401111561447c5761447b61438d565b5b61448784828561443e565b509392505050565b600082601f8301126144a4576144a3614388565b5b81356144b484826020860161444d565b91505092915050565b600080600080608085870312156144d7576144d6613ec3565b5b60006144e58782880161413a565b94505060206144f68782880161413a565b935050604061450787828801614085565b925050606085013567ffffffffffffffff81111561452857614527613ec8565b5b6145348782880161448f565b91505092959194509250565b600067ffffffffffffffff82169050919050565b61455d81614540565b82525050565b600060ff82169050919050565b61457981614563565b82525050565b600061ffff82169050919050565b6145968161457f565b82525050565b6000610120820190506145b2600083018c613f92565b6145bf602083018b614554565b6145cc604083018a614554565b6145d9606083018961429f565b6145e6608083018861429f565b6145f360a083018761429f565b61460060c0830186614570565b61460d60e0830185614570565b61461b61010083018461458d565b9a9950505050505050505050565b600080604083850312156146405761463f613ec3565b5b600061464e8582860161413a565b925050602061465f8582860161413a565b9150509250929050565b7f4e487b7100000000000000000000000000000000000000000000000000000000600052602260045260246000fd5b600060028204905060018216806146b057607f821691505b6020821081036146c3576146c2614669565b5b50919050565b7f4552433732313a20617070726f76616c20746f2063757272656e74206f776e6560008201527f7200000000000000000000000000000000000000000000000000000000000000602082015250565b6000614725602183613fc7565b9150614730826146c9565b604082019050919050565b6000602082019050818103600083015261475481614718565b9050919050565b7f4552433732313a20617070726f76652063616c6c6572206973206e6f7420746f60008201527f6b656e206f776e6572206f7220617070726f76656420666f7220616c6c000000602082015250565b60006147b7603d83613fc7565b91506147c28261475b565b604082019050919050565b600060208201905081810360008301526147e6816147aa565b9050919050565b7f4e487b7100000000000000000000000000000000000000000000000000000000600052603260045260246000fd5b7f4552433732313a2063616c6c6572206973206e6f7420746f6b656e206f776e6560008201527f72206f7220617070726f76656400000000000000000000000000000000000000602082015250565b6000614878602d83613fc7565b91506148838261481c565b604082019050919050565b600060208201905081810360008301526148a78161486b565b9050919050565b7f455243373231456e756d657261626c653a206f776e657220696e646578206f7560008201527f74206f6620626f756e6473000000000000000000000000000000000000000000602082015250565b600061490a602b83613fc7565b9150614915826148ae565b604082019050919050565b60006020820190508181036000830152614939816148fd565b9050919050565b7f455243373231456e756d657261626c653a20676c6f62616c20696e646578206f60008201527f7574206f6620626f756e64730000000000000000000000000000000000000000602082015250565b600061499c602c83613fc7565b91506149a782614940565b604082019050919050565b600060208201905081810360008301526149cb8161498f565b9050919050565b7f4552433732313a20696e76616c696420746f6b656e2049440000000000000000600082015250565b6000614a08601883613fc7565b9150614a13826149d2565b602082019050919050565b60006020820190508181036000830152614a37816149fb565b9050919050565b7f4e487b7100000000000000000000000000000000000000000000000000000000600052601160045260246000fd5b6000614a7882613f88565b91507fffffffffffffffffffffffffffffffffffffffffffffffffffffffffffffffff8203614aaa57614aa9614a3e565b5b600182019050919050565b7f4552433732313a2061646472657373207a65726f206973206e6f74206120766160008201527f6c6964206f776e65720000000000000000000000000000000000000000000000602082015250565b6000614b11602983613fc7565b9150614b1c82614ab5565b604082019050919050565b60006020820190508181036000830152614b4081614b04565b9050919050565b7f596f7520616c7265616479206d696e742062756d6d7900000000000000000000600082015250565b6000614b7d601683613fc7565b9150614b8882614b47565b602082019050919050565b60006020820190508181036000830152614bac81614b70565b9050919050565b6000819050919050565b614bce614bc982613f88565b614bb3565b82525050565b60008160601b9050919050565b6000614bec82614bd4565b9050919050565b6000614bfe82614be1565b9050919050565b614c16614c11826140e7565b614bf3565b82525050565b6000614c27826140c7565b9050919050565b6000614c3982614be1565b9050919050565b614c51614c4c82614c1c565b614c2e565b82525050565b6000614c638288614bbd565b602082019150614c738287614bbd565b602082019150614c838286614c05565b601482019150614c938285614bbd565b602082019150614ca38284614c40565b6014820191508190509695505050505050565b6000614cc182613f88565b9150614ccc83613f88565b9250828201905080821115614ce457614ce3614a3e565b5b92915050565b6000614cf58261457f565b9150614d008361457f565b9250828201905061ffff811115614d1a57614d19614a3e565b5b92915050565b600081905092915050565b6000614d3682613fbc565b614d408185614d20565b9350614d50818560208601613fd8565b80840191505092915050565b6000614d688285614d2b565b9150614d748284614d2b565b91508190509392505050565b7f5061757361626c653a2070617573656400000000000000000000000000000000600082015250565b6000614db6601083613fc7565b9150614dc182614d80565b602082019050919050565b60006020820190508181036000830152614de581614da9565b9050919050565b6000614df782613f88565b9150614e0283613f88565b9250828203905081811115614e1a57614e19614a3e565b5b92915050565b6000608082019050614e356000830187613f92565b614e426020830186613f92565b614e4f6040830185613f92565b614e5c6060830184613f92565b95945050505050565b6000606082019050614e7a60008301866140f9565b614e876020830185613f92565b614e946040830184613f92565b949350505050565b7f4552433732313a20617070726f766520746f2063616c6c657200000000000000600082015250565b6000614ed2601983613fc7565b9150614edd82614e9c565b602082019050919050565b60006020820190508181036000830152614f0181614ec5565b9050919050565b7f4552433732313a207472616e7366657220746f206e6f6e20455243373231526560008201527f63656976657220696d706c656d656e7465720000000000000000000000000000602082015250565b6000614f64603283613fc7565b9150614f6f82614f08565b604082019050919050565b60006020820190508181036000830152614f9381614f57565b9050919050565b7f4e487b7100000000000000000000000000000000000000000000000000000000600052601260045260246000fd5b7f4552433732313a207472616e736665722066726f6d20696e636f72726563742060008201527f6f776e6572000000000000000000000000000000000000000000000000000000602082015250565b6000615025602583613fc7565b915061503082614fc9565b604082019050919050565b6000602082019050818103600083015261505481615018565b9050919050565b7f4552433732313a207472616e7366657220746f20746865207a65726f2061646460008201527f7265737300000000000000000000000000000000000000000000000000000000602082015250565b60006150b7602483613fc7565b91506150c28261505b565b604082019050919050565b600060208201905081810360008301526150e6816150aa565b9050919050565b7f5061757361626c653a206e6f7420706175736564000000000000000000000000600082015250565b6000615123601483613fc7565b915061512e826150ed565b602082019050919050565b6000602082019050818103600083015261515281615116565b9050919050565b600061516482614563565b915061516f83614563565b9250828201905060ff81111561518857615187614a3e565b5b92915050565b600081519050919050565b600082825260208201905092915050565b60006151b58261518e565b6151bf8185615199565b93506151cf818560208601613fd8565b6151d881614002565b840191505092915050565b60006080820190506151f860008301876140f9565b61520560208301866140f9565b6152126040830185613f92565b818103606083015261522481846151aa565b905095945050505050565b60008151905061523e81613ef9565b92915050565b60006020828403121561525a57615259613ec3565b5b60006152688482850161522f565b91505092915050565b7f455243373231456e756d657261626c653a20636f6e736563757469766520747260008201527f616e7366657273206e6f7420737570706f727465640000000000000000000000602082015250565b60006152cd603583613fc7565b91506152d882615271565b604082019050919050565b600060208201905081810360008301526152fc816152c0565b9050919050565b7f4e487b7100000000000000000000000000000000000000000000000000000000600052603160045260246000fd5b7f4552433732313a206d696e7420746f20746865207a65726f2061646472657373600082015250565b6000615368602083613fc7565b915061537382615332565b602082019050919050565b600060208201905081810360008301526153978161535b565b9050919050565b7f4552433732313a20746f6b656e20616c7265616479206d696e74656400000000600082015250565b60006153d4601c83613fc7565b91506153df8261539e565b602082019050919050565b60006020820190508181036000830152615403816153c7565b905091905056fea2646970667358221220fa17215cd18df3279e43db6294326062799bab6e955419dd373e2484a53c06e264736f6c63430008110033",
  "linkReferences": {},
  "deployedLinkReferences": {}
}