{
  "_format": "hh-sol-artifact-1",
  "contractName": "BummyMinting",
  "sourceName": "contracts/BummyMinting.sol",
  "abi": [
    {
      "anonymous": false,
      "inputs": [
        {
          "indexed": true,
          "internalType": "address",
          "name": "owner",
          "type": "address"
        },
        {
          "indexed": true,
          "internalType": "address",
          "name": "approved",
          "type": "address"
        },
        {
          "indexed": true,
          "internalType": "uint256",
          "name": "tokenId",
          "type": "uint256"
        }
      ],
      "name": "Approval",
      "type": "event"
    },
    {
      "anonymous": false,
      "inputs": [
        {
          "indexed": true,
          "internalType": "address",
          "name": "owner",
          "type": "address"
        },
        {
          "indexed": true,
          "internalType": "address",
          "name": "operator",
          "type": "address"
        },
        {
          "indexed": false,
          "internalType": "bool",
          "name": "approved",
          "type": "bool"
        }
      ],
      "name": "ApprovalForAll",
      "type": "event"
    },
    {
      "anonymous": false,
      "inputs": [
        {
          "indexed": false,
          "internalType": "address",
          "name": "owner",
          "type": "address"
        },
        {
          "indexed": false,
          "internalType": "uint256",
          "name": "momId",
          "type": "uint256"
        },
        {
          "indexed": false,
          "internalType": "uint256",
          "name": "dadId",
          "type": "uint256"
        }
      ],
      "name": "Cheering",
      "type": "event"
    },
    {
      "anonymous": false,
      "inputs": [
        {
          "indexed": true,
          "internalType": "address",
          "name": "owner",
          "type": "address"
        },
        {
          "indexed": false,
          "internalType": "uint256",
          "name": "BummyId",
          "type": "uint256"
        },
        {
          "indexed": false,
          "internalType": "uint256",
          "name": "momId",
          "type": "uint256"
        },
        {
          "indexed": false,
          "internalType": "uint256",
          "name": "dadId",
          "type": "uint256"
        },
        {
          "indexed": false,
          "internalType": "uint256",
          "name": "genes",
          "type": "uint256"
        }
      ],
      "name": "Invite",
      "type": "event"
    },
    {
      "anonymous": false,
      "inputs": [
        {
          "indexed": false,
          "internalType": "address",
          "name": "account",
          "type": "address"
        }
      ],
      "name": "Paused",
      "type": "event"
    },
    {
      "anonymous": false,
      "inputs": [
        {
          "indexed": true,
          "internalType": "address",
          "name": "from",
          "type": "address"
        },
        {
          "indexed": true,
          "internalType": "address",
          "name": "to",
          "type": "address"
        },
        {
          "indexed": true,
          "internalType": "uint256",
          "name": "tokenId",
          "type": "uint256"
        }
      ],
      "name": "Transfer",
      "type": "event"
    },
    {
      "anonymous": false,
      "inputs": [
        {
          "indexed": false,
          "internalType": "address",
          "name": "account",
          "type": "address"
        }
      ],
      "name": "Unpaused",
      "type": "event"
    },
    {
      "inputs": [
        {
          "internalType": "address",
          "name": "to",
          "type": "address"
        },
        {
          "internalType": "uint256",
          "name": "tokenId",
          "type": "uint256"
        }
      ],
      "name": "approve",
      "outputs": [],
      "stateMutability": "nonpayable",
      "type": "function"
    },
    {
      "inputs": [
        {
          "internalType": "address",
          "name": "_addr",
          "type": "address"
        },
        {
          "internalType": "uint256",
          "name": "_dadId",
          "type": "uint256"
        }
      ],
      "name": "approveCheering",
      "outputs": [],
      "stateMutability": "nonpayable",
      "type": "function"
    },
    {
      "inputs": [
        {
          "internalType": "address",
          "name": "owner",
          "type": "address"
        }
      ],
      "name": "balanceOf",
      "outputs": [
        {
          "internalType": "uint256",
          "name": "",
          "type": "uint256"
        }
      ],
      "stateMutability": "view",
      "type": "function"
    },
    {
      "inputs": [
        {
          "internalType": "uint256",
          "name": "_momId",
          "type": "uint256"
        },
        {
          "internalType": "uint256",
          "name": "_dadId",
          "type": "uint256"
        }
      ],
      "name": "canCheerWith",
      "outputs": [
        {
          "internalType": "bool",
          "name": "",
          "type": "bool"
        }
      ],
      "stateMutability": "view",
      "type": "function"
    },
    {
      "inputs": [],
      "name": "ceoAddress",
      "outputs": [
        {
          "internalType": "address",
          "name": "",
          "type": "address"
        }
      ],
      "stateMutability": "view",
      "type": "function"
    },
    {
      "inputs": [],
      "name": "cfoAddress",
      "outputs": [
        {
          "internalType": "address",
          "name": "",
          "type": "address"
        }
      ],
      "stateMutability": "view",
      "type": "function"
    },
    {
      "inputs": [
        {
          "internalType": "uint256",
          "name": "",
          "type": "uint256"
        }
      ],
      "name": "cheerAllowedToAddress",
      "outputs": [
        {
          "internalType": "address",
          "name": "",
          "type": "address"
        }
      ],
      "stateMutability": "view",
      "type": "function"
    },
    {
      "inputs": [
        {
          "internalType": "uint256",
          "name": "_momId",
          "type": "uint256"
        },
        {
          "internalType": "uint256",
          "name": "_dadId",
          "type": "uint256"
        }
      ],
      "name": "cheerWith",
      "outputs": [],
      "stateMutability": "nonpayable",
      "type": "function"
    },
    {
      "inputs": [],
      "name": "cooAddress",
      "outputs": [
        {
          "internalType": "address",
          "name": "",
          "type": "address"
        }
      ],
      "stateMutability": "view",
      "type": "function"
    },
    {
      "inputs": [
        {
          "internalType": "uint256",
          "name": "",
          "type": "uint256"
        }
      ],
      "name": "cooldowns",
      "outputs": [
        {
          "internalType": "uint32",
          "name": "",
          "type": "uint32"
        }
      ],
      "stateMutability": "view",
      "type": "function"
    },
    {
      "inputs": [],
      "name": "createFirstGen0Bummy",
      "outputs": [],
      "stateMutability": "nonpayable",
      "type": "function"
    },
    {
      "inputs": [
        {
          "internalType": "uint256",
          "name": "_genes",
          "type": "uint256"
        },
        {
          "internalType": "address",
          "name": "_owner",
          "type": "address"
        }
      ],
      "name": "createPromoBummy",
      "outputs": [],
      "stateMutability": "nonpayable",
      "type": "function"
    },
    {
      "inputs": [],
      "name": "gen0CreatedCount",
      "outputs": [
        {
          "internalType": "uint256",
          "name": "",
          "type": "uint256"
        }
      ],
      "stateMutability": "view",
      "type": "function"
    },
    {
      "inputs": [],
      "name": "gen0CreationLimit",
      "outputs": [
        {
          "internalType": "uint256",
          "name": "",
          "type": "uint256"
        }
      ],
      "stateMutability": "view",
      "type": "function"
    },
    {
      "inputs": [
        {
          "internalType": "uint256",
          "name": "tokenId",
          "type": "uint256"
        }
      ],
      "name": "getApproved",
      "outputs": [
        {
          "internalType": "address",
          "name": "",
          "type": "address"
        }
      ],
      "stateMutability": "view",
      "type": "function"
    },
    {
      "inputs": [
        {
          "internalType": "uint256",
          "name": "_momId",
          "type": "uint256"
        }
      ],
      "name": "inviteFriend",
      "outputs": [
        {
          "internalType": "uint256",
          "name": "",
          "type": "uint256"
        }
      ],
      "stateMutability": "nonpayable",
      "type": "function"
    },
    {
      "inputs": [
        {
          "internalType": "address",
          "name": "owner",
          "type": "address"
        },
        {
          "internalType": "address",
          "name": "operator",
          "type": "address"
        }
      ],
      "name": "isApprovedForAll",
      "outputs": [
        {
          "internalType": "bool",
          "name": "",
          "type": "bool"
        }
      ],
      "stateMutability": "view",
      "type": "function"
    },
    {
      "inputs": [
        {
          "internalType": "uint256",
          "name": "_bummyId",
          "type": "uint256"
        }
      ],
      "name": "isReadyToCheer",
      "outputs": [
        {
          "internalType": "bool",
          "name": "",
          "type": "bool"
        }
      ],
      "stateMutability": "view",
      "type": "function"
    },
    {
      "inputs": [],
      "name": "name",
      "outputs": [
        {
          "internalType": "string",
          "name": "",
          "type": "string"
        }
      ],
      "stateMutability": "view",
      "type": "function"
    },
    {
      "inputs": [
        {
          "internalType": "uint256",
          "name": "tokenId",
          "type": "uint256"
        }
      ],
      "name": "ownerOf",
      "outputs": [
        {
          "internalType": "address",
          "name": "",
          "type": "address"
        }
      ],
      "stateMutability": "view",
      "type": "function"
    },
    {
      "inputs": [],
      "name": "pause",
      "outputs": [],
      "stateMutability": "nonpayable",
      "type": "function"
    },
    {
      "inputs": [],
      "name": "paused",
      "outputs": [
        {
          "internalType": "bool",
          "name": "",
          "type": "bool"
        }
      ],
      "stateMutability": "view",
      "type": "function"
    },
    {
      "inputs": [],
      "name": "promoCreatedCount",
      "outputs": [
        {
          "internalType": "uint256",
          "name": "",
          "type": "uint256"
        }
      ],
      "stateMutability": "view",
      "type": "function"
    },
    {
      "inputs": [],
      "name": "promoCreationLimit",
      "outputs": [
        {
          "internalType": "uint256",
          "name": "",
          "type": "uint256"
        }
      ],
      "stateMutability": "view",
      "type": "function"
    },
    {
      "inputs": [
        {
          "internalType": "uint256",
          "name": "_bummyId",
          "type": "uint256"
        },
        {
          "internalType": "address",
          "name": "_recipient",
          "type": "address"
        }
      ],
      "name": "rescueLostBummy",
      "outputs": [],
      "stateMutability": "nonpayable",
      "type": "function"
    },
    {
      "inputs": [
        {
          "internalType": "address",
          "name": "from",
          "type": "address"
        },
        {
          "internalType": "address",
          "name": "to",
          "type": "address"
        },
        {
          "internalType": "uint256",
          "name": "tokenId",
          "type": "uint256"
        }
      ],
      "name": "safeTransferFrom",
      "outputs": [],
      "stateMutability": "nonpayable",
      "type": "function"
    },
    {
      "inputs": [
        {
          "internalType": "address",
          "name": "from",
          "type": "address"
        },
        {
          "internalType": "address",
          "name": "to",
          "type": "address"
        },
        {
          "internalType": "uint256",
          "name": "tokenId",
          "type": "uint256"
        },
        {
          "internalType": "bytes",
          "name": "data",
          "type": "bytes"
        }
      ],
      "name": "safeTransferFrom",
      "outputs": [],
      "stateMutability": "nonpayable",
      "type": "function"
    },
    {
      "inputs": [
        {
          "internalType": "address",
          "name": "operator",
          "type": "address"
        },
        {
          "internalType": "bool",
          "name": "approved",
          "type": "bool"
        }
      ],
      "name": "setApprovalForAll",
      "outputs": [],
      "stateMutability": "nonpayable",
      "type": "function"
    },
    {
      "inputs": [
        {
          "internalType": "address",
          "name": "_newCEO",
          "type": "address"
        }
      ],
      "name": "setCEO",
      "outputs": [],
      "stateMutability": "nonpayable",
      "type": "function"
    },
    {
      "inputs": [
        {
          "internalType": "address",
          "name": "_newCOO",
          "type": "address"
        }
      ],
      "name": "setCOO",
      "outputs": [],
      "stateMutability": "nonpayable",
      "type": "function"
    },
    {
      "inputs": [
        {
          "internalType": "bytes4",
          "name": "interfaceId",
          "type": "bytes4"
        }
      ],
      "name": "supportsInterface",
      "outputs": [
        {
          "internalType": "bool",
          "name": "",
          "type": "bool"
        }
      ],
      "stateMutability": "view",
      "type": "function"
    },
    {
      "inputs": [],
      "name": "symbol",
      "outputs": [
        {
          "internalType": "string",
          "name": "",
          "type": "string"
        }
      ],
      "stateMutability": "view",
      "type": "function"
    },
    {
      "inputs": [
        {
          "internalType": "uint256",
          "name": "index",
          "type": "uint256"
        }
      ],
      "name": "tokenByIndex",
      "outputs": [
        {
          "internalType": "uint256",
          "name": "",
          "type": "uint256"
        }
      ],
      "stateMutability": "view",
      "type": "function"
    },
    {
      "inputs": [
        {
          "internalType": "address",
          "name": "owner",
          "type": "address"
        },
        {
          "internalType": "uint256",
          "name": "index",
          "type": "uint256"
        }
      ],
      "name": "tokenOfOwnerByIndex",
      "outputs": [
        {
          "internalType": "uint256",
          "name": "",
          "type": "uint256"
        }
      ],
      "stateMutability": "view",
      "type": "function"
    },
    {
      "inputs": [
        {
          "internalType": "uint256",
          "name": "tokenId",
          "type": "uint256"
        }
      ],
      "name": "tokenURI",
      "outputs": [
        {
          "internalType": "string",
          "name": "",
          "type": "string"
        }
      ],
      "stateMutability": "view",
      "type": "function"
    },
    {
      "inputs": [],
      "name": "totalSupply",
      "outputs": [
        {
          "internalType": "uint256",
          "name": "",
          "type": "uint256"
        }
      ],
      "stateMutability": "view",
      "type": "function"
    },
    {
      "inputs": [
        {
          "internalType": "address",
          "name": "from",
          "type": "address"
        },
        {
          "internalType": "address",
          "name": "to",
          "type": "address"
        },
        {
          "internalType": "uint256",
          "name": "tokenId",
          "type": "uint256"
        }
      ],
      "name": "transferFrom",
      "outputs": [],
      "stateMutability": "nonpayable",
      "type": "function"
    },
    {
      "inputs": [],
      "name": "unpause",
      "outputs": [],
      "stateMutability": "nonpayable",
      "type": "function"
    }
  ],
  "bytecode": "0x60806040526040518060400160405280600881526020017f42756d6d794e4654000000000000000000000000000000000000000000000000815250600d90816200004a919062000615565b506040518060400160405280600281526020017f4256000000000000000000000000000000000000000000000000000000000000815250600e908162000091919062000615565b50604051806101000160405280603c63ffffffff1663ffffffff168152602001607863ffffffff1663ffffffff16815260200161012c63ffffffff1663ffffffff16815260200161025863ffffffff1663ffffffff16815260200161070863ffffffff1663ffffffff168152602001610e1063ffffffff1663ffffffff168152602001611c2063ffffffff1663ffffffff16815260200161384063ffffffff1663ffffffff16815250600f9060086200014c929190620002d2565b5060646013556101f46014553480156200016557600080fd5b50600d8054620001759062000404565b80601f0160208091040260200160405190810160405280929190818152602001828054620001a39062000404565b8015620001f45780601f10620001c857610100808354040283529160200191620001f4565b820191906000526020600020905b815481529060010190602001808311620001d657829003601f168201915b5050505050600e8054620002089062000404565b80601f0160208091040260200160405190810160405280929190818152602001828054620002369062000404565b8015620002875780601f106200025b5761010080835404028352916020019162000287565b820191906000526020600020905b8154815290600101906020018083116200026957829003601f168201915b505050505060008060006101000a81548160ff0219169083151502179055508160039081620002b7919062000615565b508060049081620002c9919062000615565b505050620006fc565b826008600701600890048101928215620003695791602002820160005b838211156200033557835183826101000a81548163ffffffff021916908363ffffffff1602179055509260200192600401602081600301049283019260010302620002ef565b8015620003675782816101000a81549063ffffffff021916905560040160208160030104928301926001030262000335565b505b5090506200037891906200037c565b5090565b5b80821115620003975760008160009055506001016200037d565b5090565b600081519050919050565b7f4e487b7100000000000000000000000000000000000000000000000000000000600052604160045260246000fd5b7f4e487b7100000000000000000000000000000000000000000000000000000000600052602260045260246000fd5b600060028204905060018216806200041d57607f821691505b602082108103620004335762000432620003d5565b5b50919050565b60008190508160005260206000209050919050565b60006020601f8301049050919050565b600082821b905092915050565b6000600883026200049d7fffffffffffffffffffffffffffffffffffffffffffffffffffffffffffffffff826200045e565b620004a986836200045e565b95508019841693508086168417925050509392505050565b6000819050919050565b6000819050919050565b6000620004f6620004f0620004ea84620004c1565b620004cb565b620004c1565b9050919050565b6000819050919050565b6200051283620004d5565b6200052a6200052182620004fd565b8484546200046b565b825550505050565b600090565b6200054162000532565b6200054e81848462000507565b505050565b5b8181101562000576576200056a60008262000537565b60018101905062000554565b5050565b601f821115620005c5576200058f8162000439565b6200059a846200044e565b81016020851015620005aa578190505b620005c2620005b9856200044e565b83018262000553565b50505b505050565b600082821c905092915050565b6000620005ea60001984600802620005ca565b1980831691505092915050565b6000620006058383620005d7565b9150826002028217905092915050565b62000620826200039b565b67ffffffffffffffff8111156200063c576200063b620003a6565b5b62000648825462000404565b620006558282856200057a565b600060209050601f8311600181146200068d576000841562000678578287015190505b620006848582620005f7565b865550620006f4565b601f1984166200069d8662000439565b60005b82811015620006c757848901518255600182019150602085019450602081019050620006a0565b86831015620006e75784890151620006e3601f891682620005d7565b8355505b6001600288020188555050505b505050505050565b615028806200070c6000396000f3fe608060405234801561001057600080fd5b50600436106102325760003560e01c80636352211e116101305780639d586663116100b8578063b88d4fde1161007c578063b88d4fde14610679578063c7b6b43614610695578063c87b56dd146106c5578063e985e9c5146106f5578063f1ca94101461072557610232565b80639d586663146105d55780639d6fac6f146105f1578063a22cb46514610621578063b047fb501461063d578063b53193351461065b57610232565b80637814da8e116100ff5780637814da8e1461056b5780638456cb5914610587578063851d9a521461059157806395d89b41146105ad57806397ae4898146105cb57610232565b80636352211e146104bf57806364bee5e5146104ef578063684aa7ae1461051f57806370a082311461053b57610232565b806323b872dd116101be578063404d0e3e11610182578063404d0e3e1461040757806342842e0e146104255780634f6ccce7146104415780635c975abb146104715780635edbf3601461048f57610232565b806323b872dd1461037957806327d7874c146103955780632ba73c15146103b15780632f745c59146103cd5780633f4ba83a146103fd57610232565b8063081812fc11610205578063081812fc146102c1578063095ea7b3146102f15780630a0f81681461030d57806317091d051461032b57806318160ddd1461035b57610232565b806301ffc9a7146102375780630519ce791461026757806305e455461461028557806306fdde03146102a3575b600080fd5b610251600480360381019061024c9190613c2e565b610743565b60405161025e9190613c76565b60405180910390f35b61026f6107bd565b60405161027c9190613cd2565b60405180910390f35b61028d6107e3565b60405161029a9190613d06565b60405180910390f35b6102ab6107e9565b6040516102b89190613db1565b60405180910390f35b6102db60048036038101906102d69190613dff565b61087b565b6040516102e89190613cd2565b60405180910390f35b61030b60048036038101906103069190613e58565b6108c1565b005b6103156109d8565b6040516103229190613cd2565b60405180910390f35b61034560048036038101906103409190613dff565b6109fe565b6040516103529190613c76565b60405180910390f35b610363610b89565b6040516103709190613d06565b60405180910390f35b610393600480360381019061038e9190613e98565b610b96565b005b6103af60048036038101906103aa9190613eeb565b610bf6565b005b6103cb60048036038101906103c69190613eeb565b610ccd565b005b6103e760048036038101906103e29190613e58565b610da4565b6040516103f49190613d06565b60405180910390f35b610405610e49565b005b61040f610ead565b60405161041c9190613d06565b60405180910390f35b61043f600480360381019061043a9190613e98565b610eb3565b005b61045b60048036038101906104569190613dff565b610ed3565b6040516104689190613d06565b60405180910390f35b610479610f44565b6040516104869190613c76565b60405180910390f35b6104a960048036038101906104a49190613dff565b610f5a565b6040516104b69190613cd2565b60405180910390f35b6104d960048036038101906104d49190613dff565b610f8d565b6040516104e69190613cd2565b60405180910390f35b61050960048036038101906105049190613f18565b611013565b6040516105169190613c76565b60405180910390f35b61053960048036038101906105349190613f58565b6110a2565b005b61055560048036038101906105509190613eeb565b6111ba565b6040516105629190613d06565b60405180910390f35b61058560048036038101906105809190613e58565b611271565b005b61058f6112e2565b005b6105ab60048036038101906105a69190613f18565b6113f6565b005b6105b5611745565b6040516105c29190613db1565b60405180910390f35b6105d36117d7565b005b6105ef60048036038101906105ea9190613f58565b6118f6565b005b61060b60048036038101906106069190613dff565b61197a565b6040516106189190613fb7565b60405180910390f35b61063b60048036038101906106369190613ffe565b6119aa565b005b6106456119c0565b6040516106529190613cd2565b60405180910390f35b6106636119e6565b6040516106709190613d06565b60405180910390f35b610693600480360381019061068e9190614173565b6119ec565b005b6106af60048036038101906106aa9190613dff565b611a4e565b6040516106bc9190613d06565b60405180910390f35b6106df60048036038101906106da9190613dff565b611d77565b6040516106ec9190613db1565b60405180910390f35b61070f600480360381019061070a91906141f6565b611ddf565b60405161071c9190613c76565b60405180910390f35b61072d611e73565b60405161073a9190613d06565b60405180910390f35b60007f780e9d63000000000000000000000000000000000000000000000000000000007bffffffffffffffffffffffffffffffffffffffffffffffffffffffff1916827bffffffffffffffffffffffffffffffffffffffffffffffffffffffff191614806107b657506107b582611e79565b5b9050919050565b600160009054906101000a900473ffffffffffffffffffffffffffffffffffffffff1681565b60155481565b6060600380546107f890614265565b80601f016020809104026020016040519081016040528092919081815260200182805461082490614265565b80156108715780601f1061084657610100808354040283529160200191610871565b820191906000526020600020905b81548152906001019060200180831161085457829003601f168201915b5050505050905090565b600061088682611f5b565b6007600083815260200190815260200160002060009054906101000a900473ffffffffffffffffffffffffffffffffffffffff169050919050565b60006108cc82610f8d565b90508073ffffffffffffffffffffffffffffffffffffffff168373ffffffffffffffffffffffffffffffffffffffff160361093c576040517f08c379a000000000000000000000000000000000000000000000000000000000815260040161093390614308565b60405180910390fd5b8073ffffffffffffffffffffffffffffffffffffffff1661095b611fa6565b73ffffffffffffffffffffffffffffffffffffffff16148061098a575061098981610984611fa6565b611ddf565b5b6109c9576040517f08c379a00000000000000000000000000000000000000000000000000000000081526004016109c09061439a565b60405180910390fd5b6109d38383611fae565b505050565b600060019054906101000a900473ffffffffffffffffffffffffffffffffffffffff1681565b6000808211610a0c57600080fd5b600060108381548110610a2257610a216143ba565b5b90600052602060002090600202019050610b818160405180610120016040529081600082015481526020016001820160009054906101000a900467ffffffffffffffff1667ffffffffffffffff1667ffffffffffffffff1681526020016001820160089054906101000a900467ffffffffffffffff1667ffffffffffffffff1667ffffffffffffffff1681526020016001820160109054906101000a900463ffffffff1663ffffffff1663ffffffff1681526020016001820160149054906101000a900463ffffffff1663ffffffff1663ffffffff1681526020016001820160189054906101000a900463ffffffff1663ffffffff1663ffffffff16815260200160018201601c9054906101000a900460ff1660ff1660ff16815260200160018201601d9054906101000a900460ff1660ff1660ff16815260200160018201601e9054906101000a900461ffff1661ffff1661ffff1681525050612067565b915050919050565b6000600b80549050905090565b610ba7610ba1611fa6565b82612097565b610be6576040517f08c379a0000000000000000000000000000000000000000000000000000000008152600401610bdd9061445b565b60405180910390fd5b610bf183838361212c565b505050565b600060019054906101000a900473ffffffffffffffffffffffffffffffffffffffff1673ffffffffffffffffffffffffffffffffffffffff163373ffffffffffffffffffffffffffffffffffffffff1614610c5057600080fd5b600073ffffffffffffffffffffffffffffffffffffffff168173ffffffffffffffffffffffffffffffffffffffff1603610c8957600080fd5b80600060016101000a81548173ffffffffffffffffffffffffffffffffffffffff021916908373ffffffffffffffffffffffffffffffffffffffff16021790555050565b600060019054906101000a900473ffffffffffffffffffffffffffffffffffffffff1673ffffffffffffffffffffffffffffffffffffffff163373ffffffffffffffffffffffffffffffffffffffff1614610d2757600080fd5b600073ffffffffffffffffffffffffffffffffffffffff168173ffffffffffffffffffffffffffffffffffffffff1603610d6057600080fd5b80600260006101000a81548173ffffffffffffffffffffffffffffffffffffffff021916908373ffffffffffffffffffffffffffffffffffffffff16021790555050565b6000610daf836111ba565b8210610df0576040517f08c379a0000000000000000000000000000000000000000000000000000000008152600401610de7906144ed565b60405180910390fd5b600960008473ffffffffffffffffffffffffffffffffffffffff1673ffffffffffffffffffffffffffffffffffffffff168152602001908152602001600020600083815260200190815260200160002054905092915050565b600060019054906101000a900473ffffffffffffffffffffffffffffffffffffffff1673ffffffffffffffffffffffffffffffffffffffff163373ffffffffffffffffffffffffffffffffffffffff1614610ea357600080fd5b610eab6121a7565b565b60145481565b610ece838383604051806020016040528060008152506119ec565b505050565b6000610edd610b89565b8210610f1e576040517f08c379a0000000000000000000000000000000000000000000000000000000008152600401610f159061457f565b60405180910390fd5b600b8281548110610f3257610f316143ba565b5b90600052602060002001549050919050565b60008060009054906101000a900460ff16905090565b60116020528060005260406000206000915054906101000a900473ffffffffffffffffffffffffffffffffffffffff1681565b600080610f9983612209565b9050600073ffffffffffffffffffffffffffffffffffffffff168173ffffffffffffffffffffffffffffffffffffffff160361100a576040517f08c379a0000000000000000000000000000000000000000000000000000000008152600401611001906145eb565b60405180910390fd5b80915050919050565b600080831161102157600080fd5b6000821161102e57600080fd5b600060108481548110611044576110436143ba565b5b9060005260206000209060020201905060006010848154811061106a576110696143ba565b5b9060005260206000209060020201905061108682868387612246565b80156110985750611097848661245a565b5b9250505092915050565b600260009054906101000a900473ffffffffffffffffffffffffffffffffffffffff1673ffffffffffffffffffffffffffffffffffffffff163373ffffffffffffffffffffffffffffffffffffffff16146110fc57600080fd5b600073ffffffffffffffffffffffffffffffffffffffff168173ffffffffffffffffffffffffffffffffffffffff160361115657600260009054906101000a900473ffffffffffffffffffffffffffffffffffffffff1690505b6013546015541061116657600080fd5b6014546016541061117657600080fd5b601560008154809291906111899061463a565b9190505550601660008154809291906111a19061463a565b91905055506111b5600080600085856124d3565b505050565b60008073ffffffffffffffffffffffffffffffffffffffff168273ffffffffffffffffffffffffffffffffffffffff160361122a576040517f08c379a0000000000000000000000000000000000000000000000000000000008152600401611221906146f4565b60405180910390fd5b600660008373ffffffffffffffffffffffffffffffffffffffff1673ffffffffffffffffffffffffffffffffffffffff168152602001908152602001600020549050919050565b61127961279a565b61128333826127e4565b61128c57600080fd5b816011600083815260200190815260200160002060006101000a81548173ffffffffffffffffffffffffffffffffffffffff021916908373ffffffffffffffffffffffffffffffffffffffff1602179055505050565b600260009054906101000a900473ffffffffffffffffffffffffffffffffffffffff1673ffffffffffffffffffffffffffffffffffffffff163373ffffffffffffffffffffffffffffffffffffffff16148061138b5750600060019054906101000a900473ffffffffffffffffffffffffffffffffffffffff1673ffffffffffffffffffffffffffffffffffffffff163373ffffffffffffffffffffffffffffffffffffffff16145b806113e35750600160009054906101000a900473ffffffffffffffffffffffffffffffffffffffff1673ffffffffffffffffffffffffffffffffffffffff163373ffffffffffffffffffffffffffffffffffffffff16145b6113ec57600080fd5b6113f461282a565b565b6113fe61279a565b61140833836127e4565b61141157600080fd5b61141b818361245a565b61142457600080fd5b60006010838154811061143a576114396143ba565b5b906000526020600020906002020190506115998160405180610120016040529081600082015481526020016001820160009054906101000a900467ffffffffffffffff1667ffffffffffffffff1667ffffffffffffffff1681526020016001820160089054906101000a900467ffffffffffffffff1667ffffffffffffffff1667ffffffffffffffff1681526020016001820160109054906101000a900463ffffffff1663ffffffff1663ffffffff1681526020016001820160149054906101000a900463ffffffff1663ffffffff1663ffffffff1681526020016001820160189054906101000a900463ffffffff1663ffffffff1663ffffffff16815260200160018201601c9054906101000a900460ff1660ff1660ff16815260200160018201601d9054906101000a900460ff1660ff1660ff16815260200160018201601e9054906101000a900461ffff1661ffff1661ffff1681525050612067565b6115a257600080fd5b6000601083815481106115b8576115b76143ba565b5b906000526020600020906002020190506117178160405180610120016040529081600082015481526020016001820160009054906101000a900467ffffffffffffffff1667ffffffffffffffff1667ffffffffffffffff1681526020016001820160089054906101000a900467ffffffffffffffff1667ffffffffffffffff1667ffffffffffffffff1681526020016001820160109054906101000a900463ffffffff1663ffffffff1663ffffffff1681526020016001820160149054906101000a900463ffffffff1663ffffffff1663ffffffff1681526020016001820160189054906101000a900463ffffffff1663ffffffff1663ffffffff16815260200160018201601c9054906101000a900460ff1660ff1660ff16815260200160018201601d9054906101000a900460ff1660ff1660ff16815260200160018201601e9054906101000a900461ffff1661ffff1661ffff1681525050612067565b61172057600080fd5b61172c82858386612246565b61173557600080fd5b61173f848461288c565b50505050565b60606004805461175490614265565b80601f016020809104026020016040519081016040528092919081815260200182805461178090614265565b80156117cd5780601f106117a2576101008083540402835291602001916117cd565b820191906000526020600020905b8154815290600101906020018083116117b057829003601f168201915b5050505050905090565b60001515601260003373ffffffffffffffffffffffffffffffffffffffff1673ffffffffffffffffffffffffffffffffffffffff16815260200190815260200160002060009054906101000a900460ff1615151461186a576040517f08c379a000000000000000000000000000000000000000000000000000000000815260040161186190614760565b60405180910390fd5b600060165442189050601660008154809291906118869061463a565b91905055506001601260003373ffffffffffffffffffffffffffffffffffffffff1673ffffffffffffffffffffffffffffffffffffffff16815260200190815260200160002060006101000a81548160ff0219169083151502179055506118f2600080600084336124d3565b5050565b600260009054906101000a900473ffffffffffffffffffffffffffffffffffffffff1673ffffffffffffffffffffffffffffffffffffffff163373ffffffffffffffffffffffffffffffffffffffff161461195057600080fd5b61195861279a565b61196230836127e4565b61196b57600080fd5b61197630828461212c565b5050565b600f816008811061198a57600080fd5b60089182820401919006600402915054906101000a900463ffffffff1681565b6119bc6119b5611fa6565b83836129c2565b5050565b600260009054906101000a900473ffffffffffffffffffffffffffffffffffffffff1681565b60135481565b6119fd6119f7611fa6565b83612097565b611a3c576040517f08c379a0000000000000000000000000000000000000000000000000000000008152600401611a339061445b565b60405180910390fd5b611a4884848484612b2e565b50505050565b6000611a5861279a565b600060108381548110611a6e57611a6d6143ba565b5b9060005260206000209060020201905060008160010160009054906101000a900467ffffffffffffffff1667ffffffffffffffff1603611aad57600080fd5b611bfc8160405180610120016040529081600082015481526020016001820160009054906101000a900467ffffffffffffffff1667ffffffffffffffff1667ffffffffffffffff1681526020016001820160089054906101000a900467ffffffffffffffff1667ffffffffffffffff1667ffffffffffffffff1681526020016001820160109054906101000a900463ffffffff1663ffffffff1663ffffffff1681526020016001820160149054906101000a900463ffffffff1663ffffffff1663ffffffff1681526020016001820160189054906101000a900463ffffffff1663ffffffff1663ffffffff16815260200160018201601c9054906101000a900460ff1660ff1660ff16815260200160018201601d9054906101000a900460ff1660ff1660ff16815260200160018201601e9054906101000a900461ffff1661ffff1661ffff1681525050612b8a565b611c0557600080fd5b60008160010160189054906101000a900463ffffffff1663ffffffff169050600060108281548110611c3a57611c396143ba565b5b90600052602060002090600202019050600083600101601e9054906101000a900461ffff16905083600101601e9054906101000a900461ffff1661ffff1682600101601e9054906101000a900461ffff1661ffff161115611cab5781600101601e9054906101000a900461ffff1690505b6000424433876000015441604051602001611cca959493929190614824565b6040516020818303038152906040528051906020012060001c905060008184600001548760000154611cfc9190614883565b611d069190614883565b90506000611d1389612209565b90506000611d4e8a8960010160189054906101000a900463ffffffff1663ffffffff16600188611d4391906148c5565b61ffff1686866124d3565b90508760010160186101000a81549063ffffffff02191690558098505050505050505050919050565b6060611d8282611f5b565b6000611d8c612bbb565b90506000815111611dac5760405180602001604052806000815250611dd7565b80611db684612bd2565b604051602001611dc7929190614937565b6040516020818303038152906040525b915050919050565b6000600860008473ffffffffffffffffffffffffffffffffffffffff1673ffffffffffffffffffffffffffffffffffffffff16815260200190815260200160002060008373ffffffffffffffffffffffffffffffffffffffff1673ffffffffffffffffffffffffffffffffffffffff16815260200190815260200160002060009054906101000a900460ff16905092915050565b60165481565b60007f80ac58cd000000000000000000000000000000000000000000000000000000007bffffffffffffffffffffffffffffffffffffffffffffffffffffffff1916827bffffffffffffffffffffffffffffffffffffffffffffffffffffffff19161480611f4457507f5b5e139f000000000000000000000000000000000000000000000000000000007bffffffffffffffffffffffffffffffffffffffffffffffffffffffff1916827bffffffffffffffffffffffffffffffffffffffffffffffffffffffff1916145b80611f545750611f5382612ca0565b5b9050919050565b611f6481612d0a565b611fa3576040517f08c379a0000000000000000000000000000000000000000000000000000000008152600401611f9a906145eb565b60405180910390fd5b50565b600033905090565b816007600083815260200190815260200160002060006101000a81548173ffffffffffffffffffffffffffffffffffffffff021916908373ffffffffffffffffffffffffffffffffffffffff160217905550808273ffffffffffffffffffffffffffffffffffffffff1661202183610f8d565b73ffffffffffffffffffffffffffffffffffffffff167f8c5be1e5ebec7d5bd14f71427d1e84f3dd0314c0f7b2291e5b200ac8c7c3b92560405160405180910390a45050565b6000808260a0015163ffffffff16148015612090575042826040015167ffffffffffffffff1611155b9050919050565b6000806120a383610f8d565b90508073ffffffffffffffffffffffffffffffffffffffff168473ffffffffffffffffffffffffffffffffffffffff1614806120e557506120e48185611ddf565b5b8061212357508373ffffffffffffffffffffffffffffffffffffffff1661210b8461087b565b73ffffffffffffffffffffffffffffffffffffffff16145b91505092915050565b600073ffffffffffffffffffffffffffffffffffffffff168373ffffffffffffffffffffffffffffffffffffffff1614612197576011600082815260200190815260200160002060006101000a81549073ffffffffffffffffffffffffffffffffffffffff02191690555b6121a2838383612d4b565b505050565b6121af613044565b60008060006101000a81548160ff0219169083151502179055507f5db9ee0a495bf2e6ff9c91a7834c1ba4fdd244a5e8aa4e537bd38aeae4b073aa6121f2611fa6565b6040516121ff9190613cd2565b60405180910390a1565b60006005600083815260200190815260200160002060009054906101000a900473ffffffffffffffffffffffffffffffffffffffff169050919050565b60008184036122585760009050612452565b818560010160109054906101000a900463ffffffff1663ffffffff1614806122995750818560010160149054906101000a900463ffffffff1663ffffffff16145b156122a75760009050612452565b838360010160109054906101000a900463ffffffff1663ffffffff1614806122e85750838360010160149054906101000a900463ffffffff1663ffffffff16145b156122f65760009050612452565b60008360010160109054906101000a900463ffffffff1663ffffffff161480612339575060008560010160109054906101000a900463ffffffff1663ffffffff16145b156123475760019050612452565b8460010160109054906101000a900463ffffffff1663ffffffff168360010160109054906101000a900463ffffffff1663ffffffff1614806123bc57508460010160149054906101000a900463ffffffff1663ffffffff168360010160109054906101000a900463ffffffff1663ffffffff16145b156123ca5760009050612452565b8460010160109054906101000a900463ffffffff1663ffffffff168360010160149054906101000a900463ffffffff1663ffffffff16148061243f57508460010160149054906101000a900463ffffffff1663ffffffff168360010160149054906101000a900463ffffffff1663ffffffff16145b1561244d5760009050612452565b600190505b949350505050565b60008061246683612209565b90508073ffffffffffffffffffffffffffffffffffffffff166011600086815260200190815260200160002060009054906101000a900473ffffffffffffffffffffffffffffffffffffffff1673ffffffffffffffffffffffffffffffffffffffff161491505092915050565b600063ffffffff8611156124e657600080fd5b63ffffffff8511156124f757600080fd5b61ffff84111561250657600080fd5b60006040518061012001604052808581526020014267ffffffffffffffff168152602001600067ffffffffffffffff1681526020018863ffffffff1681526020018763ffffffff168152602001600063ffffffff168152602001600060ff168152602001600060ff1681526020018661ffff16815250905060108190806001815401808255809150506001900390600052602060002090600202016000909190919091506000820151816000015560208201518160010160006101000a81548167ffffffffffffffff021916908367ffffffffffffffff16021790555060408201518160010160086101000a81548167ffffffffffffffff021916908367ffffffffffffffff16021790555060608201518160010160106101000a81548163ffffffff021916908363ffffffff16021790555060808201518160010160146101000a81548163ffffffff021916908363ffffffff16021790555060a08201518160010160186101000a81548163ffffffff021916908363ffffffff16021790555060c082015181600101601c6101000a81548160ff021916908360ff16021790555060e082015181600101601d6101000a81548160ff021916908360ff16021790555061010082015181600101601e6101000a81548161ffff021916908361ffff160217905550505060006001601080549050612703919061495b565b905063ffffffff81111561271657600080fd5b8373ffffffffffffffffffffffffffffffffffffffff167f14cb614758d3c982e9d2ae0ad129c2c2bdb4c5ba841155dced7bed1a27834de782846060015163ffffffff16856080015163ffffffff16866000015160405161277a949392919061498f565b60405180910390a261278c848261308d565b809250505095945050505050565b6127a2610f44565b156127e2576040517f08c379a00000000000000000000000000000000000000000000000000000000081526004016127d990614a20565b60405180910390fd5b565b6000806127f083610f8d565b90508073ffffffffffffffffffffffffffffffffffffffff168473ffffffffffffffffffffffffffffffffffffffff161491505092915050565b61283261279a565b60016000806101000a81548160ff0219169083151502179055507f62e78cea01bee320cd4e420270b5ea74000d11b0c9f74754ebdbfc544b05a258612875611fa6565b6040516128829190613cd2565b60405180910390a1565b6000601082815481106128a2576128a16143ba565b5b906000526020600020906002020190506000601084815481106128c8576128c76143ba565b5b90600052602060002090600202019050828160010160186101000a81548163ffffffff021916908363ffffffff160217905550612904826130ab565b61290d816130ab565b6011600085815260200190815260200160002060006101000a81549073ffffffffffffffffffffffffffffffffffffffff02191690556011600084815260200190815260200160002060006101000a81549073ffffffffffffffffffffffffffffffffffffffff02191690557fb57bb8abbb44a6cff7417131e5eb1d3703a22072a6985e3ff6c653fc91056bb16129a385612209565b85856040516129b493929190614a40565b60405180910390a150505050565b8173ffffffffffffffffffffffffffffffffffffffff168373ffffffffffffffffffffffffffffffffffffffff1603612a30576040517f08c379a0000000000000000000000000000000000000000000000000000000008152600401612a2790614ac3565b60405180910390fd5b80600860008573ffffffffffffffffffffffffffffffffffffffff1673ffffffffffffffffffffffffffffffffffffffff16815260200190815260200160002060008473ffffffffffffffffffffffffffffffffffffffff1673ffffffffffffffffffffffffffffffffffffffff16815260200190815260200160002060006101000a81548160ff0219169083151502179055508173ffffffffffffffffffffffffffffffffffffffff168373ffffffffffffffffffffffffffffffffffffffff167f17307eab39ab6107e8899845ad3d59bd9653f200f220920489ca2b5937696c3183604051612b219190613c76565b60405180910390a3505050565b612b3984848461212c565b612b45848484846131dd565b612b84576040517f08c379a0000000000000000000000000000000000000000000000000000000008152600401612b7b90614b55565b60405180910390fd5b50505050565b6000808260a0015163ffffffff1614158015612bb4575042826040015167ffffffffffffffff1611155b9050919050565b606060405180602001604052806000815250905090565b606060006001612be184613364565b01905060008167ffffffffffffffff811115612c0057612bff614048565b5b6040519080825280601f01601f191660200182016040528015612c325781602001600182028036833780820191505090505b509050600082602001820190505b600115612c95578080600190039150507f3031323334353637383961626364656600000000000000000000000000000000600a86061a8153600a8581612c8957612c88614b75565b5b04945060008503612c40575b819350505050919050565b60007f01ffc9a7000000000000000000000000000000000000000000000000000000007bffffffffffffffffffffffffffffffffffffffffffffffffffffffff1916827bffffffffffffffffffffffffffffffffffffffffffffffffffffffff1916149050919050565b60008073ffffffffffffffffffffffffffffffffffffffff16612d2c83612209565b73ffffffffffffffffffffffffffffffffffffffff1614159050919050565b8273ffffffffffffffffffffffffffffffffffffffff16612d6b82610f8d565b73ffffffffffffffffffffffffffffffffffffffff1614612dc1576040517f08c379a0000000000000000000000000000000000000000000000000000000008152600401612db890614c16565b60405180910390fd5b600073ffffffffffffffffffffffffffffffffffffffff168273ffffffffffffffffffffffffffffffffffffffff1603612e30576040517f08c379a0000000000000000000000000000000000000000000000000000000008152600401612e2790614ca8565b60405180910390fd5b612e3d83838360016134b7565b8273ffffffffffffffffffffffffffffffffffffffff16612e5d82610f8d565b73ffffffffffffffffffffffffffffffffffffffff1614612eb3576040517f08c379a0000000000000000000000000000000000000000000000000000000008152600401612eaa90614c16565b60405180910390fd5b6007600082815260200190815260200160002060006101000a81549073ffffffffffffffffffffffffffffffffffffffff02191690556001600660008573ffffffffffffffffffffffffffffffffffffffff1673ffffffffffffffffffffffffffffffffffffffff168152602001908152602001600020600082825403925050819055506001600660008473ffffffffffffffffffffffffffffffffffffffff1673ffffffffffffffffffffffffffffffffffffffff16815260200190815260200160002060008282540192505081905550816005600083815260200190815260200160002060006101000a81548173ffffffffffffffffffffffffffffffffffffffff021916908373ffffffffffffffffffffffffffffffffffffffff160217905550808273ffffffffffffffffffffffffffffffffffffffff168473ffffffffffffffffffffffffffffffffffffffff167fddf252ad1be2c89b69c2b068fc378daa952ba7f163c4a11628f55a4df523b3ef60405160405180910390a461303f8383836001613615565b505050565b61304c610f44565b61308b576040517f08c379a000000000000000000000000000000000000000000000000000000000815260040161308290614d14565b60405180910390fd5b565b6130a782826040518060200160405280600081525061361b565b5050565b600f81600101601c9054906101000a900460ff1660ff16600881106130d3576130d26143ba565b5b600891828204019190066004029054906101000a900463ffffffff1663ffffffff16426131009190614883565b8160010160086101000a81548167ffffffffffffffff021916908367ffffffffffffffff160217905550600581600101601c9054906101000a900460ff1660ff161080156131625750600381600101601d9054906101000a900460ff1660ff16105b156131da57600181600101601c8282829054906101000a900460ff166131889190614d41565b92506101000a81548160ff021916908360ff160217905550600181600101601d8282829054906101000a900460ff166131c19190614d41565b92506101000a81548160ff021916908360ff1602179055505b50565b60006131fe8473ffffffffffffffffffffffffffffffffffffffff16613676565b15613357578373ffffffffffffffffffffffffffffffffffffffff1663150b7a02613227611fa6565b8786866040518563ffffffff1660e01b81526004016132499493929190614dcb565b6020604051808303816000875af192505050801561328557506040513d601f19601f820116820180604052508101906132829190614e2c565b60015b613307573d80600081146132b5576040519150601f19603f3d011682016040523d82523d6000602084013e6132ba565b606091505b5060008151036132ff576040517f08c379a00000000000000000000000000000000000000000000000000000000081526004016132f690614b55565b60405180910390fd5b805181602001fd5b63150b7a0260e01b7bffffffffffffffffffffffffffffffffffffffffffffffffffffffff1916817bffffffffffffffffffffffffffffffffffffffffffffffffffffffff19161491505061335c565b600190505b949350505050565b600080600090507a184f03e93ff9f4daa797ed6e38ed64bf6a1f01000000000000000083106133c2577a184f03e93ff9f4daa797ed6e38ed64bf6a1f01000000000000000083816133b8576133b7614b75565b5b0492506040810190505b6d04ee2d6d415b85acef810000000083106133ff576d04ee2d6d415b85acef810000000083816133f5576133f4614b75565b5b0492506020810190505b662386f26fc10000831061342e57662386f26fc10000838161342457613423614b75565b5b0492506010810190505b6305f5e1008310613457576305f5e100838161344d5761344c614b75565b5b0492506008810190505b612710831061347c57612710838161347257613471614b75565b5b0492506004810190505b6064831061349f576064838161349557613494614b75565b5b0492506002810190505b600a83106134ae576001810190505b80915050919050565b6134c384848484613699565b6001811115613507576040517f08c379a00000000000000000000000000000000000000000000000000000000081526004016134fe90614ecb565b60405180910390fd5b6000829050600073ffffffffffffffffffffffffffffffffffffffff168573ffffffffffffffffffffffffffffffffffffffff160361354e576135498161369f565b61358d565b8373ffffffffffffffffffffffffffffffffffffffff168573ffffffffffffffffffffffffffffffffffffffff161461358c5761358b85826136e8565b5b5b600073ffffffffffffffffffffffffffffffffffffffff168473ffffffffffffffffffffffffffffffffffffffff16036135cf576135ca81613855565b61360e565b8473ffffffffffffffffffffffffffffffffffffffff168473ffffffffffffffffffffffffffffffffffffffff161461360d5761360c8482613926565b5b5b5050505050565b50505050565b61362583836139a5565b61363260008484846131dd565b613671576040517f08c379a000000000000000000000000000000000000000000000000000000000815260040161366890614b55565b60405180910390fd5b505050565b6000808273ffffffffffffffffffffffffffffffffffffffff163b119050919050565b50505050565b600b80549050600c600083815260200190815260200160002081905550600b81908060018154018082558091505060019003906000526020600020016000909190919091505550565b600060016136f5846111ba565b6136ff919061495b565b90506000600a60008481526020019081526020016000205490508181146137e4576000600960008673ffffffffffffffffffffffffffffffffffffffff1673ffffffffffffffffffffffffffffffffffffffff168152602001908152602001600020600084815260200190815260200160002054905080600960008773ffffffffffffffffffffffffffffffffffffffff1673ffffffffffffffffffffffffffffffffffffffff16815260200190815260200160002060008481526020019081526020016000208190555081600a600083815260200190815260200160002081905550505b600a600084815260200190815260200160002060009055600960008573ffffffffffffffffffffffffffffffffffffffff1673ffffffffffffffffffffffffffffffffffffffff16815260200190815260200160002060008381526020019081526020016000206000905550505050565b60006001600b80549050613869919061495b565b90506000600c60008481526020019081526020016000205490506000600b8381548110613899576138986143ba565b5b9060005260206000200154905080600b83815481106138bb576138ba6143ba565b5b906000526020600020018190555081600c600083815260200190815260200160002081905550600c600085815260200190815260200160002060009055600b80548061390a57613909614eeb565b5b6001900381819060005260206000200160009055905550505050565b6000613931836111ba565b905081600960008573ffffffffffffffffffffffffffffffffffffffff1673ffffffffffffffffffffffffffffffffffffffff16815260200190815260200160002060008381526020019081526020016000208190555080600a600084815260200190815260200160002081905550505050565b600073ffffffffffffffffffffffffffffffffffffffff168273ffffffffffffffffffffffffffffffffffffffff1603613a14576040517f08c379a0000000000000000000000000000000000000000000000000000000008152600401613a0b90614f66565b60405180910390fd5b613a1d81612d0a565b15613a5d576040517f08c379a0000000000000000000000000000000000000000000000000000000008152600401613a5490614fd2565b60405180910390fd5b613a6b6000838360016134b7565b613a7481612d0a565b15613ab4576040517f08c379a0000000000000000000000000000000000000000000000000000000008152600401613aab90614fd2565b60405180910390fd5b6001600660008473ffffffffffffffffffffffffffffffffffffffff1673ffffffffffffffffffffffffffffffffffffffff16815260200190815260200160002060008282540192505081905550816005600083815260200190815260200160002060006101000a81548173ffffffffffffffffffffffffffffffffffffffff021916908373ffffffffffffffffffffffffffffffffffffffff160217905550808273ffffffffffffffffffffffffffffffffffffffff16600073ffffffffffffffffffffffffffffffffffffffff167fddf252ad1be2c89b69c2b068fc378daa952ba7f163c4a11628f55a4df523b3ef60405160405180910390a4613bbe600083836001613615565b5050565b6000604051905090565b600080fd5b600080fd5b60007fffffffff0000000000000000000000000000000000000000000000000000000082169050919050565b613c0b81613bd6565b8114613c1657600080fd5b50565b600081359050613c2881613c02565b92915050565b600060208284031215613c4457613c43613bcc565b5b6000613c5284828501613c19565b91505092915050565b60008115159050919050565b613c7081613c5b565b82525050565b6000602082019050613c8b6000830184613c67565b92915050565b600073ffffffffffffffffffffffffffffffffffffffff82169050919050565b6000613cbc82613c91565b9050919050565b613ccc81613cb1565b82525050565b6000602082019050613ce76000830184613cc3565b92915050565b6000819050919050565b613d0081613ced565b82525050565b6000602082019050613d1b6000830184613cf7565b92915050565b600081519050919050565b600082825260208201905092915050565b60005b83811015613d5b578082015181840152602081019050613d40565b60008484015250505050565b6000601f19601f8301169050919050565b6000613d8382613d21565b613d8d8185613d2c565b9350613d9d818560208601613d3d565b613da681613d67565b840191505092915050565b60006020820190508181036000830152613dcb8184613d78565b905092915050565b613ddc81613ced565b8114613de757600080fd5b50565b600081359050613df981613dd3565b92915050565b600060208284031215613e1557613e14613bcc565b5b6000613e2384828501613dea565b91505092915050565b613e3581613cb1565b8114613e4057600080fd5b50565b600081359050613e5281613e2c565b92915050565b60008060408385031215613e6f57613e6e613bcc565b5b6000613e7d85828601613e43565b9250506020613e8e85828601613dea565b9150509250929050565b600080600060608486031215613eb157613eb0613bcc565b5b6000613ebf86828701613e43565b9350506020613ed086828701613e43565b9250506040613ee186828701613dea565b9150509250925092565b600060208284031215613f0157613f00613bcc565b5b6000613f0f84828501613e43565b91505092915050565b60008060408385031215613f2f57613f2e613bcc565b5b6000613f3d85828601613dea565b9250506020613f4e85828601613dea565b9150509250929050565b60008060408385031215613f6f57613f6e613bcc565b5b6000613f7d85828601613dea565b9250506020613f8e85828601613e43565b9150509250929050565b600063ffffffff82169050919050565b613fb181613f98565b82525050565b6000602082019050613fcc6000830184613fa8565b92915050565b613fdb81613c5b565b8114613fe657600080fd5b50565b600081359050613ff881613fd2565b92915050565b6000806040838503121561401557614014613bcc565b5b600061402385828601613e43565b925050602061403485828601613fe9565b9150509250929050565b600080fd5b600080fd5b7f4e487b7100000000000000000000000000000000000000000000000000000000600052604160045260246000fd5b61408082613d67565b810181811067ffffffffffffffff8211171561409f5761409e614048565b5b80604052505050565b60006140b2613bc2565b90506140be8282614077565b919050565b600067ffffffffffffffff8211156140de576140dd614048565b5b6140e782613d67565b9050602081019050919050565b82818337600083830152505050565b6000614116614111846140c3565b6140a8565b90508281526020810184848401111561413257614131614043565b5b61413d8482856140f4565b509392505050565b600082601f83011261415a5761415961403e565b5b813561416a848260208601614103565b91505092915050565b6000806000806080858703121561418d5761418c613bcc565b5b600061419b87828801613e43565b94505060206141ac87828801613e43565b93505060406141bd87828801613dea565b925050606085013567ffffffffffffffff8111156141de576141dd613bd1565b5b6141ea87828801614145565b91505092959194509250565b6000806040838503121561420d5761420c613bcc565b5b600061421b85828601613e43565b925050602061422c85828601613e43565b9150509250929050565b7f4e487b7100000000000000000000000000000000000000000000000000000000600052602260045260246000fd5b6000600282049050600182168061427d57607f821691505b6020821081036142905761428f614236565b5b50919050565b7f4552433732313a20617070726f76616c20746f2063757272656e74206f776e6560008201527f7200000000000000000000000000000000000000000000000000000000000000602082015250565b60006142f2602183613d2c565b91506142fd82614296565b604082019050919050565b60006020820190508181036000830152614321816142e5565b9050919050565b7f4552433732313a20617070726f76652063616c6c6572206973206e6f7420746f60008201527f6b656e206f776e6572206f7220617070726f76656420666f7220616c6c000000602082015250565b6000614384603d83613d2c565b915061438f82614328565b604082019050919050565b600060208201905081810360008301526143b381614377565b9050919050565b7f4e487b7100000000000000000000000000000000000000000000000000000000600052603260045260246000fd5b7f4552433732313a2063616c6c6572206973206e6f7420746f6b656e206f776e6560008201527f72206f7220617070726f76656400000000000000000000000000000000000000602082015250565b6000614445602d83613d2c565b9150614450826143e9565b604082019050919050565b6000602082019050818103600083015261447481614438565b9050919050565b7f455243373231456e756d657261626c653a206f776e657220696e646578206f7560008201527f74206f6620626f756e6473000000000000000000000000000000000000000000602082015250565b60006144d7602b83613d2c565b91506144e28261447b565b604082019050919050565b60006020820190508181036000830152614506816144ca565b9050919050565b7f455243373231456e756d657261626c653a20676c6f62616c20696e646578206f60008201527f7574206f6620626f756e64730000000000000000000000000000000000000000602082015250565b6000614569602c83613d2c565b91506145748261450d565b604082019050919050565b600060208201905081810360008301526145988161455c565b9050919050565b7f4552433732313a20696e76616c696420746f6b656e2049440000000000000000600082015250565b60006145d5601883613d2c565b91506145e08261459f565b602082019050919050565b60006020820190508181036000830152614604816145c8565b9050919050565b7f4e487b7100000000000000000000000000000000000000000000000000000000600052601160045260246000fd5b600061464582613ced565b91507fffffffffffffffffffffffffffffffffffffffffffffffffffffffffffffffff82036146775761467661460b565b5b600182019050919050565b7f4552433732313a2061646472657373207a65726f206973206e6f74206120766160008201527f6c6964206f776e65720000000000000000000000000000000000000000000000602082015250565b60006146de602983613d2c565b91506146e982614682565b604082019050919050565b6000602082019050818103600083015261470d816146d1565b9050919050565b7f596f7520616c7265616479206d696e742062756d6d7900000000000000000000600082015250565b600061474a601683613d2c565b915061475582614714565b602082019050919050565b600060208201905081810360008301526147798161473d565b9050919050565b6000819050919050565b61479b61479682613ced565b614780565b82525050565b60008160601b9050919050565b60006147b9826147a1565b9050919050565b60006147cb826147ae565b9050919050565b6147e36147de82613cb1565b6147c0565b82525050565b60006147f482613c91565b9050919050565b6000614806826147ae565b9050919050565b61481e614819826147e9565b6147fb565b82525050565b6000614830828861478a565b602082019150614840828761478a565b60208201915061485082866147d2565b601482019150614860828561478a565b602082019150614870828461480d565b6014820191508190509695505050505050565b600061488e82613ced565b915061489983613ced565b92508282019050808211156148b1576148b061460b565b5b92915050565b600061ffff82169050919050565b60006148d0826148b7565b91506148db836148b7565b9250828201905061ffff8111156148f5576148f461460b565b5b92915050565b600081905092915050565b600061491182613d21565b61491b81856148fb565b935061492b818560208601613d3d565b80840191505092915050565b60006149438285614906565b915061494f8284614906565b91508190509392505050565b600061496682613ced565b915061497183613ced565b92508282039050818111156149895761498861460b565b5b92915050565b60006080820190506149a46000830187613cf7565b6149b16020830186613cf7565b6149be6040830185613cf7565b6149cb6060830184613cf7565b95945050505050565b7f5061757361626c653a2070617573656400000000000000000000000000000000600082015250565b6000614a0a601083613d2c565b9150614a15826149d4565b602082019050919050565b60006020820190508181036000830152614a39816149fd565b9050919050565b6000606082019050614a556000830186613cc3565b614a626020830185613cf7565b614a6f6040830184613cf7565b949350505050565b7f4552433732313a20617070726f766520746f2063616c6c657200000000000000600082015250565b6000614aad601983613d2c565b9150614ab882614a77565b602082019050919050565b60006020820190508181036000830152614adc81614aa0565b9050919050565b7f4552433732313a207472616e7366657220746f206e6f6e20455243373231526560008201527f63656976657220696d706c656d656e7465720000000000000000000000000000602082015250565b6000614b3f603283613d2c565b9150614b4a82614ae3565b604082019050919050565b60006020820190508181036000830152614b6e81614b32565b9050919050565b7f4e487b7100000000000000000000000000000000000000000000000000000000600052601260045260246000fd5b7f4552433732313a207472616e736665722066726f6d20696e636f72726563742060008201527f6f776e6572000000000000000000000000000000000000000000000000000000602082015250565b6000614c00602583613d2c565b9150614c0b82614ba4565b604082019050919050565b60006020820190508181036000830152614c2f81614bf3565b9050919050565b7f4552433732313a207472616e7366657220746f20746865207a65726f2061646460008201527f7265737300000000000000000000000000000000000000000000000000000000602082015250565b6000614c92602483613d2c565b9150614c9d82614c36565b604082019050919050565b60006020820190508181036000830152614cc181614c85565b9050919050565b7f5061757361626c653a206e6f7420706175736564000000000000000000000000600082015250565b6000614cfe601483613d2c565b9150614d0982614cc8565b602082019050919050565b60006020820190508181036000830152614d2d81614cf1565b9050919050565b600060ff82169050919050565b6000614d4c82614d34565b9150614d5783614d34565b9250828201905060ff811115614d7057614d6f61460b565b5b92915050565b600081519050919050565b600082825260208201905092915050565b6000614d9d82614d76565b614da78185614d81565b9350614db7818560208601613d3d565b614dc081613d67565b840191505092915050565b6000608082019050614de06000830187613cc3565b614ded6020830186613cc3565b614dfa6040830185613cf7565b8181036060830152614e0c8184614d92565b905095945050505050565b600081519050614e2681613c02565b92915050565b600060208284031215614e4257614e41613bcc565b5b6000614e5084828501614e17565b91505092915050565b7f455243373231456e756d657261626c653a20636f6e736563757469766520747260008201527f616e7366657273206e6f7420737570706f727465640000000000000000000000602082015250565b6000614eb5603583613d2c565b9150614ec082614e59565b604082019050919050565b60006020820190508181036000830152614ee481614ea8565b9050919050565b7f4e487b7100000000000000000000000000000000000000000000000000000000600052603160045260246000fd5b7f4552433732313a206d696e7420746f20746865207a65726f2061646472657373600082015250565b6000614f50602083613d2c565b9150614f5b82614f1a565b602082019050919050565b60006020820190508181036000830152614f7f81614f43565b9050919050565b7f4552433732313a20746f6b656e20616c7265616479206d696e74656400000000600082015250565b6000614fbc601c83613d2c565b9150614fc782614f86565b602082019050919050565b60006020820190508181036000830152614feb81614faf565b905091905056fea2646970667358221220ad2883cd0e54aac9b33e540626b1339c4e212bc046f196b3bf58994cc34ee27764736f6c63430008110033",
  "linkReferences": {},
  "deployedLinkReferences": {}
}