{
  "_format": "hh-sol-artifact-1",
  "contractName": "BummyMinting",
  "sourceName": "contracts/BummyMinting.sol",
  "abi": [
    {
      "anonymous": false,
      "inputs": [
        {
          "indexed": true,
          "internalType": "address",
          "name": "owner",
          "type": "address"
        },
        {
          "indexed": true,
          "internalType": "address",
          "name": "approved",
          "type": "address"
        },
        {
          "indexed": true,
          "internalType": "uint256",
          "name": "tokenId",
          "type": "uint256"
        }
      ],
      "name": "Approval",
      "type": "event"
    },
    {
      "anonymous": false,
      "inputs": [
        {
          "indexed": true,
          "internalType": "address",
          "name": "owner",
          "type": "address"
        },
        {
          "indexed": true,
          "internalType": "address",
          "name": "operator",
          "type": "address"
        },
        {
          "indexed": false,
          "internalType": "bool",
          "name": "approved",
          "type": "bool"
        }
      ],
      "name": "ApprovalForAll",
      "type": "event"
    },
    {
      "anonymous": false,
      "inputs": [
        {
          "indexed": false,
          "internalType": "address",
          "name": "owner",
          "type": "address"
        },
        {
          "indexed": false,
          "internalType": "uint256",
          "name": "momId",
          "type": "uint256"
        },
        {
          "indexed": false,
          "internalType": "uint256",
          "name": "dadId",
          "type": "uint256"
        }
      ],
      "name": "Cheering",
      "type": "event"
    },
    {
      "anonymous": false,
      "inputs": [
        {
          "indexed": true,
          "internalType": "address",
          "name": "owner",
          "type": "address"
        },
        {
          "indexed": false,
          "internalType": "uint256",
          "name": "BummyId",
          "type": "uint256"
        },
        {
          "indexed": false,
          "internalType": "uint256",
          "name": "momId",
          "type": "uint256"
        },
        {
          "indexed": false,
          "internalType": "uint256",
          "name": "dadId",
          "type": "uint256"
        },
        {
          "indexed": false,
          "internalType": "uint256",
          "name": "genes",
          "type": "uint256"
        }
      ],
      "name": "Invite",
      "type": "event"
    },
    {
      "anonymous": false,
      "inputs": [
        {
          "indexed": false,
          "internalType": "address",
          "name": "account",
          "type": "address"
        }
      ],
      "name": "Paused",
      "type": "event"
    },
    {
      "anonymous": false,
      "inputs": [
        {
          "indexed": true,
          "internalType": "address",
          "name": "from",
          "type": "address"
        },
        {
          "indexed": true,
          "internalType": "address",
          "name": "to",
          "type": "address"
        },
        {
          "indexed": true,
          "internalType": "uint256",
          "name": "tokenId",
          "type": "uint256"
        }
      ],
      "name": "Transfer",
      "type": "event"
    },
    {
      "anonymous": false,
      "inputs": [
        {
          "indexed": false,
          "internalType": "address",
          "name": "account",
          "type": "address"
        }
      ],
      "name": "Unpaused",
      "type": "event"
    },
    {
      "inputs": [
        {
          "internalType": "address",
          "name": "to",
          "type": "address"
        },
        {
          "internalType": "uint256",
          "name": "tokenId",
          "type": "uint256"
        }
      ],
      "name": "approve",
      "outputs": [],
      "stateMutability": "nonpayable",
      "type": "function"
    },
    {
      "inputs": [
        {
          "internalType": "address",
          "name": "_addr",
          "type": "address"
        },
        {
          "internalType": "uint256",
          "name": "_dadId",
          "type": "uint256"
        }
      ],
      "name": "approveCheering",
      "outputs": [],
      "stateMutability": "nonpayable",
      "type": "function"
    },
    {
      "inputs": [
        {
          "internalType": "address",
          "name": "owner",
          "type": "address"
        }
      ],
      "name": "balanceOf",
      "outputs": [
        {
          "internalType": "uint256",
          "name": "",
          "type": "uint256"
        }
      ],
      "stateMutability": "view",
      "type": "function"
    },
    {
      "inputs": [],
      "name": "bummyGene",
      "outputs": [
        {
          "internalType": "contract BummyInfoInterface",
          "name": "",
          "type": "address"
        }
      ],
      "stateMutability": "view",
      "type": "function"
    },
    {
      "inputs": [
        {
          "internalType": "uint256",
          "name": "_momId",
          "type": "uint256"
        },
        {
          "internalType": "uint256",
          "name": "_dadId",
          "type": "uint256"
        }
      ],
      "name": "canCheerWith",
      "outputs": [
        {
          "internalType": "bool",
          "name": "",
          "type": "bool"
        }
      ],
      "stateMutability": "view",
      "type": "function"
    },
    {
      "inputs": [],
      "name": "ceoAddress",
      "outputs": [
        {
          "internalType": "address",
          "name": "",
          "type": "address"
        }
      ],
      "stateMutability": "view",
      "type": "function"
    },
    {
      "inputs": [],
      "name": "cfoAddress",
      "outputs": [
        {
          "internalType": "address",
          "name": "",
          "type": "address"
        }
      ],
      "stateMutability": "view",
      "type": "function"
    },
    {
      "inputs": [
        {
          "internalType": "uint256",
          "name": "",
          "type": "uint256"
        }
      ],
      "name": "cheerAllowedToAddress",
      "outputs": [
        {
          "internalType": "address",
          "name": "",
          "type": "address"
        }
      ],
      "stateMutability": "view",
      "type": "function"
    },
    {
      "inputs": [
        {
          "internalType": "uint256",
          "name": "_momId",
          "type": "uint256"
        },
        {
          "internalType": "uint256",
          "name": "_dadId",
          "type": "uint256"
        }
      ],
      "name": "cheerWith",
      "outputs": [],
      "stateMutability": "nonpayable",
      "type": "function"
    },
    {
      "inputs": [],
      "name": "cooAddress",
      "outputs": [
        {
          "internalType": "address",
          "name": "",
          "type": "address"
        }
      ],
      "stateMutability": "view",
      "type": "function"
    },
    {
      "inputs": [
        {
          "internalType": "uint256",
          "name": "",
          "type": "uint256"
        }
      ],
      "name": "cooldowns",
      "outputs": [
        {
          "internalType": "uint32",
          "name": "",
          "type": "uint32"
        }
      ],
      "stateMutability": "view",
      "type": "function"
    },
    {
      "inputs": [],
      "name": "createFirstGen0Bummy",
      "outputs": [],
      "stateMutability": "nonpayable",
      "type": "function"
    },
    {
      "inputs": [
        {
          "internalType": "uint256",
          "name": "_genes",
          "type": "uint256"
        },
        {
          "internalType": "address",
          "name": "_owner",
          "type": "address"
        }
      ],
      "name": "createPromoBummy",
      "outputs": [],
      "stateMutability": "nonpayable",
      "type": "function"
    },
    {
      "inputs": [],
      "name": "gen0CreatedCount",
      "outputs": [
        {
          "internalType": "uint256",
          "name": "",
          "type": "uint256"
        }
      ],
      "stateMutability": "view",
      "type": "function"
    },
    {
      "inputs": [],
      "name": "gen0CreationLimit",
      "outputs": [
        {
          "internalType": "uint256",
          "name": "",
          "type": "uint256"
        }
      ],
      "stateMutability": "view",
      "type": "function"
    },
    {
      "inputs": [
        {
          "internalType": "uint256",
          "name": "tokenId",
          "type": "uint256"
        }
      ],
      "name": "getApproved",
      "outputs": [
        {
          "internalType": "address",
          "name": "",
          "type": "address"
        }
      ],
      "stateMutability": "view",
      "type": "function"
    },
    {
      "inputs": [
        {
          "internalType": "uint256",
          "name": "_momId",
          "type": "uint256"
        }
      ],
      "name": "inviteFriend",
      "outputs": [
        {
          "internalType": "uint256",
          "name": "",
          "type": "uint256"
        }
      ],
      "stateMutability": "nonpayable",
      "type": "function"
    },
    {
      "inputs": [
        {
          "internalType": "address",
          "name": "owner",
          "type": "address"
        },
        {
          "internalType": "address",
          "name": "operator",
          "type": "address"
        }
      ],
      "name": "isApprovedForAll",
      "outputs": [
        {
          "internalType": "bool",
          "name": "",
          "type": "bool"
        }
      ],
      "stateMutability": "view",
      "type": "function"
    },
    {
      "inputs": [
        {
          "internalType": "uint256",
          "name": "_bummyId",
          "type": "uint256"
        }
      ],
      "name": "isReadyToCheer",
      "outputs": [
        {
          "internalType": "bool",
          "name": "",
          "type": "bool"
        }
      ],
      "stateMutability": "view",
      "type": "function"
    },
    {
      "inputs": [],
      "name": "name",
      "outputs": [
        {
          "internalType": "string",
          "name": "",
          "type": "string"
        }
      ],
      "stateMutability": "view",
      "type": "function"
    },
    {
      "inputs": [
        {
          "internalType": "uint256",
          "name": "tokenId",
          "type": "uint256"
        }
      ],
      "name": "ownerOf",
      "outputs": [
        {
          "internalType": "address",
          "name": "",
          "type": "address"
        }
      ],
      "stateMutability": "view",
      "type": "function"
    },
    {
      "inputs": [],
      "name": "pause",
      "outputs": [],
      "stateMutability": "nonpayable",
      "type": "function"
    },
    {
      "inputs": [],
      "name": "paused",
      "outputs": [
        {
          "internalType": "bool",
          "name": "",
          "type": "bool"
        }
      ],
      "stateMutability": "view",
      "type": "function"
    },
    {
      "inputs": [],
      "name": "promoCreatedCount",
      "outputs": [
        {
          "internalType": "uint256",
          "name": "",
          "type": "uint256"
        }
      ],
      "stateMutability": "view",
      "type": "function"
    },
    {
      "inputs": [],
      "name": "promoCreationLimit",
      "outputs": [
        {
          "internalType": "uint256",
          "name": "",
          "type": "uint256"
        }
      ],
      "stateMutability": "view",
      "type": "function"
    },
    {
      "inputs": [
        {
          "internalType": "uint256",
          "name": "_bummyId",
          "type": "uint256"
        },
        {
          "internalType": "address",
          "name": "_recipient",
          "type": "address"
        }
      ],
      "name": "rescueLostBummy",
      "outputs": [],
      "stateMutability": "nonpayable",
      "type": "function"
    },
    {
      "inputs": [
        {
          "internalType": "address",
          "name": "from",
          "type": "address"
        },
        {
          "internalType": "address",
          "name": "to",
          "type": "address"
        },
        {
          "internalType": "uint256",
          "name": "tokenId",
          "type": "uint256"
        }
      ],
      "name": "safeTransferFrom",
      "outputs": [],
      "stateMutability": "nonpayable",
      "type": "function"
    },
    {
      "inputs": [
        {
          "internalType": "address",
          "name": "from",
          "type": "address"
        },
        {
          "internalType": "address",
          "name": "to",
          "type": "address"
        },
        {
          "internalType": "uint256",
          "name": "tokenId",
          "type": "uint256"
        },
        {
          "internalType": "bytes",
          "name": "data",
          "type": "bytes"
        }
      ],
      "name": "safeTransferFrom",
      "outputs": [],
      "stateMutability": "nonpayable",
      "type": "function"
    },
    {
      "inputs": [
        {
          "internalType": "address",
          "name": "operator",
          "type": "address"
        },
        {
          "internalType": "bool",
          "name": "approved",
          "type": "bool"
        }
      ],
      "name": "setApprovalForAll",
      "outputs": [],
      "stateMutability": "nonpayable",
      "type": "function"
    },
    {
      "inputs": [
        {
          "internalType": "address",
          "name": "_address",
          "type": "address"
        }
      ],
      "name": "setBummyInfoAddress",
      "outputs": [],
      "stateMutability": "nonpayable",
      "type": "function"
    },
    {
      "inputs": [
        {
          "internalType": "address",
          "name": "_newCEO",
          "type": "address"
        }
      ],
      "name": "setCEO",
      "outputs": [],
      "stateMutability": "nonpayable",
      "type": "function"
    },
    {
      "inputs": [
        {
          "internalType": "address",
          "name": "_newCOO",
          "type": "address"
        }
      ],
      "name": "setCOO",
      "outputs": [],
      "stateMutability": "nonpayable",
      "type": "function"
    },
    {
      "inputs": [
        {
          "internalType": "bytes4",
          "name": "interfaceId",
          "type": "bytes4"
        }
      ],
      "name": "supportsInterface",
      "outputs": [
        {
          "internalType": "bool",
          "name": "",
          "type": "bool"
        }
      ],
      "stateMutability": "view",
      "type": "function"
    },
    {
      "inputs": [],
      "name": "symbol",
      "outputs": [
        {
          "internalType": "string",
          "name": "",
          "type": "string"
        }
      ],
      "stateMutability": "view",
      "type": "function"
    },
    {
      "inputs": [
        {
          "internalType": "uint256",
          "name": "index",
          "type": "uint256"
        }
      ],
      "name": "tokenByIndex",
      "outputs": [
        {
          "internalType": "uint256",
          "name": "",
          "type": "uint256"
        }
      ],
      "stateMutability": "view",
      "type": "function"
    },
    {
      "inputs": [
        {
          "internalType": "address",
          "name": "owner",
          "type": "address"
        },
        {
          "internalType": "uint256",
          "name": "index",
          "type": "uint256"
        }
      ],
      "name": "tokenOfOwnerByIndex",
      "outputs": [
        {
          "internalType": "uint256",
          "name": "",
          "type": "uint256"
        }
      ],
      "stateMutability": "view",
      "type": "function"
    },
    {
      "inputs": [
        {
          "internalType": "uint256",
          "name": "tokenId",
          "type": "uint256"
        }
      ],
      "name": "tokenURI",
      "outputs": [
        {
          "internalType": "string",
          "name": "",
          "type": "string"
        }
      ],
      "stateMutability": "view",
      "type": "function"
    },
    {
      "inputs": [],
      "name": "totalSupply",
      "outputs": [
        {
          "internalType": "uint256",
          "name": "",
          "type": "uint256"
        }
      ],
      "stateMutability": "view",
      "type": "function"
    },
    {
      "inputs": [
        {
          "internalType": "address",
          "name": "from",
          "type": "address"
        },
        {
          "internalType": "address",
          "name": "to",
          "type": "address"
        },
        {
          "internalType": "uint256",
          "name": "tokenId",
          "type": "uint256"
        }
      ],
      "name": "transferFrom",
      "outputs": [],
      "stateMutability": "nonpayable",
      "type": "function"
    },
    {
      "inputs": [],
      "name": "unpause",
      "outputs": [],
      "stateMutability": "nonpayable",
      "type": "function"
    }
  ],
  "bytecode": "0x60806040526040518060400160405280600881526020017f42756d6d794e4654000000000000000000000000000000000000000000000000815250600d90816200004a919062000615565b506040518060400160405280600281526020017f4256000000000000000000000000000000000000000000000000000000000000815250600e908162000091919062000615565b50604051806101000160405280603c63ffffffff1663ffffffff168152602001607863ffffffff1663ffffffff16815260200161012c63ffffffff1663ffffffff16815260200161025863ffffffff1663ffffffff16815260200161070863ffffffff1663ffffffff168152602001610e1063ffffffff1663ffffffff168152602001611c2063ffffffff1663ffffffff16815260200161384063ffffffff1663ffffffff16815250600f9060086200014c929190620002d2565b5060646014556101f46015553480156200016557600080fd5b50600d8054620001759062000404565b80601f0160208091040260200160405190810160405280929190818152602001828054620001a39062000404565b8015620001f45780601f10620001c857610100808354040283529160200191620001f4565b820191906000526020600020905b815481529060010190602001808311620001d657829003601f168201915b5050505050600e8054620002089062000404565b80601f0160208091040260200160405190810160405280929190818152602001828054620002369062000404565b8015620002875780601f106200025b5761010080835404028352916020019162000287565b820191906000526020600020905b8154815290600101906020018083116200026957829003601f168201915b505050505060008060006101000a81548160ff0219169083151502179055508160039081620002b7919062000615565b508060049081620002c9919062000615565b505050620006fc565b826008600701600890048101928215620003695791602002820160005b838211156200033557835183826101000a81548163ffffffff021916908363ffffffff1602179055509260200192600401602081600301049283019260010302620002ef565b8015620003675782816101000a81549063ffffffff021916905560040160208160030104928301926001030262000335565b505b5090506200037891906200037c565b5090565b5b80821115620003975760008160009055506001016200037d565b5090565b600081519050919050565b7f4e487b7100000000000000000000000000000000000000000000000000000000600052604160045260246000fd5b7f4e487b7100000000000000000000000000000000000000000000000000000000600052602260045260246000fd5b600060028204905060018216806200041d57607f821691505b602082108103620004335762000432620003d5565b5b50919050565b60008190508160005260206000209050919050565b60006020601f8301049050919050565b600082821b905092915050565b6000600883026200049d7fffffffffffffffffffffffffffffffffffffffffffffffffffffffffffffffff826200045e565b620004a986836200045e565b95508019841693508086168417925050509392505050565b6000819050919050565b6000819050919050565b6000620004f6620004f0620004ea84620004c1565b620004cb565b620004c1565b9050919050565b6000819050919050565b6200051283620004d5565b6200052a6200052182620004fd565b8484546200046b565b825550505050565b600090565b6200054162000532565b6200054e81848462000507565b505050565b5b8181101562000576576200056a60008262000537565b60018101905062000554565b5050565b601f821115620005c5576200058f8162000439565b6200059a846200044e565b81016020851015620005aa578190505b620005c2620005b9856200044e565b83018262000553565b50505b505050565b600082821c905092915050565b6000620005ea60001984600802620005ca565b1980831691505092915050565b6000620006058383620005d7565b9150826002028217905092915050565b62000620826200039b565b67ffffffffffffffff8111156200063c576200063b620003a6565b5b62000648825462000404565b620006558282856200057a565b600060209050601f8311600181146200068d576000841562000678578287015190505b620006848582620005f7565b865550620006f4565b601f1984166200069d8662000439565b60005b82811015620006c757848901518255600182019150602085019450602081019050620006a0565b86831015620006e75784890151620006e3601f891682620005d7565b8355505b6001600288020188555050505b505050505050565b61539e806200070c6000396000f3fe608060405234801561001057600080fd5b50600436106102485760003560e01c80635edbf3601161013b5780639d586663116100b8578063b88d4fde1161007c578063b88d4fde146106c9578063c7b6b436146106e5578063c87b56dd14610715578063e985e9c514610745578063f1ca94101461077557610248565b80639d586663146106255780639d6fac6f14610641578063a22cb46514610671578063b047fb501461068d578063b5319335146106ab57610248565b80637814da8e116100ff5780637814da8e146105bb5780638456cb59146105d7578063851d9a52146105e157806395d89b41146105fd57806397ae48981461061b57610248565b80635edbf360146104df5780636352211e1461050f57806364bee5e51461053f578063684aa7ae1461056f57806370a082311461058b57610248565b806327d7874c116101c9578063404d0e3e1161018d578063404d0e3e1461043957806342842e0e14610457578063492e4943146104735780634f6ccce7146104915780635c975abb146104c157610248565b806327d7874c146103ab5780632ba73c15146103c75780632f745c59146103e35780633b4675df146104135780633f4ba83a1461042f57610248565b8063095ea7b311610210578063095ea7b3146103075780630a0f81681461032357806317091d051461034157806318160ddd1461037157806323b872dd1461038f57610248565b806301ffc9a71461024d5780630519ce791461027d57806305e455461461029b57806306fdde03146102b9578063081812fc146102d7575b600080fd5b61026760048036038101906102629190613f34565b610793565b6040516102749190613f7c565b60405180910390f35b61028561080d565b6040516102929190613fd8565b60405180910390f35b6102a3610833565b6040516102b0919061400c565b60405180910390f35b6102c1610839565b6040516102ce91906140b7565b60405180910390f35b6102f160048036038101906102ec9190614105565b6108cb565b6040516102fe9190613fd8565b60405180910390f35b610321600480360381019061031c919061415e565b610911565b005b61032b610a28565b6040516103389190613fd8565b60405180910390f35b61035b60048036038101906103569190614105565b610a4e565b6040516103689190613f7c565b60405180910390f35b610379610bd9565b604051610386919061400c565b60405180910390f35b6103a960048036038101906103a4919061419e565b610be6565b005b6103c560048036038101906103c091906141f1565b610c46565b005b6103e160048036038101906103dc91906141f1565b610d1d565b005b6103fd60048036038101906103f8919061415e565b610df4565b60405161040a919061400c565b60405180910390f35b61042d600480360381019061042891906141f1565b610e99565b005b610437610fb5565b005b610441611019565b60405161044e919061400c565b60405180910390f35b610471600480360381019061046c919061419e565b61101f565b005b61047b61103f565b604051610488919061427d565b60405180910390f35b6104ab60048036038101906104a69190614105565b611065565b6040516104b8919061400c565b60405180910390f35b6104c96110d6565b6040516104d69190613f7c565b60405180910390f35b6104f960048036038101906104f49190614105565b6110ec565b6040516105069190613fd8565b60405180910390f35b61052960048036038101906105249190614105565b61111f565b6040516105369190613fd8565b60405180910390f35b61055960048036038101906105549190614298565b6111a5565b6040516105669190613f7c565b60405180910390f35b610589600480360381019061058491906142d8565b611234565b005b6105a560048036038101906105a091906141f1565b61134c565b6040516105b2919061400c565b60405180910390f35b6105d560048036038101906105d0919061415e565b611403565b005b6105df611474565b005b6105fb60048036038101906105f69190614298565b611588565b005b6106056118d7565b60405161061291906140b7565b60405180910390f35b610623611969565b005b61063f600480360381019061063a91906142d8565b611a88565b005b61065b60048036038101906106569190614105565b611b0c565b6040516106689190614337565b60405180910390f35b61068b6004803603810190610686919061437e565b611b3c565b005b610695611b52565b6040516106a29190613fd8565b60405180910390f35b6106b3611b78565b6040516106c0919061400c565b60405180910390f35b6106e360048036038101906106de91906144f3565b611b7e565b005b6106ff60048036038101906106fa9190614105565b611be0565b60405161070c919061400c565b60405180910390f35b61072f600480360381019061072a9190614105565b611f22565b60405161073c91906140b7565b60405180910390f35b61075f600480360381019061075a9190614576565b611f8a565b60405161076c9190613f7c565b60405180910390f35b61077d61201e565b60405161078a919061400c565b60405180910390f35b60007f780e9d63000000000000000000000000000000000000000000000000000000007bffffffffffffffffffffffffffffffffffffffffffffffffffffffff1916827bffffffffffffffffffffffffffffffffffffffffffffffffffffffff19161480610806575061080582612024565b5b9050919050565b600160009054906101000a900473ffffffffffffffffffffffffffffffffffffffff1681565b60165481565b606060038054610848906145e5565b80601f0160208091040260200160405190810160405280929190818152602001828054610874906145e5565b80156108c15780601f10610896576101008083540402835291602001916108c1565b820191906000526020600020905b8154815290600101906020018083116108a457829003601f168201915b5050505050905090565b60006108d682612106565b6007600083815260200190815260200160002060009054906101000a900473ffffffffffffffffffffffffffffffffffffffff169050919050565b600061091c8261111f565b90508073ffffffffffffffffffffffffffffffffffffffff168373ffffffffffffffffffffffffffffffffffffffff160361098c576040517f08c379a000000000000000000000000000000000000000000000000000000000815260040161098390614688565b60405180910390fd5b8073ffffffffffffffffffffffffffffffffffffffff166109ab612151565b73ffffffffffffffffffffffffffffffffffffffff1614806109da57506109d9816109d4612151565b611f8a565b5b610a19576040517f08c379a0000000000000000000000000000000000000000000000000000000008152600401610a109061471a565b60405180910390fd5b610a238383612159565b505050565b600060019054906101000a900473ffffffffffffffffffffffffffffffffffffffff1681565b6000808211610a5c57600080fd5b600060108381548110610a7257610a7161473a565b5b90600052602060002090600202019050610bd18160405180610120016040529081600082015481526020016001820160009054906101000a900467ffffffffffffffff1667ffffffffffffffff1667ffffffffffffffff1681526020016001820160089054906101000a900467ffffffffffffffff1667ffffffffffffffff1667ffffffffffffffff1681526020016001820160109054906101000a900463ffffffff1663ffffffff1663ffffffff1681526020016001820160149054906101000a900463ffffffff1663ffffffff1663ffffffff1681526020016001820160189054906101000a900463ffffffff1663ffffffff1663ffffffff16815260200160018201601c9054906101000a900460ff1660ff1660ff16815260200160018201601d9054906101000a900460ff1660ff1660ff16815260200160018201601e9054906101000a900461ffff1661ffff1661ffff1681525050612212565b915050919050565b6000600b80549050905090565b610bf7610bf1612151565b82612242565b610c36576040517f08c379a0000000000000000000000000000000000000000000000000000000008152600401610c2d906147db565b60405180910390fd5b610c418383836122d7565b505050565b600060019054906101000a900473ffffffffffffffffffffffffffffffffffffffff1673ffffffffffffffffffffffffffffffffffffffff163373ffffffffffffffffffffffffffffffffffffffff1614610ca057600080fd5b600073ffffffffffffffffffffffffffffffffffffffff168173ffffffffffffffffffffffffffffffffffffffff1603610cd957600080fd5b80600060016101000a81548173ffffffffffffffffffffffffffffffffffffffff021916908373ffffffffffffffffffffffffffffffffffffffff16021790555050565b600060019054906101000a900473ffffffffffffffffffffffffffffffffffffffff1673ffffffffffffffffffffffffffffffffffffffff163373ffffffffffffffffffffffffffffffffffffffff1614610d7757600080fd5b600073ffffffffffffffffffffffffffffffffffffffff168173ffffffffffffffffffffffffffffffffffffffff1603610db057600080fd5b80600260006101000a81548173ffffffffffffffffffffffffffffffffffffffff021916908373ffffffffffffffffffffffffffffffffffffffff16021790555050565b6000610dff8361134c565b8210610e40576040517f08c379a0000000000000000000000000000000000000000000000000000000008152600401610e379061486d565b60405180910390fd5b600960008473ffffffffffffffffffffffffffffffffffffffff1673ffffffffffffffffffffffffffffffffffffffff168152602001908152602001600020600083815260200190815260200160002054905092915050565b600060019054906101000a900473ffffffffffffffffffffffffffffffffffffffff1673ffffffffffffffffffffffffffffffffffffffff163373ffffffffffffffffffffffffffffffffffffffff1614610ef357600080fd5b60008190508073ffffffffffffffffffffffffffffffffffffffff1663c4264ef66040518163ffffffff1660e01b8152600401602060405180830381865afa158015610f43573d6000803e3d6000fd5b505050506040513d601f19601f82011682018060405250810190610f6791906148a2565b610f7057600080fd5b80601260006101000a81548173ffffffffffffffffffffffffffffffffffffffff021916908373ffffffffffffffffffffffffffffffffffffffff1602179055505050565b600060019054906101000a900473ffffffffffffffffffffffffffffffffffffffff1673ffffffffffffffffffffffffffffffffffffffff163373ffffffffffffffffffffffffffffffffffffffff161461100f57600080fd5b611017612352565b565b60155481565b61103a83838360405180602001604052806000815250611b7e565b505050565b601260009054906101000a900473ffffffffffffffffffffffffffffffffffffffff1681565b600061106f610bd9565b82106110b0576040517f08c379a00000000000000000000000000000000000000000000000000000000081526004016110a790614941565b60405180910390fd5b600b82815481106110c4576110c361473a565b5b90600052602060002001549050919050565b60008060009054906101000a900460ff16905090565b60116020528060005260406000206000915054906101000a900473ffffffffffffffffffffffffffffffffffffffff1681565b60008061112b836123b4565b9050600073ffffffffffffffffffffffffffffffffffffffff168173ffffffffffffffffffffffffffffffffffffffff160361119c576040517f08c379a0000000000000000000000000000000000000000000000000000000008152600401611193906149ad565b60405180910390fd5b80915050919050565b60008083116111b357600080fd5b600082116111c057600080fd5b6000601084815481106111d6576111d561473a565b5b906000526020600020906002020190506000601084815481106111fc576111fb61473a565b5b90600052602060002090600202019050611218828683876123f1565b801561122a57506112298486612605565b5b9250505092915050565b600260009054906101000a900473ffffffffffffffffffffffffffffffffffffffff1673ffffffffffffffffffffffffffffffffffffffff163373ffffffffffffffffffffffffffffffffffffffff161461128e57600080fd5b600073ffffffffffffffffffffffffffffffffffffffff168173ffffffffffffffffffffffffffffffffffffffff16036112e857600260009054906101000a900473ffffffffffffffffffffffffffffffffffffffff1690505b601454601654106112f857600080fd5b6015546017541061130857600080fd5b6016600081548092919061131b906149fc565b919050555060176000815480929190611333906149fc565b91905055506113476000806000858561267e565b505050565b60008073ffffffffffffffffffffffffffffffffffffffff168273ffffffffffffffffffffffffffffffffffffffff16036113bc576040517f08c379a00000000000000000000000000000000000000000000000000000000081526004016113b390614ab6565b60405180910390fd5b600660008373ffffffffffffffffffffffffffffffffffffffff1673ffffffffffffffffffffffffffffffffffffffff168152602001908152602001600020549050919050565b61140b612945565b611415338261298f565b61141e57600080fd5b816011600083815260200190815260200160002060006101000a81548173ffffffffffffffffffffffffffffffffffffffff021916908373ffffffffffffffffffffffffffffffffffffffff1602179055505050565b600260009054906101000a900473ffffffffffffffffffffffffffffffffffffffff1673ffffffffffffffffffffffffffffffffffffffff163373ffffffffffffffffffffffffffffffffffffffff16148061151d5750600060019054906101000a900473ffffffffffffffffffffffffffffffffffffffff1673ffffffffffffffffffffffffffffffffffffffff163373ffffffffffffffffffffffffffffffffffffffff16145b806115755750600160009054906101000a900473ffffffffffffffffffffffffffffffffffffffff1673ffffffffffffffffffffffffffffffffffffffff163373ffffffffffffffffffffffffffffffffffffffff16145b61157e57600080fd5b6115866129d5565b565b611590612945565b61159a338361298f565b6115a357600080fd5b6115ad8183612605565b6115b657600080fd5b6000601083815481106115cc576115cb61473a565b5b9060005260206000209060020201905061172b8160405180610120016040529081600082015481526020016001820160009054906101000a900467ffffffffffffffff1667ffffffffffffffff1667ffffffffffffffff1681526020016001820160089054906101000a900467ffffffffffffffff1667ffffffffffffffff1667ffffffffffffffff1681526020016001820160109054906101000a900463ffffffff1663ffffffff1663ffffffff1681526020016001820160149054906101000a900463ffffffff1663ffffffff1663ffffffff1681526020016001820160189054906101000a900463ffffffff1663ffffffff1663ffffffff16815260200160018201601c9054906101000a900460ff1660ff1660ff16815260200160018201601d9054906101000a900460ff1660ff1660ff16815260200160018201601e9054906101000a900461ffff1661ffff1661ffff1681525050612212565b61173457600080fd5b60006010838154811061174a5761174961473a565b5b906000526020600020906002020190506118a98160405180610120016040529081600082015481526020016001820160009054906101000a900467ffffffffffffffff1667ffffffffffffffff1667ffffffffffffffff1681526020016001820160089054906101000a900467ffffffffffffffff1667ffffffffffffffff1667ffffffffffffffff1681526020016001820160109054906101000a900463ffffffff1663ffffffff1663ffffffff1681526020016001820160149054906101000a900463ffffffff1663ffffffff1663ffffffff1681526020016001820160189054906101000a900463ffffffff1663ffffffff1663ffffffff16815260200160018201601c9054906101000a900460ff1660ff1660ff16815260200160018201601d9054906101000a900460ff1660ff1660ff16815260200160018201601e9054906101000a900461ffff1661ffff1661ffff1681525050612212565b6118b257600080fd5b6118be828583866123f1565b6118c757600080fd5b6118d18484612a37565b50505050565b6060600480546118e6906145e5565b80601f0160208091040260200160405190810160405280929190818152602001828054611912906145e5565b801561195f5780601f106119345761010080835404028352916020019161195f565b820191906000526020600020905b81548152906001019060200180831161194257829003601f168201915b5050505050905090565b60001515601360003373ffffffffffffffffffffffffffffffffffffffff1673ffffffffffffffffffffffffffffffffffffffff16815260200190815260200160002060009054906101000a900460ff161515146119fc576040517f08c379a00000000000000000000000000000000000000000000000000000000081526004016119f390614b22565b60405180910390fd5b60006017544218905060176000815480929190611a18906149fc565b91905055506001601360003373ffffffffffffffffffffffffffffffffffffffff1673ffffffffffffffffffffffffffffffffffffffff16815260200190815260200160002060006101000a81548160ff021916908315150217905550611a846000806000843361267e565b5050565b600260009054906101000a900473ffffffffffffffffffffffffffffffffffffffff1673ffffffffffffffffffffffffffffffffffffffff163373ffffffffffffffffffffffffffffffffffffffff1614611ae257600080fd5b611aea612945565b611af4308361298f565b611afd57600080fd5b611b083082846122d7565b5050565b600f8160088110611b1c57600080fd5b60089182820401919006600402915054906101000a900463ffffffff1681565b611b4e611b47612151565b8383612b6d565b5050565b600260009054906101000a900473ffffffffffffffffffffffffffffffffffffffff1681565b60145481565b611b8f611b89612151565b83612242565b611bce576040517f08c379a0000000000000000000000000000000000000000000000000000000008152600401611bc5906147db565b60405180910390fd5b611bda84848484612cd9565b50505050565b6000611bea612945565b600060108381548110611c0057611bff61473a565b5b9060005260206000209060020201905060008160010160009054906101000a900467ffffffffffffffff1667ffffffffffffffff1603611c3f57600080fd5b611d8e8160405180610120016040529081600082015481526020016001820160009054906101000a900467ffffffffffffffff1667ffffffffffffffff1667ffffffffffffffff1681526020016001820160089054906101000a900467ffffffffffffffff1667ffffffffffffffff1667ffffffffffffffff1681526020016001820160109054906101000a900463ffffffff1663ffffffff1663ffffffff1681526020016001820160149054906101000a900463ffffffff1663ffffffff1663ffffffff1681526020016001820160189054906101000a900463ffffffff1663ffffffff1663ffffffff16815260200160018201601c9054906101000a900460ff1660ff1660ff16815260200160018201601d9054906101000a900460ff1660ff1660ff16815260200160018201601e9054906101000a900461ffff1661ffff1661ffff1681525050612d35565b611d9757600080fd5b60008160010160189054906101000a900463ffffffff1663ffffffff169050600060108281548110611dcc57611dcb61473a565b5b90600052602060002090600202019050600083600101601e9054906101000a900461ffff16905083600101601e9054906101000a900461ffff1661ffff1682600101601e9054906101000a900461ffff1661ffff161115611e3d5781600101601e9054906101000a900461ffff1690505b60004244338760000154604051602001611e5a9493929190614bab565b6040516020818303038152906040528051906020012060001c905060008184600001548760000154611e8c9190614bf9565b611e969190614bf9565b9050611ea181612d66565b6000611eac896123b4565b9050611eb781612dff565b6000611ef08a8960010160189054906101000a900463ffffffff1663ffffffff16600188611ee59190614c3b565b61ffff16868661267e565b9050611efb81612d66565b8760010160186101000a81549063ffffffff02191690558098505050505050505050919050565b6060611f2d82612106565b6000611f37612e98565b90506000815111611f575760405180602001604052806000815250611f82565b80611f6184612eaf565b604051602001611f72929190614cad565b6040516020818303038152906040525b915050919050565b6000600860008473ffffffffffffffffffffffffffffffffffffffff1673ffffffffffffffffffffffffffffffffffffffff16815260200190815260200160002060008373ffffffffffffffffffffffffffffffffffffffff1673ffffffffffffffffffffffffffffffffffffffff16815260200190815260200160002060009054906101000a900460ff16905092915050565b60175481565b60007f80ac58cd000000000000000000000000000000000000000000000000000000007bffffffffffffffffffffffffffffffffffffffffffffffffffffffff1916827bffffffffffffffffffffffffffffffffffffffffffffffffffffffff191614806120ef57507f5b5e139f000000000000000000000000000000000000000000000000000000007bffffffffffffffffffffffffffffffffffffffffffffffffffffffff1916827bffffffffffffffffffffffffffffffffffffffffffffffffffffffff1916145b806120ff57506120fe82612f7d565b5b9050919050565b61210f81612fe7565b61214e576040517f08c379a0000000000000000000000000000000000000000000000000000000008152600401612145906149ad565b60405180910390fd5b50565b600033905090565b816007600083815260200190815260200160002060006101000a81548173ffffffffffffffffffffffffffffffffffffffff021916908373ffffffffffffffffffffffffffffffffffffffff160217905550808273ffffffffffffffffffffffffffffffffffffffff166121cc8361111f565b73ffffffffffffffffffffffffffffffffffffffff167f8c5be1e5ebec7d5bd14f71427d1e84f3dd0314c0f7b2291e5b200ac8c7c3b92560405160405180910390a45050565b6000808260a0015163ffffffff1614801561223b575042826040015167ffffffffffffffff1611155b9050919050565b60008061224e8361111f565b90508073ffffffffffffffffffffffffffffffffffffffff168473ffffffffffffffffffffffffffffffffffffffff161480612290575061228f8185611f8a565b5b806122ce57508373ffffffffffffffffffffffffffffffffffffffff166122b6846108cb565b73ffffffffffffffffffffffffffffffffffffffff16145b91505092915050565b600073ffffffffffffffffffffffffffffffffffffffff168373ffffffffffffffffffffffffffffffffffffffff1614612342576011600082815260200190815260200160002060006101000a81549073ffffffffffffffffffffffffffffffffffffffff02191690555b61234d838383613028565b505050565b61235a613321565b60008060006101000a81548160ff0219169083151502179055507f5db9ee0a495bf2e6ff9c91a7834c1ba4fdd244a5e8aa4e537bd38aeae4b073aa61239d612151565b6040516123aa9190613fd8565b60405180910390a1565b60006005600083815260200190815260200160002060009054906101000a900473ffffffffffffffffffffffffffffffffffffffff169050919050565b600081840361240357600090506125fd565b818560010160109054906101000a900463ffffffff1663ffffffff1614806124445750818560010160149054906101000a900463ffffffff1663ffffffff16145b1561245257600090506125fd565b838360010160109054906101000a900463ffffffff1663ffffffff1614806124935750838360010160149054906101000a900463ffffffff1663ffffffff16145b156124a157600090506125fd565b60008360010160109054906101000a900463ffffffff1663ffffffff1614806124e4575060008560010160109054906101000a900463ffffffff1663ffffffff16145b156124f257600190506125fd565b8460010160109054906101000a900463ffffffff1663ffffffff168360010160109054906101000a900463ffffffff1663ffffffff16148061256757508460010160149054906101000a900463ffffffff1663ffffffff168360010160109054906101000a900463ffffffff1663ffffffff16145b1561257557600090506125fd565b8460010160109054906101000a900463ffffffff1663ffffffff168360010160149054906101000a900463ffffffff1663ffffffff1614806125ea57508460010160149054906101000a900463ffffffff1663ffffffff168360010160149054906101000a900463ffffffff1663ffffffff16145b156125f857600090506125fd565b600190505b949350505050565b600080612611836123b4565b90508073ffffffffffffffffffffffffffffffffffffffff166011600086815260200190815260200160002060009054906101000a900473ffffffffffffffffffffffffffffffffffffffff1673ffffffffffffffffffffffffffffffffffffffff161491505092915050565b600063ffffffff86111561269157600080fd5b63ffffffff8511156126a257600080fd5b61ffff8411156126b157600080fd5b60006040518061012001604052808581526020014267ffffffffffffffff168152602001600067ffffffffffffffff1681526020018863ffffffff1681526020018763ffffffff168152602001600063ffffffff168152602001600060ff168152602001600060ff1681526020018661ffff16815250905060108190806001815401808255809150506001900390600052602060002090600202016000909190919091506000820151816000015560208201518160010160006101000a81548167ffffffffffffffff021916908367ffffffffffffffff16021790555060408201518160010160086101000a81548167ffffffffffffffff021916908367ffffffffffffffff16021790555060608201518160010160106101000a81548163ffffffff021916908363ffffffff16021790555060808201518160010160146101000a81548163ffffffff021916908363ffffffff16021790555060a08201518160010160186101000a81548163ffffffff021916908363ffffffff16021790555060c082015181600101601c6101000a81548160ff021916908360ff16021790555060e082015181600101601d6101000a81548160ff021916908360ff16021790555061010082015181600101601e6101000a81548161ffff021916908361ffff1602179055505050600060016010805490506128ae9190614cd1565b905063ffffffff8111156128c157600080fd5b8373ffffffffffffffffffffffffffffffffffffffff167f14cb614758d3c982e9d2ae0ad129c2c2bdb4c5ba841155dced7bed1a27834de782846060015163ffffffff16856080015163ffffffff1686600001516040516129259493929190614d05565b60405180910390a2612937848261336a565b809250505095945050505050565b61294d6110d6565b1561298d576040517f08c379a000000000000000000000000000000000000000000000000000000000815260040161298490614d96565b60405180910390fd5b565b60008061299b8361111f565b90508073ffffffffffffffffffffffffffffffffffffffff168473ffffffffffffffffffffffffffffffffffffffff161491505092915050565b6129dd612945565b60016000806101000a81548160ff0219169083151502179055507f62e78cea01bee320cd4e420270b5ea74000d11b0c9f74754ebdbfc544b05a258612a20612151565b604051612a2d9190613fd8565b60405180910390a1565b600060108281548110612a4d57612a4c61473a565b5b90600052602060002090600202019050600060108481548110612a7357612a7261473a565b5b90600052602060002090600202019050828160010160186101000a81548163ffffffff021916908363ffffffff160217905550612aaf82613388565b612ab881613388565b6011600085815260200190815260200160002060006101000a81549073ffffffffffffffffffffffffffffffffffffffff02191690556011600084815260200190815260200160002060006101000a81549073ffffffffffffffffffffffffffffffffffffffff02191690557fb57bb8abbb44a6cff7417131e5eb1d3703a22072a6985e3ff6c653fc91056bb1612b4e856123b4565b8585604051612b5f93929190614db6565b60405180910390a150505050565b8173ffffffffffffffffffffffffffffffffffffffff168373ffffffffffffffffffffffffffffffffffffffff1603612bdb576040517f08c379a0000000000000000000000000000000000000000000000000000000008152600401612bd290614e39565b60405180910390fd5b80600860008573ffffffffffffffffffffffffffffffffffffffff1673ffffffffffffffffffffffffffffffffffffffff16815260200190815260200160002060008473ffffffffffffffffffffffffffffffffffffffff1673ffffffffffffffffffffffffffffffffffffffff16815260200190815260200160002060006101000a81548160ff0219169083151502179055508173ffffffffffffffffffffffffffffffffffffffff168373ffffffffffffffffffffffffffffffffffffffff167f17307eab39ab6107e8899845ad3d59bd9653f200f220920489ca2b5937696c3183604051612ccc9190613f7c565b60405180910390a3505050565b612ce48484846122d7565b612cf0848484846134ba565b612d2f576040517f08c379a0000000000000000000000000000000000000000000000000000000008152600401612d2690614ecb565b60405180910390fd5b50505050565b6000808260a0015163ffffffff1614158015612d5f575042826040015167ffffffffffffffff1611155b9050919050565b612dfc81604051602401612d7a919061400c565b6040516020818303038152906040527ff82c50f1000000000000000000000000000000000000000000000000000000007bffffffffffffffffffffffffffffffffffffffffffffffffffffffff19166020820180517bffffffffffffffffffffffffffffffffffffffffffffffffffffffff8381831617835250505050613641565b50565b612e9581604051602401612e139190613fd8565b6040516020818303038152906040527f2c2ecbc2000000000000000000000000000000000000000000000000000000007bffffffffffffffffffffffffffffffffffffffffffffffffffffffff19166020820180517bffffffffffffffffffffffffffffffffffffffffffffffffffffffff8381831617835250505050613641565b50565b606060405180602001604052806000815250905090565b606060006001612ebe8461366a565b01905060008167ffffffffffffffff811115612edd57612edc6143c8565b5b6040519080825280601f01601f191660200182016040528015612f0f5781602001600182028036833780820191505090505b509050600082602001820190505b600115612f72578080600190039150507f3031323334353637383961626364656600000000000000000000000000000000600a86061a8153600a8581612f6657612f65614eeb565b5b04945060008503612f1d575b819350505050919050565b60007f01ffc9a7000000000000000000000000000000000000000000000000000000007bffffffffffffffffffffffffffffffffffffffffffffffffffffffff1916827bffffffffffffffffffffffffffffffffffffffffffffffffffffffff1916149050919050565b60008073ffffffffffffffffffffffffffffffffffffffff16613009836123b4565b73ffffffffffffffffffffffffffffffffffffffff1614159050919050565b8273ffffffffffffffffffffffffffffffffffffffff166130488261111f565b73ffffffffffffffffffffffffffffffffffffffff161461309e576040517f08c379a000000000000000000000000000000000000000000000000000000000815260040161309590614f8c565b60405180910390fd5b600073ffffffffffffffffffffffffffffffffffffffff168273ffffffffffffffffffffffffffffffffffffffff160361310d576040517f08c379a00000000000000000000000000000000000000000000000000000000081526004016131049061501e565b60405180910390fd5b61311a83838360016137bd565b8273ffffffffffffffffffffffffffffffffffffffff1661313a8261111f565b73ffffffffffffffffffffffffffffffffffffffff1614613190576040517f08c379a000000000000000000000000000000000000000000000000000000000815260040161318790614f8c565b60405180910390fd5b6007600082815260200190815260200160002060006101000a81549073ffffffffffffffffffffffffffffffffffffffff02191690556001600660008573ffffffffffffffffffffffffffffffffffffffff1673ffffffffffffffffffffffffffffffffffffffff168152602001908152602001600020600082825403925050819055506001600660008473ffffffffffffffffffffffffffffffffffffffff1673ffffffffffffffffffffffffffffffffffffffff16815260200190815260200160002060008282540192505081905550816005600083815260200190815260200160002060006101000a81548173ffffffffffffffffffffffffffffffffffffffff021916908373ffffffffffffffffffffffffffffffffffffffff160217905550808273ffffffffffffffffffffffffffffffffffffffff168473ffffffffffffffffffffffffffffffffffffffff167fddf252ad1be2c89b69c2b068fc378daa952ba7f163c4a11628f55a4df523b3ef60405160405180910390a461331c838383600161391b565b505050565b6133296110d6565b613368576040517f08c379a000000000000000000000000000000000000000000000000000000000815260040161335f9061508a565b60405180910390fd5b565b613384828260405180602001604052806000815250613921565b5050565b600f81600101601c9054906101000a900460ff1660ff16600881106133b0576133af61473a565b5b600891828204019190066004029054906101000a900463ffffffff1663ffffffff16426133dd9190614bf9565b8160010160086101000a81548167ffffffffffffffff021916908367ffffffffffffffff160217905550600581600101601c9054906101000a900460ff1660ff1610801561343f5750600381600101601d9054906101000a900460ff1660ff16105b156134b757600181600101601c8282829054906101000a900460ff1661346591906150b7565b92506101000a81548160ff021916908360ff160217905550600181600101601d8282829054906101000a900460ff1661349e91906150b7565b92506101000a81548160ff021916908360ff1602179055505b50565b60006134db8473ffffffffffffffffffffffffffffffffffffffff1661397c565b15613634578373ffffffffffffffffffffffffffffffffffffffff1663150b7a02613504612151565b8786866040518563ffffffff1660e01b81526004016135269493929190615141565b6020604051808303816000875af192505050801561356257506040513d601f19601f8201168201806040525081019061355f91906151a2565b60015b6135e4573d8060008114613592576040519150601f19603f3d011682016040523d82523d6000602084013e613597565b606091505b5060008151036135dc576040517f08c379a00000000000000000000000000000000000000000000000000000000081526004016135d390614ecb565b60405180910390fd5b805181602001fd5b63150b7a0260e01b7bffffffffffffffffffffffffffffffffffffffffffffffffffffffff1916817bffffffffffffffffffffffffffffffffffffffffffffffffffffffff191614915050613639565b600190505b949350505050565b60008151905060006a636f6e736f6c652e6c6f679050602083016000808483855afa5050505050565b600080600090507a184f03e93ff9f4daa797ed6e38ed64bf6a1f01000000000000000083106136c8577a184f03e93ff9f4daa797ed6e38ed64bf6a1f01000000000000000083816136be576136bd614eeb565b5b0492506040810190505b6d04ee2d6d415b85acef81000000008310613705576d04ee2d6d415b85acef810000000083816136fb576136fa614eeb565b5b0492506020810190505b662386f26fc10000831061373457662386f26fc10000838161372a57613729614eeb565b5b0492506010810190505b6305f5e100831061375d576305f5e100838161375357613752614eeb565b5b0492506008810190505b612710831061378257612710838161377857613777614eeb565b5b0492506004810190505b606483106137a5576064838161379b5761379a614eeb565b5b0492506002810190505b600a83106137b4576001810190505b80915050919050565b6137c98484848461399f565b600181111561380d576040517f08c379a000000000000000000000000000000000000000000000000000000000815260040161380490615241565b60405180910390fd5b6000829050600073ffffffffffffffffffffffffffffffffffffffff168573ffffffffffffffffffffffffffffffffffffffff16036138545761384f816139a5565b613893565b8373ffffffffffffffffffffffffffffffffffffffff168573ffffffffffffffffffffffffffffffffffffffff16146138925761389185826139ee565b5b5b600073ffffffffffffffffffffffffffffffffffffffff168473ffffffffffffffffffffffffffffffffffffffff16036138d5576138d081613b5b565b613914565b8473ffffffffffffffffffffffffffffffffffffffff168473ffffffffffffffffffffffffffffffffffffffff1614613913576139128482613c2c565b5b5b5050505050565b50505050565b61392b8383613cab565b61393860008484846134ba565b613977576040517f08c379a000000000000000000000000000000000000000000000000000000000815260040161396e90614ecb565b60405180910390fd5b505050565b6000808273ffffffffffffffffffffffffffffffffffffffff163b119050919050565b50505050565b600b80549050600c600083815260200190815260200160002081905550600b81908060018154018082558091505060019003906000526020600020016000909190919091505550565b600060016139fb8461134c565b613a059190614cd1565b90506000600a6000848152602001908152602001600020549050818114613aea576000600960008673ffffffffffffffffffffffffffffffffffffffff1673ffffffffffffffffffffffffffffffffffffffff168152602001908152602001600020600084815260200190815260200160002054905080600960008773ffffffffffffffffffffffffffffffffffffffff1673ffffffffffffffffffffffffffffffffffffffff16815260200190815260200160002060008481526020019081526020016000208190555081600a600083815260200190815260200160002081905550505b600a600084815260200190815260200160002060009055600960008573ffffffffffffffffffffffffffffffffffffffff1673ffffffffffffffffffffffffffffffffffffffff16815260200190815260200160002060008381526020019081526020016000206000905550505050565b60006001600b80549050613b6f9190614cd1565b90506000600c60008481526020019081526020016000205490506000600b8381548110613b9f57613b9e61473a565b5b9060005260206000200154905080600b8381548110613bc157613bc061473a565b5b906000526020600020018190555081600c600083815260200190815260200160002081905550600c600085815260200190815260200160002060009055600b805480613c1057613c0f615261565b5b6001900381819060005260206000200160009055905550505050565b6000613c378361134c565b905081600960008573ffffffffffffffffffffffffffffffffffffffff1673ffffffffffffffffffffffffffffffffffffffff16815260200190815260200160002060008381526020019081526020016000208190555080600a600084815260200190815260200160002081905550505050565b600073ffffffffffffffffffffffffffffffffffffffff168273ffffffffffffffffffffffffffffffffffffffff1603613d1a576040517f08c379a0000000000000000000000000000000000000000000000000000000008152600401613d11906152dc565b60405180910390fd5b613d2381612fe7565b15613d63576040517f08c379a0000000000000000000000000000000000000000000000000000000008152600401613d5a90615348565b60405180910390fd5b613d716000838360016137bd565b613d7a81612fe7565b15613dba576040517f08c379a0000000000000000000000000000000000000000000000000000000008152600401613db190615348565b60405180910390fd5b6001600660008473ffffffffffffffffffffffffffffffffffffffff1673ffffffffffffffffffffffffffffffffffffffff16815260200190815260200160002060008282540192505081905550816005600083815260200190815260200160002060006101000a81548173ffffffffffffffffffffffffffffffffffffffff021916908373ffffffffffffffffffffffffffffffffffffffff160217905550808273ffffffffffffffffffffffffffffffffffffffff16600073ffffffffffffffffffffffffffffffffffffffff167fddf252ad1be2c89b69c2b068fc378daa952ba7f163c4a11628f55a4df523b3ef60405160405180910390a4613ec460008383600161391b565b5050565b6000604051905090565b600080fd5b600080fd5b60007fffffffff0000000000000000000000000000000000000000000000000000000082169050919050565b613f1181613edc565b8114613f1c57600080fd5b50565b600081359050613f2e81613f08565b92915050565b600060208284031215613f4a57613f49613ed2565b5b6000613f5884828501613f1f565b91505092915050565b60008115159050919050565b613f7681613f61565b82525050565b6000602082019050613f916000830184613f6d565b92915050565b600073ffffffffffffffffffffffffffffffffffffffff82169050919050565b6000613fc282613f97565b9050919050565b613fd281613fb7565b82525050565b6000602082019050613fed6000830184613fc9565b92915050565b6000819050919050565b61400681613ff3565b82525050565b60006020820190506140216000830184613ffd565b92915050565b600081519050919050565b600082825260208201905092915050565b60005b83811015614061578082015181840152602081019050614046565b60008484015250505050565b6000601f19601f8301169050919050565b600061408982614027565b6140938185614032565b93506140a3818560208601614043565b6140ac8161406d565b840191505092915050565b600060208201905081810360008301526140d1818461407e565b905092915050565b6140e281613ff3565b81146140ed57600080fd5b50565b6000813590506140ff816140d9565b92915050565b60006020828403121561411b5761411a613ed2565b5b6000614129848285016140f0565b91505092915050565b61413b81613fb7565b811461414657600080fd5b50565b60008135905061415881614132565b92915050565b6000806040838503121561417557614174613ed2565b5b600061418385828601614149565b9250506020614194858286016140f0565b9150509250929050565b6000806000606084860312156141b7576141b6613ed2565b5b60006141c586828701614149565b93505060206141d686828701614149565b92505060406141e7868287016140f0565b9150509250925092565b60006020828403121561420757614206613ed2565b5b600061421584828501614149565b91505092915050565b6000819050919050565b600061424361423e61423984613f97565b61421e565b613f97565b9050919050565b600061425582614228565b9050919050565b60006142678261424a565b9050919050565b6142778161425c565b82525050565b6000602082019050614292600083018461426e565b92915050565b600080604083850312156142af576142ae613ed2565b5b60006142bd858286016140f0565b92505060206142ce858286016140f0565b9150509250929050565b600080604083850312156142ef576142ee613ed2565b5b60006142fd858286016140f0565b925050602061430e85828601614149565b9150509250929050565b600063ffffffff82169050919050565b61433181614318565b82525050565b600060208201905061434c6000830184614328565b92915050565b61435b81613f61565b811461436657600080fd5b50565b60008135905061437881614352565b92915050565b6000806040838503121561439557614394613ed2565b5b60006143a385828601614149565b92505060206143b485828601614369565b9150509250929050565b600080fd5b600080fd5b7f4e487b7100000000000000000000000000000000000000000000000000000000600052604160045260246000fd5b6144008261406d565b810181811067ffffffffffffffff8211171561441f5761441e6143c8565b5b80604052505050565b6000614432613ec8565b905061443e82826143f7565b919050565b600067ffffffffffffffff82111561445e5761445d6143c8565b5b6144678261406d565b9050602081019050919050565b82818337600083830152505050565b600061449661449184614443565b614428565b9050828152602081018484840111156144b2576144b16143c3565b5b6144bd848285614474565b509392505050565b600082601f8301126144da576144d96143be565b5b81356144ea848260208601614483565b91505092915050565b6000806000806080858703121561450d5761450c613ed2565b5b600061451b87828801614149565b945050602061452c87828801614149565b935050604061453d878288016140f0565b925050606085013567ffffffffffffffff81111561455e5761455d613ed7565b5b61456a878288016144c5565b91505092959194509250565b6000806040838503121561458d5761458c613ed2565b5b600061459b85828601614149565b92505060206145ac85828601614149565b9150509250929050565b7f4e487b7100000000000000000000000000000000000000000000000000000000600052602260045260246000fd5b600060028204905060018216806145fd57607f821691505b6020821081036146105761460f6145b6565b5b50919050565b7f4552433732313a20617070726f76616c20746f2063757272656e74206f776e6560008201527f7200000000000000000000000000000000000000000000000000000000000000602082015250565b6000614672602183614032565b915061467d82614616565b604082019050919050565b600060208201905081810360008301526146a181614665565b9050919050565b7f4552433732313a20617070726f76652063616c6c6572206973206e6f7420746f60008201527f6b656e206f776e6572206f7220617070726f76656420666f7220616c6c000000602082015250565b6000614704603d83614032565b915061470f826146a8565b604082019050919050565b60006020820190508181036000830152614733816146f7565b9050919050565b7f4e487b7100000000000000000000000000000000000000000000000000000000600052603260045260246000fd5b7f4552433732313a2063616c6c6572206973206e6f7420746f6b656e206f776e6560008201527f72206f7220617070726f76656400000000000000000000000000000000000000602082015250565b60006147c5602d83614032565b91506147d082614769565b604082019050919050565b600060208201905081810360008301526147f4816147b8565b9050919050565b7f455243373231456e756d657261626c653a206f776e657220696e646578206f7560008201527f74206f6620626f756e6473000000000000000000000000000000000000000000602082015250565b6000614857602b83614032565b9150614862826147fb565b604082019050919050565b600060208201905081810360008301526148868161484a565b9050919050565b60008151905061489c81614352565b92915050565b6000602082840312156148b8576148b7613ed2565b5b60006148c68482850161488d565b91505092915050565b7f455243373231456e756d657261626c653a20676c6f62616c20696e646578206f60008201527f7574206f6620626f756e64730000000000000000000000000000000000000000602082015250565b600061492b602c83614032565b9150614936826148cf565b604082019050919050565b6000602082019050818103600083015261495a8161491e565b9050919050565b7f4552433732313a20696e76616c696420746f6b656e2049440000000000000000600082015250565b6000614997601883614032565b91506149a282614961565b602082019050919050565b600060208201905081810360008301526149c68161498a565b9050919050565b7f4e487b7100000000000000000000000000000000000000000000000000000000600052601160045260246000fd5b6000614a0782613ff3565b91507fffffffffffffffffffffffffffffffffffffffffffffffffffffffffffffffff8203614a3957614a386149cd565b5b600182019050919050565b7f4552433732313a2061646472657373207a65726f206973206e6f74206120766160008201527f6c6964206f776e65720000000000000000000000000000000000000000000000602082015250565b6000614aa0602983614032565b9150614aab82614a44565b604082019050919050565b60006020820190508181036000830152614acf81614a93565b9050919050565b7f596f7520616c7265616479206d696e742062756d6d7900000000000000000000600082015250565b6000614b0c601683614032565b9150614b1782614ad6565b602082019050919050565b60006020820190508181036000830152614b3b81614aff565b9050919050565b6000819050919050565b614b5d614b5882613ff3565b614b42565b82525050565b60008160601b9050919050565b6000614b7b82614b63565b9050919050565b6000614b8d82614b70565b9050919050565b614ba5614ba082613fb7565b614b82565b82525050565b6000614bb78287614b4c565b602082019150614bc78286614b4c565b602082019150614bd78285614b94565b601482019150614be78284614b4c565b60208201915081905095945050505050565b6000614c0482613ff3565b9150614c0f83613ff3565b9250828201905080821115614c2757614c266149cd565b5b92915050565b600061ffff82169050919050565b6000614c4682614c2d565b9150614c5183614c2d565b9250828201905061ffff811115614c6b57614c6a6149cd565b5b92915050565b600081905092915050565b6000614c8782614027565b614c918185614c71565b9350614ca1818560208601614043565b80840191505092915050565b6000614cb98285614c7c565b9150614cc58284614c7c565b91508190509392505050565b6000614cdc82613ff3565b9150614ce783613ff3565b9250828203905081811115614cff57614cfe6149cd565b5b92915050565b6000608082019050614d1a6000830187613ffd565b614d276020830186613ffd565b614d346040830185613ffd565b614d416060830184613ffd565b95945050505050565b7f5061757361626c653a2070617573656400000000000000000000000000000000600082015250565b6000614d80601083614032565b9150614d8b82614d4a565b602082019050919050565b60006020820190508181036000830152614daf81614d73565b9050919050565b6000606082019050614dcb6000830186613fc9565b614dd86020830185613ffd565b614de56040830184613ffd565b949350505050565b7f4552433732313a20617070726f766520746f2063616c6c657200000000000000600082015250565b6000614e23601983614032565b9150614e2e82614ded565b602082019050919050565b60006020820190508181036000830152614e5281614e16565b9050919050565b7f4552433732313a207472616e7366657220746f206e6f6e20455243373231526560008201527f63656976657220696d706c656d656e7465720000000000000000000000000000602082015250565b6000614eb5603283614032565b9150614ec082614e59565b604082019050919050565b60006020820190508181036000830152614ee481614ea8565b9050919050565b7f4e487b7100000000000000000000000000000000000000000000000000000000600052601260045260246000fd5b7f4552433732313a207472616e736665722066726f6d20696e636f72726563742060008201527f6f776e6572000000000000000000000000000000000000000000000000000000602082015250565b6000614f76602583614032565b9150614f8182614f1a565b604082019050919050565b60006020820190508181036000830152614fa581614f69565b9050919050565b7f4552433732313a207472616e7366657220746f20746865207a65726f2061646460008201527f7265737300000000000000000000000000000000000000000000000000000000602082015250565b6000615008602483614032565b915061501382614fac565b604082019050919050565b6000602082019050818103600083015261503781614ffb565b9050919050565b7f5061757361626c653a206e6f7420706175736564000000000000000000000000600082015250565b6000615074601483614032565b915061507f8261503e565b602082019050919050565b600060208201905081810360008301526150a381615067565b9050919050565b600060ff82169050919050565b60006150c2826150aa565b91506150cd836150aa565b9250828201905060ff8111156150e6576150e56149cd565b5b92915050565b600081519050919050565b600082825260208201905092915050565b6000615113826150ec565b61511d81856150f7565b935061512d818560208601614043565b6151368161406d565b840191505092915050565b60006080820190506151566000830187613fc9565b6151636020830186613fc9565b6151706040830185613ffd565b81810360608301526151828184615108565b905095945050505050565b60008151905061519c81613f08565b92915050565b6000602082840312156151b8576151b7613ed2565b5b60006151c68482850161518d565b91505092915050565b7f455243373231456e756d657261626c653a20636f6e736563757469766520747260008201527f616e7366657273206e6f7420737570706f727465640000000000000000000000602082015250565b600061522b603583614032565b9150615236826151cf565b604082019050919050565b6000602082019050818103600083015261525a8161521e565b9050919050565b7f4e487b7100000000000000000000000000000000000000000000000000000000600052603160045260246000fd5b7f4552433732313a206d696e7420746f20746865207a65726f2061646472657373600082015250565b60006152c6602083614032565b91506152d182615290565b602082019050919050565b600060208201905081810360008301526152f5816152b9565b9050919050565b7f4552433732313a20746f6b656e20616c7265616479206d696e74656400000000600082015250565b6000615332601c83614032565b915061533d826152fc565b602082019050919050565b6000602082019050818103600083015261536181615325565b905091905056fea2646970667358221220c9a40060e7be28f087770741b691729721e52bb5116a8ef5ac1dfda5faf0652864736f6c63430008110033",
  "linkReferences": {},
  "deployedLinkReferences": {}
}