{
  "_format": "hh-sol-artifact-1",
  "contractName": "BummyCore",
  "sourceName": "contracts/BummyCore.sol",
  "abi": [
    {
      "inputs": [],
      "stateMutability": "nonpayable",
      "type": "constructor"
    },
    {
      "anonymous": false,
      "inputs": [
        {
          "indexed": true,
          "internalType": "address",
          "name": "owner",
          "type": "address"
        },
        {
          "indexed": true,
          "internalType": "address",
          "name": "approved",
          "type": "address"
        },
        {
          "indexed": true,
          "internalType": "uint256",
          "name": "tokenId",
          "type": "uint256"
        }
      ],
      "name": "Approval",
      "type": "event"
    },
    {
      "anonymous": false,
      "inputs": [
        {
          "indexed": true,
          "internalType": "address",
          "name": "owner",
          "type": "address"
        },
        {
          "indexed": true,
          "internalType": "address",
          "name": "operator",
          "type": "address"
        },
        {
          "indexed": false,
          "internalType": "bool",
          "name": "approved",
          "type": "bool"
        }
      ],
      "name": "ApprovalForAll",
      "type": "event"
    },
    {
      "anonymous": false,
      "inputs": [
        {
          "indexed": false,
          "internalType": "address",
          "name": "owner",
          "type": "address"
        },
        {
          "indexed": false,
          "internalType": "uint256",
          "name": "momId",
          "type": "uint256"
        },
        {
          "indexed": false,
          "internalType": "uint256",
          "name": "dadId",
          "type": "uint256"
        }
      ],
      "name": "Cheering",
      "type": "event"
    },
    {
      "anonymous": false,
      "inputs": [
        {
          "indexed": true,
          "internalType": "address",
          "name": "owner",
          "type": "address"
        },
        {
          "indexed": false,
          "internalType": "uint256",
          "name": "BummyId",
          "type": "uint256"
        },
        {
          "indexed": false,
          "internalType": "uint256",
          "name": "momId",
          "type": "uint256"
        },
        {
          "indexed": false,
          "internalType": "uint256",
          "name": "dadId",
          "type": "uint256"
        },
        {
          "indexed": false,
          "internalType": "uint256",
          "name": "genes",
          "type": "uint256"
        }
      ],
      "name": "Invite",
      "type": "event"
    },
    {
      "anonymous": false,
      "inputs": [
        {
          "indexed": false,
          "internalType": "address",
          "name": "account",
          "type": "address"
        }
      ],
      "name": "Paused",
      "type": "event"
    },
    {
      "anonymous": false,
      "inputs": [
        {
          "indexed": true,
          "internalType": "address",
          "name": "from",
          "type": "address"
        },
        {
          "indexed": true,
          "internalType": "address",
          "name": "to",
          "type": "address"
        },
        {
          "indexed": true,
          "internalType": "uint256",
          "name": "tokenId",
          "type": "uint256"
        }
      ],
      "name": "Transfer",
      "type": "event"
    },
    {
      "anonymous": false,
      "inputs": [
        {
          "indexed": false,
          "internalType": "address",
          "name": "account",
          "type": "address"
        }
      ],
      "name": "Unpaused",
      "type": "event"
    },
    {
      "inputs": [
        {
          "internalType": "address",
          "name": "to",
          "type": "address"
        },
        {
          "internalType": "uint256",
          "name": "tokenId",
          "type": "uint256"
        }
      ],
      "name": "approve",
      "outputs": [],
      "stateMutability": "nonpayable",
      "type": "function"
    },
    {
      "inputs": [
        {
          "internalType": "address",
          "name": "_addr",
          "type": "address"
        },
        {
          "internalType": "uint256",
          "name": "_dadId",
          "type": "uint256"
        }
      ],
      "name": "approveCheering",
      "outputs": [],
      "stateMutability": "nonpayable",
      "type": "function"
    },
    {
      "inputs": [
        {
          "internalType": "address",
          "name": "owner",
          "type": "address"
        }
      ],
      "name": "balanceOf",
      "outputs": [
        {
          "internalType": "uint256",
          "name": "",
          "type": "uint256"
        }
      ],
      "stateMutability": "view",
      "type": "function"
    },
    {
      "inputs": [],
      "name": "bummyGene",
      "outputs": [
        {
          "internalType": "contract BummyInfoInterface",
          "name": "",
          "type": "address"
        }
      ],
      "stateMutability": "view",
      "type": "function"
    },
    {
      "inputs": [
        {
          "internalType": "uint256",
          "name": "_momId",
          "type": "uint256"
        },
        {
          "internalType": "uint256",
          "name": "_dadId",
          "type": "uint256"
        }
      ],
      "name": "canCheerWith",
      "outputs": [
        {
          "internalType": "bool",
          "name": "",
          "type": "bool"
        }
      ],
      "stateMutability": "view",
      "type": "function"
    },
    {
      "inputs": [],
      "name": "ceoAddress",
      "outputs": [
        {
          "internalType": "address",
          "name": "",
          "type": "address"
        }
      ],
      "stateMutability": "view",
      "type": "function"
    },
    {
      "inputs": [],
      "name": "cfoAddress",
      "outputs": [
        {
          "internalType": "address",
          "name": "",
          "type": "address"
        }
      ],
      "stateMutability": "view",
      "type": "function"
    },
    {
      "inputs": [
        {
          "internalType": "uint256",
          "name": "",
          "type": "uint256"
        }
      ],
      "name": "cheerAllowedToAddress",
      "outputs": [
        {
          "internalType": "address",
          "name": "",
          "type": "address"
        }
      ],
      "stateMutability": "view",
      "type": "function"
    },
    {
      "inputs": [
        {
          "internalType": "uint256",
          "name": "_momId",
          "type": "uint256"
        },
        {
          "internalType": "uint256",
          "name": "_dadId",
          "type": "uint256"
        }
      ],
      "name": "cheerWith",
      "outputs": [],
      "stateMutability": "nonpayable",
      "type": "function"
    },
    {
      "inputs": [],
      "name": "cooAddress",
      "outputs": [
        {
          "internalType": "address",
          "name": "",
          "type": "address"
        }
      ],
      "stateMutability": "view",
      "type": "function"
    },
    {
      "inputs": [
        {
          "internalType": "uint256",
          "name": "",
          "type": "uint256"
        }
      ],
      "name": "cooldowns",
      "outputs": [
        {
          "internalType": "uint32",
          "name": "",
          "type": "uint32"
        }
      ],
      "stateMutability": "view",
      "type": "function"
    },
    {
      "inputs": [],
      "name": "createFirstGen0Bummy",
      "outputs": [],
      "stateMutability": "nonpayable",
      "type": "function"
    },
    {
      "inputs": [
        {
          "internalType": "uint256",
          "name": "_genes",
          "type": "uint256"
        },
        {
          "internalType": "address",
          "name": "_owner",
          "type": "address"
        }
      ],
      "name": "createPromoBummy",
      "outputs": [],
      "stateMutability": "nonpayable",
      "type": "function"
    },
    {
      "inputs": [],
      "name": "gen0CreatedCount",
      "outputs": [
        {
          "internalType": "uint256",
          "name": "",
          "type": "uint256"
        }
      ],
      "stateMutability": "view",
      "type": "function"
    },
    {
      "inputs": [],
      "name": "gen0CreationLimit",
      "outputs": [
        {
          "internalType": "uint256",
          "name": "",
          "type": "uint256"
        }
      ],
      "stateMutability": "view",
      "type": "function"
    },
    {
      "inputs": [
        {
          "internalType": "uint256",
          "name": "tokenId",
          "type": "uint256"
        }
      ],
      "name": "getApproved",
      "outputs": [
        {
          "internalType": "address",
          "name": "",
          "type": "address"
        }
      ],
      "stateMutability": "view",
      "type": "function"
    },
    {
      "inputs": [
        {
          "internalType": "uint256",
          "name": "_id",
          "type": "uint256"
        }
      ],
      "name": "getBummy",
      "outputs": [
        {
          "internalType": "bool",
          "name": "isCheering",
          "type": "bool"
        },
        {
          "internalType": "bool",
          "name": "isReady",
          "type": "bool"
        },
        {
          "internalType": "uint256",
          "name": "cooldownIndex",
          "type": "uint256"
        },
        {
          "internalType": "uint256",
          "name": "nextActionAt",
          "type": "uint256"
        },
        {
          "internalType": "uint256",
          "name": "cheeringWithId",
          "type": "uint256"
        },
        {
          "internalType": "uint256",
          "name": "birthTime",
          "type": "uint256"
        },
        {
          "internalType": "uint256",
          "name": "momId",
          "type": "uint256"
        },
        {
          "internalType": "uint256",
          "name": "dadId",
          "type": "uint256"
        },
        {
          "internalType": "uint256",
          "name": "generation",
          "type": "uint256"
        },
        {
          "internalType": "uint256",
          "name": "genes",
          "type": "uint256"
        }
      ],
      "stateMutability": "view",
      "type": "function"
    },
    {
      "inputs": [
        {
          "internalType": "uint256",
          "name": "_momId",
          "type": "uint256"
        }
      ],
      "name": "inviteFriend",
      "outputs": [
        {
          "internalType": "uint256",
          "name": "",
          "type": "uint256"
        }
      ],
      "stateMutability": "nonpayable",
      "type": "function"
    },
    {
      "inputs": [
        {
          "internalType": "address",
          "name": "owner",
          "type": "address"
        },
        {
          "internalType": "address",
          "name": "operator",
          "type": "address"
        }
      ],
      "name": "isApprovedForAll",
      "outputs": [
        {
          "internalType": "bool",
          "name": "",
          "type": "bool"
        }
      ],
      "stateMutability": "view",
      "type": "function"
    },
    {
      "inputs": [
        {
          "internalType": "uint256",
          "name": "_bummyId",
          "type": "uint256"
        }
      ],
      "name": "isReadyToCheer",
      "outputs": [
        {
          "internalType": "bool",
          "name": "",
          "type": "bool"
        }
      ],
      "stateMutability": "view",
      "type": "function"
    },
    {
      "inputs": [],
      "name": "name",
      "outputs": [
        {
          "internalType": "string",
          "name": "",
          "type": "string"
        }
      ],
      "stateMutability": "view",
      "type": "function"
    },
    {
      "inputs": [],
      "name": "newContractAddress",
      "outputs": [
        {
          "internalType": "contract BummyCoreInterface",
          "name": "",
          "type": "address"
        }
      ],
      "stateMutability": "view",
      "type": "function"
    },
    {
      "inputs": [
        {
          "internalType": "uint256",
          "name": "tokenId",
          "type": "uint256"
        }
      ],
      "name": "ownerOf",
      "outputs": [
        {
          "internalType": "address",
          "name": "",
          "type": "address"
        }
      ],
      "stateMutability": "view",
      "type": "function"
    },
    {
      "inputs": [],
      "name": "pause",
      "outputs": [],
      "stateMutability": "nonpayable",
      "type": "function"
    },
    {
      "inputs": [],
      "name": "paused",
      "outputs": [
        {
          "internalType": "bool",
          "name": "",
          "type": "bool"
        }
      ],
      "stateMutability": "view",
      "type": "function"
    },
    {
      "inputs": [],
      "name": "promoCreatedCount",
      "outputs": [
        {
          "internalType": "uint256",
          "name": "",
          "type": "uint256"
        }
      ],
      "stateMutability": "view",
      "type": "function"
    },
    {
      "inputs": [],
      "name": "promoCreationLimit",
      "outputs": [
        {
          "internalType": "uint256",
          "name": "",
          "type": "uint256"
        }
      ],
      "stateMutability": "view",
      "type": "function"
    },
    {
      "inputs": [
        {
          "internalType": "uint256",
          "name": "_bummyId",
          "type": "uint256"
        },
        {
          "internalType": "address",
          "name": "_recipient",
          "type": "address"
        }
      ],
      "name": "rescueLostBummy",
      "outputs": [],
      "stateMutability": "nonpayable",
      "type": "function"
    },
    {
      "inputs": [
        {
          "internalType": "address",
          "name": "from",
          "type": "address"
        },
        {
          "internalType": "address",
          "name": "to",
          "type": "address"
        },
        {
          "internalType": "uint256",
          "name": "tokenId",
          "type": "uint256"
        }
      ],
      "name": "safeTransferFrom",
      "outputs": [],
      "stateMutability": "nonpayable",
      "type": "function"
    },
    {
      "inputs": [
        {
          "internalType": "address",
          "name": "from",
          "type": "address"
        },
        {
          "internalType": "address",
          "name": "to",
          "type": "address"
        },
        {
          "internalType": "uint256",
          "name": "tokenId",
          "type": "uint256"
        },
        {
          "internalType": "bytes",
          "name": "data",
          "type": "bytes"
        }
      ],
      "name": "safeTransferFrom",
      "outputs": [],
      "stateMutability": "nonpayable",
      "type": "function"
    },
    {
      "inputs": [
        {
          "internalType": "address",
          "name": "operator",
          "type": "address"
        },
        {
          "internalType": "bool",
          "name": "approved",
          "type": "bool"
        }
      ],
      "name": "setApprovalForAll",
      "outputs": [],
      "stateMutability": "nonpayable",
      "type": "function"
    },
    {
      "inputs": [
        {
          "internalType": "address",
          "name": "_address",
          "type": "address"
        }
      ],
      "name": "setBummyInfoAddress",
      "outputs": [],
      "stateMutability": "nonpayable",
      "type": "function"
    },
    {
      "inputs": [
        {
          "internalType": "address",
          "name": "_newCEO",
          "type": "address"
        }
      ],
      "name": "setCEO",
      "outputs": [],
      "stateMutability": "nonpayable",
      "type": "function"
    },
    {
      "inputs": [
        {
          "internalType": "address",
          "name": "_newCOO",
          "type": "address"
        }
      ],
      "name": "setCOO",
      "outputs": [],
      "stateMutability": "nonpayable",
      "type": "function"
    },
    {
      "inputs": [
        {
          "internalType": "bytes4",
          "name": "interfaceId",
          "type": "bytes4"
        }
      ],
      "name": "supportsInterface",
      "outputs": [
        {
          "internalType": "bool",
          "name": "",
          "type": "bool"
        }
      ],
      "stateMutability": "view",
      "type": "function"
    },
    {
      "inputs": [],
      "name": "symbol",
      "outputs": [
        {
          "internalType": "string",
          "name": "",
          "type": "string"
        }
      ],
      "stateMutability": "view",
      "type": "function"
    },
    {
      "inputs": [
        {
          "internalType": "uint256",
          "name": "index",
          "type": "uint256"
        }
      ],
      "name": "tokenByIndex",
      "outputs": [
        {
          "internalType": "uint256",
          "name": "",
          "type": "uint256"
        }
      ],
      "stateMutability": "view",
      "type": "function"
    },
    {
      "inputs": [
        {
          "internalType": "address",
          "name": "owner",
          "type": "address"
        },
        {
          "internalType": "uint256",
          "name": "index",
          "type": "uint256"
        }
      ],
      "name": "tokenOfOwnerByIndex",
      "outputs": [
        {
          "internalType": "uint256",
          "name": "",
          "type": "uint256"
        }
      ],
      "stateMutability": "view",
      "type": "function"
    },
    {
      "inputs": [
        {
          "internalType": "uint256",
          "name": "tokenId",
          "type": "uint256"
        }
      ],
      "name": "tokenURI",
      "outputs": [
        {
          "internalType": "string",
          "name": "",
          "type": "string"
        }
      ],
      "stateMutability": "view",
      "type": "function"
    },
    {
      "inputs": [],
      "name": "totalSupply",
      "outputs": [
        {
          "internalType": "uint256",
          "name": "",
          "type": "uint256"
        }
      ],
      "stateMutability": "view",
      "type": "function"
    },
    {
      "inputs": [
        {
          "internalType": "address",
          "name": "from",
          "type": "address"
        },
        {
          "internalType": "address",
          "name": "to",
          "type": "address"
        },
        {
          "internalType": "uint256",
          "name": "tokenId",
          "type": "uint256"
        }
      ],
      "name": "transferFrom",
      "outputs": [],
      "stateMutability": "nonpayable",
      "type": "function"
    },
    {
      "inputs": [],
      "name": "unpause",
      "outputs": [],
      "stateMutability": "nonpayable",
      "type": "function"
    }
  ],
  "bytecode": "0x60806040526040518060400160405280600881526020017f42756d6d794e4654000000000000000000000000000000000000000000000000815250600d90816200004a919062001553565b506040518060400160405280600281526020017f4256000000000000000000000000000000000000000000000000000000000000815250600e908162000091919062001553565b50604051806101000160405280603c63ffffffff1663ffffffff168152602001607863ffffffff1663ffffffff16815260200161012c63ffffffff1663ffffffff16815260200161025863ffffffff1663ffffffff16815260200161070863ffffffff1663ffffffff168152602001610e1063ffffffff1663ffffffff168152602001611c2063ffffffff1663ffffffff16815260200161384063ffffffff1663ffffffff16815250600f9060086200014c92919062001210565b5060646014556101f46015553480156200016557600080fd5b50600d8054620001759062001342565b80601f0160208091040260200160405190810160405280929190818152602001828054620001a39062001342565b8015620001f45780601f10620001c857610100808354040283529160200191620001f4565b820191906000526020600020905b815481529060010190602001808311620001d657829003601f168201915b5050505050600e8054620002089062001342565b80601f0160208091040260200160405190810160405280929190818152602001828054620002369062001342565b8015620002875780601f106200025b5761010080835404028352916020019162000287565b820191906000526020600020905b8154815290600101906020018083116200026957829003601f168201915b505050505060008060006101000a81548160ff0219169083151502179055508160039081620002b7919062001553565b508060049081620002c9919062001553565b505050620002dc6200039e60201b60201c565b33600060016101000a81548173ffffffffffffffffffffffffffffffffffffffff021916908373ffffffffffffffffffffffffffffffffffffffff16021790555033600260006101000a81548173ffffffffffffffffffffffffffffffffffffffff021916908373ffffffffffffffffffffffffffffffffffffffff1602179055506200039760008060007fffffffffffffffffffffffffffffffffffffffffffffffffffffffffffffffff61dead6200041260201b60201c565b5062001c73565b620003ae620006e960201b60201c565b60016000806101000a81548160ff0219169083151502179055507f62e78cea01bee320cd4e420270b5ea74000d11b0c9f74754ebdbfc544b05a258620003f96200073e60201b60201c565b6040516200040891906200167f565b60405180910390a1565b600063ffffffff8611156200042657600080fd5b63ffffffff8511156200043857600080fd5b61ffff8411156200044857600080fd5b60006040518061012001604052808581526020014267ffffffffffffffff168152602001600067ffffffffffffffff1681526020018863ffffffff1681526020018763ffffffff168152602001600063ffffffff168152602001600060ff168152602001600060ff1681526020018661ffff16815250905060108190806001815401808255809150506001900390600052602060002090600202016000909190919091506000820151816000015560208201518160010160006101000a81548167ffffffffffffffff021916908367ffffffffffffffff16021790555060408201518160010160086101000a81548167ffffffffffffffff021916908367ffffffffffffffff16021790555060608201518160010160106101000a81548163ffffffff021916908363ffffffff16021790555060808201518160010160146101000a81548163ffffffff021916908363ffffffff16021790555060a08201518160010160186101000a81548163ffffffff021916908363ffffffff16021790555060c082015181600101601c6101000a81548160ff021916908360ff16021790555060e082015181600101601d6101000a81548160ff021916908360ff16021790555061010082015181600101601e6101000a81548161ffff021916908361ffff160217905550505060006001601080549050620006479190620016cb565b905063ffffffff8111156200065b57600080fd5b8373ffffffffffffffffffffffffffffffffffffffff167f14cb614758d3c982e9d2ae0ad129c2c2bdb4c5ba841155dced7bed1a27834de782846060015163ffffffff16856080015163ffffffff168660000151604051620006c1949392919062001717565b60405180910390a2620006db84826200074660201b60201c565b809250505095945050505050565b620006f96200076c60201b60201c565b156200073c576040517f08c379a00000000000000000000000000000000000000000000000000000000081526004016200073390620017c5565b60405180910390fd5b565b600033905090565b620007688282604051806020016040528060008152506200078260201b60201c565b5050565b60008060009054906101000a900460ff16905090565b620007948383620007f060201b60201c565b620007a9600084848462000a3660201b60201c565b620007eb576040517f08c379a0000000000000000000000000000000000000000000000000000000008152600401620007e2906200185d565b60405180910390fd5b505050565b600073ffffffffffffffffffffffffffffffffffffffff168273ffffffffffffffffffffffffffffffffffffffff160362000862576040517f08c379a00000000000000000000000000000000000000000000000000000000081526004016200085990620018cf565b60405180910390fd5b620008738162000bdf60201b60201c565b15620008b6576040517f08c379a0000000000000000000000000000000000000000000000000000000008152600401620008ad9062001941565b60405180910390fd5b620008cc60008383600162000c2860201b60201c565b620008dd8162000bdf60201b60201c565b1562000920576040517f08c379a0000000000000000000000000000000000000000000000000000000008152600401620009179062001941565b60405180910390fd5b6001600660008473ffffffffffffffffffffffffffffffffffffffff1673ffffffffffffffffffffffffffffffffffffffff16815260200190815260200160002060008282540192505081905550816005600083815260200190815260200160002060006101000a81548173ffffffffffffffffffffffffffffffffffffffff021916908373ffffffffffffffffffffffffffffffffffffffff160217905550808273ffffffffffffffffffffffffffffffffffffffff16600073ffffffffffffffffffffffffffffffffffffffff167fddf252ad1be2c89b69c2b068fc378daa952ba7f163c4a11628f55a4df523b3ef60405160405180910390a462000a3260008383600162000dbc60201b60201c565b5050565b600062000a648473ffffffffffffffffffffffffffffffffffffffff1662000dc260201b6200221b1760201c565b1562000bd2578373ffffffffffffffffffffffffffffffffffffffff1663150b7a0262000a966200073e60201b60201c565b8786866040518563ffffffff1660e01b815260040162000aba9493929190620019fd565b6020604051808303816000875af192505050801562000af957506040513d601f19601f8201168201806040525081019062000af6919062001ab3565b60015b62000b81573d806000811462000b2c576040519150601f19603f3d011682016040523d82523d6000602084013e62000b31565b606091505b50600081510362000b79576040517f08c379a000000000000000000000000000000000000000000000000000000000815260040162000b70906200185d565b60405180910390fd5b805181602001fd5b63150b7a0260e01b7bffffffffffffffffffffffffffffffffffffffffffffffffffffffff1916817bffffffffffffffffffffffffffffffffffffffffffffffffffffffff19161491505062000bd7565b600190505b949350505050565b60008073ffffffffffffffffffffffffffffffffffffffff1662000c098362000de560201b60201c565b73ffffffffffffffffffffffffffffffffffffffff1614159050919050565b62000c418484848462000e2260201b6200223e1760201c565b600181111562000c88576040517f08c379a000000000000000000000000000000000000000000000000000000000815260040162000c7f9062001b5b565b60405180910390fd5b6000829050600073ffffffffffffffffffffffffffffffffffffffff168573ffffffffffffffffffffffffffffffffffffffff160362000cd95762000cd38162000e2860201b60201c565b62000d21565b8373ffffffffffffffffffffffffffffffffffffffff168573ffffffffffffffffffffffffffffffffffffffff161462000d205762000d1f858262000e7160201b60201c565b5b5b600073ffffffffffffffffffffffffffffffffffffffff168473ffffffffffffffffffffffffffffffffffffffff160362000d6d5762000d678162000fee60201b60201c565b62000db5565b8473ffffffffffffffffffffffffffffffffffffffff168473ffffffffffffffffffffffffffffffffffffffff161462000db45762000db38482620010ca60201b60201c565b5b5b5050505050565b50505050565b6000808273ffffffffffffffffffffffffffffffffffffffff163b119050919050565b60006005600083815260200190815260200160002060009054906101000a900473ffffffffffffffffffffffffffffffffffffffff169050919050565b50505050565b600b80549050600c600083815260200190815260200160002081905550600b81908060018154018082558091505060019003906000526020600020016000909190919091505550565b6000600162000e8b846200115660201b620013df1760201c565b62000e979190620016cb565b90506000600a600084815260200190815260200160002054905081811462000f7d576000600960008673ffffffffffffffffffffffffffffffffffffffff1673ffffffffffffffffffffffffffffffffffffffff168152602001908152602001600020600084815260200190815260200160002054905080600960008773ffffffffffffffffffffffffffffffffffffffff1673ffffffffffffffffffffffffffffffffffffffff16815260200190815260200160002060008481526020019081526020016000208190555081600a600083815260200190815260200160002081905550505b600a600084815260200190815260200160002060009055600960008573ffffffffffffffffffffffffffffffffffffffff1673ffffffffffffffffffffffffffffffffffffffff16815260200190815260200160002060008381526020019081526020016000206000905550505050565b60006001600b80549050620010049190620016cb565b90506000600c60008481526020019081526020016000205490506000600b838154811062001037576200103662001b7d565b5b9060005260206000200154905080600b83815481106200105c576200105b62001b7d565b5b906000526020600020018190555081600c600083815260200190815260200160002081905550600c600085815260200190815260200160002060009055600b805480620010ae57620010ad62001bac565b5b6001900381819060005260206000200160009055905550505050565b6000620010e2836200115660201b620013df1760201c565b905081600960008573ffffffffffffffffffffffffffffffffffffffff1673ffffffffffffffffffffffffffffffffffffffff16815260200190815260200160002060008381526020019081526020016000208190555080600a600084815260200190815260200160002081905550505050565b60008073ffffffffffffffffffffffffffffffffffffffff168273ffffffffffffffffffffffffffffffffffffffff1603620011c9576040517f08c379a0000000000000000000000000000000000000000000000000000000008152600401620011c09062001c51565b60405180910390fd5b600660008373ffffffffffffffffffffffffffffffffffffffff1673ffffffffffffffffffffffffffffffffffffffff168152602001908152602001600020549050919050565b826008600701600890048101928215620012a75791602002820160005b838211156200127357835183826101000a81548163ffffffff021916908363ffffffff16021790555092602001926004016020816003010492830192600103026200122d565b8015620012a55782816101000a81549063ffffffff021916905560040160208160030104928301926001030262001273565b505b509050620012b69190620012ba565b5090565b5b80821115620012d5576000816000905550600101620012bb565b5090565b600081519050919050565b7f4e487b7100000000000000000000000000000000000000000000000000000000600052604160045260246000fd5b7f4e487b7100000000000000000000000000000000000000000000000000000000600052602260045260246000fd5b600060028204905060018216806200135b57607f821691505b60208210810362001371576200137062001313565b5b50919050565b60008190508160005260206000209050919050565b60006020601f8301049050919050565b600082821b905092915050565b600060088302620013db7fffffffffffffffffffffffffffffffffffffffffffffffffffffffffffffffff826200139c565b620013e786836200139c565b95508019841693508086168417925050509392505050565b6000819050919050565b6000819050919050565b6000620014346200142e6200142884620013ff565b62001409565b620013ff565b9050919050565b6000819050919050565b620014508362001413565b620014686200145f826200143b565b848454620013a9565b825550505050565b600090565b6200147f62001470565b6200148c81848462001445565b505050565b5b81811015620014b457620014a860008262001475565b60018101905062001492565b5050565b601f8211156200150357620014cd8162001377565b620014d8846200138c565b81016020851015620014e8578190505b62001500620014f7856200138c565b83018262001491565b50505b505050565b600082821c905092915050565b6000620015286000198460080262001508565b1980831691505092915050565b600062001543838362001515565b9150826002028217905092915050565b6200155e82620012d9565b67ffffffffffffffff8111156200157a5762001579620012e4565b5b62001586825462001342565b62001593828285620014b8565b600060209050601f831160018114620015cb5760008415620015b6578287015190505b620015c2858262001535565b86555062001632565b601f198416620015db8662001377565b60005b828110156200160557848901518255600182019150602085019450602081019050620015de565b8683101562001625578489015162001621601f89168262001515565b8355505b6001600288020188555050505b505050505050565b600073ffffffffffffffffffffffffffffffffffffffff82169050919050565b600062001667826200163a565b9050919050565b62001679816200165a565b82525050565b60006020820190506200169660008301846200166e565b92915050565b7f4e487b7100000000000000000000000000000000000000000000000000000000600052601160045260246000fd5b6000620016d882620013ff565b9150620016e583620013ff565b92508282039050818111156200170057620016ff6200169c565b5b92915050565b6200171181620013ff565b82525050565b60006080820190506200172e600083018762001706565b6200173d602083018662001706565b6200174c604083018562001706565b6200175b606083018462001706565b95945050505050565b600082825260208201905092915050565b7f5061757361626c653a2070617573656400000000000000000000000000000000600082015250565b6000620017ad60108362001764565b9150620017ba8262001775565b602082019050919050565b60006020820190508181036000830152620017e0816200179e565b9050919050565b7f4552433732313a207472616e7366657220746f206e6f6e20455243373231526560008201527f63656976657220696d706c656d656e7465720000000000000000000000000000602082015250565b60006200184560328362001764565b91506200185282620017e7565b604082019050919050565b60006020820190508181036000830152620018788162001836565b9050919050565b7f4552433732313a206d696e7420746f20746865207a65726f2061646472657373600082015250565b6000620018b760208362001764565b9150620018c4826200187f565b602082019050919050565b60006020820190508181036000830152620018ea81620018a8565b9050919050565b7f4552433732313a20746f6b656e20616c7265616479206d696e74656400000000600082015250565b600062001929601c8362001764565b91506200193682620018f1565b602082019050919050565b600060208201905081810360008301526200195c816200191a565b9050919050565b600081519050919050565b600082825260208201905092915050565b60005b838110156200199f57808201518184015260208101905062001982565b60008484015250505050565b6000601f19601f8301169050919050565b6000620019c98262001963565b620019d581856200196e565b9350620019e78185602086016200197f565b620019f281620019ab565b840191505092915050565b600060808201905062001a1460008301876200166e565b62001a2360208301866200166e565b62001a32604083018562001706565b818103606083015262001a468184620019bc565b905095945050505050565b600080fd5b60007fffffffff0000000000000000000000000000000000000000000000000000000082169050919050565b62001a8d8162001a56565b811462001a9957600080fd5b50565b60008151905062001aad8162001a82565b92915050565b60006020828403121562001acc5762001acb62001a51565b5b600062001adc8482850162001a9c565b91505092915050565b7f455243373231456e756d657261626c653a20636f6e736563757469766520747260008201527f616e7366657273206e6f7420737570706f727465640000000000000000000000602082015250565b600062001b4360358362001764565b915062001b508262001ae5565b604082019050919050565b6000602082019050818103600083015262001b768162001b34565b9050919050565b7f4e487b7100000000000000000000000000000000000000000000000000000000600052603260045260246000fd5b7f4e487b7100000000000000000000000000000000000000000000000000000000600052603160045260246000fd5b7f4552433732313a2061646472657373207a65726f206973206e6f74206120766160008201527f6c6964206f776e65720000000000000000000000000000000000000000000000602082015250565b600062001c3960298362001764565b915062001c468262001bdb565b604082019050919050565b6000602082019050818103600083015262001c6c8162001c2a565b9050919050565b61566d8062001c836000396000f3fe608060405234801561001057600080fd5b506004361061025e5760003560e01c80636352211e1161014657806397ae4898116100c3578063b531933511610087578063b531933514610718578063b88d4fde14610736578063c7b6b43614610752578063c87b56dd14610782578063e985e9c5146107b2578063f1ca9410146107e25761025e565b806397ae4898146106885780639d586663146106925780639d6fac6f146106ae578063a22cb465146106de578063b047fb50146106fa5761025e565b80637814da8e1161010a5780637814da8e146105ef5780638456cb591461060b578063851d9a521461061557806390111aa51461063157806395d89b411461066a5761025e565b80636352211e1461052557806364bee5e514610555578063684aa7ae146105855780636af04a57146105a157806370a08231146105bf5761025e565b806327d7874c116101df578063404d0e3e116101a3578063404d0e3e1461044f57806342842e0e1461046d578063492e4943146104895780634f6ccce7146104a75780635c975abb146104d75780635edbf360146104f55761025e565b806327d7874c146103c15780632ba73c15146103dd5780632f745c59146103f95780633b4675df146104295780633f4ba83a146104455761025e565b8063095ea7b311610226578063095ea7b31461031d5780630a0f81681461033957806317091d051461035757806318160ddd1461038757806323b872dd146103a55761025e565b806301ffc9a7146102635780630519ce791461029357806305e45546146102b157806306fdde03146102cf578063081812fc146102ed575b600080fd5b61027d6004803603810190610278919061412b565b610800565b60405161028a9190614173565b60405180910390f35b61029b61087a565b6040516102a891906141cf565b60405180910390f35b6102b96108a0565b6040516102c69190614203565b60405180910390f35b6102d76108a6565b6040516102e491906142ae565b60405180910390f35b610307600480360381019061030291906142fc565b610938565b60405161031491906141cf565b60405180910390f35b61033760048036038101906103329190614355565b61097e565b005b610341610a95565b60405161034e91906141cf565b60405180910390f35b610371600480360381019061036c91906142fc565b610abb565b60405161037e9190614173565b60405180910390f35b61038f610c46565b60405161039c9190614203565b60405180910390f35b6103bf60048036038101906103ba9190614395565b610c53565b005b6103db60048036038101906103d691906143e8565b610cb3565b005b6103f760048036038101906103f291906143e8565b610d8a565b005b610413600480360381019061040e9190614355565b610e61565b6040516104209190614203565b60405180910390f35b610443600480360381019061043e91906143e8565b610f06565b005b61044d611022565b005b610457611086565b6040516104649190614203565b60405180910390f35b61048760048036038101906104829190614395565b61108c565b005b6104916110ac565b60405161049e9190614474565b60405180910390f35b6104c160048036038101906104bc91906142fc565b6110d2565b6040516104ce9190614203565b60405180910390f35b6104df611143565b6040516104ec9190614173565b60405180910390f35b61050f600480360381019061050a91906142fc565b611159565b60405161051c91906141cf565b60405180910390f35b61053f600480360381019061053a91906142fc565b61118c565b60405161054c91906141cf565b60405180910390f35b61056f600480360381019061056a919061448f565b611212565b60405161057c9190614173565b60405180910390f35b61059f600480360381019061059a91906144cf565b6112a1565b005b6105a96113b9565b6040516105b69190614530565b60405180910390f35b6105d960048036038101906105d491906143e8565b6113df565b6040516105e69190614203565b60405180910390f35b61060960048036038101906106049190614355565b611496565b005b610613611507565b005b61062f600480360381019061062a919061448f565b61161b565b005b61064b600480360381019061064691906142fc565b61196a565b6040516106619a9998979695949392919061454b565b60405180910390f35b610672611ace565b60405161067f91906142ae565b60405180910390f35b610690611b60565b005b6106ac60048036038101906106a791906144cf565b611c7f565b005b6106c860048036038101906106c391906142fc565b611d03565b6040516106d59190614606565b60405180910390f35b6106f860048036038101906106f3919061464d565b611d33565b005b610702611d49565b60405161070f91906141cf565b60405180910390f35b610720611d6f565b60405161072d9190614203565b60405180910390f35b610750600480360381019061074b91906147c2565b611d75565b005b61076c600480360381019061076791906142fc565b611dd7565b6040516107799190614203565b60405180910390f35b61079c600480360381019061079791906142fc565b612119565b6040516107a991906142ae565b60405180910390f35b6107cc60048036038101906107c79190614845565b612181565b6040516107d99190614173565b60405180910390f35b6107ea612215565b6040516107f79190614203565b60405180910390f35b60007f780e9d63000000000000000000000000000000000000000000000000000000007bffffffffffffffffffffffffffffffffffffffffffffffffffffffff1916827bffffffffffffffffffffffffffffffffffffffffffffffffffffffff19161480610873575061087282612244565b5b9050919050565b600160009054906101000a900473ffffffffffffffffffffffffffffffffffffffff1681565b60165481565b6060600380546108b5906148b4565b80601f01602080910402602001604051908101604052809291908181526020018280546108e1906148b4565b801561092e5780601f106109035761010080835404028352916020019161092e565b820191906000526020600020905b81548152906001019060200180831161091157829003601f168201915b5050505050905090565b600061094382612326565b6007600083815260200190815260200160002060009054906101000a900473ffffffffffffffffffffffffffffffffffffffff169050919050565b60006109898261118c565b90508073ffffffffffffffffffffffffffffffffffffffff168373ffffffffffffffffffffffffffffffffffffffff16036109f9576040517f08c379a00000000000000000000000000000000000000000000000000000000081526004016109f090614957565b60405180910390fd5b8073ffffffffffffffffffffffffffffffffffffffff16610a18612371565b73ffffffffffffffffffffffffffffffffffffffff161480610a475750610a4681610a41612371565b612181565b5b610a86576040517f08c379a0000000000000000000000000000000000000000000000000000000008152600401610a7d906149e9565b60405180910390fd5b610a908383612379565b505050565b600060019054906101000a900473ffffffffffffffffffffffffffffffffffffffff1681565b6000808211610ac957600080fd5b600060108381548110610adf57610ade614a09565b5b90600052602060002090600202019050610c3e8160405180610120016040529081600082015481526020016001820160009054906101000a900467ffffffffffffffff1667ffffffffffffffff1667ffffffffffffffff1681526020016001820160089054906101000a900467ffffffffffffffff1667ffffffffffffffff1667ffffffffffffffff1681526020016001820160109054906101000a900463ffffffff1663ffffffff1663ffffffff1681526020016001820160149054906101000a900463ffffffff1663ffffffff1663ffffffff1681526020016001820160189054906101000a900463ffffffff1663ffffffff1663ffffffff16815260200160018201601c9054906101000a900460ff1660ff1660ff16815260200160018201601d9054906101000a900460ff1660ff1660ff16815260200160018201601e9054906101000a900461ffff1661ffff1661ffff1681525050612432565b915050919050565b6000600b80549050905090565b610c64610c5e612371565b82612462565b610ca3576040517f08c379a0000000000000000000000000000000000000000000000000000000008152600401610c9a90614aaa565b60405180910390fd5b610cae8383836124f7565b505050565b600060019054906101000a900473ffffffffffffffffffffffffffffffffffffffff1673ffffffffffffffffffffffffffffffffffffffff163373ffffffffffffffffffffffffffffffffffffffff1614610d0d57600080fd5b600073ffffffffffffffffffffffffffffffffffffffff168173ffffffffffffffffffffffffffffffffffffffff1603610d4657600080fd5b80600060016101000a81548173ffffffffffffffffffffffffffffffffffffffff021916908373ffffffffffffffffffffffffffffffffffffffff16021790555050565b600060019054906101000a900473ffffffffffffffffffffffffffffffffffffffff1673ffffffffffffffffffffffffffffffffffffffff163373ffffffffffffffffffffffffffffffffffffffff1614610de457600080fd5b600073ffffffffffffffffffffffffffffffffffffffff168173ffffffffffffffffffffffffffffffffffffffff1603610e1d57600080fd5b80600260006101000a81548173ffffffffffffffffffffffffffffffffffffffff021916908373ffffffffffffffffffffffffffffffffffffffff16021790555050565b6000610e6c836113df565b8210610ead576040517f08c379a0000000000000000000000000000000000000000000000000000000008152600401610ea490614b3c565b60405180910390fd5b600960008473ffffffffffffffffffffffffffffffffffffffff1673ffffffffffffffffffffffffffffffffffffffff168152602001908152602001600020600083815260200190815260200160002054905092915050565b600060019054906101000a900473ffffffffffffffffffffffffffffffffffffffff1673ffffffffffffffffffffffffffffffffffffffff163373ffffffffffffffffffffffffffffffffffffffff1614610f6057600080fd5b60008190508073ffffffffffffffffffffffffffffffffffffffff1663c4264ef66040518163ffffffff1660e01b8152600401602060405180830381865afa158015610fb0573d6000803e3d6000fd5b505050506040513d601f19601f82011682018060405250810190610fd49190614b71565b610fdd57600080fd5b80601260006101000a81548173ffffffffffffffffffffffffffffffffffffffff021916908373ffffffffffffffffffffffffffffffffffffffff1602179055505050565b600060019054906101000a900473ffffffffffffffffffffffffffffffffffffffff1673ffffffffffffffffffffffffffffffffffffffff163373ffffffffffffffffffffffffffffffffffffffff161461107c57600080fd5b611084612572565b565b60155481565b6110a783838360405180602001604052806000815250611d75565b505050565b601260009054906101000a900473ffffffffffffffffffffffffffffffffffffffff1681565b60006110dc610c46565b821061111d576040517f08c379a000000000000000000000000000000000000000000000000000000000815260040161111490614c10565b60405180910390fd5b600b828154811061113157611130614a09565b5b90600052602060002001549050919050565b60008060009054906101000a900460ff16905090565b60116020528060005260406000206000915054906101000a900473ffffffffffffffffffffffffffffffffffffffff1681565b600080611198836125d4565b9050600073ffffffffffffffffffffffffffffffffffffffff168173ffffffffffffffffffffffffffffffffffffffff1603611209576040517f08c379a000000000000000000000000000000000000000000000000000000000815260040161120090614c7c565b60405180910390fd5b80915050919050565b600080831161122057600080fd5b6000821161122d57600080fd5b60006010848154811061124357611242614a09565b5b9060005260206000209060020201905060006010848154811061126957611268614a09565b5b9060005260206000209060020201905061128582868387612611565b801561129757506112968486612825565b5b9250505092915050565b600260009054906101000a900473ffffffffffffffffffffffffffffffffffffffff1673ffffffffffffffffffffffffffffffffffffffff163373ffffffffffffffffffffffffffffffffffffffff16146112fb57600080fd5b600073ffffffffffffffffffffffffffffffffffffffff168173ffffffffffffffffffffffffffffffffffffffff160361135557600260009054906101000a900473ffffffffffffffffffffffffffffffffffffffff1690505b6014546016541061136557600080fd5b6015546017541061137557600080fd5b6016600081548092919061138890614ccb565b9190505550601760008154809291906113a090614ccb565b91905055506113b46000806000858561289e565b505050565b601860009054906101000a900473ffffffffffffffffffffffffffffffffffffffff1681565b60008073ffffffffffffffffffffffffffffffffffffffff168273ffffffffffffffffffffffffffffffffffffffff160361144f576040517f08c379a000000000000000000000000000000000000000000000000000000000815260040161144690614d85565b60405180910390fd5b600660008373ffffffffffffffffffffffffffffffffffffffff1673ffffffffffffffffffffffffffffffffffffffff168152602001908152602001600020549050919050565b61149e612b65565b6114a83382612baf565b6114b157600080fd5b816011600083815260200190815260200160002060006101000a81548173ffffffffffffffffffffffffffffffffffffffff021916908373ffffffffffffffffffffffffffffffffffffffff1602179055505050565b600260009054906101000a900473ffffffffffffffffffffffffffffffffffffffff1673ffffffffffffffffffffffffffffffffffffffff163373ffffffffffffffffffffffffffffffffffffffff1614806115b05750600060019054906101000a900473ffffffffffffffffffffffffffffffffffffffff1673ffffffffffffffffffffffffffffffffffffffff163373ffffffffffffffffffffffffffffffffffffffff16145b806116085750600160009054906101000a900473ffffffffffffffffffffffffffffffffffffffff1673ffffffffffffffffffffffffffffffffffffffff163373ffffffffffffffffffffffffffffffffffffffff16145b61161157600080fd5b611619612bf5565b565b611623612b65565b61162d3383612baf565b61163657600080fd5b6116408183612825565b61164957600080fd5b60006010838154811061165f5761165e614a09565b5b906000526020600020906002020190506117be8160405180610120016040529081600082015481526020016001820160009054906101000a900467ffffffffffffffff1667ffffffffffffffff1667ffffffffffffffff1681526020016001820160089054906101000a900467ffffffffffffffff1667ffffffffffffffff1667ffffffffffffffff1681526020016001820160109054906101000a900463ffffffff1663ffffffff1663ffffffff1681526020016001820160149054906101000a900463ffffffff1663ffffffff1663ffffffff1681526020016001820160189054906101000a900463ffffffff1663ffffffff1663ffffffff16815260200160018201601c9054906101000a900460ff1660ff1660ff16815260200160018201601d9054906101000a900460ff1660ff1660ff16815260200160018201601e9054906101000a900461ffff1661ffff1661ffff1681525050612432565b6117c757600080fd5b6000601083815481106117dd576117dc614a09565b5b9060005260206000209060020201905061193c8160405180610120016040529081600082015481526020016001820160009054906101000a900467ffffffffffffffff1667ffffffffffffffff1667ffffffffffffffff1681526020016001820160089054906101000a900467ffffffffffffffff1667ffffffffffffffff1667ffffffffffffffff1681526020016001820160109054906101000a900463ffffffff1663ffffffff1663ffffffff1681526020016001820160149054906101000a900463ffffffff1663ffffffff1663ffffffff1681526020016001820160189054906101000a900463ffffffff1663ffffffff1663ffffffff16815260200160018201601c9054906101000a900460ff1660ff1660ff16815260200160018201601d9054906101000a900460ff1660ff1660ff16815260200160018201601e9054906101000a900461ffff1661ffff1661ffff1681525050612432565b61194557600080fd5b61195182858386612611565b61195a57600080fd5b6119648484612c57565b50505050565b600080600080600080600080600080600060108c8154811061198f5761198e614a09565b5b9060005260206000209060020201905060008160010160189054906101000a900463ffffffff1663ffffffff1614159a50428160010160089054906101000a900467ffffffffffffffff1667ffffffffffffffff161115995080600101601c9054906101000a900460ff1660ff1698508060010160089054906101000a900467ffffffffffffffff1667ffffffffffffffff1697508060010160189054906101000a900463ffffffff1663ffffffff1696508060010160009054906101000a900467ffffffffffffffff1667ffffffffffffffff1695508060010160109054906101000a900463ffffffff1663ffffffff1694508060010160149054906101000a900463ffffffff1663ffffffff16935080600101601e9054906101000a900461ffff1661ffff16925080600001549150509193959799509193959799565b606060048054611add906148b4565b80601f0160208091040260200160405190810160405280929190818152602001828054611b09906148b4565b8015611b565780601f10611b2b57610100808354040283529160200191611b56565b820191906000526020600020905b815481529060010190602001808311611b3957829003601f168201915b5050505050905090565b60001515601360003373ffffffffffffffffffffffffffffffffffffffff1673ffffffffffffffffffffffffffffffffffffffff16815260200190815260200160002060009054906101000a900460ff16151514611bf3576040517f08c379a0000000000000000000000000000000000000000000000000000000008152600401611bea90614df1565b60405180910390fd5b60006017544218905060176000815480929190611c0f90614ccb565b91905055506001601360003373ffffffffffffffffffffffffffffffffffffffff1673ffffffffffffffffffffffffffffffffffffffff16815260200190815260200160002060006101000a81548160ff021916908315150217905550611c7b6000806000843361289e565b5050565b600260009054906101000a900473ffffffffffffffffffffffffffffffffffffffff1673ffffffffffffffffffffffffffffffffffffffff163373ffffffffffffffffffffffffffffffffffffffff1614611cd957600080fd5b611ce1612b65565b611ceb3083612baf565b611cf457600080fd5b611cff3082846124f7565b5050565b600f8160088110611d1357600080fd5b60089182820401919006600402915054906101000a900463ffffffff1681565b611d45611d3e612371565b8383612d8d565b5050565b600260009054906101000a900473ffffffffffffffffffffffffffffffffffffffff1681565b60145481565b611d86611d80612371565b83612462565b611dc5576040517f08c379a0000000000000000000000000000000000000000000000000000000008152600401611dbc90614aaa565b60405180910390fd5b611dd184848484612ef9565b50505050565b6000611de1612b65565b600060108381548110611df757611df6614a09565b5b9060005260206000209060020201905060008160010160009054906101000a900467ffffffffffffffff1667ffffffffffffffff1603611e3657600080fd5b611f858160405180610120016040529081600082015481526020016001820160009054906101000a900467ffffffffffffffff1667ffffffffffffffff1667ffffffffffffffff1681526020016001820160089054906101000a900467ffffffffffffffff1667ffffffffffffffff1667ffffffffffffffff1681526020016001820160109054906101000a900463ffffffff1663ffffffff1663ffffffff1681526020016001820160149054906101000a900463ffffffff1663ffffffff1663ffffffff1681526020016001820160189054906101000a900463ffffffff1663ffffffff1663ffffffff16815260200160018201601c9054906101000a900460ff1660ff1660ff16815260200160018201601d9054906101000a900460ff1660ff1660ff16815260200160018201601e9054906101000a900461ffff1661ffff1661ffff1681525050612f55565b611f8e57600080fd5b60008160010160189054906101000a900463ffffffff1663ffffffff169050600060108281548110611fc357611fc2614a09565b5b90600052602060002090600202019050600083600101601e9054906101000a900461ffff16905083600101601e9054906101000a900461ffff1661ffff1682600101601e9054906101000a900461ffff1661ffff1611156120345781600101601e9054906101000a900461ffff1690505b600042443387600001546040516020016120519493929190614e7a565b6040516020818303038152906040528051906020012060001c9050600081846000015487600001546120839190614ec8565b61208d9190614ec8565b905061209881612f86565b60006120a3896125d4565b90506120ae8161301f565b60006120e78a8960010160189054906101000a900463ffffffff1663ffffffff166001886120dc9190614f0a565b61ffff16868661289e565b90506120f281612f86565b8760010160186101000a81549063ffffffff02191690558098505050505050505050919050565b606061212482612326565b600061212e6130b8565b9050600081511161214e5760405180602001604052806000815250612179565b80612158846130cf565b604051602001612169929190614f7c565b6040516020818303038152906040525b915050919050565b6000600860008473ffffffffffffffffffffffffffffffffffffffff1673ffffffffffffffffffffffffffffffffffffffff16815260200190815260200160002060008373ffffffffffffffffffffffffffffffffffffffff1673ffffffffffffffffffffffffffffffffffffffff16815260200190815260200160002060009054906101000a900460ff16905092915050565b60175481565b6000808273ffffffffffffffffffffffffffffffffffffffff163b119050919050565b50505050565b60007f80ac58cd000000000000000000000000000000000000000000000000000000007bffffffffffffffffffffffffffffffffffffffffffffffffffffffff1916827bffffffffffffffffffffffffffffffffffffffffffffffffffffffff1916148061230f57507f5b5e139f000000000000000000000000000000000000000000000000000000007bffffffffffffffffffffffffffffffffffffffffffffffffffffffff1916827bffffffffffffffffffffffffffffffffffffffffffffffffffffffff1916145b8061231f575061231e8261319d565b5b9050919050565b61232f81613207565b61236e576040517f08c379a000000000000000000000000000000000000000000000000000000000815260040161236590614c7c565b60405180910390fd5b50565b600033905090565b816007600083815260200190815260200160002060006101000a81548173ffffffffffffffffffffffffffffffffffffffff021916908373ffffffffffffffffffffffffffffffffffffffff160217905550808273ffffffffffffffffffffffffffffffffffffffff166123ec8361118c565b73ffffffffffffffffffffffffffffffffffffffff167f8c5be1e5ebec7d5bd14f71427d1e84f3dd0314c0f7b2291e5b200ac8c7c3b92560405160405180910390a45050565b6000808260a0015163ffffffff1614801561245b575042826040015167ffffffffffffffff1611155b9050919050565b60008061246e8361118c565b90508073ffffffffffffffffffffffffffffffffffffffff168473ffffffffffffffffffffffffffffffffffffffff1614806124b057506124af8185612181565b5b806124ee57508373ffffffffffffffffffffffffffffffffffffffff166124d684610938565b73ffffffffffffffffffffffffffffffffffffffff16145b91505092915050565b600073ffffffffffffffffffffffffffffffffffffffff168373ffffffffffffffffffffffffffffffffffffffff1614612562576011600082815260200190815260200160002060006101000a81549073ffffffffffffffffffffffffffffffffffffffff02191690555b61256d838383613248565b505050565b61257a613541565b60008060006101000a81548160ff0219169083151502179055507f5db9ee0a495bf2e6ff9c91a7834c1ba4fdd244a5e8aa4e537bd38aeae4b073aa6125bd612371565b6040516125ca91906141cf565b60405180910390a1565b60006005600083815260200190815260200160002060009054906101000a900473ffffffffffffffffffffffffffffffffffffffff169050919050565b6000818403612623576000905061281d565b818560010160109054906101000a900463ffffffff1663ffffffff1614806126645750818560010160149054906101000a900463ffffffff1663ffffffff16145b15612672576000905061281d565b838360010160109054906101000a900463ffffffff1663ffffffff1614806126b35750838360010160149054906101000a900463ffffffff1663ffffffff16145b156126c1576000905061281d565b60008360010160109054906101000a900463ffffffff1663ffffffff161480612704575060008560010160109054906101000a900463ffffffff1663ffffffff16145b15612712576001905061281d565b8460010160109054906101000a900463ffffffff1663ffffffff168360010160109054906101000a900463ffffffff1663ffffffff16148061278757508460010160149054906101000a900463ffffffff1663ffffffff168360010160109054906101000a900463ffffffff1663ffffffff16145b15612795576000905061281d565b8460010160109054906101000a900463ffffffff1663ffffffff168360010160149054906101000a900463ffffffff1663ffffffff16148061280a57508460010160149054906101000a900463ffffffff1663ffffffff168360010160149054906101000a900463ffffffff1663ffffffff16145b15612818576000905061281d565b600190505b949350505050565b600080612831836125d4565b90508073ffffffffffffffffffffffffffffffffffffffff166011600086815260200190815260200160002060009054906101000a900473ffffffffffffffffffffffffffffffffffffffff1673ffffffffffffffffffffffffffffffffffffffff161491505092915050565b600063ffffffff8611156128b157600080fd5b63ffffffff8511156128c257600080fd5b61ffff8411156128d157600080fd5b60006040518061012001604052808581526020014267ffffffffffffffff168152602001600067ffffffffffffffff1681526020018863ffffffff1681526020018763ffffffff168152602001600063ffffffff168152602001600060ff168152602001600060ff1681526020018661ffff16815250905060108190806001815401808255809150506001900390600052602060002090600202016000909190919091506000820151816000015560208201518160010160006101000a81548167ffffffffffffffff021916908367ffffffffffffffff16021790555060408201518160010160086101000a81548167ffffffffffffffff021916908367ffffffffffffffff16021790555060608201518160010160106101000a81548163ffffffff021916908363ffffffff16021790555060808201518160010160146101000a81548163ffffffff021916908363ffffffff16021790555060a08201518160010160186101000a81548163ffffffff021916908363ffffffff16021790555060c082015181600101601c6101000a81548160ff021916908360ff16021790555060e082015181600101601d6101000a81548160ff021916908360ff16021790555061010082015181600101601e6101000a81548161ffff021916908361ffff160217905550505060006001601080549050612ace9190614fa0565b905063ffffffff811115612ae157600080fd5b8373ffffffffffffffffffffffffffffffffffffffff167f14cb614758d3c982e9d2ae0ad129c2c2bdb4c5ba841155dced7bed1a27834de782846060015163ffffffff16856080015163ffffffff168660000151604051612b459493929190614fd4565b60405180910390a2612b57848261358a565b809250505095945050505050565b612b6d611143565b15612bad576040517f08c379a0000000000000000000000000000000000000000000000000000000008152600401612ba490615065565b60405180910390fd5b565b600080612bbb8361118c565b90508073ffffffffffffffffffffffffffffffffffffffff168473ffffffffffffffffffffffffffffffffffffffff161491505092915050565b612bfd612b65565b60016000806101000a81548160ff0219169083151502179055507f62e78cea01bee320cd4e420270b5ea74000d11b0c9f74754ebdbfc544b05a258612c40612371565b604051612c4d91906141cf565b60405180910390a1565b600060108281548110612c6d57612c6c614a09565b5b90600052602060002090600202019050600060108481548110612c9357612c92614a09565b5b90600052602060002090600202019050828160010160186101000a81548163ffffffff021916908363ffffffff160217905550612ccf826135a8565b612cd8816135a8565b6011600085815260200190815260200160002060006101000a81549073ffffffffffffffffffffffffffffffffffffffff02191690556011600084815260200190815260200160002060006101000a81549073ffffffffffffffffffffffffffffffffffffffff02191690557fb57bb8abbb44a6cff7417131e5eb1d3703a22072a6985e3ff6c653fc91056bb1612d6e856125d4565b8585604051612d7f93929190615085565b60405180910390a150505050565b8173ffffffffffffffffffffffffffffffffffffffff168373ffffffffffffffffffffffffffffffffffffffff1603612dfb576040517f08c379a0000000000000000000000000000000000000000000000000000000008152600401612df290615108565b60405180910390fd5b80600860008573ffffffffffffffffffffffffffffffffffffffff1673ffffffffffffffffffffffffffffffffffffffff16815260200190815260200160002060008473ffffffffffffffffffffffffffffffffffffffff1673ffffffffffffffffffffffffffffffffffffffff16815260200190815260200160002060006101000a81548160ff0219169083151502179055508173ffffffffffffffffffffffffffffffffffffffff168373ffffffffffffffffffffffffffffffffffffffff167f17307eab39ab6107e8899845ad3d59bd9653f200f220920489ca2b5937696c3183604051612eec9190614173565b60405180910390a3505050565b612f048484846124f7565b612f10848484846136da565b612f4f576040517f08c379a0000000000000000000000000000000000000000000000000000000008152600401612f469061519a565b60405180910390fd5b50505050565b6000808260a0015163ffffffff1614158015612f7f575042826040015167ffffffffffffffff1611155b9050919050565b61301c81604051602401612f9a9190614203565b6040516020818303038152906040527ff82c50f1000000000000000000000000000000000000000000000000000000007bffffffffffffffffffffffffffffffffffffffffffffffffffffffff19166020820180517bffffffffffffffffffffffffffffffffffffffffffffffffffffffff8381831617835250505050613861565b50565b6130b58160405160240161303391906141cf565b6040516020818303038152906040527f2c2ecbc2000000000000000000000000000000000000000000000000000000007bffffffffffffffffffffffffffffffffffffffffffffffffffffffff19166020820180517bffffffffffffffffffffffffffffffffffffffffffffffffffffffff8381831617835250505050613861565b50565b606060405180602001604052806000815250905090565b6060600060016130de8461388a565b01905060008167ffffffffffffffff8111156130fd576130fc614697565b5b6040519080825280601f01601f19166020018201604052801561312f5781602001600182028036833780820191505090505b509050600082602001820190505b600115613192578080600190039150507f3031323334353637383961626364656600000000000000000000000000000000600a86061a8153600a8581613186576131856151ba565b5b0494506000850361313d575b819350505050919050565b60007f01ffc9a7000000000000000000000000000000000000000000000000000000007bffffffffffffffffffffffffffffffffffffffffffffffffffffffff1916827bffffffffffffffffffffffffffffffffffffffffffffffffffffffff1916149050919050565b60008073ffffffffffffffffffffffffffffffffffffffff16613229836125d4565b73ffffffffffffffffffffffffffffffffffffffff1614159050919050565b8273ffffffffffffffffffffffffffffffffffffffff166132688261118c565b73ffffffffffffffffffffffffffffffffffffffff16146132be576040517f08c379a00000000000000000000000000000000000000000000000000000000081526004016132b59061525b565b60405180910390fd5b600073ffffffffffffffffffffffffffffffffffffffff168273ffffffffffffffffffffffffffffffffffffffff160361332d576040517f08c379a0000000000000000000000000000000000000000000000000000000008152600401613324906152ed565b60405180910390fd5b61333a83838360016139dd565b8273ffffffffffffffffffffffffffffffffffffffff1661335a8261118c565b73ffffffffffffffffffffffffffffffffffffffff16146133b0576040517f08c379a00000000000000000000000000000000000000000000000000000000081526004016133a79061525b565b60405180910390fd5b6007600082815260200190815260200160002060006101000a81549073ffffffffffffffffffffffffffffffffffffffff02191690556001600660008573ffffffffffffffffffffffffffffffffffffffff1673ffffffffffffffffffffffffffffffffffffffff168152602001908152602001600020600082825403925050819055506001600660008473ffffffffffffffffffffffffffffffffffffffff1673ffffffffffffffffffffffffffffffffffffffff16815260200190815260200160002060008282540192505081905550816005600083815260200190815260200160002060006101000a81548173ffffffffffffffffffffffffffffffffffffffff021916908373ffffffffffffffffffffffffffffffffffffffff160217905550808273ffffffffffffffffffffffffffffffffffffffff168473ffffffffffffffffffffffffffffffffffffffff167fddf252ad1be2c89b69c2b068fc378daa952ba7f163c4a11628f55a4df523b3ef60405160405180910390a461353c8383836001613b3b565b505050565b613549611143565b613588576040517f08c379a000000000000000000000000000000000000000000000000000000000815260040161357f90615359565b60405180910390fd5b565b6135a4828260405180602001604052806000815250613b41565b5050565b600f81600101601c9054906101000a900460ff1660ff16600881106135d0576135cf614a09565b5b600891828204019190066004029054906101000a900463ffffffff1663ffffffff16426135fd9190614ec8565b8160010160086101000a81548167ffffffffffffffff021916908367ffffffffffffffff160217905550600581600101601c9054906101000a900460ff1660ff1610801561365f5750600381600101601d9054906101000a900460ff1660ff16105b156136d757600181600101601c8282829054906101000a900460ff166136859190615386565b92506101000a81548160ff021916908360ff160217905550600181600101601d8282829054906101000a900460ff166136be9190615386565b92506101000a81548160ff021916908360ff1602179055505b50565b60006136fb8473ffffffffffffffffffffffffffffffffffffffff1661221b565b15613854578373ffffffffffffffffffffffffffffffffffffffff1663150b7a02613724612371565b8786866040518563ffffffff1660e01b81526004016137469493929190615410565b6020604051808303816000875af192505050801561378257506040513d601f19601f8201168201806040525081019061377f9190615471565b60015b613804573d80600081146137b2576040519150601f19603f3d011682016040523d82523d6000602084013e6137b7565b606091505b5060008151036137fc576040517f08c379a00000000000000000000000000000000000000000000000000000000081526004016137f39061519a565b60405180910390fd5b805181602001fd5b63150b7a0260e01b7bffffffffffffffffffffffffffffffffffffffffffffffffffffffff1916817bffffffffffffffffffffffffffffffffffffffffffffffffffffffff191614915050613859565b600190505b949350505050565b60008151905060006a636f6e736f6c652e6c6f679050602083016000808483855afa5050505050565b600080600090507a184f03e93ff9f4daa797ed6e38ed64bf6a1f01000000000000000083106138e8577a184f03e93ff9f4daa797ed6e38ed64bf6a1f01000000000000000083816138de576138dd6151ba565b5b0492506040810190505b6d04ee2d6d415b85acef81000000008310613925576d04ee2d6d415b85acef8100000000838161391b5761391a6151ba565b5b0492506020810190505b662386f26fc10000831061395457662386f26fc10000838161394a576139496151ba565b5b0492506010810190505b6305f5e100831061397d576305f5e1008381613973576139726151ba565b5b0492506008810190505b61271083106139a2576127108381613998576139976151ba565b5b0492506004810190505b606483106139c557606483816139bb576139ba6151ba565b5b0492506002810190505b600a83106139d4576001810190505b80915050919050565b6139e98484848461223e565b6001811115613a2d576040517f08c379a0000000000000000000000000000000000000000000000000000000008152600401613a2490615510565b60405180910390fd5b6000829050600073ffffffffffffffffffffffffffffffffffffffff168573ffffffffffffffffffffffffffffffffffffffff1603613a7457613a6f81613b9c565b613ab3565b8373ffffffffffffffffffffffffffffffffffffffff168573ffffffffffffffffffffffffffffffffffffffff1614613ab257613ab18582613be5565b5b5b600073ffffffffffffffffffffffffffffffffffffffff168473ffffffffffffffffffffffffffffffffffffffff1603613af557613af081613d52565b613b34565b8473ffffffffffffffffffffffffffffffffffffffff168473ffffffffffffffffffffffffffffffffffffffff1614613b3357613b328482613e23565b5b5b5050505050565b50505050565b613b4b8383613ea2565b613b5860008484846136da565b613b97576040517f08c379a0000000000000000000000000000000000000000000000000000000008152600401613b8e9061519a565b60405180910390fd5b505050565b600b80549050600c600083815260200190815260200160002081905550600b81908060018154018082558091505060019003906000526020600020016000909190919091505550565b60006001613bf2846113df565b613bfc9190614fa0565b90506000600a6000848152602001908152602001600020549050818114613ce1576000600960008673ffffffffffffffffffffffffffffffffffffffff1673ffffffffffffffffffffffffffffffffffffffff168152602001908152602001600020600084815260200190815260200160002054905080600960008773ffffffffffffffffffffffffffffffffffffffff1673ffffffffffffffffffffffffffffffffffffffff16815260200190815260200160002060008481526020019081526020016000208190555081600a600083815260200190815260200160002081905550505b600a600084815260200190815260200160002060009055600960008573ffffffffffffffffffffffffffffffffffffffff1673ffffffffffffffffffffffffffffffffffffffff16815260200190815260200160002060008381526020019081526020016000206000905550505050565b60006001600b80549050613d669190614fa0565b90506000600c60008481526020019081526020016000205490506000600b8381548110613d9657613d95614a09565b5b9060005260206000200154905080600b8381548110613db857613db7614a09565b5b906000526020600020018190555081600c600083815260200190815260200160002081905550600c600085815260200190815260200160002060009055600b805480613e0757613e06615530565b5b6001900381819060005260206000200160009055905550505050565b6000613e2e836113df565b905081600960008573ffffffffffffffffffffffffffffffffffffffff1673ffffffffffffffffffffffffffffffffffffffff16815260200190815260200160002060008381526020019081526020016000208190555080600a600084815260200190815260200160002081905550505050565b600073ffffffffffffffffffffffffffffffffffffffff168273ffffffffffffffffffffffffffffffffffffffff1603613f11576040517f08c379a0000000000000000000000000000000000000000000000000000000008152600401613f08906155ab565b60405180910390fd5b613f1a81613207565b15613f5a576040517f08c379a0000000000000000000000000000000000000000000000000000000008152600401613f5190615617565b60405180910390fd5b613f686000838360016139dd565b613f7181613207565b15613fb1576040517f08c379a0000000000000000000000000000000000000000000000000000000008152600401613fa890615617565b60405180910390fd5b6001600660008473ffffffffffffffffffffffffffffffffffffffff1673ffffffffffffffffffffffffffffffffffffffff16815260200190815260200160002060008282540192505081905550816005600083815260200190815260200160002060006101000a81548173ffffffffffffffffffffffffffffffffffffffff021916908373ffffffffffffffffffffffffffffffffffffffff160217905550808273ffffffffffffffffffffffffffffffffffffffff16600073ffffffffffffffffffffffffffffffffffffffff167fddf252ad1be2c89b69c2b068fc378daa952ba7f163c4a11628f55a4df523b3ef60405160405180910390a46140bb600083836001613b3b565b5050565b6000604051905090565b600080fd5b600080fd5b60007fffffffff0000000000000000000000000000000000000000000000000000000082169050919050565b614108816140d3565b811461411357600080fd5b50565b600081359050614125816140ff565b92915050565b600060208284031215614141576141406140c9565b5b600061414f84828501614116565b91505092915050565b60008115159050919050565b61416d81614158565b82525050565b60006020820190506141886000830184614164565b92915050565b600073ffffffffffffffffffffffffffffffffffffffff82169050919050565b60006141b98261418e565b9050919050565b6141c9816141ae565b82525050565b60006020820190506141e460008301846141c0565b92915050565b6000819050919050565b6141fd816141ea565b82525050565b600060208201905061421860008301846141f4565b92915050565b600081519050919050565b600082825260208201905092915050565b60005b8381101561425857808201518184015260208101905061423d565b60008484015250505050565b6000601f19601f8301169050919050565b60006142808261421e565b61428a8185614229565b935061429a81856020860161423a565b6142a381614264565b840191505092915050565b600060208201905081810360008301526142c88184614275565b905092915050565b6142d9816141ea565b81146142e457600080fd5b50565b6000813590506142f6816142d0565b92915050565b600060208284031215614312576143116140c9565b5b6000614320848285016142e7565b91505092915050565b614332816141ae565b811461433d57600080fd5b50565b60008135905061434f81614329565b92915050565b6000806040838503121561436c5761436b6140c9565b5b600061437a85828601614340565b925050602061438b858286016142e7565b9150509250929050565b6000806000606084860312156143ae576143ad6140c9565b5b60006143bc86828701614340565b93505060206143cd86828701614340565b92505060406143de868287016142e7565b9150509250925092565b6000602082840312156143fe576143fd6140c9565b5b600061440c84828501614340565b91505092915050565b6000819050919050565b600061443a6144356144308461418e565b614415565b61418e565b9050919050565b600061444c8261441f565b9050919050565b600061445e82614441565b9050919050565b61446e81614453565b82525050565b60006020820190506144896000830184614465565b92915050565b600080604083850312156144a6576144a56140c9565b5b60006144b4858286016142e7565b92505060206144c5858286016142e7565b9150509250929050565b600080604083850312156144e6576144e56140c9565b5b60006144f4858286016142e7565b925050602061450585828601614340565b9150509250929050565b600061451a82614441565b9050919050565b61452a8161450f565b82525050565b60006020820190506145456000830184614521565b92915050565b600061014082019050614561600083018d614164565b61456e602083018c614164565b61457b604083018b6141f4565b614588606083018a6141f4565b61459560808301896141f4565b6145a260a08301886141f4565b6145af60c08301876141f4565b6145bc60e08301866141f4565b6145ca6101008301856141f4565b6145d86101208301846141f4565b9b9a5050505050505050505050565b600063ffffffff82169050919050565b614600816145e7565b82525050565b600060208201905061461b60008301846145f7565b92915050565b61462a81614158565b811461463557600080fd5b50565b60008135905061464781614621565b92915050565b60008060408385031215614664576146636140c9565b5b600061467285828601614340565b925050602061468385828601614638565b9150509250929050565b600080fd5b600080fd5b7f4e487b7100000000000000000000000000000000000000000000000000000000600052604160045260246000fd5b6146cf82614264565b810181811067ffffffffffffffff821117156146ee576146ed614697565b5b80604052505050565b60006147016140bf565b905061470d82826146c6565b919050565b600067ffffffffffffffff82111561472d5761472c614697565b5b61473682614264565b9050602081019050919050565b82818337600083830152505050565b600061476561476084614712565b6146f7565b90508281526020810184848401111561478157614780614692565b5b61478c848285614743565b509392505050565b600082601f8301126147a9576147a861468d565b5b81356147b9848260208601614752565b91505092915050565b600080600080608085870312156147dc576147db6140c9565b5b60006147ea87828801614340565b94505060206147fb87828801614340565b935050604061480c878288016142e7565b925050606085013567ffffffffffffffff81111561482d5761482c6140ce565b5b61483987828801614794565b91505092959194509250565b6000806040838503121561485c5761485b6140c9565b5b600061486a85828601614340565b925050602061487b85828601614340565b9150509250929050565b7f4e487b7100000000000000000000000000000000000000000000000000000000600052602260045260246000fd5b600060028204905060018216806148cc57607f821691505b6020821081036148df576148de614885565b5b50919050565b7f4552433732313a20617070726f76616c20746f2063757272656e74206f776e6560008201527f7200000000000000000000000000000000000000000000000000000000000000602082015250565b6000614941602183614229565b915061494c826148e5565b604082019050919050565b6000602082019050818103600083015261497081614934565b9050919050565b7f4552433732313a20617070726f76652063616c6c6572206973206e6f7420746f60008201527f6b656e206f776e6572206f7220617070726f76656420666f7220616c6c000000602082015250565b60006149d3603d83614229565b91506149de82614977565b604082019050919050565b60006020820190508181036000830152614a02816149c6565b9050919050565b7f4e487b7100000000000000000000000000000000000000000000000000000000600052603260045260246000fd5b7f4552433732313a2063616c6c6572206973206e6f7420746f6b656e206f776e6560008201527f72206f7220617070726f76656400000000000000000000000000000000000000602082015250565b6000614a94602d83614229565b9150614a9f82614a38565b604082019050919050565b60006020820190508181036000830152614ac381614a87565b9050919050565b7f455243373231456e756d657261626c653a206f776e657220696e646578206f7560008201527f74206f6620626f756e6473000000000000000000000000000000000000000000602082015250565b6000614b26602b83614229565b9150614b3182614aca565b604082019050919050565b60006020820190508181036000830152614b5581614b19565b9050919050565b600081519050614b6b81614621565b92915050565b600060208284031215614b8757614b866140c9565b5b6000614b9584828501614b5c565b91505092915050565b7f455243373231456e756d657261626c653a20676c6f62616c20696e646578206f60008201527f7574206f6620626f756e64730000000000000000000000000000000000000000602082015250565b6000614bfa602c83614229565b9150614c0582614b9e565b604082019050919050565b60006020820190508181036000830152614c2981614bed565b9050919050565b7f4552433732313a20696e76616c696420746f6b656e2049440000000000000000600082015250565b6000614c66601883614229565b9150614c7182614c30565b602082019050919050565b60006020820190508181036000830152614c9581614c59565b9050919050565b7f4e487b7100000000000000000000000000000000000000000000000000000000600052601160045260246000fd5b6000614cd6826141ea565b91507fffffffffffffffffffffffffffffffffffffffffffffffffffffffffffffffff8203614d0857614d07614c9c565b5b600182019050919050565b7f4552433732313a2061646472657373207a65726f206973206e6f74206120766160008201527f6c6964206f776e65720000000000000000000000000000000000000000000000602082015250565b6000614d6f602983614229565b9150614d7a82614d13565b604082019050919050565b60006020820190508181036000830152614d9e81614d62565b9050919050565b7f596f7520616c7265616479206d696e742062756d6d7900000000000000000000600082015250565b6000614ddb601683614229565b9150614de682614da5565b602082019050919050565b60006020820190508181036000830152614e0a81614dce565b9050919050565b6000819050919050565b614e2c614e27826141ea565b614e11565b82525050565b60008160601b9050919050565b6000614e4a82614e32565b9050919050565b6000614e5c82614e3f565b9050919050565b614e74614e6f826141ae565b614e51565b82525050565b6000614e868287614e1b565b602082019150614e968286614e1b565b602082019150614ea68285614e63565b601482019150614eb68284614e1b565b60208201915081905095945050505050565b6000614ed3826141ea565b9150614ede836141ea565b9250828201905080821115614ef657614ef5614c9c565b5b92915050565b600061ffff82169050919050565b6000614f1582614efc565b9150614f2083614efc565b9250828201905061ffff811115614f3a57614f39614c9c565b5b92915050565b600081905092915050565b6000614f568261421e565b614f608185614f40565b9350614f7081856020860161423a565b80840191505092915050565b6000614f888285614f4b565b9150614f948284614f4b565b91508190509392505050565b6000614fab826141ea565b9150614fb6836141ea565b9250828203905081811115614fce57614fcd614c9c565b5b92915050565b6000608082019050614fe960008301876141f4565b614ff660208301866141f4565b61500360408301856141f4565b61501060608301846141f4565b95945050505050565b7f5061757361626c653a2070617573656400000000000000000000000000000000600082015250565b600061504f601083614229565b915061505a82615019565b602082019050919050565b6000602082019050818103600083015261507e81615042565b9050919050565b600060608201905061509a60008301866141c0565b6150a760208301856141f4565b6150b460408301846141f4565b949350505050565b7f4552433732313a20617070726f766520746f2063616c6c657200000000000000600082015250565b60006150f2601983614229565b91506150fd826150bc565b602082019050919050565b60006020820190508181036000830152615121816150e5565b9050919050565b7f4552433732313a207472616e7366657220746f206e6f6e20455243373231526560008201527f63656976657220696d706c656d656e7465720000000000000000000000000000602082015250565b6000615184603283614229565b915061518f82615128565b604082019050919050565b600060208201905081810360008301526151b381615177565b9050919050565b7f4e487b7100000000000000000000000000000000000000000000000000000000600052601260045260246000fd5b7f4552433732313a207472616e736665722066726f6d20696e636f72726563742060008201527f6f776e6572000000000000000000000000000000000000000000000000000000602082015250565b6000615245602583614229565b9150615250826151e9565b604082019050919050565b6000602082019050818103600083015261527481615238565b9050919050565b7f4552433732313a207472616e7366657220746f20746865207a65726f2061646460008201527f7265737300000000000000000000000000000000000000000000000000000000602082015250565b60006152d7602483614229565b91506152e28261527b565b604082019050919050565b60006020820190508181036000830152615306816152ca565b9050919050565b7f5061757361626c653a206e6f7420706175736564000000000000000000000000600082015250565b6000615343601483614229565b915061534e8261530d565b602082019050919050565b6000602082019050818103600083015261537281615336565b9050919050565b600060ff82169050919050565b600061539182615379565b915061539c83615379565b9250828201905060ff8111156153b5576153b4614c9c565b5b92915050565b600081519050919050565b600082825260208201905092915050565b60006153e2826153bb565b6153ec81856153c6565b93506153fc81856020860161423a565b61540581614264565b840191505092915050565b600060808201905061542560008301876141c0565b61543260208301866141c0565b61543f60408301856141f4565b818103606083015261545181846153d7565b905095945050505050565b60008151905061546b816140ff565b92915050565b600060208284031215615487576154866140c9565b5b60006154958482850161545c565b91505092915050565b7f455243373231456e756d657261626c653a20636f6e736563757469766520747260008201527f616e7366657273206e6f7420737570706f727465640000000000000000000000602082015250565b60006154fa603583614229565b91506155058261549e565b604082019050919050565b60006020820190508181036000830152615529816154ed565b9050919050565b7f4e487b7100000000000000000000000000000000000000000000000000000000600052603160045260246000fd5b7f4552433732313a206d696e7420746f20746865207a65726f2061646472657373600082015250565b6000615595602083614229565b91506155a08261555f565b602082019050919050565b600060208201905081810360008301526155c481615588565b9050919050565b7f4552433732313a20746f6b656e20616c7265616479206d696e74656400000000600082015250565b6000615601601c83614229565b915061560c826155cb565b602082019050919050565b60006020820190508181036000830152615630816155f4565b905091905056fea2646970667358221220c00122cbc1dd36e069660f351e48ccf06ffcfd502fb550dd508aefcbf3edd46c64736f6c63430008110033",
  "linkReferences": {},
  "deployedLinkReferences": {}
}