{
  "_format": "hh-sol-artifact-1",
  "contractName": "BummyCore",
  "sourceName": "contracts/BummyCore.sol",
  "abi": [
    {
      "inputs": [],
      "stateMutability": "nonpayable",
      "type": "constructor"
    },
    {
      "anonymous": false,
      "inputs": [
        {
          "indexed": true,
          "internalType": "address",
          "name": "owner",
          "type": "address"
        },
        {
          "indexed": true,
          "internalType": "address",
          "name": "approved",
          "type": "address"
        },
        {
          "indexed": true,
          "internalType": "uint256",
          "name": "tokenId",
          "type": "uint256"
        }
      ],
      "name": "Approval",
      "type": "event"
    },
    {
      "anonymous": false,
      "inputs": [
        {
          "indexed": true,
          "internalType": "address",
          "name": "owner",
          "type": "address"
        },
        {
          "indexed": true,
          "internalType": "address",
          "name": "operator",
          "type": "address"
        },
        {
          "indexed": false,
          "internalType": "bool",
          "name": "approved",
          "type": "bool"
        }
      ],
      "name": "ApprovalForAll",
      "type": "event"
    },
    {
      "anonymous": false,
      "inputs": [
        {
          "indexed": false,
          "internalType": "address",
          "name": "owner",
          "type": "address"
        },
        {
          "indexed": false,
          "internalType": "uint256",
          "name": "momId",
          "type": "uint256"
        },
        {
          "indexed": false,
          "internalType": "uint256",
          "name": "dadId",
          "type": "uint256"
        }
      ],
      "name": "Cheering",
      "type": "event"
    },
    {
      "anonymous": false,
      "inputs": [
        {
          "indexed": true,
          "internalType": "address",
          "name": "owner",
          "type": "address"
        },
        {
          "indexed": false,
          "internalType": "uint256",
          "name": "BummyId",
          "type": "uint256"
        },
        {
          "indexed": false,
          "internalType": "uint256",
          "name": "momId",
          "type": "uint256"
        },
        {
          "indexed": false,
          "internalType": "uint256",
          "name": "dadId",
          "type": "uint256"
        },
        {
          "indexed": false,
          "internalType": "uint256",
          "name": "genes",
          "type": "uint256"
        }
      ],
      "name": "Invite",
      "type": "event"
    },
    {
      "anonymous": false,
      "inputs": [
        {
          "indexed": false,
          "internalType": "address",
          "name": "account",
          "type": "address"
        }
      ],
      "name": "Paused",
      "type": "event"
    },
    {
      "anonymous": false,
      "inputs": [
        {
          "indexed": true,
          "internalType": "address",
          "name": "from",
          "type": "address"
        },
        {
          "indexed": true,
          "internalType": "address",
          "name": "to",
          "type": "address"
        },
        {
          "indexed": true,
          "internalType": "uint256",
          "name": "tokenId",
          "type": "uint256"
        }
      ],
      "name": "Transfer",
      "type": "event"
    },
    {
      "anonymous": false,
      "inputs": [
        {
          "indexed": false,
          "internalType": "address",
          "name": "account",
          "type": "address"
        }
      ],
      "name": "Unpaused",
      "type": "event"
    },
    {
      "inputs": [
        {
          "internalType": "address",
          "name": "to",
          "type": "address"
        },
        {
          "internalType": "uint256",
          "name": "tokenId",
          "type": "uint256"
        }
      ],
      "name": "approve",
      "outputs": [],
      "stateMutability": "nonpayable",
      "type": "function"
    },
    {
      "inputs": [
        {
          "internalType": "address",
          "name": "_addr",
          "type": "address"
        },
        {
          "internalType": "uint256",
          "name": "_dadId",
          "type": "uint256"
        }
      ],
      "name": "approveCheering",
      "outputs": [],
      "stateMutability": "nonpayable",
      "type": "function"
    },
    {
      "inputs": [
        {
          "internalType": "address",
          "name": "owner",
          "type": "address"
        }
      ],
      "name": "balanceOf",
      "outputs": [
        {
          "internalType": "uint256",
          "name": "",
          "type": "uint256"
        }
      ],
      "stateMutability": "view",
      "type": "function"
    },
    {
      "inputs": [
        {
          "internalType": "uint256",
          "name": "_momId",
          "type": "uint256"
        },
        {
          "internalType": "uint256",
          "name": "_dadId",
          "type": "uint256"
        }
      ],
      "name": "canCheerWith",
      "outputs": [
        {
          "internalType": "bool",
          "name": "",
          "type": "bool"
        }
      ],
      "stateMutability": "view",
      "type": "function"
    },
    {
      "inputs": [],
      "name": "ceoAddress",
      "outputs": [
        {
          "internalType": "address",
          "name": "",
          "type": "address"
        }
      ],
      "stateMutability": "view",
      "type": "function"
    },
    {
      "inputs": [],
      "name": "cfoAddress",
      "outputs": [
        {
          "internalType": "address",
          "name": "",
          "type": "address"
        }
      ],
      "stateMutability": "view",
      "type": "function"
    },
    {
      "inputs": [
        {
          "internalType": "uint256",
          "name": "",
          "type": "uint256"
        }
      ],
      "name": "cheerAllowedToAddress",
      "outputs": [
        {
          "internalType": "address",
          "name": "",
          "type": "address"
        }
      ],
      "stateMutability": "view",
      "type": "function"
    },
    {
      "inputs": [
        {
          "internalType": "uint256",
          "name": "_momId",
          "type": "uint256"
        },
        {
          "internalType": "uint256",
          "name": "_dadId",
          "type": "uint256"
        }
      ],
      "name": "cheerWith",
      "outputs": [],
      "stateMutability": "nonpayable",
      "type": "function"
    },
    {
      "inputs": [],
      "name": "cooAddress",
      "outputs": [
        {
          "internalType": "address",
          "name": "",
          "type": "address"
        }
      ],
      "stateMutability": "view",
      "type": "function"
    },
    {
      "inputs": [
        {
          "internalType": "uint256",
          "name": "",
          "type": "uint256"
        }
      ],
      "name": "cooldowns",
      "outputs": [
        {
          "internalType": "uint32",
          "name": "",
          "type": "uint32"
        }
      ],
      "stateMutability": "view",
      "type": "function"
    },
    {
      "inputs": [],
      "name": "createFirstGen0Bummy",
      "outputs": [],
      "stateMutability": "nonpayable",
      "type": "function"
    },
    {
      "inputs": [
        {
          "internalType": "uint256",
          "name": "_genes",
          "type": "uint256"
        },
        {
          "internalType": "address",
          "name": "_owner",
          "type": "address"
        }
      ],
      "name": "createPromoBummy",
      "outputs": [],
      "stateMutability": "nonpayable",
      "type": "function"
    },
    {
      "inputs": [],
      "name": "gen0CreatedCount",
      "outputs": [
        {
          "internalType": "uint256",
          "name": "",
          "type": "uint256"
        }
      ],
      "stateMutability": "view",
      "type": "function"
    },
    {
      "inputs": [],
      "name": "gen0CreationLimit",
      "outputs": [
        {
          "internalType": "uint256",
          "name": "",
          "type": "uint256"
        }
      ],
      "stateMutability": "view",
      "type": "function"
    },
    {
      "inputs": [
        {
          "internalType": "uint256",
          "name": "tokenId",
          "type": "uint256"
        }
      ],
      "name": "getApproved",
      "outputs": [
        {
          "internalType": "address",
          "name": "",
          "type": "address"
        }
      ],
      "stateMutability": "view",
      "type": "function"
    },
    {
      "inputs": [
        {
          "internalType": "uint256",
          "name": "_id",
          "type": "uint256"
        }
      ],
      "name": "getBummy",
      "outputs": [
        {
          "internalType": "bool",
          "name": "isCheering",
          "type": "bool"
        },
        {
          "internalType": "bool",
          "name": "isReady",
          "type": "bool"
        },
        {
          "internalType": "uint256",
          "name": "cooldownIndex",
          "type": "uint256"
        },
        {
          "internalType": "uint256",
          "name": "nextActionAt",
          "type": "uint256"
        },
        {
          "internalType": "uint256",
          "name": "cheeringWithId",
          "type": "uint256"
        },
        {
          "internalType": "uint256",
          "name": "birthTime",
          "type": "uint256"
        },
        {
          "internalType": "uint256",
          "name": "momId",
          "type": "uint256"
        },
        {
          "internalType": "uint256",
          "name": "dadId",
          "type": "uint256"
        },
        {
          "internalType": "uint256",
          "name": "generation",
          "type": "uint256"
        },
        {
          "internalType": "uint256",
          "name": "genes",
          "type": "uint256"
        }
      ],
      "stateMutability": "view",
      "type": "function"
    },
    {
      "inputs": [
        {
          "internalType": "uint256",
          "name": "_momId",
          "type": "uint256"
        }
      ],
      "name": "inviteFriend",
      "outputs": [
        {
          "internalType": "uint256",
          "name": "",
          "type": "uint256"
        }
      ],
      "stateMutability": "nonpayable",
      "type": "function"
    },
    {
      "inputs": [
        {
          "internalType": "address",
          "name": "owner",
          "type": "address"
        },
        {
          "internalType": "address",
          "name": "operator",
          "type": "address"
        }
      ],
      "name": "isApprovedForAll",
      "outputs": [
        {
          "internalType": "bool",
          "name": "",
          "type": "bool"
        }
      ],
      "stateMutability": "view",
      "type": "function"
    },
    {
      "inputs": [
        {
          "internalType": "uint256",
          "name": "_bummyId",
          "type": "uint256"
        }
      ],
      "name": "isReadyToCheer",
      "outputs": [
        {
          "internalType": "bool",
          "name": "",
          "type": "bool"
        }
      ],
      "stateMutability": "view",
      "type": "function"
    },
    {
      "inputs": [],
      "name": "name",
      "outputs": [
        {
          "internalType": "string",
          "name": "",
          "type": "string"
        }
      ],
      "stateMutability": "view",
      "type": "function"
    },
    {
      "inputs": [],
      "name": "newContractAddress",
      "outputs": [
        {
          "internalType": "contract BummyCoreInterface",
          "name": "",
          "type": "address"
        }
      ],
      "stateMutability": "view",
      "type": "function"
    },
    {
      "inputs": [
        {
          "internalType": "uint256",
          "name": "tokenId",
          "type": "uint256"
        }
      ],
      "name": "ownerOf",
      "outputs": [
        {
          "internalType": "address",
          "name": "",
          "type": "address"
        }
      ],
      "stateMutability": "view",
      "type": "function"
    },
    {
      "inputs": [],
      "name": "pause",
      "outputs": [],
      "stateMutability": "nonpayable",
      "type": "function"
    },
    {
      "inputs": [],
      "name": "paused",
      "outputs": [
        {
          "internalType": "bool",
          "name": "",
          "type": "bool"
        }
      ],
      "stateMutability": "view",
      "type": "function"
    },
    {
      "inputs": [],
      "name": "promoCreatedCount",
      "outputs": [
        {
          "internalType": "uint256",
          "name": "",
          "type": "uint256"
        }
      ],
      "stateMutability": "view",
      "type": "function"
    },
    {
      "inputs": [],
      "name": "promoCreationLimit",
      "outputs": [
        {
          "internalType": "uint256",
          "name": "",
          "type": "uint256"
        }
      ],
      "stateMutability": "view",
      "type": "function"
    },
    {
      "inputs": [
        {
          "internalType": "uint256",
          "name": "_bummyId",
          "type": "uint256"
        },
        {
          "internalType": "address",
          "name": "_recipient",
          "type": "address"
        }
      ],
      "name": "rescueLostBummy",
      "outputs": [],
      "stateMutability": "nonpayable",
      "type": "function"
    },
    {
      "inputs": [
        {
          "internalType": "address",
          "name": "from",
          "type": "address"
        },
        {
          "internalType": "address",
          "name": "to",
          "type": "address"
        },
        {
          "internalType": "uint256",
          "name": "tokenId",
          "type": "uint256"
        }
      ],
      "name": "safeTransferFrom",
      "outputs": [],
      "stateMutability": "nonpayable",
      "type": "function"
    },
    {
      "inputs": [
        {
          "internalType": "address",
          "name": "from",
          "type": "address"
        },
        {
          "internalType": "address",
          "name": "to",
          "type": "address"
        },
        {
          "internalType": "uint256",
          "name": "tokenId",
          "type": "uint256"
        },
        {
          "internalType": "bytes",
          "name": "data",
          "type": "bytes"
        }
      ],
      "name": "safeTransferFrom",
      "outputs": [],
      "stateMutability": "nonpayable",
      "type": "function"
    },
    {
      "inputs": [
        {
          "internalType": "address",
          "name": "operator",
          "type": "address"
        },
        {
          "internalType": "bool",
          "name": "approved",
          "type": "bool"
        }
      ],
      "name": "setApprovalForAll",
      "outputs": [],
      "stateMutability": "nonpayable",
      "type": "function"
    },
    {
      "inputs": [
        {
          "internalType": "address",
          "name": "_newCEO",
          "type": "address"
        }
      ],
      "name": "setCEO",
      "outputs": [],
      "stateMutability": "nonpayable",
      "type": "function"
    },
    {
      "inputs": [
        {
          "internalType": "address",
          "name": "_newCOO",
          "type": "address"
        }
      ],
      "name": "setCOO",
      "outputs": [],
      "stateMutability": "nonpayable",
      "type": "function"
    },
    {
      "inputs": [
        {
          "internalType": "bytes4",
          "name": "interfaceId",
          "type": "bytes4"
        }
      ],
      "name": "supportsInterface",
      "outputs": [
        {
          "internalType": "bool",
          "name": "",
          "type": "bool"
        }
      ],
      "stateMutability": "view",
      "type": "function"
    },
    {
      "inputs": [],
      "name": "symbol",
      "outputs": [
        {
          "internalType": "string",
          "name": "",
          "type": "string"
        }
      ],
      "stateMutability": "view",
      "type": "function"
    },
    {
      "inputs": [
        {
          "internalType": "uint256",
          "name": "index",
          "type": "uint256"
        }
      ],
      "name": "tokenByIndex",
      "outputs": [
        {
          "internalType": "uint256",
          "name": "",
          "type": "uint256"
        }
      ],
      "stateMutability": "view",
      "type": "function"
    },
    {
      "inputs": [
        {
          "internalType": "address",
          "name": "owner",
          "type": "address"
        },
        {
          "internalType": "uint256",
          "name": "index",
          "type": "uint256"
        }
      ],
      "name": "tokenOfOwnerByIndex",
      "outputs": [
        {
          "internalType": "uint256",
          "name": "",
          "type": "uint256"
        }
      ],
      "stateMutability": "view",
      "type": "function"
    },
    {
      "inputs": [
        {
          "internalType": "uint256",
          "name": "tokenId",
          "type": "uint256"
        }
      ],
      "name": "tokenURI",
      "outputs": [
        {
          "internalType": "string",
          "name": "",
          "type": "string"
        }
      ],
      "stateMutability": "view",
      "type": "function"
    },
    {
      "inputs": [],
      "name": "totalSupply",
      "outputs": [
        {
          "internalType": "uint256",
          "name": "",
          "type": "uint256"
        }
      ],
      "stateMutability": "view",
      "type": "function"
    },
    {
      "inputs": [
        {
          "internalType": "address",
          "name": "from",
          "type": "address"
        },
        {
          "internalType": "address",
          "name": "to",
          "type": "address"
        },
        {
          "internalType": "uint256",
          "name": "tokenId",
          "type": "uint256"
        }
      ],
      "name": "transferFrom",
      "outputs": [],
      "stateMutability": "nonpayable",
      "type": "function"
    },
    {
      "inputs": [],
      "name": "unpause",
      "outputs": [],
      "stateMutability": "nonpayable",
      "type": "function"
    }
  ],
  "bytecode": "0x60806040526040518060400160405280600881526020017f42756d6d794e4654000000000000000000000000000000000000000000000000815250600d90816200004a919062001553565b506040518060400160405280600281526020017f4256000000000000000000000000000000000000000000000000000000000000815250600e908162000091919062001553565b50604051806101000160405280603c63ffffffff1663ffffffff168152602001607863ffffffff1663ffffffff16815260200161012c63ffffffff1663ffffffff16815260200161025863ffffffff1663ffffffff16815260200161070863ffffffff1663ffffffff168152602001610e1063ffffffff1663ffffffff168152602001611c2063ffffffff1663ffffffff16815260200161384063ffffffff1663ffffffff16815250600f9060086200014c92919062001210565b5060646013556101f46014553480156200016557600080fd5b50600d8054620001759062001342565b80601f0160208091040260200160405190810160405280929190818152602001828054620001a39062001342565b8015620001f45780601f10620001c857610100808354040283529160200191620001f4565b820191906000526020600020905b815481529060010190602001808311620001d657829003601f168201915b5050505050600e8054620002089062001342565b80601f0160208091040260200160405190810160405280929190818152602001828054620002369062001342565b8015620002875780601f106200025b5761010080835404028352916020019162000287565b820191906000526020600020905b8154815290600101906020018083116200026957829003601f168201915b505050505060008060006101000a81548160ff0219169083151502179055508160039081620002b7919062001553565b508060049081620002c9919062001553565b505050620002dc6200039e60201b60201c565b33600060016101000a81548173ffffffffffffffffffffffffffffffffffffffff021916908373ffffffffffffffffffffffffffffffffffffffff16021790555033600260006101000a81548173ffffffffffffffffffffffffffffffffffffffff021916908373ffffffffffffffffffffffffffffffffffffffff1602179055506200039760008060007fffffffffffffffffffffffffffffffffffffffffffffffffffffffffffffffff61dead6200041260201b60201c565b5062001c73565b620003ae620006e960201b60201c565b60016000806101000a81548160ff0219169083151502179055507f62e78cea01bee320cd4e420270b5ea74000d11b0c9f74754ebdbfc544b05a258620003f96200073e60201b60201c565b6040516200040891906200167f565b60405180910390a1565b600063ffffffff8611156200042657600080fd5b63ffffffff8511156200043857600080fd5b61ffff8411156200044857600080fd5b60006040518061012001604052808581526020014267ffffffffffffffff168152602001600067ffffffffffffffff1681526020018863ffffffff1681526020018763ffffffff168152602001600063ffffffff168152602001600060ff168152602001600060ff1681526020018661ffff16815250905060108190806001815401808255809150506001900390600052602060002090600202016000909190919091506000820151816000015560208201518160010160006101000a81548167ffffffffffffffff021916908367ffffffffffffffff16021790555060408201518160010160086101000a81548167ffffffffffffffff021916908367ffffffffffffffff16021790555060608201518160010160106101000a81548163ffffffff021916908363ffffffff16021790555060808201518160010160146101000a81548163ffffffff021916908363ffffffff16021790555060a08201518160010160186101000a81548163ffffffff021916908363ffffffff16021790555060c082015181600101601c6101000a81548160ff021916908360ff16021790555060e082015181600101601d6101000a81548160ff021916908360ff16021790555061010082015181600101601e6101000a81548161ffff021916908361ffff160217905550505060006001601080549050620006479190620016cb565b905063ffffffff8111156200065b57600080fd5b8373ffffffffffffffffffffffffffffffffffffffff167f14cb614758d3c982e9d2ae0ad129c2c2bdb4c5ba841155dced7bed1a27834de782846060015163ffffffff16856080015163ffffffff168660000151604051620006c1949392919062001717565b60405180910390a2620006db84826200074660201b60201c565b809250505095945050505050565b620006f96200076c60201b60201c565b156200073c576040517f08c379a00000000000000000000000000000000000000000000000000000000081526004016200073390620017c5565b60405180910390fd5b565b600033905090565b620007688282604051806020016040528060008152506200078260201b60201c565b5050565b60008060009054906101000a900460ff16905090565b620007948383620007f060201b60201c565b620007a9600084848462000a3660201b60201c565b620007eb576040517f08c379a0000000000000000000000000000000000000000000000000000000008152600401620007e2906200185d565b60405180910390fd5b505050565b600073ffffffffffffffffffffffffffffffffffffffff168273ffffffffffffffffffffffffffffffffffffffff160362000862576040517f08c379a00000000000000000000000000000000000000000000000000000000081526004016200085990620018cf565b60405180910390fd5b620008738162000bdf60201b60201c565b15620008b6576040517f08c379a0000000000000000000000000000000000000000000000000000000008152600401620008ad9062001941565b60405180910390fd5b620008cc60008383600162000c2860201b60201c565b620008dd8162000bdf60201b60201c565b1562000920576040517f08c379a0000000000000000000000000000000000000000000000000000000008152600401620009179062001941565b60405180910390fd5b6001600660008473ffffffffffffffffffffffffffffffffffffffff1673ffffffffffffffffffffffffffffffffffffffff16815260200190815260200160002060008282540192505081905550816005600083815260200190815260200160002060006101000a81548173ffffffffffffffffffffffffffffffffffffffff021916908373ffffffffffffffffffffffffffffffffffffffff160217905550808273ffffffffffffffffffffffffffffffffffffffff16600073ffffffffffffffffffffffffffffffffffffffff167fddf252ad1be2c89b69c2b068fc378daa952ba7f163c4a11628f55a4df523b3ef60405160405180910390a462000a3260008383600162000dbc60201b60201c565b5050565b600062000a648473ffffffffffffffffffffffffffffffffffffffff1662000dc260201b620020701760201c565b1562000bd2578373ffffffffffffffffffffffffffffffffffffffff1663150b7a0262000a966200073e60201b60201c565b8786866040518563ffffffff1660e01b815260040162000aba9493929190620019fd565b6020604051808303816000875af192505050801562000af957506040513d601f19601f8201168201806040525081019062000af6919062001ab3565b60015b62000b81573d806000811462000b2c576040519150601f19603f3d011682016040523d82523d6000602084013e62000b31565b606091505b50600081510362000b79576040517f08c379a000000000000000000000000000000000000000000000000000000000815260040162000b70906200185d565b60405180910390fd5b805181602001fd5b63150b7a0260e01b7bffffffffffffffffffffffffffffffffffffffffffffffffffffffff1916817bffffffffffffffffffffffffffffffffffffffffffffffffffffffff19161491505062000bd7565b600190505b949350505050565b60008073ffffffffffffffffffffffffffffffffffffffff1662000c098362000de560201b60201c565b73ffffffffffffffffffffffffffffffffffffffff1614159050919050565b62000c418484848462000e2260201b620020931760201c565b600181111562000c88576040517f08c379a000000000000000000000000000000000000000000000000000000000815260040162000c7f9062001b5b565b60405180910390fd5b6000829050600073ffffffffffffffffffffffffffffffffffffffff168573ffffffffffffffffffffffffffffffffffffffff160362000cd95762000cd38162000e2860201b60201c565b62000d21565b8373ffffffffffffffffffffffffffffffffffffffff168573ffffffffffffffffffffffffffffffffffffffff161462000d205762000d1f858262000e7160201b60201c565b5b5b600073ffffffffffffffffffffffffffffffffffffffff168473ffffffffffffffffffffffffffffffffffffffff160362000d6d5762000d678162000fee60201b60201c565b62000db5565b8473ffffffffffffffffffffffffffffffffffffffff168473ffffffffffffffffffffffffffffffffffffffff161462000db45762000db38482620010ca60201b60201c565b5b5b5050505050565b50505050565b6000808273ffffffffffffffffffffffffffffffffffffffff163b119050919050565b60006005600083815260200190815260200160002060009054906101000a900473ffffffffffffffffffffffffffffffffffffffff169050919050565b50505050565b600b80549050600c600083815260200190815260200160002081905550600b81908060018154018082558091505060019003906000526020600020016000909190919091505550565b6000600162000e8b846200115660201b6200124d1760201c565b62000e979190620016cb565b90506000600a600084815260200190815260200160002054905081811462000f7d576000600960008673ffffffffffffffffffffffffffffffffffffffff1673ffffffffffffffffffffffffffffffffffffffff168152602001908152602001600020600084815260200190815260200160002054905080600960008773ffffffffffffffffffffffffffffffffffffffff1673ffffffffffffffffffffffffffffffffffffffff16815260200190815260200160002060008481526020019081526020016000208190555081600a600083815260200190815260200160002081905550505b600a600084815260200190815260200160002060009055600960008573ffffffffffffffffffffffffffffffffffffffff1673ffffffffffffffffffffffffffffffffffffffff16815260200190815260200160002060008381526020019081526020016000206000905550505050565b60006001600b80549050620010049190620016cb565b90506000600c60008481526020019081526020016000205490506000600b838154811062001037576200103662001b7d565b5b9060005260206000200154905080600b83815481106200105c576200105b62001b7d565b5b906000526020600020018190555081600c600083815260200190815260200160002081905550600c600085815260200190815260200160002060009055600b805480620010ae57620010ad62001bac565b5b6001900381819060005260206000200160009055905550505050565b6000620010e2836200115660201b6200124d1760201c565b905081600960008573ffffffffffffffffffffffffffffffffffffffff1673ffffffffffffffffffffffffffffffffffffffff16815260200190815260200160002060008381526020019081526020016000208190555080600a600084815260200190815260200160002081905550505050565b60008073ffffffffffffffffffffffffffffffffffffffff168273ffffffffffffffffffffffffffffffffffffffff1603620011c9576040517f08c379a0000000000000000000000000000000000000000000000000000000008152600401620011c09062001c51565b60405180910390fd5b600660008373ffffffffffffffffffffffffffffffffffffffff1673ffffffffffffffffffffffffffffffffffffffff168152602001908152602001600020549050919050565b826008600701600890048101928215620012a75791602002820160005b838211156200127357835183826101000a81548163ffffffff021916908363ffffffff16021790555092602001926004016020816003010492830192600103026200122d565b8015620012a55782816101000a81549063ffffffff021916905560040160208160030104928301926001030262001273565b505b509050620012b69190620012ba565b5090565b5b80821115620012d5576000816000905550600101620012bb565b5090565b600081519050919050565b7f4e487b7100000000000000000000000000000000000000000000000000000000600052604160045260246000fd5b7f4e487b7100000000000000000000000000000000000000000000000000000000600052602260045260246000fd5b600060028204905060018216806200135b57607f821691505b60208210810362001371576200137062001313565b5b50919050565b60008190508160005260206000209050919050565b60006020601f8301049050919050565b600082821b905092915050565b600060088302620013db7fffffffffffffffffffffffffffffffffffffffffffffffffffffffffffffffff826200139c565b620013e786836200139c565b95508019841693508086168417925050509392505050565b6000819050919050565b6000819050919050565b6000620014346200142e6200142884620013ff565b62001409565b620013ff565b9050919050565b6000819050919050565b620014508362001413565b620014686200145f826200143b565b848454620013a9565b825550505050565b600090565b6200147f62001470565b6200148c81848462001445565b505050565b5b81811015620014b457620014a860008262001475565b60018101905062001492565b5050565b601f8211156200150357620014cd8162001377565b620014d8846200138c565b81016020851015620014e8578190505b62001500620014f7856200138c565b83018262001491565b50505b505050565b600082821c905092915050565b6000620015286000198460080262001508565b1980831691505092915050565b600062001543838362001515565b9150826002028217905092915050565b6200155e82620012d9565b67ffffffffffffffff8111156200157a5762001579620012e4565b5b62001586825462001342565b62001593828285620014b8565b600060209050601f831160018114620015cb5760008415620015b6578287015190505b620015c2858262001535565b86555062001632565b601f198416620015db8662001377565b60005b828110156200160557848901518255600182019150602085019450602081019050620015de565b8683101562001625578489015162001621601f89168262001515565b8355505b6001600288020188555050505b505050505050565b600073ffffffffffffffffffffffffffffffffffffffff82169050919050565b600062001667826200163a565b9050919050565b62001679816200165a565b82525050565b60006020820190506200169660008301846200166e565b92915050565b7f4e487b7100000000000000000000000000000000000000000000000000000000600052601160045260246000fd5b6000620016d882620013ff565b9150620016e583620013ff565b92508282039050818111156200170057620016ff6200169c565b5b92915050565b6200171181620013ff565b82525050565b60006080820190506200172e600083018762001706565b6200173d602083018662001706565b6200174c604083018562001706565b6200175b606083018462001706565b95945050505050565b600082825260208201905092915050565b7f5061757361626c653a2070617573656400000000000000000000000000000000600082015250565b6000620017ad60108362001764565b9150620017ba8262001775565b602082019050919050565b60006020820190508181036000830152620017e0816200179e565b9050919050565b7f4552433732313a207472616e7366657220746f206e6f6e20455243373231526560008201527f63656976657220696d706c656d656e7465720000000000000000000000000000602082015250565b60006200184560328362001764565b91506200185282620017e7565b604082019050919050565b60006020820190508181036000830152620018788162001836565b9050919050565b7f4552433732313a206d696e7420746f20746865207a65726f2061646472657373600082015250565b6000620018b760208362001764565b9150620018c4826200187f565b602082019050919050565b60006020820190508181036000830152620018ea81620018a8565b9050919050565b7f4552433732313a20746f6b656e20616c7265616479206d696e74656400000000600082015250565b600062001929601c8362001764565b91506200193682620018f1565b602082019050919050565b600060208201905081810360008301526200195c816200191a565b9050919050565b600081519050919050565b600082825260208201905092915050565b60005b838110156200199f57808201518184015260208101905062001982565b60008484015250505050565b6000601f19601f8301169050919050565b6000620019c98262001963565b620019d581856200196e565b9350620019e78185602086016200197f565b620019f281620019ab565b840191505092915050565b600060808201905062001a1460008301876200166e565b62001a2360208301866200166e565b62001a32604083018562001706565b818103606083015262001a468184620019bc565b905095945050505050565b600080fd5b60007fffffffff0000000000000000000000000000000000000000000000000000000082169050919050565b62001a8d8162001a56565b811462001a9957600080fd5b50565b60008151905062001aad8162001a82565b92915050565b60006020828403121562001acc5762001acb62001a51565b5b600062001adc8482850162001a9c565b91505092915050565b7f455243373231456e756d657261626c653a20636f6e736563757469766520747260008201527f616e7366657273206e6f7420737570706f727465640000000000000000000000602082015250565b600062001b4360358362001764565b915062001b508262001ae5565b604082019050919050565b6000602082019050818103600083015262001b768162001b34565b9050919050565b7f4e487b7100000000000000000000000000000000000000000000000000000000600052603260045260246000fd5b7f4e487b7100000000000000000000000000000000000000000000000000000000600052603160045260246000fd5b7f4552433732313a2061646472657373207a65726f206973206e6f74206120766160008201527f6c6964206f776e65720000000000000000000000000000000000000000000000602082015250565b600062001c3960298362001764565b915062001c468262001bdb565b604082019050919050565b6000602082019050818103600083015262001c6c8162001c2a565b9050919050565b6153358062001c836000396000f3fe608060405234801561001057600080fd5b50600436106102485760003560e01c806364bee5e51161013b5780639d586663116100b8578063b88d4fde1161007c578063b88d4fde146106e6578063c7b6b43614610702578063c87b56dd14610732578063e985e9c514610762578063f1ca94101461079257610248565b80639d586663146106425780639d6fac6f1461065e578063a22cb4651461068e578063b047fb50146106aa578063b5319335146106c857610248565b80638456cb59116100ff5780638456cb59146105bb578063851d9a52146105c557806390111aa5146105e157806395d89b411461061a57806397ae48981461063857610248565b806364bee5e514610505578063684aa7ae146105355780636af04a571461055157806370a082311461056f5780637814da8e1461059f57610248565b806327d7874c116101c957806342842e0e1161018d57806342842e0e1461043b5780634f6ccce7146104575780635c975abb146104875780635edbf360146104a55780636352211e146104d557610248565b806327d7874c146103ab5780632ba73c15146103c75780632f745c59146103e35780633f4ba83a14610413578063404d0e3e1461041d57610248565b8063095ea7b311610210578063095ea7b3146103075780630a0f81681461032357806317091d051461034157806318160ddd1461037157806323b872dd1461038f57610248565b806301ffc9a71461024d5780630519ce791461027d57806305e455461461029b57806306fdde03146102b9578063081812fc146102d7575b600080fd5b61026760048036038101906102629190613e25565b6107b0565b6040516102749190613e6d565b60405180910390f35b61028561082a565b6040516102929190613ec9565b60405180910390f35b6102a3610850565b6040516102b09190613efd565b60405180910390f35b6102c1610856565b6040516102ce9190613fa8565b60405180910390f35b6102f160048036038101906102ec9190613ff6565b6108e8565b6040516102fe9190613ec9565b60405180910390f35b610321600480360381019061031c919061404f565b61092e565b005b61032b610a45565b6040516103389190613ec9565b60405180910390f35b61035b60048036038101906103569190613ff6565b610a6b565b6040516103689190613e6d565b60405180910390f35b610379610bf6565b6040516103869190613efd565b60405180910390f35b6103a960048036038101906103a4919061408f565b610c03565b005b6103c560048036038101906103c091906140e2565b610c63565b005b6103e160048036038101906103dc91906140e2565b610d3a565b005b6103fd60048036038101906103f8919061404f565b610e11565b60405161040a9190613efd565b60405180910390f35b61041b610eb6565b005b610425610f1a565b6040516104329190613efd565b60405180910390f35b6104556004803603810190610450919061408f565b610f20565b005b610471600480360381019061046c9190613ff6565b610f40565b60405161047e9190613efd565b60405180910390f35b61048f610fb1565b60405161049c9190613e6d565b60405180910390f35b6104bf60048036038101906104ba9190613ff6565b610fc7565b6040516104cc9190613ec9565b60405180910390f35b6104ef60048036038101906104ea9190613ff6565b610ffa565b6040516104fc9190613ec9565b60405180910390f35b61051f600480360381019061051a919061410f565b611080565b60405161052c9190613e6d565b60405180910390f35b61054f600480360381019061054a919061414f565b61110f565b005b610559611227565b60405161056691906141ee565b60405180910390f35b610589600480360381019061058491906140e2565b61124d565b6040516105969190613efd565b60405180910390f35b6105b960048036038101906105b4919061404f565b611304565b005b6105c3611375565b005b6105df60048036038101906105da919061410f565b611489565b005b6105fb60048036038101906105f69190613ff6565b6117d8565b6040516106119a99989796959493929190614209565b60405180910390f35b61062261193c565b60405161062f9190613fa8565b60405180910390f35b6106406119ce565b005b61065c6004803603810190610657919061414f565b611aed565b005b61067860048036038101906106739190613ff6565b611b71565b60405161068591906142c4565b60405180910390f35b6106a860048036038101906106a3919061430b565b611ba1565b005b6106b2611bb7565b6040516106bf9190613ec9565b60405180910390f35b6106d0611bdd565b6040516106dd9190613efd565b60405180910390f35b61070060048036038101906106fb9190614480565b611be3565b005b61071c60048036038101906107179190613ff6565b611c45565b6040516107299190613efd565b60405180910390f35b61074c60048036038101906107479190613ff6565b611f6e565b6040516107599190613fa8565b60405180910390f35b61077c60048036038101906107779190614503565b611fd6565b6040516107899190613e6d565b60405180910390f35b61079a61206a565b6040516107a79190613efd565b60405180910390f35b60007f780e9d63000000000000000000000000000000000000000000000000000000007bffffffffffffffffffffffffffffffffffffffffffffffffffffffff1916827bffffffffffffffffffffffffffffffffffffffffffffffffffffffff19161480610823575061082282612099565b5b9050919050565b600160009054906101000a900473ffffffffffffffffffffffffffffffffffffffff1681565b60155481565b60606003805461086590614572565b80601f016020809104026020016040519081016040528092919081815260200182805461089190614572565b80156108de5780601f106108b3576101008083540402835291602001916108de565b820191906000526020600020905b8154815290600101906020018083116108c157829003601f168201915b5050505050905090565b60006108f38261217b565b6007600083815260200190815260200160002060009054906101000a900473ffffffffffffffffffffffffffffffffffffffff169050919050565b600061093982610ffa565b90508073ffffffffffffffffffffffffffffffffffffffff168373ffffffffffffffffffffffffffffffffffffffff16036109a9576040517f08c379a00000000000000000000000000000000000000000000000000000000081526004016109a090614615565b60405180910390fd5b8073ffffffffffffffffffffffffffffffffffffffff166109c86121c6565b73ffffffffffffffffffffffffffffffffffffffff1614806109f757506109f6816109f16121c6565b611fd6565b5b610a36576040517f08c379a0000000000000000000000000000000000000000000000000000000008152600401610a2d906146a7565b60405180910390fd5b610a4083836121ce565b505050565b600060019054906101000a900473ffffffffffffffffffffffffffffffffffffffff1681565b6000808211610a7957600080fd5b600060108381548110610a8f57610a8e6146c7565b5b90600052602060002090600202019050610bee8160405180610120016040529081600082015481526020016001820160009054906101000a900467ffffffffffffffff1667ffffffffffffffff1667ffffffffffffffff1681526020016001820160089054906101000a900467ffffffffffffffff1667ffffffffffffffff1667ffffffffffffffff1681526020016001820160109054906101000a900463ffffffff1663ffffffff1663ffffffff1681526020016001820160149054906101000a900463ffffffff1663ffffffff1663ffffffff1681526020016001820160189054906101000a900463ffffffff1663ffffffff1663ffffffff16815260200160018201601c9054906101000a900460ff1660ff1660ff16815260200160018201601d9054906101000a900460ff1660ff1660ff16815260200160018201601e9054906101000a900461ffff1661ffff1661ffff1681525050612287565b915050919050565b6000600b80549050905090565b610c14610c0e6121c6565b826122b7565b610c53576040517f08c379a0000000000000000000000000000000000000000000000000000000008152600401610c4a90614768565b60405180910390fd5b610c5e83838361234c565b505050565b600060019054906101000a900473ffffffffffffffffffffffffffffffffffffffff1673ffffffffffffffffffffffffffffffffffffffff163373ffffffffffffffffffffffffffffffffffffffff1614610cbd57600080fd5b600073ffffffffffffffffffffffffffffffffffffffff168173ffffffffffffffffffffffffffffffffffffffff1603610cf657600080fd5b80600060016101000a81548173ffffffffffffffffffffffffffffffffffffffff021916908373ffffffffffffffffffffffffffffffffffffffff16021790555050565b600060019054906101000a900473ffffffffffffffffffffffffffffffffffffffff1673ffffffffffffffffffffffffffffffffffffffff163373ffffffffffffffffffffffffffffffffffffffff1614610d9457600080fd5b600073ffffffffffffffffffffffffffffffffffffffff168173ffffffffffffffffffffffffffffffffffffffff1603610dcd57600080fd5b80600260006101000a81548173ffffffffffffffffffffffffffffffffffffffff021916908373ffffffffffffffffffffffffffffffffffffffff16021790555050565b6000610e1c8361124d565b8210610e5d576040517f08c379a0000000000000000000000000000000000000000000000000000000008152600401610e54906147fa565b60405180910390fd5b600960008473ffffffffffffffffffffffffffffffffffffffff1673ffffffffffffffffffffffffffffffffffffffff168152602001908152602001600020600083815260200190815260200160002054905092915050565b600060019054906101000a900473ffffffffffffffffffffffffffffffffffffffff1673ffffffffffffffffffffffffffffffffffffffff163373ffffffffffffffffffffffffffffffffffffffff1614610f1057600080fd5b610f186123c7565b565b60145481565b610f3b83838360405180602001604052806000815250611be3565b505050565b6000610f4a610bf6565b8210610f8b576040517f08c379a0000000000000000000000000000000000000000000000000000000008152600401610f829061488c565b60405180910390fd5b600b8281548110610f9f57610f9e6146c7565b5b90600052602060002001549050919050565b60008060009054906101000a900460ff16905090565b60116020528060005260406000206000915054906101000a900473ffffffffffffffffffffffffffffffffffffffff1681565b60008061100683612429565b9050600073ffffffffffffffffffffffffffffffffffffffff168173ffffffffffffffffffffffffffffffffffffffff1603611077576040517f08c379a000000000000000000000000000000000000000000000000000000000815260040161106e906148f8565b60405180910390fd5b80915050919050565b600080831161108e57600080fd5b6000821161109b57600080fd5b6000601084815481106110b1576110b06146c7565b5b906000526020600020906002020190506000601084815481106110d7576110d66146c7565b5b906000526020600020906002020190506110f382868387612466565b80156111055750611104848661267a565b5b9250505092915050565b600260009054906101000a900473ffffffffffffffffffffffffffffffffffffffff1673ffffffffffffffffffffffffffffffffffffffff163373ffffffffffffffffffffffffffffffffffffffff161461116957600080fd5b600073ffffffffffffffffffffffffffffffffffffffff168173ffffffffffffffffffffffffffffffffffffffff16036111c357600260009054906101000a900473ffffffffffffffffffffffffffffffffffffffff1690505b601354601554106111d357600080fd5b601454601654106111e357600080fd5b601560008154809291906111f690614947565b91905055506016600081548092919061120e90614947565b9190505550611222600080600085856126f3565b505050565b601760009054906101000a900473ffffffffffffffffffffffffffffffffffffffff1681565b60008073ffffffffffffffffffffffffffffffffffffffff168273ffffffffffffffffffffffffffffffffffffffff16036112bd576040517f08c379a00000000000000000000000000000000000000000000000000000000081526004016112b490614a01565b60405180910390fd5b600660008373ffffffffffffffffffffffffffffffffffffffff1673ffffffffffffffffffffffffffffffffffffffff168152602001908152602001600020549050919050565b61130c6129ba565b6113163382612a04565b61131f57600080fd5b816011600083815260200190815260200160002060006101000a81548173ffffffffffffffffffffffffffffffffffffffff021916908373ffffffffffffffffffffffffffffffffffffffff1602179055505050565b600260009054906101000a900473ffffffffffffffffffffffffffffffffffffffff1673ffffffffffffffffffffffffffffffffffffffff163373ffffffffffffffffffffffffffffffffffffffff16148061141e5750600060019054906101000a900473ffffffffffffffffffffffffffffffffffffffff1673ffffffffffffffffffffffffffffffffffffffff163373ffffffffffffffffffffffffffffffffffffffff16145b806114765750600160009054906101000a900473ffffffffffffffffffffffffffffffffffffffff1673ffffffffffffffffffffffffffffffffffffffff163373ffffffffffffffffffffffffffffffffffffffff16145b61147f57600080fd5b611487612a4a565b565b6114916129ba565b61149b3383612a04565b6114a457600080fd5b6114ae818361267a565b6114b757600080fd5b6000601083815481106114cd576114cc6146c7565b5b9060005260206000209060020201905061162c8160405180610120016040529081600082015481526020016001820160009054906101000a900467ffffffffffffffff1667ffffffffffffffff1667ffffffffffffffff1681526020016001820160089054906101000a900467ffffffffffffffff1667ffffffffffffffff1667ffffffffffffffff1681526020016001820160109054906101000a900463ffffffff1663ffffffff1663ffffffff1681526020016001820160149054906101000a900463ffffffff1663ffffffff1663ffffffff1681526020016001820160189054906101000a900463ffffffff1663ffffffff1663ffffffff16815260200160018201601c9054906101000a900460ff1660ff1660ff16815260200160018201601d9054906101000a900460ff1660ff1660ff16815260200160018201601e9054906101000a900461ffff1661ffff1661ffff1681525050612287565b61163557600080fd5b60006010838154811061164b5761164a6146c7565b5b906000526020600020906002020190506117aa8160405180610120016040529081600082015481526020016001820160009054906101000a900467ffffffffffffffff1667ffffffffffffffff1667ffffffffffffffff1681526020016001820160089054906101000a900467ffffffffffffffff1667ffffffffffffffff1667ffffffffffffffff1681526020016001820160109054906101000a900463ffffffff1663ffffffff1663ffffffff1681526020016001820160149054906101000a900463ffffffff1663ffffffff1663ffffffff1681526020016001820160189054906101000a900463ffffffff1663ffffffff1663ffffffff16815260200160018201601c9054906101000a900460ff1660ff1660ff16815260200160018201601d9054906101000a900460ff1660ff1660ff16815260200160018201601e9054906101000a900461ffff1661ffff1661ffff1681525050612287565b6117b357600080fd5b6117bf82858386612466565b6117c857600080fd5b6117d28484612aac565b50505050565b600080600080600080600080600080600060108c815481106117fd576117fc6146c7565b5b9060005260206000209060020201905060008160010160189054906101000a900463ffffffff1663ffffffff1614159a50428160010160089054906101000a900467ffffffffffffffff1667ffffffffffffffff161115995080600101601c9054906101000a900460ff1660ff1698508060010160089054906101000a900467ffffffffffffffff1667ffffffffffffffff1697508060010160189054906101000a900463ffffffff1663ffffffff1696508060010160009054906101000a900467ffffffffffffffff1667ffffffffffffffff1695508060010160109054906101000a900463ffffffff1663ffffffff1694508060010160149054906101000a900463ffffffff1663ffffffff16935080600101601e9054906101000a900461ffff1661ffff16925080600001549150509193959799509193959799565b60606004805461194b90614572565b80601f016020809104026020016040519081016040528092919081815260200182805461197790614572565b80156119c45780601f10611999576101008083540402835291602001916119c4565b820191906000526020600020905b8154815290600101906020018083116119a757829003601f168201915b5050505050905090565b60001515601260003373ffffffffffffffffffffffffffffffffffffffff1673ffffffffffffffffffffffffffffffffffffffff16815260200190815260200160002060009054906101000a900460ff16151514611a61576040517f08c379a0000000000000000000000000000000000000000000000000000000008152600401611a5890614a6d565b60405180910390fd5b60006016544218905060166000815480929190611a7d90614947565b91905055506001601260003373ffffffffffffffffffffffffffffffffffffffff1673ffffffffffffffffffffffffffffffffffffffff16815260200190815260200160002060006101000a81548160ff021916908315150217905550611ae9600080600084336126f3565b5050565b600260009054906101000a900473ffffffffffffffffffffffffffffffffffffffff1673ffffffffffffffffffffffffffffffffffffffff163373ffffffffffffffffffffffffffffffffffffffff1614611b4757600080fd5b611b4f6129ba565b611b593083612a04565b611b6257600080fd5b611b6d30828461234c565b5050565b600f8160088110611b8157600080fd5b60089182820401919006600402915054906101000a900463ffffffff1681565b611bb3611bac6121c6565b8383612be2565b5050565b600260009054906101000a900473ffffffffffffffffffffffffffffffffffffffff1681565b60135481565b611bf4611bee6121c6565b836122b7565b611c33576040517f08c379a0000000000000000000000000000000000000000000000000000000008152600401611c2a90614768565b60405180910390fd5b611c3f84848484612d4e565b50505050565b6000611c4f6129ba565b600060108381548110611c6557611c646146c7565b5b9060005260206000209060020201905060008160010160009054906101000a900467ffffffffffffffff1667ffffffffffffffff1603611ca457600080fd5b611df38160405180610120016040529081600082015481526020016001820160009054906101000a900467ffffffffffffffff1667ffffffffffffffff1667ffffffffffffffff1681526020016001820160089054906101000a900467ffffffffffffffff1667ffffffffffffffff1667ffffffffffffffff1681526020016001820160109054906101000a900463ffffffff1663ffffffff1663ffffffff1681526020016001820160149054906101000a900463ffffffff1663ffffffff1663ffffffff1681526020016001820160189054906101000a900463ffffffff1663ffffffff1663ffffffff16815260200160018201601c9054906101000a900460ff1660ff1660ff16815260200160018201601d9054906101000a900460ff1660ff1660ff16815260200160018201601e9054906101000a900461ffff1661ffff1661ffff1681525050612daa565b611dfc57600080fd5b60008160010160189054906101000a900463ffffffff1663ffffffff169050600060108281548110611e3157611e306146c7565b5b90600052602060002090600202019050600083600101601e9054906101000a900461ffff16905083600101601e9054906101000a900461ffff1661ffff1682600101601e9054906101000a900461ffff1661ffff161115611ea25781600101601e9054906101000a900461ffff1690505b6000424433876000015441604051602001611ec1959493929190614b31565b6040516020818303038152906040528051906020012060001c905060008184600001548760000154611ef39190614b90565b611efd9190614b90565b90506000611f0a89612429565b90506000611f458a8960010160189054906101000a900463ffffffff1663ffffffff16600188611f3a9190614bd2565b61ffff1686866126f3565b90508760010160186101000a81549063ffffffff02191690558098505050505050505050919050565b6060611f798261217b565b6000611f83612ddb565b90506000815111611fa35760405180602001604052806000815250611fce565b80611fad84612df2565b604051602001611fbe929190614c44565b6040516020818303038152906040525b915050919050565b6000600860008473ffffffffffffffffffffffffffffffffffffffff1673ffffffffffffffffffffffffffffffffffffffff16815260200190815260200160002060008373ffffffffffffffffffffffffffffffffffffffff1673ffffffffffffffffffffffffffffffffffffffff16815260200190815260200160002060009054906101000a900460ff16905092915050565b60165481565b6000808273ffffffffffffffffffffffffffffffffffffffff163b119050919050565b50505050565b60007f80ac58cd000000000000000000000000000000000000000000000000000000007bffffffffffffffffffffffffffffffffffffffffffffffffffffffff1916827bffffffffffffffffffffffffffffffffffffffffffffffffffffffff1916148061216457507f5b5e139f000000000000000000000000000000000000000000000000000000007bffffffffffffffffffffffffffffffffffffffffffffffffffffffff1916827bffffffffffffffffffffffffffffffffffffffffffffffffffffffff1916145b80612174575061217382612ec0565b5b9050919050565b61218481612f2a565b6121c3576040517f08c379a00000000000000000000000000000000000000000000000000000000081526004016121ba906148f8565b60405180910390fd5b50565b600033905090565b816007600083815260200190815260200160002060006101000a81548173ffffffffffffffffffffffffffffffffffffffff021916908373ffffffffffffffffffffffffffffffffffffffff160217905550808273ffffffffffffffffffffffffffffffffffffffff1661224183610ffa565b73ffffffffffffffffffffffffffffffffffffffff167f8c5be1e5ebec7d5bd14f71427d1e84f3dd0314c0f7b2291e5b200ac8c7c3b92560405160405180910390a45050565b6000808260a0015163ffffffff161480156122b0575042826040015167ffffffffffffffff1611155b9050919050565b6000806122c383610ffa565b90508073ffffffffffffffffffffffffffffffffffffffff168473ffffffffffffffffffffffffffffffffffffffff16148061230557506123048185611fd6565b5b8061234357508373ffffffffffffffffffffffffffffffffffffffff1661232b846108e8565b73ffffffffffffffffffffffffffffffffffffffff16145b91505092915050565b600073ffffffffffffffffffffffffffffffffffffffff168373ffffffffffffffffffffffffffffffffffffffff16146123b7576011600082815260200190815260200160002060006101000a81549073ffffffffffffffffffffffffffffffffffffffff02191690555b6123c2838383612f6b565b505050565b6123cf613264565b60008060006101000a81548160ff0219169083151502179055507f5db9ee0a495bf2e6ff9c91a7834c1ba4fdd244a5e8aa4e537bd38aeae4b073aa6124126121c6565b60405161241f9190613ec9565b60405180910390a1565b60006005600083815260200190815260200160002060009054906101000a900473ffffffffffffffffffffffffffffffffffffffff169050919050565b60008184036124785760009050612672565b818560010160109054906101000a900463ffffffff1663ffffffff1614806124b95750818560010160149054906101000a900463ffffffff1663ffffffff16145b156124c75760009050612672565b838360010160109054906101000a900463ffffffff1663ffffffff1614806125085750838360010160149054906101000a900463ffffffff1663ffffffff16145b156125165760009050612672565b60008360010160109054906101000a900463ffffffff1663ffffffff161480612559575060008560010160109054906101000a900463ffffffff1663ffffffff16145b156125675760019050612672565b8460010160109054906101000a900463ffffffff1663ffffffff168360010160109054906101000a900463ffffffff1663ffffffff1614806125dc57508460010160149054906101000a900463ffffffff1663ffffffff168360010160109054906101000a900463ffffffff1663ffffffff16145b156125ea5760009050612672565b8460010160109054906101000a900463ffffffff1663ffffffff168360010160149054906101000a900463ffffffff1663ffffffff16148061265f57508460010160149054906101000a900463ffffffff1663ffffffff168360010160149054906101000a900463ffffffff1663ffffffff16145b1561266d5760009050612672565b600190505b949350505050565b60008061268683612429565b90508073ffffffffffffffffffffffffffffffffffffffff166011600086815260200190815260200160002060009054906101000a900473ffffffffffffffffffffffffffffffffffffffff1673ffffffffffffffffffffffffffffffffffffffff161491505092915050565b600063ffffffff86111561270657600080fd5b63ffffffff85111561271757600080fd5b61ffff84111561272657600080fd5b60006040518061012001604052808581526020014267ffffffffffffffff168152602001600067ffffffffffffffff1681526020018863ffffffff1681526020018763ffffffff168152602001600063ffffffff168152602001600060ff168152602001600060ff1681526020018661ffff16815250905060108190806001815401808255809150506001900390600052602060002090600202016000909190919091506000820151816000015560208201518160010160006101000a81548167ffffffffffffffff021916908367ffffffffffffffff16021790555060408201518160010160086101000a81548167ffffffffffffffff021916908367ffffffffffffffff16021790555060608201518160010160106101000a81548163ffffffff021916908363ffffffff16021790555060808201518160010160146101000a81548163ffffffff021916908363ffffffff16021790555060a08201518160010160186101000a81548163ffffffff021916908363ffffffff16021790555060c082015181600101601c6101000a81548160ff021916908360ff16021790555060e082015181600101601d6101000a81548160ff021916908360ff16021790555061010082015181600101601e6101000a81548161ffff021916908361ffff1602179055505050600060016010805490506129239190614c68565b905063ffffffff81111561293657600080fd5b8373ffffffffffffffffffffffffffffffffffffffff167f14cb614758d3c982e9d2ae0ad129c2c2bdb4c5ba841155dced7bed1a27834de782846060015163ffffffff16856080015163ffffffff16866000015160405161299a9493929190614c9c565b60405180910390a26129ac84826132ad565b809250505095945050505050565b6129c2610fb1565b15612a02576040517f08c379a00000000000000000000000000000000000000000000000000000000081526004016129f990614d2d565b60405180910390fd5b565b600080612a1083610ffa565b90508073ffffffffffffffffffffffffffffffffffffffff168473ffffffffffffffffffffffffffffffffffffffff161491505092915050565b612a526129ba565b60016000806101000a81548160ff0219169083151502179055507f62e78cea01bee320cd4e420270b5ea74000d11b0c9f74754ebdbfc544b05a258612a956121c6565b604051612aa29190613ec9565b60405180910390a1565b600060108281548110612ac257612ac16146c7565b5b90600052602060002090600202019050600060108481548110612ae857612ae76146c7565b5b90600052602060002090600202019050828160010160186101000a81548163ffffffff021916908363ffffffff160217905550612b24826132cb565b612b2d816132cb565b6011600085815260200190815260200160002060006101000a81549073ffffffffffffffffffffffffffffffffffffffff02191690556011600084815260200190815260200160002060006101000a81549073ffffffffffffffffffffffffffffffffffffffff02191690557fb57bb8abbb44a6cff7417131e5eb1d3703a22072a6985e3ff6c653fc91056bb1612bc385612429565b8585604051612bd493929190614d4d565b60405180910390a150505050565b8173ffffffffffffffffffffffffffffffffffffffff168373ffffffffffffffffffffffffffffffffffffffff1603612c50576040517f08c379a0000000000000000000000000000000000000000000000000000000008152600401612c4790614dd0565b60405180910390fd5b80600860008573ffffffffffffffffffffffffffffffffffffffff1673ffffffffffffffffffffffffffffffffffffffff16815260200190815260200160002060008473ffffffffffffffffffffffffffffffffffffffff1673ffffffffffffffffffffffffffffffffffffffff16815260200190815260200160002060006101000a81548160ff0219169083151502179055508173ffffffffffffffffffffffffffffffffffffffff168373ffffffffffffffffffffffffffffffffffffffff167f17307eab39ab6107e8899845ad3d59bd9653f200f220920489ca2b5937696c3183604051612d419190613e6d565b60405180910390a3505050565b612d5984848461234c565b612d65848484846133fd565b612da4576040517f08c379a0000000000000000000000000000000000000000000000000000000008152600401612d9b90614e62565b60405180910390fd5b50505050565b6000808260a0015163ffffffff1614158015612dd4575042826040015167ffffffffffffffff1611155b9050919050565b606060405180602001604052806000815250905090565b606060006001612e0184613584565b01905060008167ffffffffffffffff811115612e2057612e1f614355565b5b6040519080825280601f01601f191660200182016040528015612e525781602001600182028036833780820191505090505b509050600082602001820190505b600115612eb5578080600190039150507f3031323334353637383961626364656600000000000000000000000000000000600a86061a8153600a8581612ea957612ea8614e82565b5b04945060008503612e60575b819350505050919050565b60007f01ffc9a7000000000000000000000000000000000000000000000000000000007bffffffffffffffffffffffffffffffffffffffffffffffffffffffff1916827bffffffffffffffffffffffffffffffffffffffffffffffffffffffff1916149050919050565b60008073ffffffffffffffffffffffffffffffffffffffff16612f4c83612429565b73ffffffffffffffffffffffffffffffffffffffff1614159050919050565b8273ffffffffffffffffffffffffffffffffffffffff16612f8b82610ffa565b73ffffffffffffffffffffffffffffffffffffffff1614612fe1576040517f08c379a0000000000000000000000000000000000000000000000000000000008152600401612fd890614f23565b60405180910390fd5b600073ffffffffffffffffffffffffffffffffffffffff168273ffffffffffffffffffffffffffffffffffffffff1603613050576040517f08c379a000000000000000000000000000000000000000000000000000000000815260040161304790614fb5565b60405180910390fd5b61305d83838360016136d7565b8273ffffffffffffffffffffffffffffffffffffffff1661307d82610ffa565b73ffffffffffffffffffffffffffffffffffffffff16146130d3576040517f08c379a00000000000000000000000000000000000000000000000000000000081526004016130ca90614f23565b60405180910390fd5b6007600082815260200190815260200160002060006101000a81549073ffffffffffffffffffffffffffffffffffffffff02191690556001600660008573ffffffffffffffffffffffffffffffffffffffff1673ffffffffffffffffffffffffffffffffffffffff168152602001908152602001600020600082825403925050819055506001600660008473ffffffffffffffffffffffffffffffffffffffff1673ffffffffffffffffffffffffffffffffffffffff16815260200190815260200160002060008282540192505081905550816005600083815260200190815260200160002060006101000a81548173ffffffffffffffffffffffffffffffffffffffff021916908373ffffffffffffffffffffffffffffffffffffffff160217905550808273ffffffffffffffffffffffffffffffffffffffff168473ffffffffffffffffffffffffffffffffffffffff167fddf252ad1be2c89b69c2b068fc378daa952ba7f163c4a11628f55a4df523b3ef60405160405180910390a461325f8383836001613835565b505050565b61326c610fb1565b6132ab576040517f08c379a00000000000000000000000000000000000000000000000000000000081526004016132a290615021565b60405180910390fd5b565b6132c782826040518060200160405280600081525061383b565b5050565b600f81600101601c9054906101000a900460ff1660ff16600881106132f3576132f26146c7565b5b600891828204019190066004029054906101000a900463ffffffff1663ffffffff16426133209190614b90565b8160010160086101000a81548167ffffffffffffffff021916908367ffffffffffffffff160217905550600581600101601c9054906101000a900460ff1660ff161080156133825750600381600101601d9054906101000a900460ff1660ff16105b156133fa57600181600101601c8282829054906101000a900460ff166133a8919061504e565b92506101000a81548160ff021916908360ff160217905550600181600101601d8282829054906101000a900460ff166133e1919061504e565b92506101000a81548160ff021916908360ff1602179055505b50565b600061341e8473ffffffffffffffffffffffffffffffffffffffff16612070565b15613577578373ffffffffffffffffffffffffffffffffffffffff1663150b7a026134476121c6565b8786866040518563ffffffff1660e01b815260040161346994939291906150d8565b6020604051808303816000875af19250505080156134a557506040513d601f19601f820116820180604052508101906134a29190615139565b60015b613527573d80600081146134d5576040519150601f19603f3d011682016040523d82523d6000602084013e6134da565b606091505b50600081510361351f576040517f08c379a000000000000000000000000000000000000000000000000000000000815260040161351690614e62565b60405180910390fd5b805181602001fd5b63150b7a0260e01b7bffffffffffffffffffffffffffffffffffffffffffffffffffffffff1916817bffffffffffffffffffffffffffffffffffffffffffffffffffffffff19161491505061357c565b600190505b949350505050565b600080600090507a184f03e93ff9f4daa797ed6e38ed64bf6a1f01000000000000000083106135e2577a184f03e93ff9f4daa797ed6e38ed64bf6a1f01000000000000000083816135d8576135d7614e82565b5b0492506040810190505b6d04ee2d6d415b85acef8100000000831061361f576d04ee2d6d415b85acef8100000000838161361557613614614e82565b5b0492506020810190505b662386f26fc10000831061364e57662386f26fc10000838161364457613643614e82565b5b0492506010810190505b6305f5e1008310613677576305f5e100838161366d5761366c614e82565b5b0492506008810190505b612710831061369c57612710838161369257613691614e82565b5b0492506004810190505b606483106136bf57606483816136b5576136b4614e82565b5b0492506002810190505b600a83106136ce576001810190505b80915050919050565b6136e384848484612093565b6001811115613727576040517f08c379a000000000000000000000000000000000000000000000000000000000815260040161371e906151d8565b60405180910390fd5b6000829050600073ffffffffffffffffffffffffffffffffffffffff168573ffffffffffffffffffffffffffffffffffffffff160361376e5761376981613896565b6137ad565b8373ffffffffffffffffffffffffffffffffffffffff168573ffffffffffffffffffffffffffffffffffffffff16146137ac576137ab85826138df565b5b5b600073ffffffffffffffffffffffffffffffffffffffff168473ffffffffffffffffffffffffffffffffffffffff16036137ef576137ea81613a4c565b61382e565b8473ffffffffffffffffffffffffffffffffffffffff168473ffffffffffffffffffffffffffffffffffffffff161461382d5761382c8482613b1d565b5b5b5050505050565b50505050565b6138458383613b9c565b61385260008484846133fd565b613891576040517f08c379a000000000000000000000000000000000000000000000000000000000815260040161388890614e62565b60405180910390fd5b505050565b600b80549050600c600083815260200190815260200160002081905550600b81908060018154018082558091505060019003906000526020600020016000909190919091505550565b600060016138ec8461124d565b6138f69190614c68565b90506000600a60008481526020019081526020016000205490508181146139db576000600960008673ffffffffffffffffffffffffffffffffffffffff1673ffffffffffffffffffffffffffffffffffffffff168152602001908152602001600020600084815260200190815260200160002054905080600960008773ffffffffffffffffffffffffffffffffffffffff1673ffffffffffffffffffffffffffffffffffffffff16815260200190815260200160002060008481526020019081526020016000208190555081600a600083815260200190815260200160002081905550505b600a600084815260200190815260200160002060009055600960008573ffffffffffffffffffffffffffffffffffffffff1673ffffffffffffffffffffffffffffffffffffffff16815260200190815260200160002060008381526020019081526020016000206000905550505050565b60006001600b80549050613a609190614c68565b90506000600c60008481526020019081526020016000205490506000600b8381548110613a9057613a8f6146c7565b5b9060005260206000200154905080600b8381548110613ab257613ab16146c7565b5b906000526020600020018190555081600c600083815260200190815260200160002081905550600c600085815260200190815260200160002060009055600b805480613b0157613b006151f8565b5b6001900381819060005260206000200160009055905550505050565b6000613b288361124d565b905081600960008573ffffffffffffffffffffffffffffffffffffffff1673ffffffffffffffffffffffffffffffffffffffff16815260200190815260200160002060008381526020019081526020016000208190555080600a600084815260200190815260200160002081905550505050565b600073ffffffffffffffffffffffffffffffffffffffff168273ffffffffffffffffffffffffffffffffffffffff1603613c0b576040517f08c379a0000000000000000000000000000000000000000000000000000000008152600401613c0290615273565b60405180910390fd5b613c1481612f2a565b15613c54576040517f08c379a0000000000000000000000000000000000000000000000000000000008152600401613c4b906152df565b60405180910390fd5b613c626000838360016136d7565b613c6b81612f2a565b15613cab576040517f08c379a0000000000000000000000000000000000000000000000000000000008152600401613ca2906152df565b60405180910390fd5b6001600660008473ffffffffffffffffffffffffffffffffffffffff1673ffffffffffffffffffffffffffffffffffffffff16815260200190815260200160002060008282540192505081905550816005600083815260200190815260200160002060006101000a81548173ffffffffffffffffffffffffffffffffffffffff021916908373ffffffffffffffffffffffffffffffffffffffff160217905550808273ffffffffffffffffffffffffffffffffffffffff16600073ffffffffffffffffffffffffffffffffffffffff167fddf252ad1be2c89b69c2b068fc378daa952ba7f163c4a11628f55a4df523b3ef60405160405180910390a4613db5600083836001613835565b5050565b6000604051905090565b600080fd5b600080fd5b60007fffffffff0000000000000000000000000000000000000000000000000000000082169050919050565b613e0281613dcd565b8114613e0d57600080fd5b50565b600081359050613e1f81613df9565b92915050565b600060208284031215613e3b57613e3a613dc3565b5b6000613e4984828501613e10565b91505092915050565b60008115159050919050565b613e6781613e52565b82525050565b6000602082019050613e826000830184613e5e565b92915050565b600073ffffffffffffffffffffffffffffffffffffffff82169050919050565b6000613eb382613e88565b9050919050565b613ec381613ea8565b82525050565b6000602082019050613ede6000830184613eba565b92915050565b6000819050919050565b613ef781613ee4565b82525050565b6000602082019050613f126000830184613eee565b92915050565b600081519050919050565b600082825260208201905092915050565b60005b83811015613f52578082015181840152602081019050613f37565b60008484015250505050565b6000601f19601f8301169050919050565b6000613f7a82613f18565b613f848185613f23565b9350613f94818560208601613f34565b613f9d81613f5e565b840191505092915050565b60006020820190508181036000830152613fc28184613f6f565b905092915050565b613fd381613ee4565b8114613fde57600080fd5b50565b600081359050613ff081613fca565b92915050565b60006020828403121561400c5761400b613dc3565b5b600061401a84828501613fe1565b91505092915050565b61402c81613ea8565b811461403757600080fd5b50565b60008135905061404981614023565b92915050565b6000806040838503121561406657614065613dc3565b5b60006140748582860161403a565b925050602061408585828601613fe1565b9150509250929050565b6000806000606084860312156140a8576140a7613dc3565b5b60006140b68682870161403a565b93505060206140c78682870161403a565b92505060406140d886828701613fe1565b9150509250925092565b6000602082840312156140f8576140f7613dc3565b5b60006141068482850161403a565b91505092915050565b6000806040838503121561412657614125613dc3565b5b600061413485828601613fe1565b925050602061414585828601613fe1565b9150509250929050565b6000806040838503121561416657614165613dc3565b5b600061417485828601613fe1565b92505060206141858582860161403a565b9150509250929050565b6000819050919050565b60006141b46141af6141aa84613e88565b61418f565b613e88565b9050919050565b60006141c682614199565b9050919050565b60006141d8826141bb565b9050919050565b6141e8816141cd565b82525050565b600060208201905061420360008301846141df565b92915050565b60006101408201905061421f600083018d613e5e565b61422c602083018c613e5e565b614239604083018b613eee565b614246606083018a613eee565b6142536080830189613eee565b61426060a0830188613eee565b61426d60c0830187613eee565b61427a60e0830186613eee565b614288610100830185613eee565b614296610120830184613eee565b9b9a5050505050505050505050565b600063ffffffff82169050919050565b6142be816142a5565b82525050565b60006020820190506142d960008301846142b5565b92915050565b6142e881613e52565b81146142f357600080fd5b50565b600081359050614305816142df565b92915050565b6000806040838503121561432257614321613dc3565b5b60006143308582860161403a565b9250506020614341858286016142f6565b9150509250929050565b600080fd5b600080fd5b7f4e487b7100000000000000000000000000000000000000000000000000000000600052604160045260246000fd5b61438d82613f5e565b810181811067ffffffffffffffff821117156143ac576143ab614355565b5b80604052505050565b60006143bf613db9565b90506143cb8282614384565b919050565b600067ffffffffffffffff8211156143eb576143ea614355565b5b6143f482613f5e565b9050602081019050919050565b82818337600083830152505050565b600061442361441e846143d0565b6143b5565b90508281526020810184848401111561443f5761443e614350565b5b61444a848285614401565b509392505050565b600082601f8301126144675761446661434b565b5b8135614477848260208601614410565b91505092915050565b6000806000806080858703121561449a57614499613dc3565b5b60006144a88782880161403a565b94505060206144b98782880161403a565b93505060406144ca87828801613fe1565b925050606085013567ffffffffffffffff8111156144eb576144ea613dc8565b5b6144f787828801614452565b91505092959194509250565b6000806040838503121561451a57614519613dc3565b5b60006145288582860161403a565b92505060206145398582860161403a565b9150509250929050565b7f4e487b7100000000000000000000000000000000000000000000000000000000600052602260045260246000fd5b6000600282049050600182168061458a57607f821691505b60208210810361459d5761459c614543565b5b50919050565b7f4552433732313a20617070726f76616c20746f2063757272656e74206f776e6560008201527f7200000000000000000000000000000000000000000000000000000000000000602082015250565b60006145ff602183613f23565b915061460a826145a3565b604082019050919050565b6000602082019050818103600083015261462e816145f2565b9050919050565b7f4552433732313a20617070726f76652063616c6c6572206973206e6f7420746f60008201527f6b656e206f776e6572206f7220617070726f76656420666f7220616c6c000000602082015250565b6000614691603d83613f23565b915061469c82614635565b604082019050919050565b600060208201905081810360008301526146c081614684565b9050919050565b7f4e487b7100000000000000000000000000000000000000000000000000000000600052603260045260246000fd5b7f4552433732313a2063616c6c6572206973206e6f7420746f6b656e206f776e6560008201527f72206f7220617070726f76656400000000000000000000000000000000000000602082015250565b6000614752602d83613f23565b915061475d826146f6565b604082019050919050565b6000602082019050818103600083015261478181614745565b9050919050565b7f455243373231456e756d657261626c653a206f776e657220696e646578206f7560008201527f74206f6620626f756e6473000000000000000000000000000000000000000000602082015250565b60006147e4602b83613f23565b91506147ef82614788565b604082019050919050565b60006020820190508181036000830152614813816147d7565b9050919050565b7f455243373231456e756d657261626c653a20676c6f62616c20696e646578206f60008201527f7574206f6620626f756e64730000000000000000000000000000000000000000602082015250565b6000614876602c83613f23565b91506148818261481a565b604082019050919050565b600060208201905081810360008301526148a581614869565b9050919050565b7f4552433732313a20696e76616c696420746f6b656e2049440000000000000000600082015250565b60006148e2601883613f23565b91506148ed826148ac565b602082019050919050565b60006020820190508181036000830152614911816148d5565b9050919050565b7f4e487b7100000000000000000000000000000000000000000000000000000000600052601160045260246000fd5b600061495282613ee4565b91507fffffffffffffffffffffffffffffffffffffffffffffffffffffffffffffffff820361498457614983614918565b5b600182019050919050565b7f4552433732313a2061646472657373207a65726f206973206e6f74206120766160008201527f6c6964206f776e65720000000000000000000000000000000000000000000000602082015250565b60006149eb602983613f23565b91506149f68261498f565b604082019050919050565b60006020820190508181036000830152614a1a816149de565b9050919050565b7f596f7520616c7265616479206d696e742062756d6d7900000000000000000000600082015250565b6000614a57601683613f23565b9150614a6282614a21565b602082019050919050565b60006020820190508181036000830152614a8681614a4a565b9050919050565b6000819050919050565b614aa8614aa382613ee4565b614a8d565b82525050565b60008160601b9050919050565b6000614ac682614aae565b9050919050565b6000614ad882614abb565b9050919050565b614af0614aeb82613ea8565b614acd565b82525050565b6000614b0182613e88565b9050919050565b6000614b1382614abb565b9050919050565b614b2b614b2682614af6565b614b08565b82525050565b6000614b3d8288614a97565b602082019150614b4d8287614a97565b602082019150614b5d8286614adf565b601482019150614b6d8285614a97565b602082019150614b7d8284614b1a565b6014820191508190509695505050505050565b6000614b9b82613ee4565b9150614ba683613ee4565b9250828201905080821115614bbe57614bbd614918565b5b92915050565b600061ffff82169050919050565b6000614bdd82614bc4565b9150614be883614bc4565b9250828201905061ffff811115614c0257614c01614918565b5b92915050565b600081905092915050565b6000614c1e82613f18565b614c288185614c08565b9350614c38818560208601613f34565b80840191505092915050565b6000614c508285614c13565b9150614c5c8284614c13565b91508190509392505050565b6000614c7382613ee4565b9150614c7e83613ee4565b9250828203905081811115614c9657614c95614918565b5b92915050565b6000608082019050614cb16000830187613eee565b614cbe6020830186613eee565b614ccb6040830185613eee565b614cd86060830184613eee565b95945050505050565b7f5061757361626c653a2070617573656400000000000000000000000000000000600082015250565b6000614d17601083613f23565b9150614d2282614ce1565b602082019050919050565b60006020820190508181036000830152614d4681614d0a565b9050919050565b6000606082019050614d626000830186613eba565b614d6f6020830185613eee565b614d7c6040830184613eee565b949350505050565b7f4552433732313a20617070726f766520746f2063616c6c657200000000000000600082015250565b6000614dba601983613f23565b9150614dc582614d84565b602082019050919050565b60006020820190508181036000830152614de981614dad565b9050919050565b7f4552433732313a207472616e7366657220746f206e6f6e20455243373231526560008201527f63656976657220696d706c656d656e7465720000000000000000000000000000602082015250565b6000614e4c603283613f23565b9150614e5782614df0565b604082019050919050565b60006020820190508181036000830152614e7b81614e3f565b9050919050565b7f4e487b7100000000000000000000000000000000000000000000000000000000600052601260045260246000fd5b7f4552433732313a207472616e736665722066726f6d20696e636f72726563742060008201527f6f776e6572000000000000000000000000000000000000000000000000000000602082015250565b6000614f0d602583613f23565b9150614f1882614eb1565b604082019050919050565b60006020820190508181036000830152614f3c81614f00565b9050919050565b7f4552433732313a207472616e7366657220746f20746865207a65726f2061646460008201527f7265737300000000000000000000000000000000000000000000000000000000602082015250565b6000614f9f602483613f23565b9150614faa82614f43565b604082019050919050565b60006020820190508181036000830152614fce81614f92565b9050919050565b7f5061757361626c653a206e6f7420706175736564000000000000000000000000600082015250565b600061500b601483613f23565b915061501682614fd5565b602082019050919050565b6000602082019050818103600083015261503a81614ffe565b9050919050565b600060ff82169050919050565b600061505982615041565b915061506483615041565b9250828201905060ff81111561507d5761507c614918565b5b92915050565b600081519050919050565b600082825260208201905092915050565b60006150aa82615083565b6150b4818561508e565b93506150c4818560208601613f34565b6150cd81613f5e565b840191505092915050565b60006080820190506150ed6000830187613eba565b6150fa6020830186613eba565b6151076040830185613eee565b8181036060830152615119818461509f565b905095945050505050565b60008151905061513381613df9565b92915050565b60006020828403121561514f5761514e613dc3565b5b600061515d84828501615124565b91505092915050565b7f455243373231456e756d657261626c653a20636f6e736563757469766520747260008201527f616e7366657273206e6f7420737570706f727465640000000000000000000000602082015250565b60006151c2603583613f23565b91506151cd82615166565b604082019050919050565b600060208201905081810360008301526151f1816151b5565b9050919050565b7f4e487b7100000000000000000000000000000000000000000000000000000000600052603160045260246000fd5b7f4552433732313a206d696e7420746f20746865207a65726f2061646472657373600082015250565b600061525d602083613f23565b915061526882615227565b602082019050919050565b6000602082019050818103600083015261528c81615250565b9050919050565b7f4552433732313a20746f6b656e20616c7265616479206d696e74656400000000600082015250565b60006152c9601c83613f23565b91506152d482615293565b602082019050919050565b600060208201905081810360008301526152f8816152bc565b905091905056fea264697066735822122032c4d43fe14708d71a15eba424a63af191fb1d6b44e99d8142ea557d1319065864736f6c63430008110033",
  "linkReferences": {},
  "deployedLinkReferences": {}
}