{
  "_format": "hh-sol-artifact-1",
  "contractName": "BummyCore",
  "sourceName": "contracts/BummyCore.sol",
  "abi": [
    {
      "inputs": [],
      "stateMutability": "nonpayable",
      "type": "constructor"
    },
    {
      "anonymous": false,
      "inputs": [
        {
          "indexed": true,
          "internalType": "address",
          "name": "owner",
          "type": "address"
        },
        {
          "indexed": true,
          "internalType": "address",
          "name": "approved",
          "type": "address"
        },
        {
          "indexed": true,
          "internalType": "uint256",
          "name": "tokenId",
          "type": "uint256"
        }
      ],
      "name": "Approval",
      "type": "event"
    },
    {
      "anonymous": false,
      "inputs": [
        {
          "indexed": true,
          "internalType": "address",
          "name": "owner",
          "type": "address"
        },
        {
          "indexed": true,
          "internalType": "address",
          "name": "operator",
          "type": "address"
        },
        {
          "indexed": false,
          "internalType": "bool",
          "name": "approved",
          "type": "bool"
        }
      ],
      "name": "ApprovalForAll",
      "type": "event"
    },
    {
      "anonymous": false,
      "inputs": [
        {
          "indexed": false,
          "internalType": "address",
          "name": "owner",
          "type": "address"
        },
        {
          "indexed": false,
          "internalType": "uint256",
          "name": "momId",
          "type": "uint256"
        },
        {
          "indexed": false,
          "internalType": "uint256",
          "name": "dadId",
          "type": "uint256"
        }
      ],
      "name": "Cheering",
      "type": "event"
    },
    {
      "anonymous": false,
      "inputs": [
        {
          "indexed": true,
          "internalType": "address",
          "name": "owner",
          "type": "address"
        },
        {
          "indexed": false,
          "internalType": "uint256",
          "name": "bummyId",
          "type": "uint256"
        },
        {
          "indexed": false,
          "internalType": "uint256",
          "name": "momId",
          "type": "uint256"
        },
        {
          "indexed": false,
          "internalType": "uint256",
          "name": "dadId",
          "type": "uint256"
        },
        {
          "indexed": false,
          "internalType": "uint256",
          "name": "genes",
          "type": "uint256"
        }
      ],
      "name": "Invite",
      "type": "event"
    },
    {
      "anonymous": false,
      "inputs": [
        {
          "indexed": false,
          "internalType": "address",
          "name": "account",
          "type": "address"
        }
      ],
      "name": "Paused",
      "type": "event"
    },
    {
      "anonymous": false,
      "inputs": [
        {
          "indexed": true,
          "internalType": "address",
          "name": "from",
          "type": "address"
        },
        {
          "indexed": true,
          "internalType": "address",
          "name": "to",
          "type": "address"
        },
        {
          "indexed": true,
          "internalType": "uint256",
          "name": "tokenId",
          "type": "uint256"
        }
      ],
      "name": "Transfer",
      "type": "event"
    },
    {
      "anonymous": false,
      "inputs": [
        {
          "indexed": false,
          "internalType": "address",
          "name": "account",
          "type": "address"
        }
      ],
      "name": "Unpaused",
      "type": "event"
    },
    {
      "inputs": [
        {
          "internalType": "address",
          "name": "to",
          "type": "address"
        },
        {
          "internalType": "uint256",
          "name": "tokenId",
          "type": "uint256"
        }
      ],
      "name": "approve",
      "outputs": [],
      "stateMutability": "nonpayable",
      "type": "function"
    },
    {
      "inputs": [
        {
          "internalType": "address",
          "name": "_addr",
          "type": "address"
        },
        {
          "internalType": "uint256",
          "name": "_dadId",
          "type": "uint256"
        }
      ],
      "name": "approveCheering",
      "outputs": [],
      "stateMutability": "nonpayable",
      "type": "function"
    },
    {
      "inputs": [
        {
          "internalType": "address",
          "name": "owner",
          "type": "address"
        }
      ],
      "name": "balanceOf",
      "outputs": [
        {
          "internalType": "uint256",
          "name": "",
          "type": "uint256"
        }
      ],
      "stateMutability": "view",
      "type": "function"
    },
    {
      "inputs": [
        {
          "internalType": "uint256",
          "name": "",
          "type": "uint256"
        }
      ],
      "name": "bummies",
      "outputs": [
        {
          "internalType": "uint256",
          "name": "genes",
          "type": "uint256"
        },
        {
          "internalType": "uint64",
          "name": "birthTime",
          "type": "uint64"
        },
        {
          "internalType": "uint64",
          "name": "cooldownEndTime",
          "type": "uint64"
        },
        {
          "internalType": "uint32",
          "name": "MomId",
          "type": "uint32"
        },
        {
          "internalType": "uint32",
          "name": "DadId",
          "type": "uint32"
        },
        {
          "internalType": "uint32",
          "name": "cheeringWithId",
          "type": "uint32"
        },
        {
          "internalType": "uint8",
          "name": "cooldownIndex",
          "type": "uint8"
        },
        {
          "internalType": "uint8",
          "name": "children",
          "type": "uint8"
        },
        {
          "internalType": "uint16",
          "name": "generation",
          "type": "uint16"
        }
      ],
      "stateMutability": "view",
      "type": "function"
    },
    {
      "inputs": [
        {
          "internalType": "uint256",
          "name": "_momId",
          "type": "uint256"
        },
        {
          "internalType": "uint256",
          "name": "_dadId",
          "type": "uint256"
        }
      ],
      "name": "canCheerWith",
      "outputs": [
        {
          "internalType": "bool",
          "name": "",
          "type": "bool"
        }
      ],
      "stateMutability": "view",
      "type": "function"
    },
    {
      "inputs": [],
      "name": "ceoAddress",
      "outputs": [
        {
          "internalType": "address",
          "name": "",
          "type": "address"
        }
      ],
      "stateMutability": "view",
      "type": "function"
    },
    {
      "inputs": [
        {
          "internalType": "uint256",
          "name": "",
          "type": "uint256"
        }
      ],
      "name": "cheerAllowedToAddress",
      "outputs": [
        {
          "internalType": "address",
          "name": "",
          "type": "address"
        }
      ],
      "stateMutability": "view",
      "type": "function"
    },
    {
      "inputs": [
        {
          "internalType": "uint256",
          "name": "_momId",
          "type": "uint256"
        },
        {
          "internalType": "uint256",
          "name": "_dadId",
          "type": "uint256"
        }
      ],
      "name": "cheerWith",
      "outputs": [],
      "stateMutability": "nonpayable",
      "type": "function"
    },
    {
      "inputs": [],
      "name": "cooAddress",
      "outputs": [
        {
          "internalType": "address",
          "name": "",
          "type": "address"
        }
      ],
      "stateMutability": "view",
      "type": "function"
    },
    {
      "inputs": [
        {
          "internalType": "uint256",
          "name": "",
          "type": "uint256"
        }
      ],
      "name": "cooldowns",
      "outputs": [
        {
          "internalType": "uint32",
          "name": "",
          "type": "uint32"
        }
      ],
      "stateMutability": "view",
      "type": "function"
    },
    {
      "inputs": [],
      "name": "createFirstGen0Bummy",
      "outputs": [],
      "stateMutability": "nonpayable",
      "type": "function"
    },
    {
      "inputs": [
        {
          "internalType": "uint256",
          "name": "_genes",
          "type": "uint256"
        },
        {
          "internalType": "address",
          "name": "_owner",
          "type": "address"
        }
      ],
      "name": "createPromoBummy",
      "outputs": [],
      "stateMutability": "nonpayable",
      "type": "function"
    },
    {
      "inputs": [
        {
          "internalType": "uint256",
          "name": "_genes",
          "type": "uint256"
        },
        {
          "internalType": "address",
          "name": "_owner",
          "type": "address"
        },
        {
          "internalType": "uint256",
          "name": "number",
          "type": "uint256"
        }
      ],
      "name": "createPromoMultipleBummy",
      "outputs": [],
      "stateMutability": "nonpayable",
      "type": "function"
    },
    {
      "inputs": [],
      "name": "gen0CreatedCount",
      "outputs": [
        {
          "internalType": "uint256",
          "name": "",
          "type": "uint256"
        }
      ],
      "stateMutability": "view",
      "type": "function"
    },
    {
      "inputs": [],
      "name": "gen0CreationLimit",
      "outputs": [
        {
          "internalType": "uint256",
          "name": "",
          "type": "uint256"
        }
      ],
      "stateMutability": "view",
      "type": "function"
    },
    {
      "inputs": [
        {
          "internalType": "uint256",
          "name": "tokenId",
          "type": "uint256"
        }
      ],
      "name": "getApproved",
      "outputs": [
        {
          "internalType": "address",
          "name": "",
          "type": "address"
        }
      ],
      "stateMutability": "view",
      "type": "function"
    },
    {
      "inputs": [
        {
          "internalType": "uint32",
          "name": "_id",
          "type": "uint32"
        }
      ],
      "name": "getBummy",
      "outputs": [
        {
          "internalType": "bool",
          "name": "isCheering",
          "type": "bool"
        },
        {
          "internalType": "bool",
          "name": "isReady",
          "type": "bool"
        },
        {
          "internalType": "uint256",
          "name": "cooldownIndex",
          "type": "uint256"
        },
        {
          "internalType": "uint256",
          "name": "nextActionAt",
          "type": "uint256"
        },
        {
          "internalType": "uint256",
          "name": "cheeringWithId",
          "type": "uint256"
        },
        {
          "internalType": "uint256",
          "name": "birthTime",
          "type": "uint256"
        },
        {
          "internalType": "uint256",
          "name": "momId",
          "type": "uint256"
        },
        {
          "internalType": "uint256",
          "name": "dadId",
          "type": "uint256"
        },
        {
          "internalType": "uint256",
          "name": "generation",
          "type": "uint256"
        },
        {
          "internalType": "uint256",
          "name": "genes",
          "type": "uint256"
        }
      ],
      "stateMutability": "view",
      "type": "function"
    },
    {
      "inputs": [
        {
          "internalType": "uint256",
          "name": "_momId",
          "type": "uint256"
        }
      ],
      "name": "inviteFriend",
      "outputs": [
        {
          "internalType": "uint256",
          "name": "",
          "type": "uint256"
        }
      ],
      "stateMutability": "nonpayable",
      "type": "function"
    },
    {
      "inputs": [
        {
          "internalType": "address",
          "name": "owner",
          "type": "address"
        },
        {
          "internalType": "address",
          "name": "operator",
          "type": "address"
        }
      ],
      "name": "isApprovedForAll",
      "outputs": [
        {
          "internalType": "bool",
          "name": "",
          "type": "bool"
        }
      ],
      "stateMutability": "view",
      "type": "function"
    },
    {
      "inputs": [
        {
          "internalType": "uint256",
          "name": "_bummyId",
          "type": "uint256"
        }
      ],
      "name": "isReadyToCheer",
      "outputs": [
        {
          "internalType": "bool",
          "name": "",
          "type": "bool"
        }
      ],
      "stateMutability": "view",
      "type": "function"
    },
    {
      "inputs": [],
      "name": "name",
      "outputs": [
        {
          "internalType": "string",
          "name": "",
          "type": "string"
        }
      ],
      "stateMutability": "view",
      "type": "function"
    },
    {
      "inputs": [
        {
          "internalType": "uint256",
          "name": "tokenId",
          "type": "uint256"
        }
      ],
      "name": "ownerOf",
      "outputs": [
        {
          "internalType": "address",
          "name": "",
          "type": "address"
        }
      ],
      "stateMutability": "view",
      "type": "function"
    },
    {
      "inputs": [],
      "name": "pause",
      "outputs": [],
      "stateMutability": "nonpayable",
      "type": "function"
    },
    {
      "inputs": [],
      "name": "paused",
      "outputs": [
        {
          "internalType": "bool",
          "name": "",
          "type": "bool"
        }
      ],
      "stateMutability": "view",
      "type": "function"
    },
    {
      "inputs": [],
      "name": "promoCreatedCount",
      "outputs": [
        {
          "internalType": "uint256",
          "name": "",
          "type": "uint256"
        }
      ],
      "stateMutability": "view",
      "type": "function"
    },
    {
      "inputs": [],
      "name": "promoCreationLimit",
      "outputs": [
        {
          "internalType": "uint256",
          "name": "",
          "type": "uint256"
        }
      ],
      "stateMutability": "view",
      "type": "function"
    },
    {
      "inputs": [
        {
          "internalType": "address",
          "name": "from",
          "type": "address"
        },
        {
          "internalType": "address",
          "name": "to",
          "type": "address"
        },
        {
          "internalType": "uint256",
          "name": "tokenId",
          "type": "uint256"
        }
      ],
      "name": "safeTransferFrom",
      "outputs": [],
      "stateMutability": "nonpayable",
      "type": "function"
    },
    {
      "inputs": [
        {
          "internalType": "address",
          "name": "from",
          "type": "address"
        },
        {
          "internalType": "address",
          "name": "to",
          "type": "address"
        },
        {
          "internalType": "uint256",
          "name": "tokenId",
          "type": "uint256"
        },
        {
          "internalType": "bytes",
          "name": "data",
          "type": "bytes"
        }
      ],
      "name": "safeTransferFrom",
      "outputs": [],
      "stateMutability": "nonpayable",
      "type": "function"
    },
    {
      "inputs": [
        {
          "internalType": "address",
          "name": "operator",
          "type": "address"
        },
        {
          "internalType": "bool",
          "name": "approved",
          "type": "bool"
        }
      ],
      "name": "setApprovalForAll",
      "outputs": [],
      "stateMutability": "nonpayable",
      "type": "function"
    },
    {
      "inputs": [
        {
          "internalType": "address",
          "name": "_newCEO",
          "type": "address"
        }
      ],
      "name": "setCEO",
      "outputs": [],
      "stateMutability": "nonpayable",
      "type": "function"
    },
    {
      "inputs": [
        {
          "internalType": "address",
          "name": "_newCOO",
          "type": "address"
        }
      ],
      "name": "setCOO",
      "outputs": [],
      "stateMutability": "nonpayable",
      "type": "function"
    },
    {
      "inputs": [
        {
          "internalType": "bytes4",
          "name": "interfaceId",
          "type": "bytes4"
        }
      ],
      "name": "supportsInterface",
      "outputs": [
        {
          "internalType": "bool",
          "name": "",
          "type": "bool"
        }
      ],
      "stateMutability": "view",
      "type": "function"
    },
    {
      "inputs": [],
      "name": "symbol",
      "outputs": [
        {
          "internalType": "string",
          "name": "",
          "type": "string"
        }
      ],
      "stateMutability": "view",
      "type": "function"
    },
    {
      "inputs": [
        {
          "internalType": "uint256",
          "name": "index",
          "type": "uint256"
        }
      ],
      "name": "tokenByIndex",
      "outputs": [
        {
          "internalType": "uint256",
          "name": "",
          "type": "uint256"
        }
      ],
      "stateMutability": "view",
      "type": "function"
    },
    {
      "inputs": [
        {
          "internalType": "address",
          "name": "owner",
          "type": "address"
        },
        {
          "internalType": "uint256",
          "name": "index",
          "type": "uint256"
        }
      ],
      "name": "tokenOfOwnerByIndex",
      "outputs": [
        {
          "internalType": "uint256",
          "name": "",
          "type": "uint256"
        }
      ],
      "stateMutability": "view",
      "type": "function"
    },
    {
      "inputs": [
        {
          "internalType": "uint256",
          "name": "tokenId",
          "type": "uint256"
        }
      ],
      "name": "tokenURI",
      "outputs": [
        {
          "internalType": "string",
          "name": "",
          "type": "string"
        }
      ],
      "stateMutability": "view",
      "type": "function"
    },
    {
      "inputs": [],
      "name": "totalSupply",
      "outputs": [
        {
          "internalType": "uint256",
          "name": "",
          "type": "uint256"
        }
      ],
      "stateMutability": "view",
      "type": "function"
    },
    {
      "inputs": [
        {
          "internalType": "address",
          "name": "from",
          "type": "address"
        },
        {
          "internalType": "address",
          "name": "to",
          "type": "address"
        },
        {
          "internalType": "uint256",
          "name": "tokenId",
          "type": "uint256"
        }
      ],
      "name": "transferFrom",
      "outputs": [],
      "stateMutability": "nonpayable",
      "type": "function"
    },
    {
      "inputs": [],
      "name": "unpause",
      "outputs": [],
      "stateMutability": "nonpayable",
      "type": "function"
    }
  ],
  "bytecode": "0x60c0604052604051806101000160405280603c63ffffffff1663ffffffff168152602001607863ffffffff1663ffffffff16815260200161012c63ffffffff1663ffffffff16815260200161025863ffffffff1663ffffffff16815260200161070863ffffffff1663ffffffff168152602001610e1063ffffffff1663ffffffff168152602001611c2063ffffffff1663ffffffff16815260200161384063ffffffff1663ffffffff16815250600c906008620000be929190620010d8565b5060646080908152506101f460a090815250348015620000dd57600080fd5b506040518060400160405280600881526020017f42756d6d794e46540000000000000000000000000000000000000000000000008152506040518060400160405280600281526020017f425600000000000000000000000000000000000000000000000000000000000081525060008060006101000a81548160ff02191690831515021790555081600290816200017591906200141b565b5080600390816200018791906200141b565b5050506200019a6200025c60201b60201c565b33600060016101000a81548173ffffffffffffffffffffffffffffffffffffffff021916908373ffffffffffffffffffffffffffffffffffffffff16021790555033600160006101000a81548173ffffffffffffffffffffffffffffffffffffffff021916908373ffffffffffffffffffffffffffffffffffffffff1602179055506200025560008060007fffffffffffffffffffffffffffffffffffffffffffffffffffffffffffffffff61dead620002d060201b60201c565b5062001b3b565b6200026c620005b160201b60201c565b60016000806101000a81548160ff0219169083151502179055507f62e78cea01bee320cd4e420270b5ea74000d11b0c9f74754ebdbfc544b05a258620002b76200060660201b60201c565b604051620002c6919062001547565b60405180910390a1565b600063ffffffff8016861115620002e657600080fd5b63ffffffff8016851115620002fa57600080fd5b63ffffffff80168411156200030e57600080fd5b60006040518061012001604052808581526020014267ffffffffffffffff168152602001600067ffffffffffffffff1681526020018863ffffffff1681526020018763ffffffff168152602001600063ffffffff168152602001600060ff168152602001600060ff1681526020018661ffff168152509050600d8190806001815401808255809150506001900390600052602060002090600202016000909190919091506000820151816000015560208201518160010160006101000a81548167ffffffffffffffff021916908367ffffffffffffffff16021790555060408201518160010160086101000a81548167ffffffffffffffff021916908367ffffffffffffffff16021790555060608201518160010160106101000a81548163ffffffff021916908363ffffffff16021790555060808201518160010160146101000a81548163ffffffff021916908363ffffffff16021790555060a08201518160010160186101000a81548163ffffffff021916908363ffffffff16021790555060c082015181600101601c6101000a81548160ff021916908360ff16021790555060e082015181600101601d6101000a81548160ff021916908360ff16021790555061010082015181600101601e6101000a81548161ffff021916908361ffff160217905550505060006001600d805490506200050d919062001593565b905063ffffffff80168111156200052357600080fd5b8373ffffffffffffffffffffffffffffffffffffffff167f14cb614758d3c982e9d2ae0ad129c2c2bdb4c5ba841155dced7bed1a27834de782846060015163ffffffff16856080015163ffffffff168660000151604051620005899493929190620015df565b60405180910390a2620005a384826200060e60201b60201c565b809250505095945050505050565b620005c16200063460201b60201c565b1562000604576040517f08c379a0000000000000000000000000000000000000000000000000000000008152600401620005fb906200168d565b60405180910390fd5b565b600033905090565b620006308282604051806020016040528060008152506200064a60201b60201c565b5050565b60008060009054906101000a900460ff16905090565b6200065c8383620006b860201b60201c565b620006716000848484620008fe60201b60201c565b620006b3576040517f08c379a0000000000000000000000000000000000000000000000000000000008152600401620006aa9062001725565b60405180910390fd5b505050565b600073ffffffffffffffffffffffffffffffffffffffff168273ffffffffffffffffffffffffffffffffffffffff16036200072a576040517f08c379a0000000000000000000000000000000000000000000000000000000008152600401620007219062001797565b60405180910390fd5b6200073b8162000aa760201b60201c565b156200077e576040517f08c379a0000000000000000000000000000000000000000000000000000000008152600401620007759062001809565b60405180910390fd5b6200079460008383600162000af060201b60201c565b620007a58162000aa760201b60201c565b15620007e8576040517f08c379a0000000000000000000000000000000000000000000000000000000008152600401620007df9062001809565b60405180910390fd5b6001600560008473ffffffffffffffffffffffffffffffffffffffff1673ffffffffffffffffffffffffffffffffffffffff16815260200190815260200160002060008282540192505081905550816004600083815260200190815260200160002060006101000a81548173ffffffffffffffffffffffffffffffffffffffff021916908373ffffffffffffffffffffffffffffffffffffffff160217905550808273ffffffffffffffffffffffffffffffffffffffff16600073ffffffffffffffffffffffffffffffffffffffff167fddf252ad1be2c89b69c2b068fc378daa952ba7f163c4a11628f55a4df523b3ef60405160405180910390a4620008fa60008383600162000c8460201b60201c565b5050565b60006200092c8473ffffffffffffffffffffffffffffffffffffffff1662000c8a60201b620023c91760201c565b1562000a9a578373ffffffffffffffffffffffffffffffffffffffff1663150b7a026200095e6200060660201b60201c565b8786866040518563ffffffff1660e01b8152600401620009829493929190620018c5565b6020604051808303816000875af1925050508015620009c157506040513d601f19601f82011682018060405250810190620009be91906200197b565b60015b62000a49573d8060008114620009f4576040519150601f19603f3d011682016040523d82523d6000602084013e620009f9565b606091505b50600081510362000a41576040517f08c379a000000000000000000000000000000000000000000000000000000000815260040162000a389062001725565b60405180910390fd5b805181602001fd5b63150b7a0260e01b7bffffffffffffffffffffffffffffffffffffffffffffffffffffffff1916817bffffffffffffffffffffffffffffffffffffffffffffffffffffffff19161491505062000a9f565b600190505b949350505050565b60008073ffffffffffffffffffffffffffffffffffffffff1662000ad18362000cad60201b60201c565b73ffffffffffffffffffffffffffffffffffffffff1614159050919050565b62000b098484848462000cea60201b620023ec1760201c565b600181111562000b50576040517f08c379a000000000000000000000000000000000000000000000000000000000815260040162000b479062001a23565b60405180910390fd5b6000829050600073ffffffffffffffffffffffffffffffffffffffff168573ffffffffffffffffffffffffffffffffffffffff160362000ba15762000b9b8162000cf060201b60201c565b62000be9565b8373ffffffffffffffffffffffffffffffffffffffff168573ffffffffffffffffffffffffffffffffffffffff161462000be85762000be7858262000d3960201b60201c565b5b5b600073ffffffffffffffffffffffffffffffffffffffff168473ffffffffffffffffffffffffffffffffffffffff160362000c355762000c2f8162000eb660201b60201c565b62000c7d565b8473ffffffffffffffffffffffffffffffffffffffff168473ffffffffffffffffffffffffffffffffffffffff161462000c7c5762000c7b848262000f9260201b60201c565b5b5b5050505050565b50505050565b6000808273ffffffffffffffffffffffffffffffffffffffff163b119050919050565b60006004600083815260200190815260200160002060009054906101000a900473ffffffffffffffffffffffffffffffffffffffff169050919050565b50505050565b600a80549050600b600083815260200190815260200160002081905550600a81908060018154018082558091505060019003906000526020600020016000909190919091505550565b6000600162000d53846200101e60201b6200144c1760201c565b62000d5f919062001593565b905060006009600084815260200190815260200160002054905081811462000e45576000600860008673ffffffffffffffffffffffffffffffffffffffff1673ffffffffffffffffffffffffffffffffffffffff168152602001908152602001600020600084815260200190815260200160002054905080600860008773ffffffffffffffffffffffffffffffffffffffff1673ffffffffffffffffffffffffffffffffffffffff168152602001908152602001600020600084815260200190815260200160002081905550816009600083815260200190815260200160002081905550505b6009600084815260200190815260200160002060009055600860008573ffffffffffffffffffffffffffffffffffffffff1673ffffffffffffffffffffffffffffffffffffffff16815260200190815260200160002060008381526020019081526020016000206000905550505050565b60006001600a8054905062000ecc919062001593565b90506000600b60008481526020019081526020016000205490506000600a838154811062000eff5762000efe62001a45565b5b9060005260206000200154905080600a838154811062000f245762000f2362001a45565b5b906000526020600020018190555081600b600083815260200190815260200160002081905550600b600085815260200190815260200160002060009055600a80548062000f765762000f7562001a74565b5b6001900381819060005260206000200160009055905550505050565b600062000faa836200101e60201b6200144c1760201c565b905081600860008573ffffffffffffffffffffffffffffffffffffffff1673ffffffffffffffffffffffffffffffffffffffff168152602001908152602001600020600083815260200190815260200160002081905550806009600084815260200190815260200160002081905550505050565b60008073ffffffffffffffffffffffffffffffffffffffff168273ffffffffffffffffffffffffffffffffffffffff160362001091576040517f08c379a0000000000000000000000000000000000000000000000000000000008152600401620010889062001b19565b60405180910390fd5b600560008373ffffffffffffffffffffffffffffffffffffffff1673ffffffffffffffffffffffffffffffffffffffff168152602001908152602001600020549050919050565b8260086007016008900481019282156200116f5791602002820160005b838211156200113b57835183826101000a81548163ffffffff021916908363ffffffff1602179055509260200192600401602081600301049283019260010302620010f5565b80156200116d5782816101000a81549063ffffffff02191690556004016020816003010492830192600103026200113b565b505b5090506200117e919062001182565b5090565b5b808211156200119d57600081600090555060010162001183565b5090565b600081519050919050565b7f4e487b7100000000000000000000000000000000000000000000000000000000600052604160045260246000fd5b7f4e487b7100000000000000000000000000000000000000000000000000000000600052602260045260246000fd5b600060028204905060018216806200122357607f821691505b602082108103620012395762001238620011db565b5b50919050565b60008190508160005260206000209050919050565b60006020601f8301049050919050565b600082821b905092915050565b600060088302620012a37fffffffffffffffffffffffffffffffffffffffffffffffffffffffffffffffff8262001264565b620012af868362001264565b95508019841693508086168417925050509392505050565b6000819050919050565b6000819050919050565b6000620012fc620012f6620012f084620012c7565b620012d1565b620012c7565b9050919050565b6000819050919050565b6200131883620012db565b62001330620013278262001303565b84845462001271565b825550505050565b600090565b6200134762001338565b620013548184846200130d565b505050565b5b818110156200137c57620013706000826200133d565b6001810190506200135a565b5050565b601f821115620013cb5762001395816200123f565b620013a08462001254565b81016020851015620013b0578190505b620013c8620013bf8562001254565b83018262001359565b50505b505050565b600082821c905092915050565b6000620013f060001984600802620013d0565b1980831691505092915050565b60006200140b8383620013dd565b9150826002028217905092915050565b6200142682620011a1565b67ffffffffffffffff811115620014425762001441620011ac565b5b6200144e82546200120a565b6200145b82828562001380565b600060209050601f8311600181146200149357600084156200147e578287015190505b6200148a8582620013fd565b865550620014fa565b601f198416620014a3866200123f565b60005b82811015620014cd57848901518255600182019150602085019450602081019050620014a6565b86831015620014ed5784890151620014e9601f891682620013dd565b8355505b6001600288020188555050505b505050505050565b600073ffffffffffffffffffffffffffffffffffffffff82169050919050565b60006200152f8262001502565b9050919050565b620015418162001522565b82525050565b60006020820190506200155e600083018462001536565b92915050565b7f4e487b7100000000000000000000000000000000000000000000000000000000600052601160045260246000fd5b6000620015a082620012c7565b9150620015ad83620012c7565b9250828203905081811115620015c857620015c762001564565b5b92915050565b620015d981620012c7565b82525050565b6000608082019050620015f66000830187620015ce565b620016056020830186620015ce565b620016146040830185620015ce565b620016236060830184620015ce565b95945050505050565b600082825260208201905092915050565b7f5061757361626c653a2070617573656400000000000000000000000000000000600082015250565b6000620016756010836200162c565b915062001682826200163d565b602082019050919050565b60006020820190508181036000830152620016a88162001666565b9050919050565b7f4552433732313a207472616e7366657220746f206e6f6e20455243373231526560008201527f63656976657220696d706c656d656e7465720000000000000000000000000000602082015250565b60006200170d6032836200162c565b91506200171a82620016af565b604082019050919050565b600060208201905081810360008301526200174081620016fe565b9050919050565b7f4552433732313a206d696e7420746f20746865207a65726f2061646472657373600082015250565b60006200177f6020836200162c565b91506200178c8262001747565b602082019050919050565b60006020820190508181036000830152620017b28162001770565b9050919050565b7f4552433732313a20746f6b656e20616c7265616479206d696e74656400000000600082015250565b6000620017f1601c836200162c565b9150620017fe82620017b9565b602082019050919050565b600060208201905081810360008301526200182481620017e2565b9050919050565b600081519050919050565b600082825260208201905092915050565b60005b83811015620018675780820151818401526020810190506200184a565b60008484015250505050565b6000601f19601f8301169050919050565b600062001891826200182b565b6200189d818562001836565b9350620018af81856020860162001847565b620018ba8162001873565b840191505092915050565b6000608082019050620018dc600083018762001536565b620018eb602083018662001536565b620018fa6040830185620015ce565b81810360608301526200190e818462001884565b905095945050505050565b600080fd5b60007fffffffff0000000000000000000000000000000000000000000000000000000082169050919050565b62001955816200191e565b81146200196157600080fd5b50565b60008151905062001975816200194a565b92915050565b60006020828403121562001994576200199362001919565b5b6000620019a48482850162001964565b91505092915050565b7f455243373231456e756d657261626c653a20636f6e736563757469766520747260008201527f616e7366657273206e6f7420737570706f727465640000000000000000000000602082015250565b600062001a0b6035836200162c565b915062001a1882620019ad565b604082019050919050565b6000602082019050818103600083015262001a3e81620019fc565b9050919050565b7f4e487b7100000000000000000000000000000000000000000000000000000000600052603260045260246000fd5b7f4e487b7100000000000000000000000000000000000000000000000000000000600052603160045260246000fd5b7f4552433732313a2061646472657373207a65726f206973206e6f74206120766160008201527f6c6964206f776e65720000000000000000000000000000000000000000000000602082015250565b600062001b016029836200162c565b915062001b0e8262001aa3565b604082019050919050565b6000602082019050818103600083015262001b348162001af2565b9050919050565b60805160a05161579362001b7d60003960008181610ee7015281816113dc0152611c9d0152600081816113ae01528181611c6f0152611d3d01526157936000f3fe608060405234801561001057600080fd5b506004361061023d5760003560e01c80636352211e1161013b578063a22cb465116100b8578063c7b6b4361161007c578063c7b6b436146106bb578063c87b56dd146106eb578063d39651411461071b578063e985e9c514610753578063f1ca9410146107835761023d565b8063a22cb4651461062b578063b047fb5014610647578063b23f2b4914610665578063b531933514610681578063b88d4fde1461069f5761023d565b80638456cb59116100ff5780638456cb59146105ad578063851d9a52146105b757806395d89b41146105d357806397ae4898146105f15780639d6fac6f146105fb5761023d565b80636352211e146104e557806364bee5e514610515578063684aa7ae1461054557806370a08231146105615780637814da8e146105915761023d565b806327d7874c116101c9578063421e400a1161018d578063421e400a1461041257806342842e0e1461044b5780634f6ccce7146104675780635c975abb146104975780635edbf360146104b55761023d565b806327d7874c146103825780632ba73c151461039e5780632f745c59146103ba5780633f4ba83a146103ea578063404d0e3e146103f45761023d565b8063095ea7b311610210578063095ea7b3146102de5780630a0f8168146102fa57806317091d051461031857806318160ddd1461034857806323b872dd146103665761023d565b806301ffc9a71461024257806305e455461461027257806306fdde0314610290578063081812fc146102ae575b600080fd5b61025c60048036038101906102579190614183565b6107a1565b60405161026991906141cb565b60405180910390f35b61027a61081b565b60405161028791906141ff565b60405180910390f35b610298610821565b6040516102a591906142aa565b60405180910390f35b6102c860048036038101906102c391906142f8565b6108b3565b6040516102d59190614366565b60405180910390f35b6102f860048036038101906102f391906143ad565b6108f9565b005b610302610a10565b60405161030f9190614366565b60405180910390f35b610332600480360381019061032d91906142f8565b610a36565b60405161033f91906141cb565b60405180910390f35b610350610bc1565b60405161035d91906141ff565b60405180910390f35b610380600480360381019061037b91906143ed565b610bce565b005b61039c60048036038101906103979190614440565b610c2e565b005b6103b860048036038101906103b39190614440565b610d05565b005b6103d460048036038101906103cf91906143ad565b610ddc565b6040516103e191906141ff565b60405180910390f35b6103f2610e81565b005b6103fc610ee5565b60405161040991906141ff565b60405180910390f35b61042c600480360381019061042791906144a9565b610f09565b6040516104429a999897969594939291906144d6565b60405180910390f35b610465600480360381019061046091906143ed565b611123565b005b610481600480360381019061047c91906142f8565b611143565b60405161048e91906141ff565b60405180910390f35b61049f6111b4565b6040516104ac91906141cb565b60405180910390f35b6104cf60048036038101906104ca91906142f8565b6111ca565b6040516104dc9190614366565b60405180910390f35b6104ff60048036038101906104fa91906142f8565b6111fd565b60405161050c9190614366565b60405180910390f35b61052f600480360381019061052a9190614572565b611283565b60405161053c91906141cb565b60405180910390f35b61055f600480360381019061055a91906145b2565b611312565b005b61057b60048036038101906105769190614440565b61144c565b60405161058891906141ff565b60405180910390f35b6105ab60048036038101906105a691906143ad565b611503565b005b6105b5611574565b005b6105d160048036038101906105cc9190614572565b611630565b005b6105db61197f565b6040516105e891906142aa565b60405180910390f35b6105f9611a11565b005b610615600480360381019061061091906142f8565b611b67565b6040516106229190614601565b60405180910390f35b61064560048036038101906106409190614648565b611b97565b005b61064f611bad565b60405161065c9190614366565b60405180910390f35b61067f600480360381019061067a9190614688565b611bd3565b005b610689611d3b565b60405161069691906141ff565b60405180910390f35b6106b960048036038101906106b49190614810565b611d5f565b005b6106d560048036038101906106d091906142f8565b611dc1565b6040516106e291906141ff565b60405180910390f35b610705600480360381019061070091906142f8565b6121e9565b60405161071291906142aa565b60405180910390f35b610735600480360381019061073091906142f8565b612251565b60405161074a999897969594939291906148ef565b60405180910390f35b61076d6004803603810190610768919061497c565b61232f565b60405161077a91906141cb565b60405180910390f35b61078b6123c3565b60405161079891906141ff565b60405180910390f35b60007f780e9d63000000000000000000000000000000000000000000000000000000007bffffffffffffffffffffffffffffffffffffffffffffffffffffffff1916827bffffffffffffffffffffffffffffffffffffffffffffffffffffffff191614806108145750610813826123f2565b5b9050919050565b60105481565b606060028054610830906149eb565b80601f016020809104026020016040519081016040528092919081815260200182805461085c906149eb565b80156108a95780601f1061087e576101008083540402835291602001916108a9565b820191906000526020600020905b81548152906001019060200180831161088c57829003601f168201915b5050505050905090565b60006108be826124d4565b6006600083815260200190815260200160002060009054906101000a900473ffffffffffffffffffffffffffffffffffffffff169050919050565b6000610904826111fd565b90508073ffffffffffffffffffffffffffffffffffffffff168373ffffffffffffffffffffffffffffffffffffffff1603610974576040517f08c379a000000000000000000000000000000000000000000000000000000000815260040161096b90614a8e565b60405180910390fd5b8073ffffffffffffffffffffffffffffffffffffffff1661099361251f565b73ffffffffffffffffffffffffffffffffffffffff1614806109c257506109c1816109bc61251f565b61232f565b5b610a01576040517f08c379a00000000000000000000000000000000000000000000000000000000081526004016109f890614b20565b60405180910390fd5b610a0b8383612527565b505050565b600060019054906101000a900473ffffffffffffffffffffffffffffffffffffffff1681565b6000808211610a4457600080fd5b6000600d8381548110610a5a57610a59614b40565b5b90600052602060002090600202019050610bb98160405180610120016040529081600082015481526020016001820160009054906101000a900467ffffffffffffffff1667ffffffffffffffff1667ffffffffffffffff1681526020016001820160089054906101000a900467ffffffffffffffff1667ffffffffffffffff1667ffffffffffffffff1681526020016001820160109054906101000a900463ffffffff1663ffffffff1663ffffffff1681526020016001820160149054906101000a900463ffffffff1663ffffffff1663ffffffff1681526020016001820160189054906101000a900463ffffffff1663ffffffff1663ffffffff16815260200160018201601c9054906101000a900460ff1660ff1660ff16815260200160018201601d9054906101000a900460ff1660ff1660ff16815260200160018201601e9054906101000a900461ffff1661ffff1661ffff16815250506125e0565b915050919050565b6000600a80549050905090565b610bdf610bd961251f565b82612610565b610c1e576040517f08c379a0000000000000000000000000000000000000000000000000000000008152600401610c1590614be1565b60405180910390fd5b610c298383836126a5565b505050565b600060019054906101000a900473ffffffffffffffffffffffffffffffffffffffff1673ffffffffffffffffffffffffffffffffffffffff163373ffffffffffffffffffffffffffffffffffffffff1614610c8857600080fd5b600073ffffffffffffffffffffffffffffffffffffffff168173ffffffffffffffffffffffffffffffffffffffff1603610cc157600080fd5b80600060016101000a81548173ffffffffffffffffffffffffffffffffffffffff021916908373ffffffffffffffffffffffffffffffffffffffff16021790555050565b600060019054906101000a900473ffffffffffffffffffffffffffffffffffffffff1673ffffffffffffffffffffffffffffffffffffffff163373ffffffffffffffffffffffffffffffffffffffff1614610d5f57600080fd5b600073ffffffffffffffffffffffffffffffffffffffff168173ffffffffffffffffffffffffffffffffffffffff1603610d9857600080fd5b80600160006101000a81548173ffffffffffffffffffffffffffffffffffffffff021916908373ffffffffffffffffffffffffffffffffffffffff16021790555050565b6000610de78361144c565b8210610e28576040517f08c379a0000000000000000000000000000000000000000000000000000000008152600401610e1f90614c73565b60405180910390fd5b600860008473ffffffffffffffffffffffffffffffffffffffff1673ffffffffffffffffffffffffffffffffffffffff168152602001908152602001600020600083815260200190815260200160002054905092915050565b600060019054906101000a900473ffffffffffffffffffffffffffffffffffffffff1673ffffffffffffffffffffffffffffffffffffffff163373ffffffffffffffffffffffffffffffffffffffff1614610edb57600080fd5b610ee3612720565b565b7f000000000000000000000000000000000000000000000000000000000000000081565b6000806000806000806000806000806000600d8c63ffffffff1681548110610f3457610f33614b40565b5b906000526020600020906002020160405180610120016040529081600082015481526020016001820160009054906101000a900467ffffffffffffffff1667ffffffffffffffff1667ffffffffffffffff1681526020016001820160089054906101000a900467ffffffffffffffff1667ffffffffffffffff1667ffffffffffffffff1681526020016001820160109054906101000a900463ffffffff1663ffffffff1663ffffffff1681526020016001820160149054906101000a900463ffffffff1663ffffffff1663ffffffff1681526020016001820160189054906101000a900463ffffffff1663ffffffff1663ffffffff16815260200160018201601c9054906101000a900460ff1660ff1660ff16815260200160018201601d9054906101000a900460ff1660ff1660ff16815260200160018201601e9054906101000a900461ffff1661ffff1661ffff1681525050905060008160a0015163ffffffff1614159a5042816040015167ffffffffffffffff16111599508060c0015160ff169850806040015167ffffffffffffffff1697508060a0015163ffffffff169650806020015167ffffffffffffffff169550806060015163ffffffff169450806080015163ffffffff16935080610100015161ffff16925080600001519150509193959799509193959799565b61113e83838360405180602001604052806000815250611d5f565b505050565b600061114d610bc1565b821061118e576040517f08c379a000000000000000000000000000000000000000000000000000000000815260040161118590614d05565b60405180910390fd5b600a82815481106111a2576111a1614b40565b5b90600052602060002001549050919050565b60008060009054906101000a900460ff16905090565b600e6020528060005260406000206000915054906101000a900473ffffffffffffffffffffffffffffffffffffffff1681565b60008061120983612782565b9050600073ffffffffffffffffffffffffffffffffffffffff168173ffffffffffffffffffffffffffffffffffffffff160361127a576040517f08c379a000000000000000000000000000000000000000000000000000000000815260040161127190614d71565b60405180910390fd5b80915050919050565b600080831161129157600080fd5b6000821161129e57600080fd5b6000600d84815481106112b4576112b3614b40565b5b906000526020600020906002020190506000600d84815481106112da576112d9614b40565b5b906000526020600020906002020190506112f6828683876127bf565b8015611308575061130784866129d3565b5b9250505092915050565b600160009054906101000a900473ffffffffffffffffffffffffffffffffffffffff1673ffffffffffffffffffffffffffffffffffffffff163373ffffffffffffffffffffffffffffffffffffffff161461136c57600080fd5b611374612a4c565b600073ffffffffffffffffffffffffffffffffffffffff168173ffffffffffffffffffffffffffffffffffffffff16036113ac573390505b7f0000000000000000000000000000000000000000000000000000000000000000601054106113da57600080fd5b7f00000000000000000000000000000000000000000000000000000000000000006011541061140857600080fd5b6010600081548092919061141b90614dc0565b91905055506011600081548092919061143390614dc0565b919050555061144760008060008585612a96565b505050565b60008073ffffffffffffffffffffffffffffffffffffffff168273ffffffffffffffffffffffffffffffffffffffff16036114bc576040517f08c379a00000000000000000000000000000000000000000000000000000000081526004016114b390614e7a565b60405180910390fd5b600560008373ffffffffffffffffffffffffffffffffffffffff1673ffffffffffffffffffffffffffffffffffffffff168152602001908152602001600020549050919050565b61150b612a4c565b6115153382612d67565b61151e57600080fd5b81600e600083815260200190815260200160002060006101000a81548173ffffffffffffffffffffffffffffffffffffffff021916908373ffffffffffffffffffffffffffffffffffffffff1602179055505050565b600160009054906101000a900473ffffffffffffffffffffffffffffffffffffffff1673ffffffffffffffffffffffffffffffffffffffff163373ffffffffffffffffffffffffffffffffffffffff16148061161d5750600060019054906101000a900473ffffffffffffffffffffffffffffffffffffffff1673ffffffffffffffffffffffffffffffffffffffff163373ffffffffffffffffffffffffffffffffffffffff16145b61162657600080fd5b61162e612da8565b565b611638612a4c565b6116423383612d67565b61164b57600080fd5b61165581836129d3565b61165e57600080fd5b6000600d838154811061167457611673614b40565b5b906000526020600020906002020190506117d38160405180610120016040529081600082015481526020016001820160009054906101000a900467ffffffffffffffff1667ffffffffffffffff1667ffffffffffffffff1681526020016001820160089054906101000a900467ffffffffffffffff1667ffffffffffffffff1667ffffffffffffffff1681526020016001820160109054906101000a900463ffffffff1663ffffffff1663ffffffff1681526020016001820160149054906101000a900463ffffffff1663ffffffff1663ffffffff1681526020016001820160189054906101000a900463ffffffff1663ffffffff1663ffffffff16815260200160018201601c9054906101000a900460ff1660ff1660ff16815260200160018201601d9054906101000a900460ff1660ff1660ff16815260200160018201601e9054906101000a900461ffff1661ffff1661ffff16815250506125e0565b6117dc57600080fd5b6000600d83815481106117f2576117f1614b40565b5b906000526020600020906002020190506119518160405180610120016040529081600082015481526020016001820160009054906101000a900467ffffffffffffffff1667ffffffffffffffff1667ffffffffffffffff1681526020016001820160089054906101000a900467ffffffffffffffff1667ffffffffffffffff1667ffffffffffffffff1681526020016001820160109054906101000a900463ffffffff1663ffffffff1663ffffffff1681526020016001820160149054906101000a900463ffffffff1663ffffffff1663ffffffff1681526020016001820160189054906101000a900463ffffffff1663ffffffff1663ffffffff16815260200160018201601c9054906101000a900460ff1660ff1660ff16815260200160018201601d9054906101000a900460ff1660ff1660ff16815260200160018201601e9054906101000a900461ffff1661ffff1661ffff16815250506125e0565b61195a57600080fd5b611966828583866127bf565b61196f57600080fd5b6119798484612e0a565b50505050565b60606003805461198e906149eb565b80601f01602080910402602001604051908101604052809291908181526020018280546119ba906149eb565b8015611a075780601f106119dc57610100808354040283529160200191611a07565b820191906000526020600020905b8154815290600101906020018083116119ea57829003601f168201915b5050505050905090565b611a19612a4c565b60001515600f60003373ffffffffffffffffffffffffffffffffffffffff1673ffffffffffffffffffffffffffffffffffffffff16815260200190815260200160002060009054906101000a900460ff16151514611aac576040517f08c379a0000000000000000000000000000000000000000000000000000000008152600401611aa390614ee6565b60405180910390fd5b600042443360115441604051602001611ac9959493929190614faa565b6040516020818303038152906040528051906020012060001c905060116000815480929190611af790614dc0565b91905055506001600f60003373ffffffffffffffffffffffffffffffffffffffff1673ffffffffffffffffffffffffffffffffffffffff16815260200190815260200160002060006101000a81548160ff021916908315150217905550611b6360008060008433612a96565b5050565b600c8160088110611b7757600080fd5b60089182820401919006600402915054906101000a900463ffffffff1681565b611ba9611ba261251f565b8383612f40565b5050565b600160009054906101000a900473ffffffffffffffffffffffffffffffffffffffff1681565b600160009054906101000a900473ffffffffffffffffffffffffffffffffffffffff1673ffffffffffffffffffffffffffffffffffffffff163373ffffffffffffffffffffffffffffffffffffffff1614611c2d57600080fd5b611c35612a4c565b600073ffffffffffffffffffffffffffffffffffffffff168273ffffffffffffffffffffffffffffffffffffffff1603611c6d573391505b7f000000000000000000000000000000000000000000000000000000000000000060105410611c9b57600080fd5b7f000000000000000000000000000000000000000000000000000000000000000060115410611cc957600080fd5b60005b81811015611d355760106000815480929190611ce790614dc0565b919050555060116000815480929190611cff90614dc0565b91905055508380611d0f90614dc0565b945050611d2160008060008787612a96565b508080611d2d90614dc0565b915050611ccc565b50505050565b7f000000000000000000000000000000000000000000000000000000000000000081565b611d70611d6a61251f565b83612610565b611daf576040517f08c379a0000000000000000000000000000000000000000000000000000000008152600401611da690614be1565b60405180910390fd5b611dbb848484846130ac565b50505050565b6000611dcb612a4c565b6000600d8381548110611de157611de0614b40565b5b906000526020600020906002020160405180610120016040529081600082015481526020016001820160009054906101000a900467ffffffffffffffff1667ffffffffffffffff1667ffffffffffffffff1681526020016001820160089054906101000a900467ffffffffffffffff1667ffffffffffffffff1667ffffffffffffffff1681526020016001820160109054906101000a900463ffffffff1663ffffffff1663ffffffff1681526020016001820160149054906101000a900463ffffffff1663ffffffff1663ffffffff1681526020016001820160189054906101000a900463ffffffff1663ffffffff1663ffffffff16815260200160018201601c9054906101000a900460ff1660ff1660ff16815260200160018201601d9054906101000a900460ff1660ff1660ff16815260200160018201601e9054906101000a900461ffff1661ffff1661ffff168152505090506000816020015167ffffffffffffffff1603611f5257600080fd5b611f5b81613108565b611f6457600080fd5b60008160a0015163ffffffff1690506000600d8281548110611f8957611f88614b40565b5b906000526020600020906002020160405180610120016040529081600082015481526020016001820160009054906101000a900467ffffffffffffffff1667ffffffffffffffff1667ffffffffffffffff1681526020016001820160089054906101000a900467ffffffffffffffff1667ffffffffffffffff1667ffffffffffffffff1681526020016001820160109054906101000a900463ffffffff1663ffffffff1663ffffffff1681526020016001820160149054906101000a900463ffffffff1663ffffffff1663ffffffff1681526020016001820160189054906101000a900463ffffffff1663ffffffff1663ffffffff16815260200160018201601c9054906101000a900460ff1660ff1660ff16815260200160018201601d9054906101000a900460ff1660ff1660ff16815260200160018201601e9054906101000a900461ffff1661ffff1661ffff168152505090506000836101000151905083610100015161ffff1682610100015161ffff16111561210c5781610100015190505b600042443387600001514160405160200161212b959493929190614faa565b6040516020818303038152906040528051906020012060001c90506000818460000151876000015161215d9190615009565b6121679190615009565b9050600061217489612782565b9050600061219f8a8960a0015163ffffffff16600188612194919061503d565b61ffff168686612a96565b9050600d8a815481106121b5576121b4614b40565b5b906000526020600020906002020160010160186101000a81549063ffffffff02191690558098505050505050505050919050565b60606121f4826124d4565b60006121fe613139565b9050600081511161221e5760405180602001604052806000815250612249565b8061222884613150565b6040516020016122399291906150af565b6040516020818303038152906040525b915050919050565b600d818154811061226157600080fd5b90600052602060002090600202016000915090508060000154908060010160009054906101000a900467ffffffffffffffff16908060010160089054906101000a900467ffffffffffffffff16908060010160109054906101000a900463ffffffff16908060010160149054906101000a900463ffffffff16908060010160189054906101000a900463ffffffff169080600101601c9054906101000a900460ff169080600101601d9054906101000a900460ff169080600101601e9054906101000a900461ffff16905089565b6000600760008473ffffffffffffffffffffffffffffffffffffffff1673ffffffffffffffffffffffffffffffffffffffff16815260200190815260200160002060008373ffffffffffffffffffffffffffffffffffffffff1673ffffffffffffffffffffffffffffffffffffffff16815260200190815260200160002060009054906101000a900460ff16905092915050565b60115481565b6000808273ffffffffffffffffffffffffffffffffffffffff163b119050919050565b50505050565b60007f80ac58cd000000000000000000000000000000000000000000000000000000007bffffffffffffffffffffffffffffffffffffffffffffffffffffffff1916827bffffffffffffffffffffffffffffffffffffffffffffffffffffffff191614806124bd57507f5b5e139f000000000000000000000000000000000000000000000000000000007bffffffffffffffffffffffffffffffffffffffffffffffffffffffff1916827bffffffffffffffffffffffffffffffffffffffffffffffffffffffff1916145b806124cd57506124cc8261321e565b5b9050919050565b6124dd81613288565b61251c576040517f08c379a000000000000000000000000000000000000000000000000000000000815260040161251390614d71565b60405180910390fd5b50565b600033905090565b816006600083815260200190815260200160002060006101000a81548173ffffffffffffffffffffffffffffffffffffffff021916908373ffffffffffffffffffffffffffffffffffffffff160217905550808273ffffffffffffffffffffffffffffffffffffffff1661259a836111fd565b73ffffffffffffffffffffffffffffffffffffffff167f8c5be1e5ebec7d5bd14f71427d1e84f3dd0314c0f7b2291e5b200ac8c7c3b92560405160405180910390a45050565b6000808260a0015163ffffffff16148015612609575042826040015167ffffffffffffffff1611155b9050919050565b60008061261c836111fd565b90508073ffffffffffffffffffffffffffffffffffffffff168473ffffffffffffffffffffffffffffffffffffffff16148061265e575061265d818561232f565b5b8061269c57508373ffffffffffffffffffffffffffffffffffffffff16612684846108b3565b73ffffffffffffffffffffffffffffffffffffffff16145b91505092915050565b600073ffffffffffffffffffffffffffffffffffffffff168373ffffffffffffffffffffffffffffffffffffffff161461271057600e600082815260200190815260200160002060006101000a81549073ffffffffffffffffffffffffffffffffffffffff02191690555b61271b8383836132c9565b505050565b6127286135c2565b60008060006101000a81548160ff0219169083151502179055507f5db9ee0a495bf2e6ff9c91a7834c1ba4fdd244a5e8aa4e537bd38aeae4b073aa61276b61251f565b6040516127789190614366565b60405180910390a1565b60006004600083815260200190815260200160002060009054906101000a900473ffffffffffffffffffffffffffffffffffffffff169050919050565b60008184036127d157600090506129cb565b818560010160109054906101000a900463ffffffff1663ffffffff1614806128125750818560010160149054906101000a900463ffffffff1663ffffffff16145b1561282057600090506129cb565b838360010160109054906101000a900463ffffffff1663ffffffff1614806128615750838360010160149054906101000a900463ffffffff1663ffffffff16145b1561286f57600090506129cb565b60008360010160109054906101000a900463ffffffff1663ffffffff1614806128b2575060008560010160109054906101000a900463ffffffff1663ffffffff16145b156128c057600190506129cb565b8460010160109054906101000a900463ffffffff1663ffffffff168360010160109054906101000a900463ffffffff1663ffffffff16148061293557508460010160149054906101000a900463ffffffff1663ffffffff168360010160109054906101000a900463ffffffff1663ffffffff16145b1561294357600090506129cb565b8460010160109054906101000a900463ffffffff1663ffffffff168360010160149054906101000a900463ffffffff1663ffffffff1614806129b857508460010160149054906101000a900463ffffffff1663ffffffff168360010160149054906101000a900463ffffffff1663ffffffff16145b156129c657600090506129cb565b600190505b949350505050565b6000806129df83612782565b90508073ffffffffffffffffffffffffffffffffffffffff16600e600086815260200190815260200160002060009054906101000a900473ffffffffffffffffffffffffffffffffffffffff1673ffffffffffffffffffffffffffffffffffffffff161491505092915050565b612a546111b4565b15612a94576040517f08c379a0000000000000000000000000000000000000000000000000000000008152600401612a8b9061511f565b60405180910390fd5b565b600063ffffffff8016861115612aab57600080fd5b63ffffffff8016851115612abe57600080fd5b63ffffffff8016841115612ad157600080fd5b60006040518061012001604052808581526020014267ffffffffffffffff168152602001600067ffffffffffffffff1681526020018863ffffffff1681526020018763ffffffff168152602001600063ffffffff168152602001600060ff168152602001600060ff1681526020018661ffff168152509050600d8190806001815401808255809150506001900390600052602060002090600202016000909190919091506000820151816000015560208201518160010160006101000a81548167ffffffffffffffff021916908367ffffffffffffffff16021790555060408201518160010160086101000a81548167ffffffffffffffff021916908367ffffffffffffffff16021790555060608201518160010160106101000a81548163ffffffff021916908363ffffffff16021790555060808201518160010160146101000a81548163ffffffff021916908363ffffffff16021790555060a08201518160010160186101000a81548163ffffffff021916908363ffffffff16021790555060c082015181600101601c6101000a81548160ff021916908360ff16021790555060e082015181600101601d6101000a81548160ff021916908360ff16021790555061010082015181600101601e6101000a81548161ffff021916908361ffff160217905550505060006001600d80549050612cce919061513f565b905063ffffffff8016811115612ce357600080fd5b8373ffffffffffffffffffffffffffffffffffffffff167f14cb614758d3c982e9d2ae0ad129c2c2bdb4c5ba841155dced7bed1a27834de782846060015163ffffffff16856080015163ffffffff168660000151604051612d479493929190615173565b60405180910390a2612d59848261360b565b809250505095945050505050565b6000612d72826111fd565b73ffffffffffffffffffffffffffffffffffffffff168373ffffffffffffffffffffffffffffffffffffffff1614905092915050565b612db0612a4c565b60016000806101000a81548160ff0219169083151502179055507f62e78cea01bee320cd4e420270b5ea74000d11b0c9f74754ebdbfc544b05a258612df361251f565b604051612e009190614366565b60405180910390a1565b6000600d8281548110612e2057612e1f614b40565b5b906000526020600020906002020190506000600d8481548110612e4657612e45614b40565b5b90600052602060002090600202019050828160010160186101000a81548163ffffffff021916908363ffffffff160217905550612e8282613629565b612e8b81613629565b600e600085815260200190815260200160002060006101000a81549073ffffffffffffffffffffffffffffffffffffffff0219169055600e600084815260200190815260200160002060006101000a81549073ffffffffffffffffffffffffffffffffffffffff02191690557fb57bb8abbb44a6cff7417131e5eb1d3703a22072a6985e3ff6c653fc91056bb1612f2185612782565b8585604051612f32939291906151b8565b60405180910390a150505050565b8173ffffffffffffffffffffffffffffffffffffffff168373ffffffffffffffffffffffffffffffffffffffff1603612fae576040517f08c379a0000000000000000000000000000000000000000000000000000000008152600401612fa59061523b565b60405180910390fd5b80600760008573ffffffffffffffffffffffffffffffffffffffff1673ffffffffffffffffffffffffffffffffffffffff16815260200190815260200160002060008473ffffffffffffffffffffffffffffffffffffffff1673ffffffffffffffffffffffffffffffffffffffff16815260200190815260200160002060006101000a81548160ff0219169083151502179055508173ffffffffffffffffffffffffffffffffffffffff168373ffffffffffffffffffffffffffffffffffffffff167f17307eab39ab6107e8899845ad3d59bd9653f200f220920489ca2b5937696c318360405161309f91906141cb565b60405180910390a3505050565b6130b78484846126a5565b6130c38484848461375b565b613102576040517f08c379a00000000000000000000000000000000000000000000000000000000081526004016130f9906152cd565b60405180910390fd5b50505050565b6000808260a0015163ffffffff1614158015613132575042826040015167ffffffffffffffff1611155b9050919050565b606060405180602001604052806000815250905090565b60606000600161315f846138e2565b01905060008167ffffffffffffffff81111561317e5761317d6146e5565b5b6040519080825280601f01601f1916602001820160405280156131b05781602001600182028036833780820191505090505b509050600082602001820190505b600115613213578080600190039150507f3031323334353637383961626364656600000000000000000000000000000000600a86061a8153600a8581613207576132066152ed565b5b049450600085036131be575b819350505050919050565b60007f01ffc9a7000000000000000000000000000000000000000000000000000000007bffffffffffffffffffffffffffffffffffffffffffffffffffffffff1916827bffffffffffffffffffffffffffffffffffffffffffffffffffffffff1916149050919050565b60008073ffffffffffffffffffffffffffffffffffffffff166132aa83612782565b73ffffffffffffffffffffffffffffffffffffffff1614159050919050565b8273ffffffffffffffffffffffffffffffffffffffff166132e9826111fd565b73ffffffffffffffffffffffffffffffffffffffff161461333f576040517f08c379a00000000000000000000000000000000000000000000000000000000081526004016133369061538e565b60405180910390fd5b600073ffffffffffffffffffffffffffffffffffffffff168273ffffffffffffffffffffffffffffffffffffffff16036133ae576040517f08c379a00000000000000000000000000000000000000000000000000000000081526004016133a590615420565b60405180910390fd5b6133bb8383836001613a35565b8273ffffffffffffffffffffffffffffffffffffffff166133db826111fd565b73ffffffffffffffffffffffffffffffffffffffff1614613431576040517f08c379a00000000000000000000000000000000000000000000000000000000081526004016134289061538e565b60405180910390fd5b6006600082815260200190815260200160002060006101000a81549073ffffffffffffffffffffffffffffffffffffffff02191690556001600560008573ffffffffffffffffffffffffffffffffffffffff1673ffffffffffffffffffffffffffffffffffffffff168152602001908152602001600020600082825403925050819055506001600560008473ffffffffffffffffffffffffffffffffffffffff1673ffffffffffffffffffffffffffffffffffffffff16815260200190815260200160002060008282540192505081905550816004600083815260200190815260200160002060006101000a81548173ffffffffffffffffffffffffffffffffffffffff021916908373ffffffffffffffffffffffffffffffffffffffff160217905550808273ffffffffffffffffffffffffffffffffffffffff168473ffffffffffffffffffffffffffffffffffffffff167fddf252ad1be2c89b69c2b068fc378daa952ba7f163c4a11628f55a4df523b3ef60405160405180910390a46135bd8383836001613b93565b505050565b6135ca6111b4565b613609576040517f08c379a00000000000000000000000000000000000000000000000000000000081526004016136009061548c565b60405180910390fd5b565b613625828260405180602001604052806000815250613b99565b5050565b600c81600101601c9054906101000a900460ff1660ff166008811061365157613650614b40565b5b600891828204019190066004029054906101000a900463ffffffff1663ffffffff164261367e9190615009565b8160010160086101000a81548167ffffffffffffffff021916908367ffffffffffffffff160217905550600581600101601c9054906101000a900460ff1660ff161080156136e05750600381600101601d9054906101000a900460ff1660ff16105b1561375857600181600101601c8282829054906101000a900460ff1661370691906154ac565b92506101000a81548160ff021916908360ff160217905550600181600101601d8282829054906101000a900460ff1661373f91906154ac565b92506101000a81548160ff021916908360ff1602179055505b50565b600061377c8473ffffffffffffffffffffffffffffffffffffffff166123c9565b156138d5578373ffffffffffffffffffffffffffffffffffffffff1663150b7a026137a561251f565b8786866040518563ffffffff1660e01b81526004016137c79493929190615536565b6020604051808303816000875af192505050801561380357506040513d601f19601f820116820180604052508101906138009190615597565b60015b613885573d8060008114613833576040519150601f19603f3d011682016040523d82523d6000602084013e613838565b606091505b50600081510361387d576040517f08c379a0000000000000000000000000000000000000000000000000000000008152600401613874906152cd565b60405180910390fd5b805181602001fd5b63150b7a0260e01b7bffffffffffffffffffffffffffffffffffffffffffffffffffffffff1916817bffffffffffffffffffffffffffffffffffffffffffffffffffffffff1916149150506138da565b600190505b949350505050565b600080600090507a184f03e93ff9f4daa797ed6e38ed64bf6a1f0100000000000000008310613940577a184f03e93ff9f4daa797ed6e38ed64bf6a1f0100000000000000008381613936576139356152ed565b5b0492506040810190505b6d04ee2d6d415b85acef8100000000831061397d576d04ee2d6d415b85acef81000000008381613973576139726152ed565b5b0492506020810190505b662386f26fc1000083106139ac57662386f26fc1000083816139a2576139a16152ed565b5b0492506010810190505b6305f5e10083106139d5576305f5e10083816139cb576139ca6152ed565b5b0492506008810190505b61271083106139fa5761271083816139f0576139ef6152ed565b5b0492506004810190505b60648310613a1d5760648381613a1357613a126152ed565b5b0492506002810190505b600a8310613a2c576001810190505b80915050919050565b613a41848484846123ec565b6001811115613a85576040517f08c379a0000000000000000000000000000000000000000000000000000000008152600401613a7c90615636565b60405180910390fd5b6000829050600073ffffffffffffffffffffffffffffffffffffffff168573ffffffffffffffffffffffffffffffffffffffff1603613acc57613ac781613bf4565b613b0b565b8373ffffffffffffffffffffffffffffffffffffffff168573ffffffffffffffffffffffffffffffffffffffff1614613b0a57613b098582613c3d565b5b5b600073ffffffffffffffffffffffffffffffffffffffff168473ffffffffffffffffffffffffffffffffffffffff1603613b4d57613b4881613daa565b613b8c565b8473ffffffffffffffffffffffffffffffffffffffff168473ffffffffffffffffffffffffffffffffffffffff1614613b8b57613b8a8482613e7b565b5b5b5050505050565b50505050565b613ba38383613efa565b613bb0600084848461375b565b613bef576040517f08c379a0000000000000000000000000000000000000000000000000000000008152600401613be6906152cd565b60405180910390fd5b505050565b600a80549050600b600083815260200190815260200160002081905550600a81908060018154018082558091505060019003906000526020600020016000909190919091505550565b60006001613c4a8461144c565b613c54919061513f565b9050600060096000848152602001908152602001600020549050818114613d39576000600860008673ffffffffffffffffffffffffffffffffffffffff1673ffffffffffffffffffffffffffffffffffffffff168152602001908152602001600020600084815260200190815260200160002054905080600860008773ffffffffffffffffffffffffffffffffffffffff1673ffffffffffffffffffffffffffffffffffffffff168152602001908152602001600020600084815260200190815260200160002081905550816009600083815260200190815260200160002081905550505b6009600084815260200190815260200160002060009055600860008573ffffffffffffffffffffffffffffffffffffffff1673ffffffffffffffffffffffffffffffffffffffff16815260200190815260200160002060008381526020019081526020016000206000905550505050565b60006001600a80549050613dbe919061513f565b90506000600b60008481526020019081526020016000205490506000600a8381548110613dee57613ded614b40565b5b9060005260206000200154905080600a8381548110613e1057613e0f614b40565b5b906000526020600020018190555081600b600083815260200190815260200160002081905550600b600085815260200190815260200160002060009055600a805480613e5f57613e5e615656565b5b6001900381819060005260206000200160009055905550505050565b6000613e868361144c565b905081600860008573ffffffffffffffffffffffffffffffffffffffff1673ffffffffffffffffffffffffffffffffffffffff168152602001908152602001600020600083815260200190815260200160002081905550806009600084815260200190815260200160002081905550505050565b600073ffffffffffffffffffffffffffffffffffffffff168273ffffffffffffffffffffffffffffffffffffffff1603613f69576040517f08c379a0000000000000000000000000000000000000000000000000000000008152600401613f60906156d1565b60405180910390fd5b613f7281613288565b15613fb2576040517f08c379a0000000000000000000000000000000000000000000000000000000008152600401613fa99061573d565b60405180910390fd5b613fc0600083836001613a35565b613fc981613288565b15614009576040517f08c379a00000000000000000000000000000000000000000000000000000000081526004016140009061573d565b60405180910390fd5b6001600560008473ffffffffffffffffffffffffffffffffffffffff1673ffffffffffffffffffffffffffffffffffffffff16815260200190815260200160002060008282540192505081905550816004600083815260200190815260200160002060006101000a81548173ffffffffffffffffffffffffffffffffffffffff021916908373ffffffffffffffffffffffffffffffffffffffff160217905550808273ffffffffffffffffffffffffffffffffffffffff16600073ffffffffffffffffffffffffffffffffffffffff167fddf252ad1be2c89b69c2b068fc378daa952ba7f163c4a11628f55a4df523b3ef60405160405180910390a4614113600083836001613b93565b5050565b6000604051905090565b600080fd5b600080fd5b60007fffffffff0000000000000000000000000000000000000000000000000000000082169050919050565b6141608161412b565b811461416b57600080fd5b50565b60008135905061417d81614157565b92915050565b60006020828403121561419957614198614121565b5b60006141a78482850161416e565b91505092915050565b60008115159050919050565b6141c5816141b0565b82525050565b60006020820190506141e060008301846141bc565b92915050565b6000819050919050565b6141f9816141e6565b82525050565b600060208201905061421460008301846141f0565b92915050565b600081519050919050565b600082825260208201905092915050565b60005b83811015614254578082015181840152602081019050614239565b60008484015250505050565b6000601f19601f8301169050919050565b600061427c8261421a565b6142868185614225565b9350614296818560208601614236565b61429f81614260565b840191505092915050565b600060208201905081810360008301526142c48184614271565b905092915050565b6142d5816141e6565b81146142e057600080fd5b50565b6000813590506142f2816142cc565b92915050565b60006020828403121561430e5761430d614121565b5b600061431c848285016142e3565b91505092915050565b600073ffffffffffffffffffffffffffffffffffffffff82169050919050565b600061435082614325565b9050919050565b61436081614345565b82525050565b600060208201905061437b6000830184614357565b92915050565b61438a81614345565b811461439557600080fd5b50565b6000813590506143a781614381565b92915050565b600080604083850312156143c4576143c3614121565b5b60006143d285828601614398565b92505060206143e3858286016142e3565b9150509250929050565b60008060006060848603121561440657614405614121565b5b600061441486828701614398565b935050602061442586828701614398565b9250506040614436868287016142e3565b9150509250925092565b60006020828403121561445657614455614121565b5b600061446484828501614398565b91505092915050565b600063ffffffff82169050919050565b6144868161446d565b811461449157600080fd5b50565b6000813590506144a38161447d565b92915050565b6000602082840312156144bf576144be614121565b5b60006144cd84828501614494565b91505092915050565b6000610140820190506144ec600083018d6141bc565b6144f9602083018c6141bc565b614506604083018b6141f0565b614513606083018a6141f0565b61452060808301896141f0565b61452d60a08301886141f0565b61453a60c08301876141f0565b61454760e08301866141f0565b6145556101008301856141f0565b6145636101208301846141f0565b9b9a5050505050505050505050565b6000806040838503121561458957614588614121565b5b6000614597858286016142e3565b92505060206145a8858286016142e3565b9150509250929050565b600080604083850312156145c9576145c8614121565b5b60006145d7858286016142e3565b92505060206145e885828601614398565b9150509250929050565b6145fb8161446d565b82525050565b600060208201905061461660008301846145f2565b92915050565b614625816141b0565b811461463057600080fd5b50565b6000813590506146428161461c565b92915050565b6000806040838503121561465f5761465e614121565b5b600061466d85828601614398565b925050602061467e85828601614633565b9150509250929050565b6000806000606084860312156146a1576146a0614121565b5b60006146af868287016142e3565b93505060206146c086828701614398565b92505060406146d1868287016142e3565b9150509250925092565b600080fd5b600080fd5b7f4e487b7100000000000000000000000000000000000000000000000000000000600052604160045260246000fd5b61471d82614260565b810181811067ffffffffffffffff8211171561473c5761473b6146e5565b5b80604052505050565b600061474f614117565b905061475b8282614714565b919050565b600067ffffffffffffffff82111561477b5761477a6146e5565b5b61478482614260565b9050602081019050919050565b82818337600083830152505050565b60006147b36147ae84614760565b614745565b9050828152602081018484840111156147cf576147ce6146e0565b5b6147da848285614791565b509392505050565b600082601f8301126147f7576147f66146db565b5b81356148078482602086016147a0565b91505092915050565b6000806000806080858703121561482a57614829614121565b5b600061483887828801614398565b945050602061484987828801614398565b935050604061485a878288016142e3565b925050606085013567ffffffffffffffff81111561487b5761487a614126565b5b614887878288016147e2565b91505092959194509250565b600067ffffffffffffffff82169050919050565b6148b081614893565b82525050565b600060ff82169050919050565b6148cc816148b6565b82525050565b600061ffff82169050919050565b6148e9816148d2565b82525050565b600061012082019050614905600083018c6141f0565b614912602083018b6148a7565b61491f604083018a6148a7565b61492c60608301896145f2565b61493960808301886145f2565b61494660a08301876145f2565b61495360c08301866148c3565b61496060e08301856148c3565b61496e6101008301846148e0565b9a9950505050505050505050565b6000806040838503121561499357614992614121565b5b60006149a185828601614398565b92505060206149b285828601614398565b9150509250929050565b7f4e487b7100000000000000000000000000000000000000000000000000000000600052602260045260246000fd5b60006002820490506001821680614a0357607f821691505b602082108103614a1657614a156149bc565b5b50919050565b7f4552433732313a20617070726f76616c20746f2063757272656e74206f776e6560008201527f7200000000000000000000000000000000000000000000000000000000000000602082015250565b6000614a78602183614225565b9150614a8382614a1c565b604082019050919050565b60006020820190508181036000830152614aa781614a6b565b9050919050565b7f4552433732313a20617070726f76652063616c6c6572206973206e6f7420746f60008201527f6b656e206f776e6572206f7220617070726f76656420666f7220616c6c000000602082015250565b6000614b0a603d83614225565b9150614b1582614aae565b604082019050919050565b60006020820190508181036000830152614b3981614afd565b9050919050565b7f4e487b7100000000000000000000000000000000000000000000000000000000600052603260045260246000fd5b7f4552433732313a2063616c6c6572206973206e6f7420746f6b656e206f776e6560008201527f72206f7220617070726f76656400000000000000000000000000000000000000602082015250565b6000614bcb602d83614225565b9150614bd682614b6f565b604082019050919050565b60006020820190508181036000830152614bfa81614bbe565b9050919050565b7f455243373231456e756d657261626c653a206f776e657220696e646578206f7560008201527f74206f6620626f756e6473000000000000000000000000000000000000000000602082015250565b6000614c5d602b83614225565b9150614c6882614c01565b604082019050919050565b60006020820190508181036000830152614c8c81614c50565b9050919050565b7f455243373231456e756d657261626c653a20676c6f62616c20696e646578206f60008201527f7574206f6620626f756e64730000000000000000000000000000000000000000602082015250565b6000614cef602c83614225565b9150614cfa82614c93565b604082019050919050565b60006020820190508181036000830152614d1e81614ce2565b9050919050565b7f4552433732313a20696e76616c696420746f6b656e2049440000000000000000600082015250565b6000614d5b601883614225565b9150614d6682614d25565b602082019050919050565b60006020820190508181036000830152614d8a81614d4e565b9050919050565b7f4e487b7100000000000000000000000000000000000000000000000000000000600052601160045260246000fd5b6000614dcb826141e6565b91507fffffffffffffffffffffffffffffffffffffffffffffffffffffffffffffffff8203614dfd57614dfc614d91565b5b600182019050919050565b7f4552433732313a2061646472657373207a65726f206973206e6f74206120766160008201527f6c6964206f776e65720000000000000000000000000000000000000000000000602082015250565b6000614e64602983614225565b9150614e6f82614e08565b604082019050919050565b60006020820190508181036000830152614e9381614e57565b9050919050565b7f596f7520616c7265616479206d696e742062756d6d7900000000000000000000600082015250565b6000614ed0601683614225565b9150614edb82614e9a565b602082019050919050565b60006020820190508181036000830152614eff81614ec3565b9050919050565b6000819050919050565b614f21614f1c826141e6565b614f06565b82525050565b60008160601b9050919050565b6000614f3f82614f27565b9050919050565b6000614f5182614f34565b9050919050565b614f69614f6482614345565b614f46565b82525050565b6000614f7a82614325565b9050919050565b6000614f8c82614f34565b9050919050565b614fa4614f9f82614f6f565b614f81565b82525050565b6000614fb68288614f10565b602082019150614fc68287614f10565b602082019150614fd68286614f58565b601482019150614fe68285614f10565b602082019150614ff68284614f93565b6014820191508190509695505050505050565b6000615014826141e6565b915061501f836141e6565b925082820190508082111561503757615036614d91565b5b92915050565b6000615048826148d2565b9150615053836148d2565b9250828201905061ffff81111561506d5761506c614d91565b5b92915050565b600081905092915050565b60006150898261421a565b6150938185615073565b93506150a3818560208601614236565b80840191505092915050565b60006150bb828561507e565b91506150c7828461507e565b91508190509392505050565b7f5061757361626c653a2070617573656400000000000000000000000000000000600082015250565b6000615109601083614225565b9150615114826150d3565b602082019050919050565b60006020820190508181036000830152615138816150fc565b9050919050565b600061514a826141e6565b9150615155836141e6565b925082820390508181111561516d5761516c614d91565b5b92915050565b600060808201905061518860008301876141f0565b61519560208301866141f0565b6151a260408301856141f0565b6151af60608301846141f0565b95945050505050565b60006060820190506151cd6000830186614357565b6151da60208301856141f0565b6151e760408301846141f0565b949350505050565b7f4552433732313a20617070726f766520746f2063616c6c657200000000000000600082015250565b6000615225601983614225565b9150615230826151ef565b602082019050919050565b6000602082019050818103600083015261525481615218565b9050919050565b7f4552433732313a207472616e7366657220746f206e6f6e20455243373231526560008201527f63656976657220696d706c656d656e7465720000000000000000000000000000602082015250565b60006152b7603283614225565b91506152c28261525b565b604082019050919050565b600060208201905081810360008301526152e6816152aa565b9050919050565b7f4e487b7100000000000000000000000000000000000000000000000000000000600052601260045260246000fd5b7f4552433732313a207472616e736665722066726f6d20696e636f72726563742060008201527f6f776e6572000000000000000000000000000000000000000000000000000000602082015250565b6000615378602583614225565b91506153838261531c565b604082019050919050565b600060208201905081810360008301526153a78161536b565b9050919050565b7f4552433732313a207472616e7366657220746f20746865207a65726f2061646460008201527f7265737300000000000000000000000000000000000000000000000000000000602082015250565b600061540a602483614225565b9150615415826153ae565b604082019050919050565b60006020820190508181036000830152615439816153fd565b9050919050565b7f5061757361626c653a206e6f7420706175736564000000000000000000000000600082015250565b6000615476601483614225565b915061548182615440565b602082019050919050565b600060208201905081810360008301526154a581615469565b9050919050565b60006154b7826148b6565b91506154c2836148b6565b9250828201905060ff8111156154db576154da614d91565b5b92915050565b600081519050919050565b600082825260208201905092915050565b6000615508826154e1565b61551281856154ec565b9350615522818560208601614236565b61552b81614260565b840191505092915050565b600060808201905061554b6000830187614357565b6155586020830186614357565b61556560408301856141f0565b818103606083015261557781846154fd565b905095945050505050565b60008151905061559181614157565b92915050565b6000602082840312156155ad576155ac614121565b5b60006155bb84828501615582565b91505092915050565b7f455243373231456e756d657261626c653a20636f6e736563757469766520747260008201527f616e7366657273206e6f7420737570706f727465640000000000000000000000602082015250565b6000615620603583614225565b915061562b826155c4565b604082019050919050565b6000602082019050818103600083015261564f81615613565b9050919050565b7f4e487b7100000000000000000000000000000000000000000000000000000000600052603160045260246000fd5b7f4552433732313a206d696e7420746f20746865207a65726f2061646472657373600082015250565b60006156bb602083614225565b91506156c682615685565b602082019050919050565b600060208201905081810360008301526156ea816156ae565b9050919050565b7f4552433732313a20746f6b656e20616c7265616479206d696e74656400000000600082015250565b6000615727601c83614225565b9150615732826156f1565b602082019050919050565b600060208201905081810360008301526157568161571a565b905091905056fea2646970667358221220c2a52813c440f2b64ee29a3efc2105176b40881b91e0ed96c0883cd307c7108c64736f6c63430008110033",
  "linkReferences": {},
  "deployedLinkReferences": {}
}