{
  "_format": "hh-sol-artifact-1",
  "contractName": "BummyBase",
  "sourceName": "contracts/BummyBase.sol",
  "abi": [
    {
      "inputs": [],
      "stateMutability": "nonpayable",
      "type": "constructor"
    },
    {
      "anonymous": false,
      "inputs": [
        {
          "indexed": true,
          "internalType": "address",
          "name": "owner",
          "type": "address"
        },
        {
          "indexed": true,
          "internalType": "address",
          "name": "approved",
          "type": "address"
        },
        {
          "indexed": true,
          "internalType": "uint256",
          "name": "tokenId",
          "type": "uint256"
        }
      ],
      "name": "Approval",
      "type": "event"
    },
    {
      "anonymous": false,
      "inputs": [
        {
          "indexed": true,
          "internalType": "address",
          "name": "owner",
          "type": "address"
        },
        {
          "indexed": true,
          "internalType": "address",
          "name": "operator",
          "type": "address"
        },
        {
          "indexed": false,
          "internalType": "bool",
          "name": "approved",
          "type": "bool"
        }
      ],
      "name": "ApprovalForAll",
      "type": "event"
    },
    {
      "anonymous": false,
      "inputs": [
        {
          "indexed": true,
          "internalType": "address",
          "name": "owner",
          "type": "address"
        },
        {
          "indexed": false,
          "internalType": "uint256",
          "name": "BummyId",
          "type": "uint256"
        },
        {
          "indexed": false,
          "internalType": "uint256",
          "name": "momId",
          "type": "uint256"
        },
        {
          "indexed": false,
          "internalType": "uint256",
          "name": "dadId",
          "type": "uint256"
        },
        {
          "indexed": false,
          "internalType": "uint256",
          "name": "genes",
          "type": "uint256"
        }
      ],
      "name": "Invite",
      "type": "event"
    },
    {
      "anonymous": false,
      "inputs": [
        {
          "indexed": false,
          "internalType": "address",
          "name": "account",
          "type": "address"
        }
      ],
      "name": "Paused",
      "type": "event"
    },
    {
      "anonymous": false,
      "inputs": [
        {
          "indexed": true,
          "internalType": "address",
          "name": "from",
          "type": "address"
        },
        {
          "indexed": true,
          "internalType": "address",
          "name": "to",
          "type": "address"
        },
        {
          "indexed": true,
          "internalType": "uint256",
          "name": "tokenId",
          "type": "uint256"
        }
      ],
      "name": "Transfer",
      "type": "event"
    },
    {
      "anonymous": false,
      "inputs": [
        {
          "indexed": false,
          "internalType": "address",
          "name": "account",
          "type": "address"
        }
      ],
      "name": "Unpaused",
      "type": "event"
    },
    {
      "inputs": [
        {
          "internalType": "address",
          "name": "to",
          "type": "address"
        },
        {
          "internalType": "uint256",
          "name": "tokenId",
          "type": "uint256"
        }
      ],
      "name": "approve",
      "outputs": [],
      "stateMutability": "nonpayable",
      "type": "function"
    },
    {
      "inputs": [
        {
          "internalType": "address",
          "name": "owner",
          "type": "address"
        }
      ],
      "name": "balanceOf",
      "outputs": [
        {
          "internalType": "uint256",
          "name": "",
          "type": "uint256"
        }
      ],
      "stateMutability": "view",
      "type": "function"
    },
    {
      "inputs": [],
      "name": "ceoAddress",
      "outputs": [
        {
          "internalType": "address",
          "name": "",
          "type": "address"
        }
      ],
      "stateMutability": "view",
      "type": "function"
    },
    {
      "inputs": [],
      "name": "cfoAddress",
      "outputs": [
        {
          "internalType": "address",
          "name": "",
          "type": "address"
        }
      ],
      "stateMutability": "view",
      "type": "function"
    },
    {
      "inputs": [
        {
          "internalType": "uint256",
          "name": "",
          "type": "uint256"
        }
      ],
      "name": "cheerAllowedToAddress",
      "outputs": [
        {
          "internalType": "address",
          "name": "",
          "type": "address"
        }
      ],
      "stateMutability": "view",
      "type": "function"
    },
    {
      "inputs": [],
      "name": "cooAddress",
      "outputs": [
        {
          "internalType": "address",
          "name": "",
          "type": "address"
        }
      ],
      "stateMutability": "view",
      "type": "function"
    },
    {
      "inputs": [
        {
          "internalType": "uint256",
          "name": "",
          "type": "uint256"
        }
      ],
      "name": "cooldowns",
      "outputs": [
        {
          "internalType": "uint32",
          "name": "",
          "type": "uint32"
        }
      ],
      "stateMutability": "view",
      "type": "function"
    },
    {
      "inputs": [
        {
          "internalType": "uint256",
          "name": "tokenId",
          "type": "uint256"
        }
      ],
      "name": "getApproved",
      "outputs": [
        {
          "internalType": "address",
          "name": "",
          "type": "address"
        }
      ],
      "stateMutability": "view",
      "type": "function"
    },
    {
      "inputs": [
        {
          "internalType": "address",
          "name": "owner",
          "type": "address"
        },
        {
          "internalType": "address",
          "name": "operator",
          "type": "address"
        }
      ],
      "name": "isApprovedForAll",
      "outputs": [
        {
          "internalType": "bool",
          "name": "",
          "type": "bool"
        }
      ],
      "stateMutability": "view",
      "type": "function"
    },
    {
      "inputs": [],
      "name": "name",
      "outputs": [
        {
          "internalType": "string",
          "name": "",
          "type": "string"
        }
      ],
      "stateMutability": "view",
      "type": "function"
    },
    {
      "inputs": [
        {
          "internalType": "uint256",
          "name": "tokenId",
          "type": "uint256"
        }
      ],
      "name": "ownerOf",
      "outputs": [
        {
          "internalType": "address",
          "name": "",
          "type": "address"
        }
      ],
      "stateMutability": "view",
      "type": "function"
    },
    {
      "inputs": [],
      "name": "pause",
      "outputs": [],
      "stateMutability": "nonpayable",
      "type": "function"
    },
    {
      "inputs": [],
      "name": "paused",
      "outputs": [
        {
          "internalType": "bool",
          "name": "",
          "type": "bool"
        }
      ],
      "stateMutability": "view",
      "type": "function"
    },
    {
      "inputs": [
        {
          "internalType": "address",
          "name": "from",
          "type": "address"
        },
        {
          "internalType": "address",
          "name": "to",
          "type": "address"
        },
        {
          "internalType": "uint256",
          "name": "tokenId",
          "type": "uint256"
        }
      ],
      "name": "safeTransferFrom",
      "outputs": [],
      "stateMutability": "nonpayable",
      "type": "function"
    },
    {
      "inputs": [
        {
          "internalType": "address",
          "name": "from",
          "type": "address"
        },
        {
          "internalType": "address",
          "name": "to",
          "type": "address"
        },
        {
          "internalType": "uint256",
          "name": "tokenId",
          "type": "uint256"
        },
        {
          "internalType": "bytes",
          "name": "data",
          "type": "bytes"
        }
      ],
      "name": "safeTransferFrom",
      "outputs": [],
      "stateMutability": "nonpayable",
      "type": "function"
    },
    {
      "inputs": [
        {
          "internalType": "address",
          "name": "operator",
          "type": "address"
        },
        {
          "internalType": "bool",
          "name": "approved",
          "type": "bool"
        }
      ],
      "name": "setApprovalForAll",
      "outputs": [],
      "stateMutability": "nonpayable",
      "type": "function"
    },
    {
      "inputs": [
        {
          "internalType": "address",
          "name": "_newCEO",
          "type": "address"
        }
      ],
      "name": "setCEO",
      "outputs": [],
      "stateMutability": "nonpayable",
      "type": "function"
    },
    {
      "inputs": [
        {
          "internalType": "address",
          "name": "_newCOO",
          "type": "address"
        }
      ],
      "name": "setCOO",
      "outputs": [],
      "stateMutability": "nonpayable",
      "type": "function"
    },
    {
      "inputs": [
        {
          "internalType": "bytes4",
          "name": "interfaceId",
          "type": "bytes4"
        }
      ],
      "name": "supportsInterface",
      "outputs": [
        {
          "internalType": "bool",
          "name": "",
          "type": "bool"
        }
      ],
      "stateMutability": "view",
      "type": "function"
    },
    {
      "inputs": [],
      "name": "symbol",
      "outputs": [
        {
          "internalType": "string",
          "name": "",
          "type": "string"
        }
      ],
      "stateMutability": "view",
      "type": "function"
    },
    {
      "inputs": [
        {
          "internalType": "uint256",
          "name": "index",
          "type": "uint256"
        }
      ],
      "name": "tokenByIndex",
      "outputs": [
        {
          "internalType": "uint256",
          "name": "",
          "type": "uint256"
        }
      ],
      "stateMutability": "view",
      "type": "function"
    },
    {
      "inputs": [
        {
          "internalType": "address",
          "name": "owner",
          "type": "address"
        },
        {
          "internalType": "uint256",
          "name": "index",
          "type": "uint256"
        }
      ],
      "name": "tokenOfOwnerByIndex",
      "outputs": [
        {
          "internalType": "uint256",
          "name": "",
          "type": "uint256"
        }
      ],
      "stateMutability": "view",
      "type": "function"
    },
    {
      "inputs": [
        {
          "internalType": "uint256",
          "name": "tokenId",
          "type": "uint256"
        }
      ],
      "name": "tokenURI",
      "outputs": [
        {
          "internalType": "string",
          "name": "",
          "type": "string"
        }
      ],
      "stateMutability": "view",
      "type": "function"
    },
    {
      "inputs": [],
      "name": "totalSupply",
      "outputs": [
        {
          "internalType": "uint256",
          "name": "",
          "type": "uint256"
        }
      ],
      "stateMutability": "view",
      "type": "function"
    },
    {
      "inputs": [
        {
          "internalType": "address",
          "name": "from",
          "type": "address"
        },
        {
          "internalType": "address",
          "name": "to",
          "type": "address"
        },
        {
          "internalType": "uint256",
          "name": "tokenId",
          "type": "uint256"
        }
      ],
      "name": "transferFrom",
      "outputs": [],
      "stateMutability": "nonpayable",
      "type": "function"
    },
    {
      "inputs": [],
      "name": "unpause",
      "outputs": [],
      "stateMutability": "nonpayable",
      "type": "function"
    }
  ],
  "bytecode": "0x60806040526040518060400160405280600881526020017f42756d6d794e4654000000000000000000000000000000000000000000000000815250600d90816200004a91906200060a565b506040518060400160405280600281526020017f4256000000000000000000000000000000000000000000000000000000000000815250600e90816200009191906200060a565b50604051806101000160405280603c63ffffffff1663ffffffff168152602001607863ffffffff1663ffffffff16815260200161012c63ffffffff1663ffffffff16815260200161025863ffffffff1663ffffffff16815260200161070863ffffffff1663ffffffff168152602001610e1063ffffffff1663ffffffff168152602001611c2063ffffffff1663ffffffff16815260200161384063ffffffff1663ffffffff16815250600f9060086200014c929190620002c7565b503480156200015a57600080fd5b50600d80546200016a90620003f9565b80601f01602080910402602001604051908101604052809291908181526020018280546200019890620003f9565b8015620001e95780601f10620001bd57610100808354040283529160200191620001e9565b820191906000526020600020905b815481529060010190602001808311620001cb57829003601f168201915b5050505050600e8054620001fd90620003f9565b80601f01602080910402602001604051908101604052809291908181526020018280546200022b90620003f9565b80156200027c5780601f1062000250576101008083540402835291602001916200027c565b820191906000526020600020905b8154815290600101906020018083116200025e57829003601f168201915b505050505060008060006101000a81548160ff0219169083151502179055508160039081620002ac91906200060a565b508060049081620002be91906200060a565b505050620006f1565b8260086007016008900481019282156200035e5791602002820160005b838211156200032a57835183826101000a81548163ffffffff021916908363ffffffff1602179055509260200192600401602081600301049283019260010302620002e4565b80156200035c5782816101000a81549063ffffffff02191690556004016020816003010492830192600103026200032a565b505b5090506200036d919062000371565b5090565b5b808211156200038c57600081600090555060010162000372565b5090565b600081519050919050565b7f4e487b7100000000000000000000000000000000000000000000000000000000600052604160045260246000fd5b7f4e487b7100000000000000000000000000000000000000000000000000000000600052602260045260246000fd5b600060028204905060018216806200041257607f821691505b602082108103620004285762000427620003ca565b5b50919050565b60008190508160005260206000209050919050565b60006020601f8301049050919050565b600082821b905092915050565b600060088302620004927fffffffffffffffffffffffffffffffffffffffffffffffffffffffffffffffff8262000453565b6200049e868362000453565b95508019841693508086168417925050509392505050565b6000819050919050565b6000819050919050565b6000620004eb620004e5620004df84620004b6565b620004c0565b620004b6565b9050919050565b6000819050919050565b6200050783620004ca565b6200051f6200051682620004f2565b84845462000460565b825550505050565b600090565b6200053662000527565b62000543818484620004fc565b505050565b5b818110156200056b576200055f6000826200052c565b60018101905062000549565b5050565b601f821115620005ba5762000584816200042e565b6200058f8462000443565b810160208510156200059f578190505b620005b7620005ae8562000443565b83018262000548565b50505b505050565b600082821c905092915050565b6000620005df60001984600802620005bf565b1980831691505092915050565b6000620005fa8383620005cc565b9150826002028217905092915050565b620006158262000390565b67ffffffffffffffff8111156200063157620006306200039b565b5b6200063d8254620003f9565b6200064a8282856200056f565b600060209050601f8311600181146200068257600084156200066d578287015190505b620006798582620005ec565b865550620006e9565b601f19841662000692866200042e565b60005b82811015620006bc5784890151825560018201915060208501945060208101905062000695565b86831015620006dc5784890151620006d8601f891682620005cc565b8355505b6001600288020188555050505b505050505050565b6132ee80620007016000396000f3fe608060405234801561001057600080fd5b506004361061018e5760003560e01c80634f6ccce7116100de57806395d89b4111610097578063b047fb5011610071578063b047fb5014610483578063b88d4fde146104a1578063c87b56dd146104bd578063e985e9c5146104ed5761018e565b806395d89b41146104195780639d6fac6f14610437578063a22cb465146104675761018e565b80634f6ccce7146103315780635c975abb146103615780635edbf3601461037f5780636352211e146103af57806370a08231146103df5780638456cb591461040f5761018e565b806318160ddd1161014b5780632ba73c15116101255780632ba73c15146102bf5780632f745c59146102db5780633f4ba83a1461030b57806342842e0e146103155761018e565b806318160ddd1461026957806323b872dd1461028757806327d7874c146102a35761018e565b806301ffc9a7146101935780630519ce79146101c357806306fdde03146101e1578063081812fc146101ff578063095ea7b31461022f5780630a0f81681461024b575b600080fd5b6101ad60048036038101906101a89190612339565b61051d565b6040516101ba9190612381565b60405180910390f35b6101cb610597565b6040516101d891906123dd565b60405180910390f35b6101e96105bd565b6040516101f69190612488565b60405180910390f35b610219600480360381019061021491906124e0565b61064f565b60405161022691906123dd565b60405180910390f35b61024960048036038101906102449190612539565b610695565b005b6102536107ac565b60405161026091906123dd565b60405180910390f35b6102716107d2565b60405161027e9190612588565b60405180910390f35b6102a1600480360381019061029c91906125a3565b6107df565b005b6102bd60048036038101906102b891906125f6565b61083f565b005b6102d960048036038101906102d491906125f6565b610916565b005b6102f560048036038101906102f09190612539565b6109ed565b6040516103029190612588565b60405180910390f35b610313610a92565b005b61032f600480360381019061032a91906125a3565b610af6565b005b61034b600480360381019061034691906124e0565b610b16565b6040516103589190612588565b60405180910390f35b610369610b87565b6040516103769190612381565b60405180910390f35b610399600480360381019061039491906124e0565b610b9d565b6040516103a691906123dd565b60405180910390f35b6103c960048036038101906103c491906124e0565b610bd0565b6040516103d691906123dd565b60405180910390f35b6103f960048036038101906103f491906125f6565b610c56565b6040516104069190612588565b60405180910390f35b610417610d0d565b005b610421610e21565b60405161042e9190612488565b60405180910390f35b610451600480360381019061044c91906124e0565b610eb3565b60405161045e9190612642565b60405180910390f35b610481600480360381019061047c9190612689565b610ee3565b005b61048b610ef9565b60405161049891906123dd565b60405180910390f35b6104bb60048036038101906104b691906127fe565b610f1f565b005b6104d760048036038101906104d291906124e0565b610f81565b6040516104e49190612488565b60405180910390f35b61050760048036038101906105029190612881565b610fe9565b6040516105149190612381565b60405180910390f35b60007f780e9d63000000000000000000000000000000000000000000000000000000007bffffffffffffffffffffffffffffffffffffffffffffffffffffffff1916827bffffffffffffffffffffffffffffffffffffffffffffffffffffffff19161480610590575061058f8261107d565b5b9050919050565b600160009054906101000a900473ffffffffffffffffffffffffffffffffffffffff1681565b6060600380546105cc906128f0565b80601f01602080910402602001604051908101604052809291908181526020018280546105f8906128f0565b80156106455780601f1061061a57610100808354040283529160200191610645565b820191906000526020600020905b81548152906001019060200180831161062857829003601f168201915b5050505050905090565b600061065a8261115f565b6007600083815260200190815260200160002060009054906101000a900473ffffffffffffffffffffffffffffffffffffffff169050919050565b60006106a082610bd0565b90508073ffffffffffffffffffffffffffffffffffffffff168373ffffffffffffffffffffffffffffffffffffffff1603610710576040517f08c379a000000000000000000000000000000000000000000000000000000000815260040161070790612993565b60405180910390fd5b8073ffffffffffffffffffffffffffffffffffffffff1661072f6111aa565b73ffffffffffffffffffffffffffffffffffffffff16148061075e575061075d816107586111aa565b610fe9565b5b61079d576040517f08c379a000000000000000000000000000000000000000000000000000000000815260040161079490612a25565b60405180910390fd5b6107a783836111b2565b505050565b600060019054906101000a900473ffffffffffffffffffffffffffffffffffffffff1681565b6000600b80549050905090565b6107f06107ea6111aa565b8261126b565b61082f576040517f08c379a000000000000000000000000000000000000000000000000000000000815260040161082690612ab7565b60405180910390fd5b61083a838383611300565b505050565b600060019054906101000a900473ffffffffffffffffffffffffffffffffffffffff1673ffffffffffffffffffffffffffffffffffffffff163373ffffffffffffffffffffffffffffffffffffffff161461089957600080fd5b600073ffffffffffffffffffffffffffffffffffffffff168173ffffffffffffffffffffffffffffffffffffffff16036108d257600080fd5b80600060016101000a81548173ffffffffffffffffffffffffffffffffffffffff021916908373ffffffffffffffffffffffffffffffffffffffff16021790555050565b600060019054906101000a900473ffffffffffffffffffffffffffffffffffffffff1673ffffffffffffffffffffffffffffffffffffffff163373ffffffffffffffffffffffffffffffffffffffff161461097057600080fd5b600073ffffffffffffffffffffffffffffffffffffffff168173ffffffffffffffffffffffffffffffffffffffff16036109a957600080fd5b80600260006101000a81548173ffffffffffffffffffffffffffffffffffffffff021916908373ffffffffffffffffffffffffffffffffffffffff16021790555050565b60006109f883610c56565b8210610a39576040517f08c379a0000000000000000000000000000000000000000000000000000000008152600401610a3090612b49565b60405180910390fd5b600960008473ffffffffffffffffffffffffffffffffffffffff1673ffffffffffffffffffffffffffffffffffffffff168152602001908152602001600020600083815260200190815260200160002054905092915050565b600060019054906101000a900473ffffffffffffffffffffffffffffffffffffffff1673ffffffffffffffffffffffffffffffffffffffff163373ffffffffffffffffffffffffffffffffffffffff1614610aec57600080fd5b610af461137b565b565b610b1183838360405180602001604052806000815250610f1f565b505050565b6000610b206107d2565b8210610b61576040517f08c379a0000000000000000000000000000000000000000000000000000000008152600401610b5890612bdb565b60405180910390fd5b600b8281548110610b7557610b74612bfb565b5b90600052602060002001549050919050565b60008060009054906101000a900460ff16905090565b60116020528060005260406000206000915054906101000a900473ffffffffffffffffffffffffffffffffffffffff1681565b600080610bdc836113dd565b9050600073ffffffffffffffffffffffffffffffffffffffff168173ffffffffffffffffffffffffffffffffffffffff1603610c4d576040517f08c379a0000000000000000000000000000000000000000000000000000000008152600401610c4490612c76565b60405180910390fd5b80915050919050565b60008073ffffffffffffffffffffffffffffffffffffffff168273ffffffffffffffffffffffffffffffffffffffff1603610cc6576040517f08c379a0000000000000000000000000000000000000000000000000000000008152600401610cbd90612d08565b60405180910390fd5b600660008373ffffffffffffffffffffffffffffffffffffffff1673ffffffffffffffffffffffffffffffffffffffff168152602001908152602001600020549050919050565b600260009054906101000a900473ffffffffffffffffffffffffffffffffffffffff1673ffffffffffffffffffffffffffffffffffffffff163373ffffffffffffffffffffffffffffffffffffffff161480610db65750600060019054906101000a900473ffffffffffffffffffffffffffffffffffffffff1673ffffffffffffffffffffffffffffffffffffffff163373ffffffffffffffffffffffffffffffffffffffff16145b80610e0e5750600160009054906101000a900473ffffffffffffffffffffffffffffffffffffffff1673ffffffffffffffffffffffffffffffffffffffff163373ffffffffffffffffffffffffffffffffffffffff16145b610e1757600080fd5b610e1f61141a565b565b606060048054610e30906128f0565b80601f0160208091040260200160405190810160405280929190818152602001828054610e5c906128f0565b8015610ea95780601f10610e7e57610100808354040283529160200191610ea9565b820191906000526020600020905b815481529060010190602001808311610e8c57829003601f168201915b5050505050905090565b600f8160088110610ec357600080fd5b60089182820401919006600402915054906101000a900463ffffffff1681565b610ef5610eee6111aa565b838361147c565b5050565b600260009054906101000a900473ffffffffffffffffffffffffffffffffffffffff1681565b610f30610f2a6111aa565b8361126b565b610f6f576040517f08c379a0000000000000000000000000000000000000000000000000000000008152600401610f6690612ab7565b60405180910390fd5b610f7b848484846115e8565b50505050565b6060610f8c8261115f565b6000610f96611644565b90506000815111610fb65760405180602001604052806000815250610fe1565b80610fc08461165b565b604051602001610fd1929190612d64565b6040516020818303038152906040525b915050919050565b6000600860008473ffffffffffffffffffffffffffffffffffffffff1673ffffffffffffffffffffffffffffffffffffffff16815260200190815260200160002060008373ffffffffffffffffffffffffffffffffffffffff1673ffffffffffffffffffffffffffffffffffffffff16815260200190815260200160002060009054906101000a900460ff16905092915050565b60007f80ac58cd000000000000000000000000000000000000000000000000000000007bffffffffffffffffffffffffffffffffffffffffffffffffffffffff1916827bffffffffffffffffffffffffffffffffffffffffffffffffffffffff1916148061114857507f5b5e139f000000000000000000000000000000000000000000000000000000007bffffffffffffffffffffffffffffffffffffffffffffffffffffffff1916827bffffffffffffffffffffffffffffffffffffffffffffffffffffffff1916145b80611158575061115782611729565b5b9050919050565b61116881611793565b6111a7576040517f08c379a000000000000000000000000000000000000000000000000000000000815260040161119e90612c76565b60405180910390fd5b50565b600033905090565b816007600083815260200190815260200160002060006101000a81548173ffffffffffffffffffffffffffffffffffffffff021916908373ffffffffffffffffffffffffffffffffffffffff160217905550808273ffffffffffffffffffffffffffffffffffffffff1661122583610bd0565b73ffffffffffffffffffffffffffffffffffffffff167f8c5be1e5ebec7d5bd14f71427d1e84f3dd0314c0f7b2291e5b200ac8c7c3b92560405160405180910390a45050565b60008061127783610bd0565b90508073ffffffffffffffffffffffffffffffffffffffff168473ffffffffffffffffffffffffffffffffffffffff1614806112b957506112b88185610fe9565b5b806112f757508373ffffffffffffffffffffffffffffffffffffffff166112df8461064f565b73ffffffffffffffffffffffffffffffffffffffff16145b91505092915050565b600073ffffffffffffffffffffffffffffffffffffffff168373ffffffffffffffffffffffffffffffffffffffff161461136b576011600082815260200190815260200160002060006101000a81549073ffffffffffffffffffffffffffffffffffffffff02191690555b6113768383836117d4565b505050565b611383611acd565b60008060006101000a81548160ff0219169083151502179055507f5db9ee0a495bf2e6ff9c91a7834c1ba4fdd244a5e8aa4e537bd38aeae4b073aa6113c66111aa565b6040516113d391906123dd565b60405180910390a1565b60006005600083815260200190815260200160002060009054906101000a900473ffffffffffffffffffffffffffffffffffffffff169050919050565b611422611b16565b60016000806101000a81548160ff0219169083151502179055507f62e78cea01bee320cd4e420270b5ea74000d11b0c9f74754ebdbfc544b05a2586114656111aa565b60405161147291906123dd565b60405180910390a1565b8173ffffffffffffffffffffffffffffffffffffffff168373ffffffffffffffffffffffffffffffffffffffff16036114ea576040517f08c379a00000000000000000000000000000000000000000000000000000000081526004016114e190612dd4565b60405180910390fd5b80600860008573ffffffffffffffffffffffffffffffffffffffff1673ffffffffffffffffffffffffffffffffffffffff16815260200190815260200160002060008473ffffffffffffffffffffffffffffffffffffffff1673ffffffffffffffffffffffffffffffffffffffff16815260200190815260200160002060006101000a81548160ff0219169083151502179055508173ffffffffffffffffffffffffffffffffffffffff168373ffffffffffffffffffffffffffffffffffffffff167f17307eab39ab6107e8899845ad3d59bd9653f200f220920489ca2b5937696c31836040516115db9190612381565b60405180910390a3505050565b6115f3848484611300565b6115ff84848484611b60565b61163e576040517f08c379a000000000000000000000000000000000000000000000000000000000815260040161163590612e66565b60405180910390fd5b50505050565b606060405180602001604052806000815250905090565b60606000600161166a84611ce7565b01905060008167ffffffffffffffff811115611689576116886126d3565b5b6040519080825280601f01601f1916602001820160405280156116bb5781602001600182028036833780820191505090505b509050600082602001820190505b60011561171e578080600190039150507f3031323334353637383961626364656600000000000000000000000000000000600a86061a8153600a858161171257611711612e86565b5b049450600085036116c9575b819350505050919050565b60007f01ffc9a7000000000000000000000000000000000000000000000000000000007bffffffffffffffffffffffffffffffffffffffffffffffffffffffff1916827bffffffffffffffffffffffffffffffffffffffffffffffffffffffff1916149050919050565b60008073ffffffffffffffffffffffffffffffffffffffff166117b5836113dd565b73ffffffffffffffffffffffffffffffffffffffff1614159050919050565b8273ffffffffffffffffffffffffffffffffffffffff166117f482610bd0565b73ffffffffffffffffffffffffffffffffffffffff161461184a576040517f08c379a000000000000000000000000000000000000000000000000000000000815260040161184190612f27565b60405180910390fd5b600073ffffffffffffffffffffffffffffffffffffffff168273ffffffffffffffffffffffffffffffffffffffff16036118b9576040517f08c379a00000000000000000000000000000000000000000000000000000000081526004016118b090612fb9565b60405180910390fd5b6118c68383836001611e3a565b8273ffffffffffffffffffffffffffffffffffffffff166118e682610bd0565b73ffffffffffffffffffffffffffffffffffffffff161461193c576040517f08c379a000000000000000000000000000000000000000000000000000000000815260040161193390612f27565b60405180910390fd5b6007600082815260200190815260200160002060006101000a81549073ffffffffffffffffffffffffffffffffffffffff02191690556001600660008573ffffffffffffffffffffffffffffffffffffffff1673ffffffffffffffffffffffffffffffffffffffff168152602001908152602001600020600082825403925050819055506001600660008473ffffffffffffffffffffffffffffffffffffffff1673ffffffffffffffffffffffffffffffffffffffff16815260200190815260200160002060008282540192505081905550816005600083815260200190815260200160002060006101000a81548173ffffffffffffffffffffffffffffffffffffffff021916908373ffffffffffffffffffffffffffffffffffffffff160217905550808273ffffffffffffffffffffffffffffffffffffffff168473ffffffffffffffffffffffffffffffffffffffff167fddf252ad1be2c89b69c2b068fc378daa952ba7f163c4a11628f55a4df523b3ef60405160405180910390a4611ac88383836001611f98565b505050565b611ad5610b87565b611b14576040517f08c379a0000000000000000000000000000000000000000000000000000000008152600401611b0b90613025565b60405180910390fd5b565b611b1e610b87565b15611b5e576040517f08c379a0000000000000000000000000000000000000000000000000000000008152600401611b5590613091565b60405180910390fd5b565b6000611b818473ffffffffffffffffffffffffffffffffffffffff16611f9e565b15611cda578373ffffffffffffffffffffffffffffffffffffffff1663150b7a02611baa6111aa565b8786866040518563ffffffff1660e01b8152600401611bcc9493929190613106565b6020604051808303816000875af1925050508015611c0857506040513d601f19601f82011682018060405250810190611c059190613167565b60015b611c8a573d8060008114611c38576040519150601f19603f3d011682016040523d82523d6000602084013e611c3d565b606091505b506000815103611c82576040517f08c379a0000000000000000000000000000000000000000000000000000000008152600401611c7990612e66565b60405180910390fd5b805181602001fd5b63150b7a0260e01b7bffffffffffffffffffffffffffffffffffffffffffffffffffffffff1916817bffffffffffffffffffffffffffffffffffffffffffffffffffffffff191614915050611cdf565b600190505b949350505050565b600080600090507a184f03e93ff9f4daa797ed6e38ed64bf6a1f0100000000000000008310611d45577a184f03e93ff9f4daa797ed6e38ed64bf6a1f0100000000000000008381611d3b57611d3a612e86565b5b0492506040810190505b6d04ee2d6d415b85acef81000000008310611d82576d04ee2d6d415b85acef81000000008381611d7857611d77612e86565b5b0492506020810190505b662386f26fc100008310611db157662386f26fc100008381611da757611da6612e86565b5b0492506010810190505b6305f5e1008310611dda576305f5e1008381611dd057611dcf612e86565b5b0492506008810190505b6127108310611dff576127108381611df557611df4612e86565b5b0492506004810190505b60648310611e225760648381611e1857611e17612e86565b5b0492506002810190505b600a8310611e31576001810190505b80915050919050565b611e4684848484611fc1565b6001811115611e8a576040517f08c379a0000000000000000000000000000000000000000000000000000000008152600401611e8190613206565b60405180910390fd5b6000829050600073ffffffffffffffffffffffffffffffffffffffff168573ffffffffffffffffffffffffffffffffffffffff1603611ed157611ecc81611fc7565b611f10565b8373ffffffffffffffffffffffffffffffffffffffff168573ffffffffffffffffffffffffffffffffffffffff1614611f0f57611f0e8582612010565b5b5b600073ffffffffffffffffffffffffffffffffffffffff168473ffffffffffffffffffffffffffffffffffffffff1603611f5257611f4d8161217d565b611f91565b8473ffffffffffffffffffffffffffffffffffffffff168473ffffffffffffffffffffffffffffffffffffffff1614611f9057611f8f848261224e565b5b5b5050505050565b50505050565b6000808273ffffffffffffffffffffffffffffffffffffffff163b119050919050565b50505050565b600b80549050600c600083815260200190815260200160002081905550600b81908060018154018082558091505060019003906000526020600020016000909190919091505550565b6000600161201d84610c56565b6120279190613255565b90506000600a600084815260200190815260200160002054905081811461210c576000600960008673ffffffffffffffffffffffffffffffffffffffff1673ffffffffffffffffffffffffffffffffffffffff168152602001908152602001600020600084815260200190815260200160002054905080600960008773ffffffffffffffffffffffffffffffffffffffff1673ffffffffffffffffffffffffffffffffffffffff16815260200190815260200160002060008481526020019081526020016000208190555081600a600083815260200190815260200160002081905550505b600a600084815260200190815260200160002060009055600960008573ffffffffffffffffffffffffffffffffffffffff1673ffffffffffffffffffffffffffffffffffffffff16815260200190815260200160002060008381526020019081526020016000206000905550505050565b60006001600b805490506121919190613255565b90506000600c60008481526020019081526020016000205490506000600b83815481106121c1576121c0612bfb565b5b9060005260206000200154905080600b83815481106121e3576121e2612bfb565b5b906000526020600020018190555081600c600083815260200190815260200160002081905550600c600085815260200190815260200160002060009055600b80548061223257612231613289565b5b6001900381819060005260206000200160009055905550505050565b600061225983610c56565b905081600960008573ffffffffffffffffffffffffffffffffffffffff1673ffffffffffffffffffffffffffffffffffffffff16815260200190815260200160002060008381526020019081526020016000208190555080600a600084815260200190815260200160002081905550505050565b6000604051905090565b600080fd5b600080fd5b60007fffffffff0000000000000000000000000000000000000000000000000000000082169050919050565b612316816122e1565b811461232157600080fd5b50565b6000813590506123338161230d565b92915050565b60006020828403121561234f5761234e6122d7565b5b600061235d84828501612324565b91505092915050565b60008115159050919050565b61237b81612366565b82525050565b60006020820190506123966000830184612372565b92915050565b600073ffffffffffffffffffffffffffffffffffffffff82169050919050565b60006123c78261239c565b9050919050565b6123d7816123bc565b82525050565b60006020820190506123f260008301846123ce565b92915050565b600081519050919050565b600082825260208201905092915050565b60005b83811015612432578082015181840152602081019050612417565b60008484015250505050565b6000601f19601f8301169050919050565b600061245a826123f8565b6124648185612403565b9350612474818560208601612414565b61247d8161243e565b840191505092915050565b600060208201905081810360008301526124a2818461244f565b905092915050565b6000819050919050565b6124bd816124aa565b81146124c857600080fd5b50565b6000813590506124da816124b4565b92915050565b6000602082840312156124f6576124f56122d7565b5b6000612504848285016124cb565b91505092915050565b612516816123bc565b811461252157600080fd5b50565b6000813590506125338161250d565b92915050565b600080604083850312156125505761254f6122d7565b5b600061255e85828601612524565b925050602061256f858286016124cb565b9150509250929050565b612582816124aa565b82525050565b600060208201905061259d6000830184612579565b92915050565b6000806000606084860312156125bc576125bb6122d7565b5b60006125ca86828701612524565b93505060206125db86828701612524565b92505060406125ec868287016124cb565b9150509250925092565b60006020828403121561260c5761260b6122d7565b5b600061261a84828501612524565b91505092915050565b600063ffffffff82169050919050565b61263c81612623565b82525050565b60006020820190506126576000830184612633565b92915050565b61266681612366565b811461267157600080fd5b50565b6000813590506126838161265d565b92915050565b600080604083850312156126a05761269f6122d7565b5b60006126ae85828601612524565b92505060206126bf85828601612674565b9150509250929050565b600080fd5b600080fd5b7f4e487b7100000000000000000000000000000000000000000000000000000000600052604160045260246000fd5b61270b8261243e565b810181811067ffffffffffffffff8211171561272a576127296126d3565b5b80604052505050565b600061273d6122cd565b90506127498282612702565b919050565b600067ffffffffffffffff821115612769576127686126d3565b5b6127728261243e565b9050602081019050919050565b82818337600083830152505050565b60006127a161279c8461274e565b612733565b9050828152602081018484840111156127bd576127bc6126ce565b5b6127c884828561277f565b509392505050565b600082601f8301126127e5576127e46126c9565b5b81356127f584826020860161278e565b91505092915050565b60008060008060808587031215612818576128176122d7565b5b600061282687828801612524565b945050602061283787828801612524565b9350506040612848878288016124cb565b925050606085013567ffffffffffffffff811115612869576128686122dc565b5b612875878288016127d0565b91505092959194509250565b60008060408385031215612898576128976122d7565b5b60006128a685828601612524565b92505060206128b785828601612524565b9150509250929050565b7f4e487b7100000000000000000000000000000000000000000000000000000000600052602260045260246000fd5b6000600282049050600182168061290857607f821691505b60208210810361291b5761291a6128c1565b5b50919050565b7f4552433732313a20617070726f76616c20746f2063757272656e74206f776e6560008201527f7200000000000000000000000000000000000000000000000000000000000000602082015250565b600061297d602183612403565b915061298882612921565b604082019050919050565b600060208201905081810360008301526129ac81612970565b9050919050565b7f4552433732313a20617070726f76652063616c6c6572206973206e6f7420746f60008201527f6b656e206f776e6572206f7220617070726f76656420666f7220616c6c000000602082015250565b6000612a0f603d83612403565b9150612a1a826129b3565b604082019050919050565b60006020820190508181036000830152612a3e81612a02565b9050919050565b7f4552433732313a2063616c6c6572206973206e6f7420746f6b656e206f776e6560008201527f72206f7220617070726f76656400000000000000000000000000000000000000602082015250565b6000612aa1602d83612403565b9150612aac82612a45565b604082019050919050565b60006020820190508181036000830152612ad081612a94565b9050919050565b7f455243373231456e756d657261626c653a206f776e657220696e646578206f7560008201527f74206f6620626f756e6473000000000000000000000000000000000000000000602082015250565b6000612b33602b83612403565b9150612b3e82612ad7565b604082019050919050565b60006020820190508181036000830152612b6281612b26565b9050919050565b7f455243373231456e756d657261626c653a20676c6f62616c20696e646578206f60008201527f7574206f6620626f756e64730000000000000000000000000000000000000000602082015250565b6000612bc5602c83612403565b9150612bd082612b69565b604082019050919050565b60006020820190508181036000830152612bf481612bb8565b9050919050565b7f4e487b7100000000000000000000000000000000000000000000000000000000600052603260045260246000fd5b7f4552433732313a20696e76616c696420746f6b656e2049440000000000000000600082015250565b6000612c60601883612403565b9150612c6b82612c2a565b602082019050919050565b60006020820190508181036000830152612c8f81612c53565b9050919050565b7f4552433732313a2061646472657373207a65726f206973206e6f74206120766160008201527f6c6964206f776e65720000000000000000000000000000000000000000000000602082015250565b6000612cf2602983612403565b9150612cfd82612c96565b604082019050919050565b60006020820190508181036000830152612d2181612ce5565b9050919050565b600081905092915050565b6000612d3e826123f8565b612d488185612d28565b9350612d58818560208601612414565b80840191505092915050565b6000612d708285612d33565b9150612d7c8284612d33565b91508190509392505050565b7f4552433732313a20617070726f766520746f2063616c6c657200000000000000600082015250565b6000612dbe601983612403565b9150612dc982612d88565b602082019050919050565b60006020820190508181036000830152612ded81612db1565b9050919050565b7f4552433732313a207472616e7366657220746f206e6f6e20455243373231526560008201527f63656976657220696d706c656d656e7465720000000000000000000000000000602082015250565b6000612e50603283612403565b9150612e5b82612df4565b604082019050919050565b60006020820190508181036000830152612e7f81612e43565b9050919050565b7f4e487b7100000000000000000000000000000000000000000000000000000000600052601260045260246000fd5b7f4552433732313a207472616e736665722066726f6d20696e636f72726563742060008201527f6f776e6572000000000000000000000000000000000000000000000000000000602082015250565b6000612f11602583612403565b9150612f1c82612eb5565b604082019050919050565b60006020820190508181036000830152612f4081612f04565b9050919050565b7f4552433732313a207472616e7366657220746f20746865207a65726f2061646460008201527f7265737300000000000000000000000000000000000000000000000000000000602082015250565b6000612fa3602483612403565b9150612fae82612f47565b604082019050919050565b60006020820190508181036000830152612fd281612f96565b9050919050565b7f5061757361626c653a206e6f7420706175736564000000000000000000000000600082015250565b600061300f601483612403565b915061301a82612fd9565b602082019050919050565b6000602082019050818103600083015261303e81613002565b9050919050565b7f5061757361626c653a2070617573656400000000000000000000000000000000600082015250565b600061307b601083612403565b915061308682613045565b602082019050919050565b600060208201905081810360008301526130aa8161306e565b9050919050565b600081519050919050565b600082825260208201905092915050565b60006130d8826130b1565b6130e281856130bc565b93506130f2818560208601612414565b6130fb8161243e565b840191505092915050565b600060808201905061311b60008301876123ce565b61312860208301866123ce565b6131356040830185612579565b818103606083015261314781846130cd565b905095945050505050565b6000815190506131618161230d565b92915050565b60006020828403121561317d5761317c6122d7565b5b600061318b84828501613152565b91505092915050565b7f455243373231456e756d657261626c653a20636f6e736563757469766520747260008201527f616e7366657273206e6f7420737570706f727465640000000000000000000000602082015250565b60006131f0603583612403565b91506131fb82613194565b604082019050919050565b6000602082019050818103600083015261321f816131e3565b9050919050565b7f4e487b7100000000000000000000000000000000000000000000000000000000600052601160045260246000fd5b6000613260826124aa565b915061326b836124aa565b925082820390508181111561328357613282613226565b5b92915050565b7f4e487b7100000000000000000000000000000000000000000000000000000000600052603160045260246000fdfea2646970667358221220b6a6f54beb48bb50d6f69840d104f818e5800cfb70c13470ca5fb1f4c6c8f17064736f6c63430008110033",
  "linkReferences": {},
  "deployedLinkReferences": {}
}